:020000040800F2
:10000000A8040020B102000813200008CD1F00083A
:1000100011200008E9030008453C0008000000002A
:100020000000000000000000000000006122000845
:10003000EB03000800000000152000086D230008F5
:10004000CB020008CB020008CB020008CB0200085C
:10005000CB020008CB020008CB020008CB0200084C
:10006000CB020008CB020008CB020008CB0200083C
:10007000CB020008CB020008CB020008CB0200082C
:10008000CB020008CB020008CB020008CB0200081C
:10009000CB020008CB020008CB020008CB0200080C
:1000A000CB020008CB020008CB020008CB020008FC
:1000B000CB020008CB020008CB020008CB020008EC
:1000C000CB020008CB020008CB020008CB020008DC
:1000D000CB020008CB020008CB020008CB020008CC
:1000E000CB020008CB02000800000000CB02000891
:1000F000CB020008CB020008CB020008CB020008AC
:10010000CB020008CB020008CB020008CB0200089B
:10011000CB020008CB020008CB020008CB0200088B
:10012000CB020008CB020008CB020008CB0200087B
:10013000CB020008CB020008CB020008CB0200086B
:1001400000000000000000000000000000000000AF
:10015000CB020008CB020008CB020008CB0200084B
:10016000CB020008CB020008CB020008CB0200083B
:10017000CB020008CB020008CB020008CB0200082B
:10018000CB020008CB020008CB020008CB0200081B
:10019000CB020008CB020008CB020008CB0200080B
:1001A000CB020008CB020008CB020008CB020008FB
:1001B000CB020008CB020008CB020008CB020008EB
:1001C000CB020008CB020008CB020008CB020008DB
:1001D000CB020008CB020008CB020008CB020008CB
:1001E000CB020008CB020008CB020008CB020008BB
:1001F000CB020008CB020008CB020008CB020008AB
:10020000CB020008CB020008CB020008CB0200089A
:10021000CB020008CB020008CB020008CB0200088A
:10022000CB020008CB020008CB020008000000004F
:10023000CB020008CB02000800000000CB0200083F
:10024000CB020008CB020008CB020008CB0200085A
:10025000CB020008CB020008CB020008CB0200084A
:10026000CB020008CB020008CB020008CB0200083A
:10027000CB020008CB020008CB02000800000000FF
:10028000CB020008CB020008CB02000800000000EF
:1002900000000000CB020008DFF810D000F092F858
:1002A00000480047853E0008AFF30080A804002006
:1002B0000648804706480047FEE7FEE7FEE7FEE700
:1002C000FEE7FEE7FEE7FEE7FEE7FEE71124000893
:1002D000990200082DE9F05F0546002092469B46F2
:1002E00088460646814640241BE02846414647464C
:1002F000224600F057F853465A46C01A914110D38F
:1003000011461846224600F03EF82D1A67EB010808
:100310004F4622460120002100F035F817EB000976
:100320004E41201EA4F10104DFDC484631462A4636
:100330004346BDE8F09FD2B201E000F8012B491E10
:10034000FBD270470022F6E710B513460A46044672
:100350001946FFF7F0FF204610BD30B50B460146A9
:1003600000202022012409E021FA02F59D4205D354
:1003700003FA02F5491B04FA02F52844151EA2F1FE
:100380000102F1DC30BD202A04DB203A00FA02F140
:10039000002070479140C2F1200320FA03F3194373
:1003A00090407047202A04DB203A21FA02F0002115
:1003B000704721FA02F3D040C2F120029140084375
:1003C00019467047064C074D06E0E06840F001030F
:1003D00094E8070098471034AC42F6D3FFF760FF6B
:1003E000543F0008743F0008FEE770472DE9F84FBE
:1003F00000226E4C4FF0B0494FF0010A4FF0030E4F
:100400004FF00F08CAE00AFA02F73B40002B70D009
:100410004D68022D01D0122D12D1D50800EB850CAC
:10042000DCF820605507ED0E08FA05FB26EA0B06FE
:10043000D1F810B00BFA05FB4BEA060BCCF820B054
:10044000D0F800C055000EFA05F62CEA060C91F81B
:1004500004B00BF0030B0BFA05FB4BEA0C0BC0F8D6
:1004600000B0D1F804C0BCF1010F08D0BCF1020FFC
:1004700005D0BCF1110F02D0BCF1120F16D1D0F88B
:1004800008C02CEA060CD1F80CB00BFA05FB4BEABD
:100490000C0BC0F808B0D0F804C02CEA070C0F7998
:1004A000C7F30017974047EA0C074760C768B74390
:1004B0008E68AE403E43C6604D68ED006DD53C4D44
:1004C0002E6846F002062E602D6805F002050095A4
:1004D00022F0030606F1B046D6F808C495072F0FA0
:1004E00008FA07F52CEA050C324DA84202D1002586
:1004F0002EE052E0304DA84201D1012528E02F4DD9
:10050000A84201D1022523E02D4DA84201D10325A7
:100510001EE02C4DA84201D1042519E02A4DA84225
:1005200001D1052514E0294DA84201D106250FE08F
:10053000274DA84201D107250AE0264DA84201D146
:10054000082505E0244DA84201D1092500E00A252F
:10055000BD4045EA0C05C6F8085425689D434E6821
:10056000F60300D51D43256065689D434E68B603BC
:1005700000D51D436560D9F800509D434E68F602D2
:1005800000D51D43C9F80050D9F804509D434E686A
:10059000B60200D51D43C9F80450521C0B6833FA4B
:1005A00002F57FF430AFBDE8F88F000080000058FE
:1005B000F44402580000025800040258000802588F
:1005C000000C02580010025800140258001802587B
:1005D000001C0258002002580024025801480068FC
:1005E000000C70470010005C044840680449B0FBF0
:1005F000F1F04FF47A71484370470000001000E0BA
:1006000000389C1C0648016841F080710160054873
:1006100000214160016841F0010101600020704744
:10062000FCED00E0001000E070B512490A685207C6
:1006300006D40A6802F00702824201D0012070BD90
:100640000A6822F0070202430A60FFF7CDFF044662
:10065000084D4FF47A76083D06E0FFF7C5FF001B12
:10066000B04201D9032070BD28688004F5D5002070
:1006700070BD00000C48025810B500F0DFFF0649BD
:100680000968064AC1F30321515C01F01F01C8400B
:100690000349086010BD000018440258443F000898
:1006A0000000002010B500F08FFF05490968054AD9
:1006B000C1F30211515C01F01F01C84010BD0000E0
:1006C00020440258443F000810B569490A6802F006
:1006D00003020968C1F30531654B1B1D1B6803F05C
:1006E0001003634C14342468C4F3CC0414FB03F3E8
:1006F00000EE103AB8EE400A002971D09FED5D1A65
:100700005B4BF7EE000A1033F2B39FED5B2A012A30
:100710007FD0022A7CD001EE901A1968F8EE611A97
:10072000C2EE212AC1F3080101EE901AF8EE611A17
:1007300040EE011A31EEA00A22EE800A1968C1F3D8
:10074000462101EE101AB8EE411A31EE201AC0EE21
:10075000011ABCEEE11A80ED001A1968C1F30641D6
:1007600001EE101AB8EE411A31EE201AC0EE011A4D
:10077000BCEEE11A80ED011A1968C1F3066101EEC1
:10078000101AB8EE411A00E008E071EE200A80EE7F
:10079000201ABCEEC10A80ED020A10BD344A283A84
:1007A0001468A4061ED51268C2F3C104334AE2409D
:1007B00001EE902AF8EE612A01EE901A1968F8EE1F
:1007C000611A82EEA12AC1F3080101EE901AF8EE37
:1007D000611A40EE011A31EEA00A22EE000AADE7DE
:1007E00041E016E001EE901ADFED252A1968F8EED7
:1007F000611A82EEA12AC1F3080101EE901AF8EE07
:10080000611A40EE011A31EEA00A22EE000A95E7C5
:1008100013E001EE901A1968F8EE611AC2EE212A6F
:10082000C1F3080101EE901AF8EE611A40EE011AC8
:1008300031EEA00A22EE800A80E701EE901ADFED89
:10084000112A1968F8EE611A82EEA12AC1F3080193
:1008500001EE901AF8EE611A40EE011A31EEA00A8C
:1008600022EE000A6AE7002101604160816010BD4C
:1008700028440258000000390024744A0090D00334
:100880000024744C20BCBE4B10B569490A6802F0C4
:1008900003020968C1F30551654B1B1D1B6803F476
:1008A0008073634C1C342468C4F3CC0414FB03F33E
:1008B00000EE103AB8EE400A002971D09FED5D1AA3
:1008C0005B4BF7EE000A1833F2B39FED5B2A012A67
:1008D0007FD0022A7CD001EE901A1968F8EE611AD6
:1008E000C2EE212AC1F3080101EE901AF8EE611A56
:1008F00040EE011A31EEA00A22EE800A1968C1F317
:10090000462101EE101AB8EE411A31EE201AC0EE5F
:10091000011ABCEEE11A80ED001A1968C1F3064114
:1009200001EE101AB8EE411A31EE201AC0EE011A8B
:10093000BCEEE11A80ED011A1968C1F3066101EEFF
:10094000101AB8EE411A00E008E071EE200A80EEBD
:10095000201ABCEEC10A80ED020A10BD344A283AC2
:100960001468A4061ED51268C2F3C104334AE240DB
:1009700001EE902AF8EE612A01EE901A1968F8EE5D
:10098000611A82EEA12AC1F3080101EE901AF8EE75
:10099000611A40EE011A31EEA00A22EE000AADE71C
:1009A00041E016E001EE901ADFED252A1968F8EE15
:1009B000611A82EEA12AC1F3080101EE901AF8EE45
:1009C000611A40EE011A31EEA00A22EE000A95E704
:1009D00013E001EE901A1968F8EE611AC2EE212AAE
:1009E000C1F3080101EE901AF8EE611A40EE011A07
:1009F00031EEA00A22EE800A80E701EE901ADFEDC8
:100A0000112A1968F8EE611A82EEA12AC1F30801D1
:100A100001EE901AF8EE611A40EE011A31EEA00ACA
:100A200022EE000A6AE7002101604160816010BD8A
:100A300028440258000000390024744A0090D00372
:100A40000024744C20BCBE4B2DE9F84F0446002511
:100A50000026FB4F2068DFF8EC83010104F124003D
:100A600000900DD5606EB0B1B0F5801F18D0B0F514
:100A7000001F1BD0B0F5401F00D00125E5B12E4668
:100A80002088C00535D5606D05282FD2DFE800F03D
:100A90001D22282F2F00386840F400303860EDE721
:100AA0000221201D01F0B8FA0546E7E7009802216F
:100AB00001F044FB0546E1E7D8F80000616E20F440
:100AC00040100843C8F80000DAE7386840F4003006
:100AD00038600CE00021201D01F09EFA054606E07A
:100AE0000098002101F02AFB054600E001255DB1D8
:100AF0002E462088800518D5A06D802830D00CDCCB
:100B000018B340280ED125E0D8F80000616D20F020
:100B100007000843C8F80000EBE7C02803D0B0F591
:100B2000807F00D001250DB32E462088DFF8189372
:100B300040052DD5D4F8A400B0F5800F42D01EDCBE
:100B4000A0B3B0F5001F20D136E0386840F4003083
:100B50003860E8E70021201D01F05EFA0546E2E773
:100B60000098002101F0EAFA0546DCE7D8F8000019
:100B7000A16D20F4E0700843C8F80000D5E7B0F597
:100B8000C00F03D0B0F5000F00D0012505B32E46ED
:100B9000208800052FD5D4F8A800B0F1007F52D0EE
:100BA00020DCE8B3B0F1807F22D146E0FFE738686F
:100BB00040F400303860E9E70021201D01F02CFAF4
:100BC0000546E3E70098002101F0B8FA0546DDE7A5
:100BD000D9F80000D4F8A41020F460000843C9F844
:100BE0000000D5E7B0F1407F03D0B0F1806F00D0B6
:100BF000012575B32E46206880010AD5A06C30B15E
:100C0000102831D0202835D0302800D0012585B3D8
:100C10002E462088C00446D5E06DB0F5005F00E0A8
:100C200006E05BD036DCA0B3B0F5805F38D14FE092
:100C3000386840F400303860DBE70021201D01F007
:100C4000EBF90546D5E70098002101F077FA054653
:100C5000CFE7FFE7D9F80000D4F8A81020F0E06053
:100C60000843C9F80000C6E7386840F4003038602F
:100C7000CDE705E00221201D01F0CEF90546C6E7CB
:100C80007048001F0168A26C21F03001114301601F
:100C9000BFE718E0B0F5405F03D0B0F5804F00D05B
:100CA00001250DB32E46208880042FD5206EB0F587
:100CB000403F29D021DC38B3B0F5803F37D0B0F5C4
:100CC000003F20D139E0386840F400303860E8E770
:100CD0000021201D01F0A0F90546E2E7009800215F
:100CE00001F02CFA0546DCE7D8F80000E16D20F4AD
:100CF000E0400843C8F80000D5E7B0F5802F03D0E6
:100D0000B0F5A02F00D00125EDB12E46208840047B
:100D10002BD5D4F8AC00B0F1405F24D01CDC10B36C
:100D2000B0F1805F4BD0B0F1005F1BD14EE00121EC
:100D3000201D01F071F90546E6E70098012101F058
:100D4000FDF90546E0E7D8F80000216E20F4E02028
:100D50000843C8F80000D9E7B0F1804F03D0B0F1E4
:100D6000A04F00D0012585B32E46208800040AD567
:100D7000E06E30B1B0F1805F39D0B0F1005F3BD0B0
:100D800001259DB32E462068C0010AD5606C30B1A4
:100D9000012841D0022844D0032800D001258DB37A
:100DA0002E462068DFF8A4B0400261D528480168CB
:100DB00041F480710160FFF717FC824652E0012187
:100DC000201D01F029F90546CDE705E00098012135
:100DD00001F0B4F90546C6E7D9F80000D4F8AC1024
:100DE00020F0E0400843C9F80000BEE70BE0386897
:100DF00040F400303860C4E70121201D01F00CF9F7
:100E00000546BEE713E0D8F80000E16E20F0405040
:100E10000843C8F80000B6E7386840F4003038608E
:100E2000BDE70221201D01F0F7F80546B7E70548A8
:100E3000001F0168626C21F0030111430160B0E7FB
:100E40002C44025850440258584402581044025846
:100E500000480258FFF7C8FBA0EB0A00642801D93C
:100E6000032503E0FE480068C005F3D57DB12E469A
:100E70002078DFF8F0A3C00766D0A06F182861D0F3
:100E80005BDC80B308286AD010285AD16DE0F548A1
:100E90001C30006800F44071B4F8B00000F44070F9
:100EA00081420DD0EF481C30016821F44071026886
:100EB00042F480320260026822F4803202600160F3
:100EC000D4F8B000B0F5807F13D1FFF78DFB8246D8
:100ED0000AE0FFF789FBA0EB0A0141F2883081426A
:100EE00002D9032505E02DE0DE481C3000688007AC
:100EF000EFD50DB12E46BBE7D4F8B000C0F3012109
:100F000003290FD0DBF8000020F47C50CBF8000060
:100F1000D4481C300168B4F8B020C2F30B0211436E
:100F20000160A5E7DBF80010CF4A21F47C511040A6
:100F300041EA1010CBF80000EAE7202802D0282868
:100F400000D00125BDB12E46207880072BD5606FDB
:100F5000062825D2DFE800F025181E2525250121C9
:100F6000201D01F059F80546ECE70098012101F039
:100F7000E5F80546E6E7DAF80000A16F20F0380052
:100F80000843CAF80000DFE70121201D01F044F802
:100F9000054606E00098012101F0D0F8054600E082
:100FA000012565B12E462078400720D5D4F8900061
:100FB000062819D2DFE800F0190C12191919DAF80D
:100FC0000000616F20F007000843CAF80000EAE75C
:100FD0000121201D01F020F8054606E000980121BE
:100FE00001F0ACF8054600E001258DB12E462078D1
:100FF000800620D5D4F88C00B0F1405F19D011DC08
:10100000B8B1B0F1805F27D0B0F1005F10D129E016
:10101000D9F80000D4F8901020F007000843C9F870
:101020000000E4E7B0F1804F03D0B0F1A04F00D052
:101030000125EDB12E46207840062CD5D4F8980035
:10104000B0F5406F25D01DDC18B3B0F5806F33D0FC
:10105000B0F5006F1CD135E00021201D00F0DCFF51
:101060000546E6E70098022101F068F80546E0E74A
:10107000DAF80000D4F88C1020F0E0400843CAF8F9
:101080000000D8E7B0F5805F03D0B0F5A05F00D0D6
:101090000125EDB12E46207800062CD5D4F89C0011
:1010A000B0F5C04F25D01DDC18B3B0F5005F7CD083
:1010B000B0F5804F1CD1E0E00021201D00F0ACFF16
:1010C0000546E6E70098022101F038F80546E0E71A
:1010D000D9F80000D4F8981020F4E0500843C9F87B
:1010E0000000D8E7B0F5004F03D0B0F5204F00D096
:1010F0000125EDB32E46207800070BD5D4F88000EB
:10110000B0F5805F75D0DAF8001021F4405101434A
:10111000CAF800102078C0060BD5D4F89400B0F5BA
:10112000807F68D0D9F8001021F440710143C9F8DC
:101130000010206800030BD5D4F8A000B0B3B0F5C0
:10114000803F7DD0B0F5003F00D001257DB32E4615
:10115000206840030FD5D4F88400B0F5801F71D00B
:10116000B0F5001F6FD0B0F5401F00D0012500E0A2
:1011700089E0E5B32E462068C00307D5E06CB8B31C
:10118000B0F5803F72D00125A5B32E4620688000BF
:1011900005D50098022100F0D1FF00B1012620689A
:1011A000800311D5E06F68B102E060E089E094E06F
:1011B000B0F5807F71D0B0F5007F03D0B0F5407FEF
:1011C00000D00125EDB32E462068C00207D5D8F81F
:1011D0000000216F20F000400843C8F8000020689C
:1011E000C0000ED5DBF8000020F4804004E089E068
:1011F00092E053E09BE05AE0D4F8B4100843CBF8F7
:1012000000002068800207D5D8F80000A16E20F009
:1012100080700843C8F80000206840000CD5DBF857
:10122000000020F40040CBF80000DBF80000D4F808
:10123000B8100843CBF80000206800280CDA03E05F
:1012400045E081E053E057E0064808380168226D28
:1012500021F040511143016096B30120BDE8F88FA1
:101260000048025854440258FFFCFF0F59E0002187
:10127000201D00F0D1FE05463BE70098022100F05A
:101280005DFF054635E7D9F80000D4F89C1020F43E
:1012900060400843C9F800002DE750E000980221A3
:1012A00000F04CFF00283FF435AF012632E70098EC
:1012B000022100F043FF00283FF43BAF012638E74E
:1012C0004BE00021201D00F0A7FE05463EE70098F8
:1012D000022100F033FF054638E7D9F80000D4F8C2
:1012E000A01020F440300843C9F8000030E7386807
:1012F00040F4003038603AE70098012100F01EFF0A
:10130000054634E7DAF80000D4F8841020F44010E1
:101310000843CAF800002EE7386840F4003038600F
:1013200032E70221201D00F077FE05462CE70C482D
:101330000168E26C21F480311143016026E73868CE
:1013400040F4003038603DE7DAF80000E16F20F447
:1013500040700843CAF8000036E700207EE700002E
:101360004C4402582DE9F05F04460D46002C17D07E
:10137000DFF83882D8F8000000F00F00A84211D240
:10138000D8F8000020F00F002843C8F80000D8F873
:10139000000000F00F00A84204D00120BDE8F09F3B
:1013A0000120FBE72078824E40070AD5206931688A
:1013B00001F07001884204D9316821F070010143C5
:1013C000316020787B4F00070AD56069396801F0E9
:1013D0007001884204D9396821F0700101433960F5
:1013E0002078C0060AD5A069396801F4E061884216
:1013F00004D9396821F4E061014339602078DFF8CD
:10140000B89180060DD5E069D9F8001001F070019F
:10141000884206D9D9F8001021F070010143C9F8BB
:101420000010207880070AD5E068316801F00F01CC
:10143000884204D9316821F00F01014331602078DE
:10144000C00743D03068A16820F470600843306062
:10145000574960681839022808D003280BD00128A2
:101460000ED00968490710D4012097E7096889035D
:101470000BD4012092E70968890106D401208DE789
:101480000968C90501D4012088E7DFF824A1AAF181
:10149000080ADAF8001021F007010143CAF8001029
:1014A000FFF7A2F8834609E0FFF79EF8A0EB0B01D7
:1014B00041F28830814201D903206FE7DAF8000059
:1014C000616800F03800B0EBC10FEDD120788007E3
:1014D0000AD5E068316801F00F01884204D2316812
:1014E00021F00F0101433160D8F8000000F00F0037
:1014F000A8420ED9D8F8000020F00F002843C8F801
:101500000000D8F8000000F00F00A84201D0012030
:1015100044E7207840070AD52069316801F070015E
:10152000884204D2316821F0700101433160207893
:1015300000070AD56069396801F07001884204D259
:10154000396821F07001014339602078C0060AD55E
:10155000A069396801F4E061884204D2396821F455
:10156000E06101433960207880060DD5E069D9F843
:10157000001001F07001884206D2D9F8001021F065
:1015800070010143C9F8001000F058F831680B4AA7
:10159000C1F30321515C01F01F01C84008490860F4
:1015A00008480068BDE8F05FFFF72CB80020005243
:1015B000184402581C44025820440258443F000872
:1015C000000000200C00002010B5FFF755F8064978
:1015D0000968064A01F00F01515C01F01F01C84083
:1015E0000349086010BD000018440258443F000839
:1015F0000400002010B5FFF7E7FF05490968054A18
:10160000C1F30211515C01F01F01C84010BD000080
:101610001C440258443F000810B5FFF7D5FF0549A8
:101620000968054AC1F30221515C01F01F01C8405D
:1016300010BD00001C440258443F000830B5644807
:101640000068654C10F03801624808D00211082982
:101650000DD010290DD018290DD0104630BD2168AD
:101660008906FBD52168C1F3C101C84030BD1046D1
:1016700030BD5A4830BD564918310A6802F003029D
:101680000968C1F30511524B1C331B6803F00103B9
:101690004F4D24352D68C5F3CC0515FB03F300EE43
:1016A000103AB8EE400A002977D0DFED4D0A484BDA
:1016B000B7EE001A20333AB39FED4A2A012A58D0D8
:1016C000022A6CD001EE901A1868F8EE611AC2EE88
:1016D000212AC0F3080001EE900AF8EE611A40EEEC
:1016E000201A31EE810A22EE800A1868C0F34620E3
:1016F000401C00EE900AF8EE600A80EE201ABCEE64
:10170000C10A10EE100A30BD226892061BD522686D
:10171000C2F3C102D04001EE900A1868F8EE612AC7
:1017200001EE901AF8EE611A82EEA12AC0F30800C9
:1017300001EE900AF8EE611A40EE201A31EE810AAD
:1017400022EE000AD1E701EE901ADFED272A186891
:10175000F8EE611A82EEA12AC0F3080001EE900AA9
:10176000F8EE611A40EE201A31EE810A22EE000AEC
:10177000BBE701EE901A1868F8EE611AC2EE212A52
:10178000C0F3080001EE900AF8EE611A40EE201A4C
:1017900031EE810A22EE800AA7E716E0FFE701EEAC
:1017A000901ADFED122A1868F8EE611A82EEA12A6B
:1017B000C0F3080001EE900AF8EE611A40EE201A1C
:1017C00031EE810A22EE000A8FE7002030BD0000D2
:1017D000104402580090D0030044025840787D0124
:1017E000000000390024744A0024744C20BCBE4B15
:1017F0002DE9F05F0446002C10D02078DFF8EC8350
:10180000FB4FFC4DC0075DD0D8F8000000F0380059
:10181000396810281FD0182803D006E00120BDE841
:10182000F09F01F00300022815D06068B0F5803FFA
:1018300018D0E0B1B0F5A02F22D0286820F4803075
:101840002860286820F480202860606860B3FEF774
:10185000CBFE064624E02868800333D5606810BBC1
:101860000120DCE7286840F480302860EDE7286834
:1018700020F480302860286820F480202860E4E785
:10188000286840F480202860286840F48030286070
:10189000DBE7FEF7A9FE801B642801D90320BEE721
:1018A00028688003F5D50DE0FEF79EFE064606E0AB
:1018B000FEF79AFE801B642801D90320AFE7286851
:1018C0008003F5D4207841F2030ACB4E800777D508
:1018D000D8F8000000F03800396870B1182801D13C
:1018E00088070AD0E06880B3296821F01901014314
:1018F0002960FEF779FE814638E02868400701D567
:10190000E06848B12868E16820F0190008432860C1
:10191000FEF76AFE814609E0012080E7FEF764FEDB
:10192000A0EB0900022801D9032078E728684007C6
:10193000F4D5FEF753FE504508D83068216920F4ED
:101940007C3040EA013030603AE026E03068217CAB
:1019500020F0FE4040EA0160306031E0FEF744FED6
:10196000A0EB0900022801D9032058E728684007A6
:10197000F4D5FEF733FE504507D83068216920F4CE
:101980007C3040EA013030601AE03068217C20F081
:10199000FE4040EA0160306012E0286820F001005B
:1019A0002860FEF721FE814607E0FEF71DFEA0EB52
:1019B0000900022801D9032031E728684007F4D440
:1019C0002078C00670D5D8F8000000F038003968DB
:1019D000DFF818B20828ABF1040B0FD0182803D198
:1019E00001F00300012809D0E06978B3286840F0CD
:1019F00080002860FEF7F8FD814628E02868C005D1
:101A000004D5E069802801D0012008E7FEF7E6FD53
:101A1000504508D8306894F8201020F0F84040EA8B
:101A20008160306040E0DBF8000094F8201020F086
:101A30007C5040EA0160CBF8000035E0FEF7D4FDB1
:101A4000A0EB0900022802D90320E8E61AE0286882
:101A5000C005F3D5FEF7C2FD504508D8306894F8AC
:101A6000201020F0F84040EA816030601CE0DBF894
:101A7000000094F8201020F07C5040EA0160CBF880
:101A8000000011E0286820F080002860FEF7ACFD1F
:101A9000064606E0FEF7A8FD801B022801D90320B8
:101AA000BDE62868C005F5D4207800072AD5504E39
:101AB00060694C3698B1306840F001003060FEF744
:101AC00093FD814607E0FEF78FFDA0EB0900022899
:101AD00001D90320A3E630688007F4D512E030680E
:101AE00020F001003060FEF77FFD814607E0FEF741
:101AF0007BFDA0EB0900022801D903208FE63068A6
:101B00008007F4D42078800626D5A06990B1286893
:101B100040F480502860FEF767FD064606E0FEF7B9
:101B200063FD801B022801D9032078E62868800421
:101B3000F5D511E0286820F480502860FEF754FDA8
:101B4000064606E0FEF750FD801B022801D903205F
:101B500065E628688004F5D42078400778D5274EBC
:101B6000306840F480703060FEF73EFD814607E04B
:101B7000FEF73AFDA0EB0900642801D903204EE6E8
:101B80003068C005F4D5DFF86890A06809F148090D
:101B9000012816D0E0B1052832D0D9F8000020F095
:101BA0000100C9F80000D9F8000020F00400C9F8CD
:101BB0000000A06841F2883AB8B1FEF715FD06466C
:101BC00032E0D9F8000040F00100C9F80000F0E769
:101BD000D9F8000020F00100C9F80000D9F8000091
:101BE00020F00400C9F80000E3E722E010440258A6
:101BF000284402580044025804440258004802583D
:101C0000D9F8000040F00400C9F80000D9F800003D
:101C100040F00100C9F80000CBE7FEF7E5FC801BAF
:101C2000504501D90320FAE5D9F800008007F4D522
:101C30000EE0FEF7D9FC064606E0FEF7D5FC801B59
:101C4000504501D90320EAE5D9F800008007F4D413
:101C5000606AE8B3D8F80010C1F3C201032975D057
:101C6000022807D0286820F080702860FEF7BCFCAE
:101C700004467EE0286820F080702860FEF7B4FCFF
:101C8000064606E0FEF7B0FC801B022801D90320BF
:101C9000C5E528688001F5D4386840F2F3318843FF
:101CA000E16A40EA0110A16A08433860208E4FF6CD
:101CB000FF72616B401E491EC0F3080002EA412119
:101CC0000843218F4FF4FE02491E02EA014100E061
:101CD00052E0084394F83C10491E120202EA0161E6
:101CE000084327490860081F016821F001010160CD
:101CF0002349091D0A684FF6F8739A43A36C42EA18
:101D0000C3020A600168226C21F00C0111430160DA
:101D10000168626C21F0020111430160016841F425
:101D200080310160016841F400310160016841F4D3
:101D300080210160016841F001010160286840F0E4
:101D400080702860FEF750FC044607E016E0FEF7BE
:101D50004BFC001B022801D9032060E528688001A4
:101D6000F5D509E0FEF740FC001B022801D903204D
:101D700055E528688001F5D4002050E501204EE5A6
:101D800030440258704710B5FFF7FCFF10BD10B586
:101D90000446002C03D0D4F8800010B107E00120E5
:101DA00010BD002084F87C00204600F028F8242094
:101DB000C4F880002068016821F00101016020461C
:101DC00000F0FCFB012818D0A06A10B1204600F0FA
:101DD00061FB2068416821F490414160206881687E
:101DE00021F02A0181602068016841F00101016051
:101DF0002046BDE8104000F0B1BB012010BD704787
:101E00002DE9F84F04460E4615469946D4F884004D
:101E1000202802D00220BDE8F88F06B3FDB194F867
:101E20007C0001281DD0012084F87C004FF00008C0
:101E3000C4F888802220C4F88400FEF7D5FB8246CF
:101E4000A4F85C50A4F85E50FF21A0684FF48053C2
:101E500098420DD1226932B1A4F860100FE0012040
:101E6000D9E70220D7E740F2FF11A4F8601006E09E
:101E70007F2268B1B0F1805F12D0A4F86080B4F81E
:101E80006070984201D1206998B13546002628E05B
:101E9000256915B1A4F86020F1E7A4F86010EEE719
:101EA000216919B13F21A4F86010E8E7A4F8602087
:101EB000E5E7002515E00022534620212046CDF815
:101EC000009001F01BFE08B10320A4E7A5B1206833
:101ED000406A384005F8010BB4F85E00401EA4F8D3
:101EE0005E00B4F85E000028E5D12020C4F884002C
:101EF00084F87C8000208EE72068406A384026F80D
:101F0000020BE9E72DE9F84304460E4615461F4645
:101F1000D4F88000202802D00220BDE8F883D6B192
:101F2000CDB194F87C00012817D0012084F87C0002
:101F30004FF00008C4F888802120C4F88000FEF724
:101F400053FB8146A4F85450A4F85650A068B0F54D
:101F5000805F04D005E00120DFE70220DDE7206993
:101F600010B13546002615E0002513E000224B464F
:101F700080212046009701F0C1FD08B10320CCE785
:101F8000B5B1216815F8010B8862B4F85600401EFF
:101F9000A4F85600B4F856000028E7D100224B46BA
:101FA00040212046009701F0A9FD40B10320B4E78D
:101FB000216836F8020BC0F308008862E5E72020AC
:101FC000C4F8800084F87C800020A6E7FEE70000CB
:101FD00010B586B00C48016841F00401016000684A
:101FE00000F0040000900824019401200290039066
:101FF0000220049001A90548FEF7F8F903481830BB
:10200000046006B010BD0000E04402580008025809
:10201000FEE77047704700002DE9F0470446884608
:102020000027DFF81491D9F80000C043800709D0D9
:10203000414D283D286820F080602860FEF7D4FAE2
:10204000064609E00120BDE8F087FEF7CDFA801BC7
:10205000022801D90320F6E728680001F5D4D9F851
:102060000000216820F47C3040EA0130C9F800000B
:10207000A0884FF6FF72A168401E491EC0F30800F9
:1020800002EA41210843A1894FF4FE02491E02EAF7
:1020900001410843217C1202491E02EA0161084302
:1020A0002549103108602448001D0168626921F04B
:1020B000C001114301600168A26921F020011143B0
:1020C0000160016821F0100101601B4914310A68A8
:1020D0004FF6F8739A43E36942EAC3020A60016863
:1020E00041F010010160B8F1000F0ED0B8F1010FFE
:1020F00010D0016841F400110160286840F0806050
:102100002860FEF771FA044610E0016841F40021EE
:102110000160F2E7016841F480110160EDE7FEF72C
:1021200063FA001B022801D903208CE7286800010C
:10213000F5D5384687E70000284402582DE9F047D6
:10214000044688460027DFF81491D9F80000C04300
:10215000800709D0414D283D286820F08050286034
:10216000FEF742FA064609E00120BDE8F087FEF7D7
:102170003BFA801B022801D90320F6E7286880007B
:10218000F5D4D9F80000218820F07C7040EA015095
:10219000C9F80000A0884FF6FF72A168401E491ED2
:1021A000C0F3080002EA41210843A1894FF4FE026E
:1021B000491E02EA01410843217C1202491E02EA3B
:1021C000016108432549183108602448001D016851
:1021D000626921F44061114301600168A26921F440
:1021E000007111430160016821F4807101601B4995
:1021F0001C310A684FF6F8739A43E36942EAC30256
:102200000A60016841F480710160B8F1000F0ED0DE
:10221000B8F1010F10D0016841F0807101602868A9
:1022200040F080502860FEF7DFF9044610E00168B6
:1022300041F480010160F2E7016841F400010160AE
:10224000EDE7FEF7D1F9001B022801D903208CE746
:1022500028688000F5D5384687E7000028440258F2
:102260007047000010B50BA001F0EEFC14A04FF475
:10227000E13101F0E9FC1BA001F0E6FC24A001F033
:10228000E3FC2CA001F0E0FCBDE8104030A001F020
:10229000DBBC00000D0A202020D5E2CAC7D2BBB8A3
:1022A000F6CDA8B9FDB4AEBFDACDA8D0C5D6B8C1B9
:1022B000EEBFD8D6C64C4544CAB5D1E9200A0000C5
:1022C000CAB9D3C320205553415254312020B2CE35
:1022D000CAFDCEAAA3BA256420382D4E2D31200A7E
:1022E00000000000BFAAB7A2B0E5BDD3B5BDD6B807
:1022F000C1EEBAF3BFD8D6C64C4544A3ACD6B8C1DC
:10230000EEB6D4D3A6C8E7CFC2A3BA0A0000000035
:10231000202020D6B8C1EE2020202D2D2D2D2D2DB2
:1023200020415343494920434F4445203026312022
:102330000A000000202020202030202020202D2DE9
:102340002D2D2D2D202020204F4646200A00000054
:10235000202020202031202020202D2D2D2D2D2D1E
:10236000202020204F4E200A00000000FFF70BBD68
:1023700030B59DB04C210AA8FDF7E4FF202102A84A
:10238000FDF7E0FF0220FEF74FF900241E48016828
:1023900041F44041016001681C490A6842F00102B1
:1023A0000A60096801F00101019101688904FCD506
:1023B00001200A9000040B90022013901490052134
:1023C0001591C021169117901890199008251A950B
:1023D0001B941C940AA8FFF70BFA00B1FEE73F20FC
:1023E00002900320039004940595402006900790E6
:1023F000010108910990042102A8FEF7B3FF00280B
:1024000000D0FEE71DB030BD184802582C0400581B
:102410001C48016841F4700101601B49086840F0E4
:1024200001000860184A0020103210600A68174B3B
:102430001A400A60144A18321060121D1060121DF2
:102440001060114A28321060121D1060121D1060B9
:10245000121D1060121D1060121D1060121D106000
:10246000121D10600A6822F480220A600649603159
:102470000860012006490860C006024980390860EA
:102480007047000088ED00E0004402587FEDF6EA56
:102490000881005190F82810C90706D001684A68E1
:1024A000C36A22F400321A434A6090F82810890760
:1024B00006D501684A68036B22F480321A434A60E9
:1024C00090F82810490706D501684A68436B22F442
:1024D00080221A434A6090F82810090706D501683F
:1024E0004A68836B22F400421A434A6090F828102D
:1024F000C90606D501688A68C36B22F480521A4364
:102500008A6090F82810890606D501688A68036CED
:1025100022F400521A438A6090F82810490611D517
:1025200001684A68436C22F480121A434A60416C85
:10253000B1F5801F06D101684A68836C22F4C0029D
:102540001A434A6090F82810090606D501684A68BF
:10255000C06C22F4002202434A607047F8B504467A
:102560000026C4F88860FEF73FF807462068006838
:102570006FF07E4500070AD500223B464FF400115C
:102580002046009501F0BAFA08B10320F8BD206892
:10259000006840070AD500223B464FF480012046E0
:1025A000009501F0ABFA08B10320F8BD20207C347F
:1025B0006060A06026700020F8BD00002DE9F04F9B
:1025C00087B004464FF0000800250020F74B216833
:1025D0002669A268E769324366693E433243666E04
:1025E00016430A68F24F3A4032430A6021684A684B
:1025F000E66822F4405232434A60A16922689A4256
:1026000001D0266A31439668EA4F3E400E439660F9
:102610002168CA6A666A22F00F023243CA62E64E35
:102620002168E64AB14224D1126802F03802182A21
:1026300016D005DC5AB1082A0CD0102A04D10CE0BF
:10264000202A10D0282A11D04FF0800B2AE14FF019
:10265000010B27E14FF0040B24E14FF0080B21E1BF
:102660004FF0100B1EE14FF0200B1BE14FF0400B21
:1026700018E1D34EB1421ED1126802F00702062AB9
:1026800016D2DFE802F00306090C0F124FF0000B20
:1026900008E14FF0040B05E14FF0080B02E14FF0A9
:1026A000100BFFE04FF0200BFCE04FF0400BF9E087
:1026B0004FF0800BF6E0C34EB1421ED1126802F01B
:1026C0000702062A16D2DFE802F00306090C0F12F1
:1026D0004FF0000BE6E04FF0040BE3E04FF0080B87
:1026E000E0E04FF0100BDDE04FF0200BDAE04FF0B0
:1026F000400BD7E04FF0800BD4E0B34EB1421ED177
:10270000126802F00702062A16D2DFE802F003067A
:10271000090C0F124FF0000BC4E04FF0040BC1E0A6
:102720004FF0080BBEE04FF0100BBBE04FF0200B5A
:10273000B8E04FF0400BB5E04FF0800BB2E0A34E95
:10274000B1421ED1126802F00702062A16D2DFE853
:1027500002F00306090C0F124FF0000BA2E04FF03D
:10276000040B9FE04FF0080B9CE04FF0100B99E03A
:102770004FF0200B96E04FF0400B93E04FF0800BB2
:1027800090E0934EB14224D1126802F03802182A28
:1027900016D005DC5AB1082A0CD0102A04D10CE05E
:1027A000202A10D0282A11D04FF0800B7AE04FF069
:1027B000010B77E04FF0040B74E04FF0080B71E071
:1027C0004FF0100B6EE04FF0200B6BE04FF0400B22
:1027D00068E0804EB1421ED1126802F00702062A5C
:1027E00016D2DFE802F00306090C0F124FF0000BBF
:1027F00058E04FF0040B55E04FF0080B52E04FF05B
:10280000100B4FE04FF0200B4CE04FF0400B49E035
:102810004FF0800B46E0704EB1421ED1126802F0BC
:102820000702062A16D2DFE802F00306090C0F128F
:102830004FF0000B36E04FF0040B33E04FF0080B85
:1028400030E04FF0100B2DE04FF0200B2AE04FF05E
:10285000400B27E04FF0800B24E0994220D1574AEB
:10286000121D126802F00702062A16D2DFE802F0F3
:102870000306090C0F124FF0020B13E04FF0040B8C
:1028800010E04FF0080B0DE04FF0100B0AE04FF096
:10289000200B07E04FF0400B04E04FF0800B01E00D
:1028A0004FF0800BDFF834A1002799424FF4807974
:1028B00077D1BBF1100F75D009DCBBF1020F19D035
:1028C000BBF1040F4DD0BBF1080F06D1A1E0BBF165
:1028D000200F68D0BBF1400F66D00125002808D03A
:1028E000666806EB4601814202D8B0EB063F77D915
:1028F0000125EEE3FDF7D6FE0146606AC8B1012866
:1029000019D0022819D0032819D0042819D0052875
:1029100019D0062819D0072819D0082819D0092855
:1029200019D00A2819D00B2819D00120B1FBF0F0DA
:10293000D4E70120FAE70220F8E70420F6E70620B2
:10294000F4E70820F2E70A20F0E70C20EEE7102079
:10295000ECE72020EAE74020E8E78020E6E7484669
:10296000E4E704A8FDF7B0FE0599606AE8B1012824
:1029700039D0022839D0032839D0042839D0052885
:1029800039D0062839D0072839D0082839D0092865
:1029900039D00A2839D00B2839D00120B1FBF0F00A
:1029A0009CE7AEE36DE0DDE011E11AE0000C0058B9
:1029B000F369FFCFFFF4FF110010014054440258A7
:1029C0000044004000480040004C004000500040DF
:1029D0000014014000780040007C00400090D003CB
:1029E0002BE10120DAE70220D8E70420D6E7062011
:1029F000D4E70820D2E70A20D0E70C20CEE7102049
:102A0000CCE72020CAE74020C8E78020C6E7484638
:102A1000C4E701A8FDF738FF0299606AC8B1012830
:102A200019D0022819D0032819D0042819D0052854
:102A300019D0062819D0072819D0082819D0092834
:102A400019D00A2819D00B2819D00120B1FBF0F0B9
:102A500044E70120FAE70220F8E70420F6E7062021
:102A6000F4E70820F2E70A20F0E70C20EEE7102058
:102A7000ECE72020EAE74020E8E78020E6E7484648
:102A8000E4E7F7480168890638D50068C0F3C1005B
:102A90002AFA00F1606AC8B1012819D0022819D0B9
:102AA000032819D0042819D0052819D0062819D0D0
:102AB000072819D0082819D0092819D00A2819D0B0
:102AC0000B2819D00120B1FBF0F007E70120FAE74D
:102AD0000220F8E70420F6E70620F4E70820F2E7F2
:102AE0000A20F0E70C20EEE71020ECE72020EAE7D0
:102AF0004020E8E78020E6E74846E4E7606AC8B19E
:102B0000012819D0022819D0032819D0042819D077
:102B1000052819D0062819D0072819D0082819D057
:102B2000092819D00A2819D00B2819D00120BAFB7E
:102B3000F0F0D3E60120FAE70220F8E70420F6E7F8
:102B40000620F4E70820F2E70A20F0E70C20EEE781
:102B50001020ECE72020EAE74020E8E78020E6E7C5
:102B60004846E4E7606AD0B101281AD002281AD09A
:102B700003281AD004281AD005281AD006281AD0FB
:102B800007281AD008281AD009281AD00A281AD0DB
:102B90000B281AD00120B349B1FBF0F09EE60120CA
:102BA000F9E70220F7E70420F5E70620F3E708201D
:102BB000F1E70A20EFE70C20EDE71020EBE72020FB
:102BC000E9E74020E7E78020E5E74846E3E7606A79
:102BD000D8B101281BD002281BD003281BD0042801
:102BE0001BD005281BD006281BD007281BD008287F
:102BF0001BD009281BD00A281BD00B281BD0012072
:102C00004FF40041B1FBF0F068E60120F8E7022044
:102C1000F6E70420F4E70620F2E70820F0E70A20B0
:102C2000EEE70C20ECE71020EAE72020E8E7402060
:102C3000E6E78020E4E74846E2E7BBF1100F7DD0ED
:102C400009DCBBF1020F16D0BBF1040F64D0BBF15D
:102C5000080F06D1B8E0BBF1200F70D0BBF1400FD8
:102C60006ED001258049A8F54070884269D8206857
:102C7000C0F80C802DE2FDF715FD0146606A50B3E7
:102C800001282BD002282CD003282DD004282ED0A8
:102C900005282FD0062830D0072831D0082832D078
:102CA000092833D00A2834D00B2801D04FF001096D
:102CB000084600234A461946FDF70CFB62680902E4
:102CC000030241EA10615008181879410023FDF70A
:102CD00001FB8046C6E74FF00109E9E74FF0020922
:102CE000E6E74FF00409E3E74FF00609E0E74FF0AD
:102CF0000809DDE74FF00A09DAE74FF00C09D7E7DA
:102D00004FF01009D4E74FF02009D1E74FF0400908
:102D1000CEE74FF08009CBE704A8FDF7D5FC059975
:102D2000606A78B3012831D0022832D0032833D02A
:102D3000042834D0052835D0062803E09CE040E183
:102D40008DE1DCE131D0072832D0082833D00928C2
:102D500034D00A2835D00B2801D04FF0010908469D
:102D600000234A461946FDF7B5FA626809020302D4
:102D700041EA10615008181879410023FDF7AAFABA
:102D800080466FE7FFE74FF00109E8E74FF00209DF
:102D9000E5E74FF00409E2E74FF00609DFE74FF0FF
:102DA0000809DCE74FF00A09D9E74FF00C09D6E72C
:102DB0004FF01009D3E74FF02009D0E74FF040095A
:102DC000CDE74FF08009CAE701A8FDF75DFD029944
:102DD000606A50B301282BD002282CD003282DD0B4
:102DE00004282ED005282FD0062830D0072831D02F
:102DF000082832D0092839D00A283AD00B2801D027
:102E00004FF00109084600234A461946FDF762FAC9
:102E100062680902030241EA1061500818187941FA
:102E20000023FDF757FA80461CE74FF00109E9E758
:102E30004FF00209E6E74FF00409E3E74FF0060917
:102E4000E0E74FF00809DDE74FF00A09DAE74FF055
:102E50000C09D7E74FF01009D4E74FF02009D1E76C
:102E60000044025800093D00FFFC0F004FF04009EC
:102E7000C8E74FF08009C5E7F7480168890652D5D1
:102E80000068C0F3C1002AFA00FA606A50B3012852
:102E90002BD002282CD003282DD004282ED0052892
:102EA0002FD0062830D0072831D0082832D0092862
:102EB00033D00A2834D00B2801D04FF001095046F6
:102EC00000234A461946FDF705FA0902020241EAC3
:102ED000106170081018324679410023FDF7FAF9A5
:102EE0008046BFE64FF00109E9E74FF00209E6E747
:102EF0004FF00409E3E74FF00609E0E74FF0080957
:102F0000DDE74FF00A09DAE74FF00C09D7E74FF099
:102F10001009D4E74FF02009D1E74FF04009CEE780
:102F20004FF08009CBE7606A50B301282BD002280C
:102F30002CD003282DD004282ED005282FD00628E9
:102F400030D0072831D0082832D0092833D00A28B9
:102F500034D00B2801D04FF00109504600234A46D7
:102F60001946FDF7B7F90902020241EA106170083B
:102F70001018324679410023FDF7ACF9804671E61E
:102F80004FF00109E9E74FF00209E6E74FF00409C5
:102F9000E3E74FF00609E0E74FF00809DDE74FF0FF
:102FA0000A09DAE74FF00C09D7E74FF01009D4E728
:102FB0004FF02009D1E74FF04009CEE74FF08009EC
:102FC000CBE7606A50B301282BD002282CD003280D
:102FD0002DD004282ED005282FD0062830D0072841
:102FE00031D0082832D0092833D00A2834D00B2811
:102FF00001D04FF00109994800234A461946FDF7D0
:1030000069F90902020241EA10617008101832469B
:1030100079410023FDF75EF9804623E64FF0010970
:10302000E9E74FF00209E6E74FF00409E3E74FF064
:103030000609E0E74FF00809DDE74FF00A09DAE793
:103040004FF00C09D7E74FF01009D4E74FF02009F3
:10305000D1E74FF04009CEE74FF08009CBE7606A37
:1030600058B301282CD002282DD003282ED00428B4
:1030700030D0052831D0062832D0072833D0082890
:1030800034D0092835D00A2836D00B2801D04FF08B
:10309000010900234A464FF400401946FDF71AF98A
:1030A0000902020241EA10617008101832467941A3
:1030B0000023FDF70FF98046D4E54FF00109E8E75A
:1030C0004FF00209E5E74FF00409E2E74FF0060987
:1030D000DFE797E24FF00809DBE74FF00A09D8E78E
:1030E0004FF00C09D5E74FF01009D2E74FF0200957
:1030F000CFE74FF04009CCE74FF08009C9E7012541
:1031000080E2E0694FF400414FF6EF7688426ED1DD
:10311000BBF1080F6CD009DCBBF1000F1ED0BBF176
:10312000010F66D0BBF1040F09D1B4E0BBF1100F61
:103130007DD0BBF1200F7BD0BBF1400F79D00125B2
:10314000A8F11000B04275D84FF6F07108EA0100FE
:10315000C8F3420108432168C86053E2FEF74AFA07
:103160000146606A10B3012823D0022824D0032826
:1031700025D0042826D0052827D0062828D00728BF
:1031800029D008282AD009282BD00A282CD00B288F
:1031900001D04FF00109B1FBF9F04100606801EB8B
:1031A0005001B1FBF0F01FFA80F8C9E74FF00109B8
:1031B000F1E74FF00209EEE74FF00409EBE74FF0BB
:1031C0000609E8E74FF00809E5E74FF00A09E2E7EA
:1031D0004FF00C09DFE74FF01009DCE74FF0200952
:1031E000D9E74FF04009D6E74FF08009D3E70AE26C
:1031F0009BE0FEF711FA0146606A38B3012828D037
:1032000002282DD003282ED004282FD0052830D016
:10321000062831D0072832D0082833D0092834D0E6
:103220000A2835D00B2801D04FF0010903E0C6E091
:103230005AE1A0E1E5E1B1FBF9F04100606801EB82
:103240005001B1FBF0F01FFA80F879E74FF0010967
:10325000ECE74FF00209E9E70044025800093D009D
:103260004FF00409E2E74FF00609DFE74FF00809E5
:10327000DCE74FF00A09D9E74FF00C09D6E74FF029
:103280001009D3E74FF02009D0E74FF04009CDE710
:103290004FF08009CAE704A8FDF716FA0599606A9D
:1032A00010B3012823D0022824D0032825D00428D5
:1032B00026D0052827D0062828D0072829D0082876
:1032C0002AD009282BD00A282CD00B2801D04FF067
:1032D0000109B1FBF9F04100606801EB5001B1FB5D
:1032E000F0F01FFA80F82BE74FF00109F1E74FF0FB
:1032F0000209EEE74FF00409EBE74FF00609E8E7B3
:103300004FF00809E5E74FF00A09E2E74FF00C0932
:10331000DFE74FF01009DCE74FF02009D9E74FF065
:103320004009D6E74FF08009D3E701A8FDF7ACFAD2
:103330000299606A10B3012823D0022824D0032800
:1033400025D0042826D0052827D0062828D00728ED
:1033500029D008282AD009282BD00A282CD00B28BD
:1033600001D04FF00109B1FBF9F04100606801EBB9
:103370005001B1FBF0F01FFA80F8E1E64FF00109CF
:10338000F1E74FF00209EEE74FF00409EBE74FF0E9
:103390000609E8E74FF00809E5E74FF00A09E2E718
:1033A0004FF00C09DFE74FF01009DCE74FF0200980
:1033B000D9E74FF04009D6E74FF08009D3E7FE4840
:1033C000016889064AD50068C0F3C1002AFA00FAEC
:1033D000606A10B3012823D0022824D0032825D006
:1033E000042826D0052827D0062828D0072829D049
:1033F00008282AD009282BD00A282CD00B2801D045
:103400004FF00109BAFBF9F04100606801EB50018F
:10341000B1FBF0F01FFA80F892E64FF00109F1E7F6
:103420004FF00209EEE74FF00409EBE74FF0060911
:10343000E8E74FF00809E5E74FF00A09E2E74FF047
:103440000C09DFE74FF01009DCE74FF02009D9E75E
:103450004FF04009D6E74FF08009D3E7606A10B318
:10346000012823D0022824D0032825D0042826D0E0
:10347000052827D0062828D0072829D008282AD0B0
:1034800009282BD00A282CD00B2801D04FF0010995
:10349000BAFBF9F04100606801EB5001B1FBF0F0BC
:1034A0001FFA80F84CE64FF00109F1E74FF00209EE
:1034B000EEE74FF00409EBE74FF00609E8E74FF0BD
:1034C0000809E5E74FF00A09E2E74FF00C09DFE7EA
:1034D0004FF01009DCE74FF02009D9E74FF0400921
:1034E000D6E74FF08009D3E7606A18B3012824D0EB
:1034F000022825D0032826D0042827D0052828D044
:10350000062829D007282AD008282BD009282CD013
:103510000A282DD00B2801D04FF00109A748B0FB95
:10352000F9F04100606801EB5001B1FBF0F01FFAC7
:1035300080F805E64FF00109F0E74FF00209EDE7EA
:103540004FF00409EAE74FF00609E7E74FF00809F2
:10355000E4E74FF00A09E1E74FF00C09DEE74FF02E
:103560001009DBE74FF02009D8E74FF04009D5E715
:103570004FF08009D2E7606A10B3012823D00228F7
:1035800024D0032825D0042826D0052827D00628B3
:1035900028D0072829D008282AD009282BD00A2883
:1035A0002CD00B2801D04FF00109B1FBF9F04100FC
:1035B000606801EB5001B1FBF0F01FFA80F8BFE545
:1035C0004FF00109F1E74FF00209EEE74FF004096F
:1035D000EBE74FF00609E8E74FF00809E5E74FF0A1
:1035E0000A09E2E74FF00C09DFE74FF01009DCE7CA
:1035F0004FF02009D9E74FF04009D6E74FF0800996
:10360000D3E701256CE2BBF1080F7DD009DCBBF1EB
:10361000000F18D0BBF1010F5DD0BBF1040F09D131
:10362000A7E0BBF1100F70D0BBF1200F6ED0BBF143
:10363000400F6CD00125A8F11000B04268D8206876
:10364000C0F80C804CE2FDF7D5FF0146606A08B374
:10365000012822D0022823D0032824D0042825D0F2
:10366000052826D0062827D0072828D0082829D0C2
:1036700009282AD00A282BD00B2801D04FF00109A5
:103680006068B1FBF9F101EB5001B1FBF0F01FFAFA
:1036900080F8D0E74FF00109F2E74FF00209EFE7B9
:1036A0004FF00409ECE74FF00609E9E74FF008098D
:1036B000E6E74FF00A09E3E74FF00C09E0E74FF0C7
:1036C0001009DDE74FF02009DAE74FF04009D7E7AE
:1036D0004FF08009D4E7FDF79FFF0146606A38B3D9
:1036E000012828D0022829D003282AD004282BD04A
:1036F00005282CD006282DD007282ED008282FD01A
:10370000092830D00A2804E082E0CAE05CE1A1E1A7
:10371000E5E12BD00B2801D04FF001096068B1FB27
:10372000F9F101EB5001B1FBF0F01FFA80F882E7EC
:103730004FF00109F2E74FF00209EFE74FF00409FB
:10374000ECE74FF00609E9E74FF00809E6E74FF02C
:103750000A09E3E74FF00C09E0E74FF01009DDE755
:103760004FF02009DAE74FF04009D7E74FF0800922
:10377000D4E704A8FCF7A8FF0599606AD8B101282E
:1037800028D0022829D003282AD004282BD00528A5
:103790002CD006282DD007282ED008282FD0092875
:1037A00030D00A2831D00B2801D04FF001096068D1
:1037B000B1FBF9F104E00AE00044025800093D00C1
:1037C00001EB5001B1FBF0F01FFA80F833E74FF046
:1037D0000109ECE74FF00209E9E74FF00409E6E7D9
:1037E0004FF00609E3E74FF00809E0E74FF00A0958
:1037F000DDE74FF00C09DAE74FF01009D7E74FF09B
:103800002009D4E74FF04009D1E74FF08009CEE717
:1038100001A8FDF739F80299606A08B3012822D09F
:10382000022823D0032824D0042825D0052826D018
:10383000062827D0072828D0082829D009282AD0E8
:103840000A282BD00B2801D04FF001096068B1FB8A
:10385000F9F101EB5001B1FBF0F01FFA80F8EAE654
:103860004FF00109F2E74FF00209EFE74FF00409CA
:10387000ECE74FF00609E9E74FF00809E6E74FF0FB
:103880000A09E3E74FF00C09E0E74FF01009DDE724
:103890004FF02009DAE74FF04009D7E74FF08009F1
:1038A000D4E794480168890649D50068C0F3C1008F
:1038B0002AFA00FA606A08B3012822D0022823D02D
:1038C000032824D0042825D0052826D0062827D070
:1038D000072828D0082829D009282AD00A282BD040
:1038E0000B2801D04FF001096068BAFBF9F101EB38
:1038F0005001B1FBF0F01FFA80F89CE64FF001098F
:10390000F2E74FF00209EFE74FF00409ECE74FF060
:103910000609E9E74FF00809E6E74FF00A09E3E78F
:103920004FF00C09E0E74FF01009DDE74FF02009F8
:10393000DAE74FF04009D7E74FF08009D4E7606A33
:1039400008B3012822D0022823D0032824D0042839
:1039500025D0052826D0062827D0072828D00828D3
:1039600029D009282AD00A282BD00B2801D04FF0C3
:1039700001096068BAFBF9F101EB5001B1FBF0F00D
:103980001FFA80F857E64FF00109F2E74FF00209FD
:10399000EFE74FF00409ECE74FF00609E9E74FF0D5
:1039A0000809E6E74FF00A09E3E74FF00C09E0E702
:1039B0004FF01009DDE74FF02009DAE74FF040093A
:1039C000D7E74FF08009D4E7606A10B3012823D00D
:1039D000022824D0032825D0042826D0052827D063
:1039E000062828D0072829D008282AD009282BD033
:1039F0000A282CD00B2801D04FF001093E48B0FB1B
:103A0000F9F1606801EB5001B1FBF0F01FFA80F8AA
:103A100011E64FF00109F1E74FF00209EEE74FF030
:103A20000409EBE74FF00609E8E74FF00809E5E77E
:103A30004FF00A09E2E74FF00C09DFE74FF01009F9
:103A4000DCE74FF02009D9E74FF04009D6E74FF007
:103A50008009D3E7606A08B3012822D0022823D066
:103A6000032824D0042825D0052826D0062827D0CE
:103A7000072828D0082829D009282AD00A282BD09E
:103A80000B2801D04FF001096068B1FBF9F101EB9F
:103A90005001B1FBF0F01FFA80F8CCE54FF00109BE
:103AA000F2E74FF00209EFE74FF00409ECE74FF0BF
:103AB0000609E9E74FF00809E6E74FF00A09E3E7EE
:103AC0004FF00C09E0E74FF01009DDE74FF0200957
:103AD000DAE74FF04009D7E74FF08009D4E7012536
:103AE00001206834608020806760A76007B02846A6
:103AF000BDE8F08F0044025800093D002DE9F04771
:103B000004460E4617469846089D4FF0000A4FF0AF
:103B100020093BE0681C39D0FCF766FDA0EB0800EB
:103B2000A84221D805B32068016849072ED5C0698D
:103B3000C04300052AD421684FF400600862206861
:103B4000016821F4D07101602068816821F00101D1
:103B50008160C4F88090C4F88490C4F8889084F898
:103B60007CA00320BDE8F0872068016821F4D071B3
:103B700001602068816821F001018160C4F88090B3
:103B8000C4F8849084F87CA00320EBE72068C06927
:103B900036EA000004D00020B842BBD00020E1E7A4
:103BA0000120F9E770B5B6B02248016841F0010183
:103BB0000160016801F001010191016841F001011A
:103BC0000160006800F001000190012502950024C9
:103BD000209402A8FCF738FF16481030016841F025
:103BE00010010160006800F010000190A8023190FF
:103BF00002203290339534900725359531A90E4E29
:103C00003046FCF7F3FB4FF400713191359531A943
:103C10003046FCF7EBFB0A48084901604FF4E131FC
:103C200041608460C46004610C214161FEF7AFF81B
:103C300036B070BDE0440258000002580010014048
:103C40001C000020FEE700000FB4054B10B503A9CF
:103C5000044A029800F018F810BC5DF814FB00004C
:103C6000693E00081800002002E008C8121F08C1C1
:103C7000002AFAD170477047002001E001C1121FED
:103C8000002AFBD1704700002DE9FF4F8BB09A4608
:103C90000F460546002606E025280BD052460D9912
:103CA00090476D1C761C28780028F5D10FB030465F
:103CB000BDE8F08F0024A0460122604900E00443E3
:103CC00015F8013F203B02FA03F00842F7D12878AB
:103CD0002E2817D115F8010F44F004042A280ED01D
:103CE0006FF02F022878A0F1300109290AD808EBDB
:103CF000880102EB410100EB01086D1CF2E757F867
:103D0000048B6D1C287869283ED006DC0028CDD0B5
:103D100063280BD0642804D136E0732810D07528AE
:103D20004BD052460D999047761C85E017F8040B4E
:103D30008DF8000000208DF80100E946012003E025
:103D400057F8049B4FF0FF3061074FF0000401D497
:103D50000AE0641C44450DDA8442FADB19F80410C9
:103D60000029F6D106E0641C8442FCDB19F804103B
:103D70000029F8D1264404E019F8010B52460D99A8
:103D80009047641EF8D257E001CF4FF00A0B00288D
:103D900002DA40422D2102E0210504D52B218DF8C5
:103DA0002410012103E0E10705D02021F7E70DF100
:103DB000200908910CE00021F9E701CF4FF00A0B30
:103DC000F9E75946FCF7C9FA01F1300209F8012D6B
:103DD0000028F6D1ADEB090000F1200B600701D4FB
:103DE0004FF00108D84502DDA8EB0B0000E00020F1
:103DF0008046002406E009A85246005D0D999047D0
:103E0000641C761C08988442F5DB04E0302052469E
:103E10000D999047761CB8F10001A8F10108F5DC76
:103E200005E019F8010B52460D999047761CBBF13D
:103E30000001ABF1010BF4DC6D1C34E70928010033
:103E400008B508480068C169C9438906FBD4082140
:103E50000162044801224FF6FF736946FDF7D0FF67
:103E6000009808BD1C00002013B5044801224FF63D
:103E7000FF736946FEF746F800981CBD1C00002041
:103E8000FFF7DEBFFEF774FABFF34F8FBFF36F8FFC
:103E9000174900200860BFF34F8FBFF36F8F15489D
:103EA000016841F400310160BFF34F8FBFF36F8FA2
:103EB000FEF78EF8FFF776FE0FA0FFF7C5FEFEF7C0
:103EC000D1F90825194E2F041948FFF7D9FFC4B2BC
:103ED00018A02146FFF7B8FE302C04D0312C04D0B6
:103EE000FEF7C0F9F0E73560EEE73760ECE7000079
:103EF00050EF00E014ED00E00D0A5072696E746638
:103F0000B7BDCABDCAE4B3F6A3BAD5E2CAC7D2BB2D
:103F1000B8F6B4AEBFDAD6D0B6CFBDD3CAD5BBD80B
:103F2000CFD4CAB5D1E9200D0A0000001808025804
:103F300014000020BDD3CAD5B5BDD7D6B7FBA3BAF0
:103F400025630A00000000000102030401020304CB
:103F500006070809743F0008000000201C0000004C
:103F6000683C0008903F00081C0000208C04000002
:103F7000783C00080090D0030090D00301000000BE
:103F80001000000000000000000000000000000021
:040000050800029954
:00000001FF
