:020000040800F2
:1000000058040020B102000817120008D31100089C
:10001000151200081D0300088714000800000000E6
:100020000000000000000000000000001B1200089B
:100030001F0300080000000019120008C902000890
:10004000CB020008CB020008CB020008CB0200085C
:10005000CB020008CB020008CB020008CB0200084C
:10006000CB020008CB020008CB020008CB0200083C
:10007000CB020008CB020008CB020008CB0200082C
:10008000CB020008CB020008CB020008CB0200081C
:10009000CB020008CB020008CB020008CB0200080C
:1000A000CB020008CB020008CB020008CB020008FC
:1000B000CB020008CB020008CB020008CB020008EC
:1000C000CB020008CB020008CB020008CB020008DC
:1000D000CB020008CB020008CB020008CB020008CC
:1000E000CB020008CB02000800000000CB02000891
:1000F000CB020008CB020008CB020008CB020008AC
:10010000CB020008CB020008CB020008CB0200089B
:10011000CB020008CB02000855130008CB020008F0
:10012000CB020008CB020008CB020008CB0200087B
:10013000CB020008CB020008CB020008CB0200086B
:1001400000000000000000000000000000000000AF
:10015000CB020008CB020008CB020008CB0200084B
:10016000CB020008CB020008CB020008CB0200083B
:10017000CB020008CB020008CB020008CB0200082B
:10018000CB020008CB020008CB020008CB0200081B
:10019000CB020008CB020008CB020008CB0200080B
:1001A000CB020008CB020008CB020008CB020008FB
:1001B000CB020008CB020008CB020008CB020008EB
:1001C000CB020008CB020008CB020008CB020008DB
:1001D000CB020008CB020008CB020008CB020008CB
:1001E000CB020008CB020008CB020008CB020008BB
:1001F000CB020008CB020008CB020008CB020008AB
:10020000CB020008CB020008CB020008CB0200089A
:10021000CB020008CB020008CB020008CB0200088A
:10022000CB020008CB020008CB020008000000004F
:10023000CB020008CB02000800000000CB0200083F
:10024000CB020008CB020008CB020008CB0200085A
:10025000CB020008CB020008CB020008CB0200084A
:10026000CB020008CB020008CB020008CB0200083A
:10027000CB020008CB020008CB02000800000000FF
:10028000CB020008CB020008CB02000800000000EF
:1002900000000000CB020008DFF810D000F02CF8BE
:1002A00000480047C9140008AFF30080580400203C
:1002B0000648804706480047FEE7FEE7FEE7FEE700
:1002C000FEE7FEE7FEE7FEE7FEE7FEE7BD120008F9
:1002D00099020008D2B201E000F8012B491EFBD2BE
:1002E00070470022F6E710B513460A460446194641
:1002F000FFF7F0FF204610BD064C074D06E0E06812
:1003000040F0010394E8070098471034AC42F6D35C
:10031000FFF7C6FF1815000838150008FEE77047FC
:100320002DE9F84F00226E4C4FF0B0494FF0010A12
:100330004FF0030E4FF00F08CAE00AFA02F73B40F5
:10034000002B70D04D68022D01D0122D12D1D5088E
:1003500000EB850CDCF820605507ED0E08FA05FB74
:1003600026EA0B06D1F810B00BFA05FB4BEA060B98
:10037000CCF820B0D0F800C055000EFA05F62CEAF3
:10038000060C91F804B00BF0030B0BFA05FB4BEADB
:100390000C0BC0F800B0D1F804C0BCF1010F08D0BC
:1003A000BCF1020F05D0BCF1110F02D0BCF1120F4D
:1003B00016D1D0F808C02CEA060CD1F80CB00BFA14
:1003C00005FB4BEA0C0BC0F808B0D0F804C02CEACF
:1003D000070C0F79C7F30017974047EA0C074760EF
:1003E000C768B7438E68AE403E43C6604D68ED00B7
:1003F0006DD53C4D2E6846F002062E602D6805F046
:100400000205009522F0030606F1B046D6F808C4AE
:1004100095072F0F08FA07F52CEA050C324DA84274
:1004200002D100252EE052E0304DA84201D1012535
:1004300028E02F4DA84201D1022523E02D4DA842EE
:1004400001D103251EE02C4DA84201D1042519E05D
:100450002A4DA84201D1052514E0294DA84201D119
:1004600006250FE0274DA84201D107250AE0264DB9
:10047000A84201D1082505E0244DA84201D1092553
:1004800000E00A25BD4045EA0C05C6F80854256879
:100490009D434E68F60300D51D43256065689D4366
:1004A0004E68B60300D51D436560D9F800509D43E2
:1004B0004E68F60200D51D43C9F80050D9F8045023
:1004C0009D434E68B60200D51D43C9F80450521C26
:1004D0000B6833FA02F57FF430AFBDE8F88F000007
:1004E00080000058F44402580000025800040258EA
:1004F00000080258000C025800100258001402585C
:1005000000180258001C025800200258002402580B
:1005100001480068000C70470010005C0448406807
:100520000449B0FBF1F04FF47A7148437047000082
:10053000001000E000389C1C0648016841F0807102
:100540000160054800214160016841F0010101603E
:1005500000207047FCED00E0001000E0002809DBFF
:10056000012100F01F0291404009800000F1E020CD
:10057000C0F8001170470000F0B40D460D4B1B6829
:10058000C3F30223C3F10704042C00D90424191D6A
:10059000072901D2002300E0DB1E012606FA04F140
:1005A000491E294099409E40761E16403143F0BCBA
:1005B00000F06ABF0CED00E070B512490A685207FE
:1005C00006D40A6802F00702824201D0012070BD01
:1005D0000A6822F0070202430A60FFF79FFF044601
:1005E000084D4FF47A76083D06E0FFF797FF001BB1
:1005F000B04201D9032070BD28688004F5D50020E1
:1006000070BD00000C4802582DE9F05F04460D460D
:10061000002C17D0DFF83882D8F8000000F00F0067
:10062000A84211D2D8F8000020F00F002843C8F8E3
:100630000000D8F8000000F00F00A84204D001200C
:10064000BDE8F09F0120FBE72078824E40070AD5E5
:100650002069316801F07001884204D9316821F0C5
:1006600070010143316020787B4F00070AD5606933
:10067000396801F07001884204D9396821F07001AD
:10068000014339602078C0060AD5A069396801F4B1
:10069000E061884204D9396821F4E061014339609E
:1006A0002078DFF8B89180060DD5E069D9F8001000
:1006B00001F07001884206D9D9F8001021F07001CC
:1006C0000143C9F80010207880070AD5E068316836
:1006D00001F00F01884204D9316821F00F01014374
:1006E00031602078C00743D03068A16820F4706082
:1006F00008433060574960681839022808D0032839
:100700000BD001280ED00968490710D4012097E7C3
:10071000096889030BD4012092E70968890106D48E
:1007200001208DE70968C90501D4012088E7DFF8B9
:1007300024A1AAF1080ADAF8001021F00701014308
:10074000CAF80010FFF7EAFE834609E0FFF7E6FE6D
:10075000A0EB0B0141F28830814201D903206FE701
:10076000DAF80000616800F03800B0EBC10FEDD19D
:10077000207880070AD5E068316801F00F018842CF
:1007800004D2316821F00F0101433160D8F8000034
:1007900000F00F00A8420ED9D8F8000020F00F009A
:1007A0002843C8F80000D8F8000000F00F00A84265
:1007B00001D0012044E7207840070AD5206931683C
:1007C00001F07001884204D2316821F070010143C8
:1007D0003160207800070AD56069396801F070013E
:1007E000884204D2396821F07001014339602078D1
:1007F000C0060AD5A069396801F4E061884204D2D4
:10080000396821F4E06101433960207880060DD514
:10081000E069D9F8001001F07001884206D2D9F8D9
:10082000001021F070010143C9F8001000F01EF81B
:1008300031680B4AC1F30321515C01F01F01C8402C
:100840000849086008480068BDE8F05FFFF774BE1B
:1008500000200052184402581C44025820440258F8
:1008600008150008000000200C00002030B5644886
:100870000068654C10F03801624808D00211082960
:100880000DD010290DD018290DD0104630BD21688B
:100890008906FBD52168C1F3C101C84030BD1046AF
:1008A00030BD5A4830BD564918310A6802F003027B
:1008B0000968C1F30511524B1C331B6803F0010397
:1008C0004F4D24352D68C5F3CC0515FB03F300EE21
:1008D000103AB8EE400A002977D0DFED4D0A484BB8
:1008E000B7EE001A20333AB39FED4A2A012A58D0B6
:1008F000022A6CD001EE901A1868F8EE611AC2EE66
:10090000212AC0F3080001EE900AF8EE611A40EEC9
:10091000201A31EE810A22EE800A1868C0F34620C0
:10092000401C00EE900AF8EE600A80EE201ABCEE41
:10093000C10A10EE100A30BD226892061BD522684B
:10094000C2F3C102D04001EE900A1868F8EE612AA5
:1009500001EE901AF8EE611A82EEA12AC0F30800A7
:1009600001EE900AF8EE611A40EE201A31EE810A8B
:1009700022EE000AD1E701EE901ADFED272A18686F
:10098000F8EE611A82EEA12AC0F3080001EE900A87
:10099000F8EE611A40EE201A31EE810A22EE000ACA
:1009A000BBE701EE901A1868F8EE611AC2EE212A30
:1009B000C0F3080001EE900AF8EE611A40EE201A2A
:1009C00031EE810A22EE800AA7E716E0FFE701EE8A
:1009D000901ADFED122A1868F8EE611A82EEA12A49
:1009E000C0F3080001EE900AF8EE611A40EE201AFA
:1009F00031EE810A22EE000A8FE7002030BD0000B0
:100A0000104402580090D0030044025840787D0101
:100A1000000000390024744A0024744C20BCBE4BF2
:100A20002DE9F05F0446002C10D02078DFF8EC832D
:100A3000FB4FFC4DC0075DD0D8F8000000F0380037
:100A4000396810281FD0182803D006E00120BDE81F
:100A5000F09F01F00300022815D06068B0F5803FD8
:100A600018D0E0B1B0F5A02F22D0286820F4803053
:100A70002860286820F480202860606860B3FFF751
:100A80004DFD064624E02868800333D5606810BB1E
:100A90000120DCE7286840F480302860EDE7286812
:100AA00020F480302860286820F480202860E4E763
:100AB000286840F480202860286840F4803028604E
:100AC000DBE7FFF72BFD801B642801D90320BEE77D
:100AD00028688003F5D50DE0FFF720FD064606E007
:100AE000FFF71CFD801B642801D90320AFE72868AD
:100AF0008003F5D4207841F2030ACB4E800777D5E6
:100B0000D8F8000000F03800396870B1182801D119
:100B100088070AD0E06880B3296821F019010143F1
:100B20002960FFF7FBFC814638E02868400701D5C3
:100B3000E06848B12868E16820F01900084328609F
:100B4000FFF7ECFC814609E0012080E7FFF7E6FCB7
:100B5000A0EB0900022801D9032078E728684007A4
:100B6000F4D5FFF7D5FC504508D83068216920F44A
:100B70007C3040EA013030603AE026E03068217C89
:100B800020F0FE4040EA0160306031E0FFF7C6FC33
:100B9000A0EB0900022801D9032058E72868400784
:100BA000F4D5FFF7B5FC504507D83068216920F42B
:100BB0007C3040EA013030601AE03068217C20F05F
:100BC000FE4040EA0160306012E0286820F0010039
:100BD0002860FFF7A3FC814607E0FFF79FFCA0EB2E
:100BE0000900022801D9032031E728684007F4D41E
:100BF0002078C00670D5D8F8000000F038003968B9
:100C0000DFF818B20828ABF1040B0FD0182803D175
:100C100001F00300012809D0E06978B3286840F0AA
:100C200080002860FFF77AFC814628E02868C0052C
:100C300004D5E069802801D0012008E7FFF768FCAF
:100C4000504508D8306894F8201020F0F84040EA69
:100C50008160306040E0DBF8000094F8201020F064
:100C60007C5040EA0160CBF8000035E0FFF756FC0D
:100C7000A0EB0900022802D90320E8E61AE0286860
:100C8000C005F3D5FFF744FC504508D8306894F808
:100C9000201020F0F84040EA816030601CE0DBF872
:100CA000000094F8201020F07C5040EA0160CBF85E
:100CB000000011E0286820F080002860FFF72EFC7B
:100CC000064606E0FFF72AFC801B022801D9032014
:100CD000BDE62868C005F5D4207800072AD5504E17
:100CE00060694C3698B1306840F001003060FFF721
:100CF00015FC814607E0FFF711FCA0EB0900022874
:100D000001D90320A3E630688007F4D512E03068EB
:100D100020F001003060FFF701FC814607E0FFF79B
:100D2000FDFBA0EB0900022801D903208FE6306803
:100D30008007F4D42078800626D5A06990B1286871
:100D400040F480502860FFF7E9FB064606E0FFF715
:100D5000E5FB801B022801D9032078E6286880047F
:100D6000F5D511E0286820F480502860FFF7D6FB05
:100D7000064606E0FFF7D2FB801B022801D90320BC
:100D800065E628688004F5D42078400778D5274E9A
:100D9000306840F480703060FFF7C0FB814607E0A8
:100DA000FFF7BCFBA0EB0900642801D903204EE645
:100DB0003068C005F4D5DFF86890A06809F14809EB
:100DC000012816D0E0B1052832D0D9F8000020F073
:100DD0000100C9F80000D9F8000020F00400C9F8AB
:100DE0000000A06841F2883AB8B1FFF797FB0646C9
:100DF00032E0D9F8000040F00100C9F80000F0E747
:100E0000D9F8000020F00100C9F80000D9F800006E
:100E100020F00400C9F80000E3E722E01044025883
:100E2000284402580044025804440258004802581A
:100E3000D9F8000040F00400C9F80000D9F800001B
:100E400040F00100C9F80000CBE7FFF767FB801B0B
:100E5000504501D90320FAE5D9F800008007F4D500
:100E60000EE0FFF75BFB064606E0FFF757FB801B33
:100E7000504501D90320EAE5D9F800008007F4D4F1
:100E8000606AE8B3D8F80010C1F3C201032975D035
:100E9000022807D0286820F080702860FFF73EFB0A
:100EA00004467EE0286820F080702860FFF736FB5B
:100EB000064606E0FFF732FB801B022801D903201B
:100EC000C5E528688001F5D4386840F2F3318843DD
:100ED000E16A40EA0110A16A08433860208E4FF6AB
:100EE000FF72616B401E491EC0F3080002EA4121F7
:100EF0000843218F4FF4FE02491E02EA014100E03F
:100F000052E0084394F83C10491E120202EA0161C3
:100F1000084327490860081F016821F001010160AA
:100F20002349091D0A684FF6F8739A43A36C42EAF5
:100F3000C3020A600168226C21F00C0111430160B8
:100F40000168626C21F0020111430160016841F403
:100F500080310160016841F400310160016841F4B1
:100F600080210160016841F001010160286840F0C2
:100F700080702860FFF7D2FA044607E016E0FFF71A
:100F8000CDFA001B022801D9032060E52868800102
:100F9000F5D509E0FFF7C2FA001B022801D90320AA
:100FA00055E528688001F5D4002050E501204EE584
:100FB0003044025870477047704710B50446002C03
:100FC00003D094F83D0010B107E0012010BD0020CF
:100FD00084F83C00204600F00CF8022084F83D0024
:100FE0002068211D00F0BCF9012084F83D0000209C
:100FF00010BD70470168CA6842F00102CA6001680A
:101000008868064A1040062806D0B0F5803F03D015
:10101000086840F0010008600020704707000100E8
:10102000704770B50446206801694FF00005C94358
:10103000890716D4C168C943890712D4E91E016122
:101040000120207720688069800703D02046FFF7C1
:10105000E7FF05E0204600F0AAF8204600F0A8F8D7
:10106000257720680169C943490718D4C168C94375
:10107000490714D46FF00401016102202077206831
:10108000806910F4407F03D02046FFF7C9FF05E0D8
:10109000204600F08CF8204600F08AF8257720687A
:1010A0000169C943090717D4C168C943090713D4A3
:1010B0006FF008010161042020772068C069800773
:1010C00003D02046FFF7ACFF05E0204600F06FF8A4
:1010D000204600F06DF8257720680169C943C906EC
:1010E00018D4C168C943C90614D46FF01001016156
:1010F000082020772068C06910F4407F03D0204684
:10110000FFF78EFF05E0204600F051F8204600F082
:101110004FF8257720680169C943C90708D1C1681C
:10112000C943C90704D1891E0161204600F042F875
:1011300020680169C943090609D4C168C943090681
:1011400005D46FF0800101612046FFF734FF20686D
:101150000169C943C90509D4C168C943090605D451
:101160006FF4807101612046FFF724FF2068016958
:10117000C943490609D4C168C943490605D46FF07B
:1011800040010161204600F023F820680169C9434D
:1011900089060BD4C168C943890607D46FF02001C2
:1011A00001612046BDE87040FFF706BF70BD704783
:1011B0007047000000680449884204D10348016870
:1011C00081F00801016070470010004014080258C7
:1011D0007047FEE710B586B00C48016841F0040185
:1011E0000160006800F004000090082401940120D0
:1011F000029003900220049001A90548FFF790F89F
:1012000003481830046006B010BD0000E0440258E6
:1012100000080258FEE770477047704730B59DB030
:101220004C210AA8FFF75DF8202102A8FFF759F822
:101230000220FFF7C1F900241E48016841F4404133
:10124000016001681C490A6842F001020A600968ED
:1012500001F00101019101688904FCD501200A9087
:1012600000040B9002201390149005211591C021C9
:10127000169117901890199008251A951B941C9494
:101280000AA8FFF7CDFB00B1FEE73F200290032044
:101290000390049405954020069007900101089161
:1012A0000990042102A8FFF7AFF9002800D0FEE75B
:1012B0001DB030BD184802582C0400582048016861
:1012C00041F4700101601F49086840F001000860A6
:1012D0001C4A0020103210600A681B4B1A400A603A
:1012E000184A18321060121D1060121D1060154A45
:1012F00028321060121D1060121D1060121D106047
:10130000121D1060121D1060121D1060121D106061
:101310000A6822F480220A600A49603108600B489A
:1013200000686FF30F00B0F1005F02D2084901209E
:1013300008604FF000600249803908607047000083
:1013400088ED00E0004402587FEDF6EA0010005CF2
:10135000088100510148FFF764BE0000140000201E
:101360002DE9F04F02684FF0804B254DDFF8948057
:10137000DFF89490A842DFF894A0254B09D0584597
:1013800007D0404505D0484503D0504501D098428C
:1013900003D122F070044A6822431E4E1E4FA84219
:1013A000DFF878C00FD058450DD040450BD04845E8
:1013B00009D0504507D0984205D0B04203D0B8427A
:1013C00001D0604503D122F44074CA6822434C69BD
:1013D00022F08002224302608A68C2620A68826246
:1013E000A84207D0984205D0B04203D0B84201D0FD
:1013F000604501D10969016301214161BDE8F08FB8
:10140000000001400004004000080040000C0040C3
:1014100000040140004001400044014000480140F8
:1014200010B500F005F8BDE8104000F021B800004C
:1014300008B50C48016841F010010160006800F037
:101440001000009009480849016041F28731C160ED
:1014500045F6BF514160FFF7B0FDBDE808400348C5
:10146000FFF7C8BDE84402580010004014000020F7
:1014700010B5002236201146FFF77EF8BDE8104077
:101480003620FFF76BB8FEE70907090E002804DBDA
:1014900000F1E02080F80014704700F00F0000F128
:1014A000E02080F8141D704702E008C8121F08C130
:1014B000002AFAD170477047002001E001C1121FD5
:1014C000002AFBD170470000FFF7A8FEBFF34F8F43
:1014D000BFF36F8F0A4900200860BFF34F8FBFF33F
:1014E0006F8F0848016841F400310160BFF34F8FEE
:1014F000BFF36F8FFFF76EFEFFF792FFFEE700006E
:1015000050EF00E014ED00E00000000001020304D1
:10151000010203040607080938150008000000202E
:1015200014000000A81400084C1500081400002046
:1015300044040000B81400080090D0030090D003C9
:0C1540000100000010000000000000008E
:040000050800029954
:00000001FF
