:020000040800F2
:10000000200F0024B1020008613900087938000887
:100010005D390008E70400089F690008000000003F
:100020000000000000000000000000000F4F00086A
:10003000610600080000000063390008114F000845
:10004000CB020008CB020008CB020008CB0200085C
:10005000CB020008CB020008CB020008CB0200084C
:10006000CB020008CB020008CB020008CB0200083C
:10007000CB020008CB020008CB020008CB0200082C
:10008000CB020008CB020008CB020008CB0200081C
:10009000CB020008CB020008CB020008CB0200080C
:1000A000CB020008CB020008CB020008CB020008FC
:1000B000CB020008CB020008CB020008CB020008EC
:1000C000CB020008CB020008CB020008CB020008DC
:1000D000CB020008CB020008CB020008CB020008CC
:1000E000CB020008CB02000800000000CB02000891
:1000F000CB020008CB020008CB020008CB020008AC
:10010000CB020008453D0008CB020008CB020008E6
:10011000CB020008CB020008CB020008CB0200088B
:10012000CB020008CB020008CB020008CB0200087B
:10013000CB020008CB020008CB020008CB0200086B
:1001400000000000000000000000000000000000AF
:10015000CB020008CB020008CB020008CB0200084B
:10016000CB020008CB020008CB020008CB0200083B
:10017000CB020008CB020008CB020008CB0200082B
:10018000CB020008CB020008CB020008CB0200081B
:10019000CB020008CB020008CB020008CB0200080B
:1001A000CB020008CB020008CB020008CB020008FB
:1001B000CB020008CB020008CB020008CB020008EB
:1001C000CB020008CB020008CB020008CB020008DB
:1001D000CB020008CB020008CB020008CB020008CB
:1001E000CB020008CB020008CB020008CB020008BB
:1001F000CB020008CB020008CB020008CB020008AB
:10020000CB020008CB020008CB020008CB0200089A
:10021000CB020008CB020008CB020008CB0200088A
:10022000CB020008CB020008CB020008000000004F
:10023000CB020008CB02000800000000CB0200083F
:10024000CB020008CB020008CB020008CB0200085A
:10025000CB020008CB020008CB020008CB0200084A
:10026000CB020008CB020008CB020008CB0200083A
:10027000CB020008CB020008CB02000800000000FF
:10028000CB020008CB020008CB02000800000000EF
:1002900000000000CB020008DFF810D000F07CF86E
:1002A00000480047B96A0008AFF30080200F00241F
:1002B0000648804706480047FEE7FEE7FEE7FEE700
:1002C000FEE7FEE7FEE7FEE7FEE7FEE7F14F000888
:1002D000990200082DE9F05F0546002092469B46F2
:1002E00088460646814640241BE02846414647464C
:1002F000224600F041F853465A46C01A914110D3A5
:1003000011461846224600F028F82D1A67EB01081E
:100310004F4622460120002100F01FF817EB00098C
:100320004E41201EA4F10104DFDC484631462A4636
:100330004346BDE8F09FD2B201E000F8012B491E10
:10034000FBD270470022F6E710B513460A46044672
:100350001946FFF7F0FF204610BD202A04DB203AA3
:1003600000FA02F1002070479140C2F1200320FA08
:1003700003F3194390407047202A04DB203A21FA06
:1003800002F00021704721FA02F3D040C2F12002AE
:100390009140084319467047064C074D06E0E06857
:1003A00040F0010394E8070098471034AC42F6D3BC
:1003B000FFF776FFA06D0008C06D000810B500249F
:1003C0001048114908600020486000210E488160F3
:1003D0004FF48041C160002101610821416100F0BA
:1003E00015F8094802F0C4FF00B101243CB90648E1
:1003F000C16802F03FFC08B1012400E0002420465F
:1004000010BD0000007000521800002400B587B035
:1004100000BF2948006840F480302749086008463A
:10042000006800F48030019000BF00BF00BF224888
:100430000C30006840F004001F490C310860084689
:10044000006800F00400019000BF00BF00BF084634
:10045000006840F0080008600846006800F00800E6
:10046000019000BF00BF4FF4F850029002200390AB
:1004700000200490032005900C20069002A90F484C
:1004800000F00EF904200290022003900020049056
:10049000032005900C20069002A9094800F000F9FD
:1004A00006F080FA00221146312000F051FA312086
:1004B00000F03EFA07B000BDD444025800080258CC
:1004C000000C025810B5034607E018780C78A042DB
:1004D00001D0012010BD5B1C491C101EA2F10102BD
:1004E000F3D100BFF6E700BFFEE7000010B503F050
:1004F000EBFB03F09BFB0348006840F0040001495C
:10050000086010BD9CEF00E00148406870470000A3
:10051000001000E02DE9F0410746002601F0ECFE56
:100520000F49B0FBF1F000FB07F800BFFFF7ECFF4D
:10053000054611E0FFF7E8FF0446AC420CD0AC42A0
:1005400002D9601B064403E0C5F1FF302044064495
:100550002546464500D300E0ECE700BFBDE8F0814A
:1005600040420F0000B5B5B000BF3948006840F008
:100570000100374908600846006800F0010000905B
:1005800000BF00BF00BF0846006840F001000860DF
:100590000846006800F00100009000BF00BF012085
:1005A000019000201F9001A800F048FF00BF2848DC
:1005B0001030006840F010002549103108600846EE
:1005C000006800F01000009000BF00BF4FF4007002
:1005D0003090022031900120329002203390072089
:1005E000349030A91B4800F05BF84FF480603090E5
:1005F0000720349030A9174800F052F816481749E0
:1006000008604FF4E1304860002114488160C16007
:1006100001610C21416100218161C1610162002001
:100620000E498862084603F080F800221146252012
:1006300000F08EF9252000F07BF90848006800687A
:1006400040F0200005490968086035B000BD000091
:10065000E04402580000025800100140940A0024AF
:10066000704710B50346002000BF02E084181C54F8
:10067000401C8842FAD310BD70B5044600F028F93A
:1006800006462546681C10B104480078054400BFA2
:1006900000F01EF9801BA842FAD370BD10000024A0
:1006A000F8B502460023734DDEE001279F400E6837
:1006B00006EA0704002C71D04E68022E02D04E6864
:1006C000122E13D1DF0802F1200656F827005E072C
:1006D000F70E0F26BE40B0435F07FF0E0E69BE4007
:1006E0003043DF0802F1200646F8270010685F005B
:1006F0000326BE40B0430E7906F003065F00BE40FD
:10070000304310604E68012E08D04E68022E05D08E
:100710004E68112E02D04E68122E13D190685F00E1
:100720000326BE40B0435F00CE68BE4030439060B9
:10073000506801269E40B0430E79C6F300169E40D5
:1007400030435060D0685F000326BE40B0435F0076
:100750008E68BE403043D0604E6806F08056B6F1D9
:10076000805F1BD100BF444E366846F00206424F00
:100770003E603E46366806F00206009600BF00BFA7
:100780003E4E9F0856F827009E07370F0F26BE40A3
:10079000B0433B4EB24202D100262EE063E0394E18
:1007A000B24201D1012628E0374EB24201D10226E1
:1007B00023E0364EB24201D103261EE0344EB2424F
:1007C00001D1042619E0334EB24201D1052614E0CE
:1007D000314EB24201D106260FE0304EB24201D175
:1007E00007260AE02E4EB24201D1082605E02D4E22
:1007F000B24201D1092600E00A269F073F0FBE4002
:1008000030431E4E9F0846F827002868A0434E68D4
:1008100006F48036B6F5803F00D120432860686832
:10082000A0434E6806F40036B6F5003F00D12043E1
:1008300068604FF0B0463068A0434E6806F48016FA
:10084000B6F5801F00D120434FF0B046306070688D
:10085000A0434E6806F40016B6F5001F00D12043F1
:100860004FF0B04670605B1C0E68DE40002E7FF4D7
:100870001CAFF8BD80000058F4440258080400582A
:10088000000002580004025800080258000C0258E8
:10089000001002580014025800180258001C025898
:1008A0000020025800240258024613690B400BB185
:1008B000012000E0002070470AB1816101E00B04D3
:1008C0008361704701480068000C70470010005CAD
:1008D000044840680449B0FBF1F04FF47A71484392
:1008E00070470000001000E000389C1C03480068BE
:1008F000034909780844014908607047080000244A
:100900001000002401460848006840F08070064A44
:1009100010600020054A50601046006840F0010059
:100920001060002070470000FCED00E0001000E0C7
:1009300001460846002809DB00F01F0301229A4007
:1009400043099B0003F1E023C3F8002100BF704777
:100950002DE9F05F80460D46164606F063F807461F
:1009600039462A46334601F00700C0F1070ABAF1BA
:10097000040F02D94FF0040A01E0C0F1070AD14682
:1009800000F1040ABAF1070F02D24FF0000A01E0A9
:10099000A0F1030AD4464FF0010A0AFA09FAAAF1B3
:1009A000010A0AEA020A0AFA0CFA4FF0010B0BFAE2
:1009B0000CFBABF1010B0BEA030B4AEA0B042146DB
:1009C000404606F037F8BDE8F09F000070B50446D9
:1009D0001548006800F00400042807D01248006899
:1009E00000F00700A04201D0012070BD0E48006851
:1009F00020F0070020430C490860FFF769FF054617
:100A000007E0FFF765FF401BB0F57A7F01D90320AF
:100A1000EBE705480838006800F40050B0F5005FC7
:100A2000EFD10020E1E700000C48025810B501F0BA
:100A300063FC07490968C1F30321064A515C01F0D0
:100A40001F01C840044908600846006810BD000046
:100A5000184402581C6C00080000002410B501F076
:100A60000FFC05490968C1F30211044A515C01F009
:100A70001F01C84010BD0000204402581C6C000833
:100A800070B50146844D2D6805F00303824D2D6835
:100A9000C5F30510804D2D1D2D6805F001047E4D18
:100AA0000C352D68C5F3CC0515FB04F501EE105A85
:100AB000B8EE411AF0EE410A00286FD023B1012BA5
:100AC0004ED0022B6BD16BE0734D283D2D68C5F3E2
:100AD00040153DB3704D283D2D68C5F3C1066F4DDF
:100AE00025FA06F201EE102AF8EE411A01EE100A7C
:100AF000B8EE411A81EE812A9FED691AC0EE811A83
:100B0000654D08352D68C5F3080501EE105AB8EE9D
:100B1000411A31EE811AF7EE001A31EE211A22EE57
:100B2000010A1CE001EE100AB8EE411ADFED5D1A71
:100B300081EE812A9FED5A1AC0EE811A564D083572
:100B40002D68C5F3080501EE105AB8EE411A31EED2
:100B5000811AF7EE001A31EE211A22EE010A5BE04B
:100B600001EE100AB8EE411ADFED4F1A81EE812A2C
:100B70009FED4B1AC0EE811A474D08352D68C5F31D
:100B8000080501EE105AB8EE411A31EE811AF7EE5F
:100B9000001A31EE211A22EE010A3DE077E01DE055
:100BA00001EE100AB8EE411A9FED402AC2EE011A7A
:100BB0009FED3B1A80EE812A374D08352D68C5F32D
:100BC000080501EE105AB8EE411A32EE011AB7EEDE
:100BD000002A31EE021A21EE810A1DE001EE100A10
:100BE000B8EE411ADFED301A81EE812A9FED2C1A02
:100BF000C0EE811A284D08352D68C5F3080501EEB1
:100C0000105AB8EE411A31EE811AF7EE001A31EEA1
:100C1000211A22EE010A00BF00BF1F4D08352D68C2
:100C2000C5F3462501EE105AB8EE411AF7EE001A48
:100C300031EE211AC0EE011ABCEEE11A81ED001A64
:100C4000154D08352D68C5F3064501EE105AB8EE6E
:100C5000411AF7EE001A31EE211AC0EE011ABCEE6D
:100C6000E11A81ED011A0C4D08352D68C5F30665B2
:100C700001EE105AB8EE411AF7EE001A31EE211AC1
:100C8000C0EE011ABCEEE11A81ED021A03E0002564
:100C90000D604D608D6070BD284402580090D003F7
:100CA000000000460024744C0024744A20BCBE4B53
:100CB00070B50146844D2D6805F00303824D2D6803
:100CC000C5F30530804D2D1D2D6805F010047E4DB7
:100CD00014352D68C5F3CC0515FB04F501EE105A4B
:100CE000B8EE411AF0EE410A00286FD023B1012B73
:100CF0004ED0022B6BD16BE0734D283D2D68C5F3B0
:100D000040153DB3704D283D2D68C5F3C1066F4DAC
:100D100025FA06F201EE102AF8EE411A01EE100A49
:100D2000B8EE411A81EE812A9FED691AC0EE811A50
:100D3000654D10352D68C5F3080501EE105AB8EE63
:100D4000411A31EE811AF7EE001A31EE211A22EE25
:100D5000010A1CE001EE100AB8EE411ADFED5D1A3F
:100D600081EE812A9FED5A1AC0EE811A564D103538
:100D70002D68C5F3080501EE105AB8EE411A31EEA0
:100D8000811AF7EE001A31EE211A22EE010A5BE019
:100D900001EE100AB8EE411ADFED4F1A81EE812AFA
:100DA0009FED4B1AC0EE811A474D10352D68C5F3E3
:100DB000080501EE105AB8EE411A31EE811AF7EE2D
:100DC000001A31EE211A22EE010A3DE077E01DE023
:100DD00001EE100AB8EE411A9FED402AC2EE011A48
:100DE0009FED3B1A80EE812A374D10352D68C5F3F3
:100DF000080501EE105AB8EE411A32EE011AB7EEAC
:100E0000002A31EE021A21EE810A1DE001EE100ADD
:100E1000B8EE411ADFED301A81EE812A9FED2C1ACF
:100E2000C0EE811A284D10352D68C5F3080501EE76
:100E3000105AB8EE411A31EE811AF7EE001A31EE6F
:100E4000211A22EE010A00BF00BF1F4D10352D6888
:100E5000C5F3462501EE105AB8EE411AF7EE001A16
:100E600031EE211AC0EE011ABCEEE11A81ED001A32
:100E7000154D10352D68C5F3064501EE105AB8EE34
:100E8000411AF7EE001A31EE211AC0EE011ABCEE3B
:100E9000E11A81ED011A0C4D10352D68C5F3066578
:100EA00001EE105AB8EE411AF7EE001A31EE211A8F
:100EB000C0EE011ABCEEE11A81ED021A03E0002532
:100EC0000D604D608D6070BD284402580090D003C5
:100ED000000000460024744C0024744A20BCBE4B21
:100EE00070B50146844D2D6805F00303824D2D68D1
:100EF000C5F30550804D2D1D2D6805F480747E4D81
:100F00001C352D68C5F3CC0515FB04F501EE105A10
:100F1000B8EE411AF0EE410A00286FD023B1012B40
:100F20004ED0022B6BD16BE0734D283D2D68C5F37D
:100F300040153DB3704D283D2D68C5F3C1066F4D7A
:100F400025FA06F201EE102AF8EE411A01EE100A17
:100F5000B8EE411A81EE812A9FED691AC0EE811A1E
:100F6000654D18352D68C5F3080501EE105AB8EE29
:100F7000411A31EE811AF7EE001A31EE211A22EEF3
:100F8000010A1CE001EE100AB8EE411ADFED5D1A0D
:100F900081EE812A9FED5A1AC0EE811A564D1835FE
:100FA0002D68C5F3080501EE105AB8EE411A31EE6E
:100FB000811AF7EE001A31EE211A22EE010A5BE0E7
:100FC00001EE100AB8EE411ADFED4F1A81EE812AC8
:100FD0009FED4B1AC0EE811A474D18352D68C5F3A9
:100FE000080501EE105AB8EE411A31EE811AF7EEFB
:100FF000001A31EE211A22EE010A3DE077E01DE0F1
:1010000001EE100AB8EE411A9FED402AC2EE011A15
:101010009FED3B1A80EE812A374D18352D68C5F3B8
:10102000080501EE105AB8EE411A32EE011AB7EE79
:10103000002A31EE021A21EE810A1DE001EE100AAB
:10104000B8EE411ADFED301A81EE812A9FED2C1A9D
:10105000C0EE811A284D18352D68C5F3080501EE3C
:10106000105AB8EE411A31EE811AF7EE001A31EE3D
:10107000211A22EE010A00BF00BF1F4D18352D684E
:10108000C5F3462501EE105AB8EE411AF7EE001AE4
:1010900031EE211AC0EE011ABCEEE11A81ED001A00
:1010A000154D18352D68C5F3064501EE105AB8EEFA
:1010B000411AF7EE001A31EE211AC0EE011ABCEE09
:1010C000E11A81ED011A0C4D18352D68C5F306653E
:1010D00001EE105AB8EE411AF7EE001A31EE211A5D
:1010E000C0EE011ABCEEE11A81ED021A03E0002500
:1010F0000D604D608D6070BD284402580090D00393
:10110000000000460024744C0024744A20BCBE4BEE
:101110002DE9F04189B00746B7F5807F32D1C2484A
:10112000006800F00706052E29D2DFE806F0030864
:101130000D26120006A8FFF7A3FC079C21E003A8D8
:10114000FFF7B6FD039C1CE06846FFF7C9FE009C54
:1011500017E0B548001F006800F040550DB9B34CCA
:101160000AE0B5F1805F01D1B14C05E0B5F1005F57
:1011700001D1B04C00E0002403E0AF4C01E00024BA
:1011800000BF4CE1B7F5007F38D1A748006800F4F4
:10119000E076802E14D003DC46B1402E2BD10AE03D
:1011A000C02E26D0B6F5807F25D10EE006A8FFF729
:1011B00067FC079C21E003A8FFF77AFD039C1CE075
:1011C0006846FFF78DFE009C17E09748001F0068F7
:1011D00000F040550DB9954C0AE0B5F1805F01D1A2
:1011E000934C05E0B5F1005F01D1924C00E0002482
:1011F00003E0914C01E0002400BF10E1B7F5806FDF
:101200003CD189480830006800F46006B6F5800FCC
:1012100016D004DC56B1B6F5001F2CD10BE0B6F5A4
:10122000C00F26D0B6F5000F25D10EE006A8FFF7B7
:1012300027FC079C21E003A8FFF73AFD039C1CE074
:101240006846FFF74DFE009C17E07748001F0068D6
:1012500000F040550DB9754C0AE0B5F1805F01D141
:10126000734C05E0B5F1005F01D1724C00E0002441
:1012700003E0714C01E0002400BFD0E0B7F5006F3F
:101280003CD169480830006800F0E066B6F1007FA4
:1012900016D004DC56B1B6F1807F2CD10BE0B6F14C
:1012A000407F26D0B6F1806F25D10EE006A8FFF76B
:1012B000E7FB079C21E003A8FFF7FAFC039C1CE076
:1012C0006846FFF70DFE009C17E05748001F0068B6
:1012D00000F040550DB9554C0AE0B5F1805F01D1E1
:1012E000534C05E0B5F1005F01D1524C00E0002401
:1012F00003E0514C01E0002400BF90E0B7F5805FAF
:101300003DD14948006800F4E048B8F5005F18D0C6
:1013100006DCB8F1000F0AD0B8F5805F2CD10BE0E5
:10132000B8F5405F26D0B8F5804F25D10EE006A86D
:10133000FFF7A6FB079C21E003A8FFF7B9FC039C7D
:101340001CE06846FFF7CCFD009C17E03648001F04
:10135000006800F040550DB9344C0AE0B5F1805FEB
:1013600001D1334C05E0B5F1005F01D1314C00E013
:10137000002403E0304C01E0002400BF4FE0B7F54B
:10138000002F2FD128480830006800F44038B8F109
:10139000000F06D0B8F5803F08D0B8F5003F1ED149
:1013A00009E003A8FFF784FC039C1AE06846FFF7F6
:1013B00097FD029C15E01C48001F006800F0405596
:1013C0000DB91A4C0AE0B5F1805F01D1184C05E067
:1013D000B5F1005F01D1174C00E0002401E00024CA
:1013E00000BF1CE0B7F5803F18D10F48001F006810
:1013F00000F48038B8F1000F03D0B8F5803F0AD16F
:1014000004E006A8FFF73CFB079C06E003A8FFF7F3
:101410004FFC059C01E0002400BF00E000242046B2
:1014200009B0BDE8F0810000504402580090D0039C
:1014300000093D0040787D010080BB002DE9F041AE
:1014400004460025A846206800F00060B0F1006F57
:1014500030D1606E48B1B0F5801F0DD0B0F5001FDF
:1014600010D0B0F5401F15D113E0F948006840F4E2
:101470000030F74908600FE00221201D02F072FAE7
:10148000054609E0022104F1240002F01DFB054697
:1014900002E001E0012500BF00BF55B9EC4824304F
:1014A000006820F44010616E0843E9492431086067
:1014B00000E0A846208800F48070B0F5807F2DD130
:1014C000606D05281AD2DFE800F0030A1017180033
:1014D000DF48006840F40030DD49086010E000217A
:1014E000201D02F03FFA05460AE0002104F1240025
:1014F00002F0EAFA054603E002E001E0012500BF40
:1015000000BF55B9D2482430006820F00700616D53
:101510000843CF492431086000E0A846208800F441
:101520000070B0F5007F33D1A06D802817D003DCA8
:1015300040B140281CD10CE0C02817D0B0F5807F06
:1015400016D114E0C248006840F40030C049086079
:1015500010E00021201D02F005FA05460AE00021F6
:1015600004F1240002F0B0FA054603E002E001E0D5
:10157000012500BF00BF55B9B5482430006820F4EC
:10158000E070A16D0843B2492431086000E0A8462C
:10159000208800F48060B0F5806F38D1D4F8A400C2
:1015A000B0F5800F19D004DC50B1B0F5001F1DD18B
:1015B0000DE0B0F5C00F17D0B0F5000F16D114E054
:1015C000A348006840F40030A149086010E0002101
:1015D000201D02F0C7F905460AE0002104F12400AD
:1015E00002F072FA054603E002E001E0012500BFC7
:1015F00000BF5DB996482C30006820F46000D4F834
:10160000A410084392492C31086000E0A8462088C5
:1016100000F40060B0F5006F38D1D4F8A800B0F144
:10162000007F19D004DC50B1B0F1807F1DD10DE0F6
:10163000B0F1407F17D0B0F1806F16D114E084482C
:10164000006840F400308249086010E00021201D4D
:1016500002F088F905460AE0002104F1240002F0B6
:1016600033FA054603E002E001E0012500BF00BFB8
:101670005DB977482C30006820F0E060D4F8A810FD
:10168000084373492C31086000E0A846206800F048
:101690000070B0F1007F27D1A06CA0B1102804D059
:1016A000202809D030280FD10CE06948006840F4A8
:1016B00000306749086009E00221201D02F052F95C
:1016C000054603E002E001E0012500BF00BF55B977
:1016D0005F482030006820F03000A16C08435C496E
:1016E0002031086000E0A846208800F48050B0F562
:1016F000805F36D1E06DB0F5005F19D004DC50B1E9
:10170000B0F5805F1DD10DE0B0F5405F17D0B0F5AA
:10171000804F16D114E04E48006840F400304C4928
:10172000086010E00021201D02F01CF905460AE0C7
:10173000002104F1240002F0C7F9054603E002E0AD
:1017400001E0012500BF00BF55B9414824300068C1
:1017500020F4E040E16D08433D492431086000E099
:10176000A846208800F40050B0F5005F34D1206E08
:10177000B0F5403F1DD007DC68B1B0F5803F0BD01D
:10178000B0F5003F18D10DE0B0F5802F12D0B0F5C4
:10179000A02F11D10FE011E00121201D02F0E2F88D
:1017A00005460BE0012104F1240002F08DF9054605
:1017B00004E003E002E001E0012500BF00BF55B9ED
:1017C00023482430006820F4E020216E084320499B
:1017D0002431086000E0A846208800F48040B0F57D
:1017E000804F38D1D4F8AC00B0F1405F1DD007DC99
:1017F00068B1B0F1805F0BD0B0F1005F18D10DE09F
:10180000B0F1804F12D0B0F1A04F11D10FE011E034
:101810000121201D02F0A6F805460BE0012104F18C
:10182000240002F051F9054604E003E002E001E083
:10183000012500BF00BF6DB905482C30006820F0BD
:10184000E040D4F8AC10084301492C31086002E0B4
:101850002C440258A846208800F40040B0F5004F00
:1018600026D1E06E98B1B0F1805F03D0B0F1005F97
:101870000ED106E0F948006840F40030F7490860EE
:1018800008E00121201D02F06DF8054602E001E0AC
:10189000012500BF00BF55B9F0482430006820F092
:1018A0004050E16E0843ED492431086000E0A8464D
:1018B000206800F08070B0F1807F27D1606CA0B10B
:1018C000012804D0022809D003280FD10CE0E348F6
:1018D000006840F40030E149086009E00221201D61
:1018E00002F040F8054603E002E001E0012500BFF8
:1018F00000BF55B9D9482030006820F00300616C62
:101900000843D6492031086000E0A846206800F46A
:101910008000B0F5800F7DD1D148006840F4807020
:10192000CF490860FEF7D4FF064606E0FEF7D0FF79
:10193000801B642801D9032505E0C948006800F42C
:1019400080700028F2D000BF85BBC44844300068D6
:1019500000F44070B4F8B01001F44071884213D024
:10196000BE484430006820F44077BC4844300068EA
:1019700040F48030B949443108600846006820F4DA
:101980008030086008460760D4F8B000B0F5807F6A
:1019900015D1FEF79DFF064609E0FEF799FF801B73
:1019A00041F28831884202D9032507E038E0AB488C
:1019B00044300068C0F340000028EED000BF55BBA3
:1019C00000BFB4F8B00000F44070B0F5407F0ED115
:1019D000A2481C38006820F47C51A24AD4F8B00018
:1019E000104041EA10109D491C39086007E09B48EF
:1019F0001C38006820F47C5098491C3908609748CE
:101A000044300068B4F8B010C1F30B0108439349A7
:101A1000443101E005E001E0086002E0A84600E092
:101A2000A846207800F0010068B3A06F182819D0EC
:101A300005DC48B1082808D0102816D10BE0202872
:101A400011D0282811D10FE011E00121201D01F053
:101A500089FF05460BE0012104F1240002F034F86F
:101A6000054604E003E002E001E0012500BF00BFFD
:101A700055B97A482830006820F03800A16F084333
:101A800076492831086000E0A846207800F002007E
:101A9000022828D1606F062815D2DFE800F0030481
:101AA0000A11121311E00121201D01F05BFF054610
:101AB0000BE0012104F1240002F006F8054604E0E1
:101AC00003E002E001E0012500BF00BF55B9634813
:101AD0002830006820F00700616F08435F49283113
:101AE000086000E0A846207800F0040004282AD10D
:101AF000D4F89000062815D2DFE800F003040A119C
:101B0000121311E00121201D01F02CFF05460BE00E
:101B1000012104F1240001F0D7FF054604E003E0B1
:101B200002E001E0012500BF00BF5DB94B482C3049
:101B3000006820F00700D4F89010084347492C3182
:101B4000086000E0A846207800F02000202836D168
:101B5000D4F88C00B0F1405F1DD007DC68B1B0F163
:101B6000805F0BD0B0F1005F18D10DE0B0F1804F75
:101B700012D0B0F1A04F11D10FE011E00021201DD3
:101B800001F0F0FE05460BE0022104F1240001F013
:101B90009BFF054604E003E002E001E0012500BFF1
:101BA00000BF5DB92D482830006820F0E040D4F82F
:101BB0008C10084329492831086000E0A8462078A5
:101BC00000F04000402836D1D4F89800B0F5406FBE
:101BD0001DD007DC68B1B0F5806F0BD0B0F5006F99
:101BE00018D10DE0B0F5805F12D0B0F5A05F11D133
:101BF0000FE011E00021201D01F0B4FE05460BE0CE
:101C0000022104F1240001F05FFF054604E003E037
:101C100002E001E0012500BF00BF5DB90F482C3094
:101C2000006820F4E050D4F8981008430B492C3198
:101C3000086000E0A846207800F0800080283AD1B3
:101C4000D4F89C00B0F5C04F23D00DDC98B1B0F5AE
:101C5000005F11D0B0F5804F1ED113E02C44025824
:101C600000480258FFFCFF0FB0F5004F12D0B0F54E
:101C7000204F11D10FE011E00021201D01F072FE74
:101C800005460BE0022104F1240001F01DFF05468A
:101C900004E003E002E001E0012500BF00BF4DB910
:101CA000B648006820F46040D4F89C100843B3495B
:101CB000086000E0A846207800F00800082818D145
:101CC000D4F88000B0F5805F08D1022104F124002F
:101CD00001F0FAFE68B14FF001080AE0A748001FC2
:101CE000006820F44050D4F880100843A349091F2D
:101CF0000860207800F01000102816D1D4F8940065
:101D0000B0F5807F08D1022104F1240001F0DCFE4F
:101D100058B14FF0010808E09848006820F440707E
:101D2000D4F89410084395490860206800F4002016
:101D3000B0F5002F26D1D4F8A00030B1B0F5803F27
:101D400009D0B0F5003F0ED10CE00021201D01F0BC
:101D500009FE054609E0022104F1240001F0B4FE69
:101D6000054602E001E0012500BF00BF4DB98348F0
:101D7000006820F44030D4F8A01008437F49086080
:101D800000E0A846206800F48020B0F5802F2DD117
:101D9000D4F88400B0F5801F06D0B0F5001F0CD039
:101DA000B0F5401F11D10FE074482C38006840F4A2
:101DB000003072492C39086009E0012104F1240047
:101DC00001F082FE054602E001E0012500BF00BFF0
:101DD0005DB96A48001F006820F44010D4F88410F0
:101DE00008436649091F086000E0A846206800F41F
:101DF0008030B0F5803F24D1E06C18B1B0F5803F61
:101E00000FD108E05D482C38006840F400305B4991
:101E10002C39086007E00221201D01F0A3FD0546D2
:101E200001E0012500BF00BF55B954480C380068D7
:101E300020F48030E16C084350490C39086000E020
:101E4000A846206800F00050B0F1005F07D10221E1
:101E500004F1240001F038FE08B14FF001082068B9
:101E600000F40030B0F5003F27D1E06FA0B1B0F52D
:101E7000807F06D0B0F5007F0CD0B0F5407F0CD14C
:101E800009E03E482C38006840F400303B492C39CA
:101E9000086004E003E002E001E0012500BF00BFAC
:101EA00055B93648001F006820F44070E16F0843C0
:101EB0003249091F086000E0A846206800F480103D
:101EC000B0F5801F09D12D480838006820F0004087
:101ED000216F0843294908390860206800F08050C4
:101EE000B0F1805F0AD125484838006820F480406E
:101EF000D4F8B4100843214948390860206800F438
:101F00000010B0F5001F09D11C480838006820F007
:101F10008070A16E0843194908390860206800F0F4
:101F20008040B0F1804F11D100BF1448483800689C
:101F300020F4004011494839086008460068D4F888
:101F4000B81008430D494839086000BF206800F008
:101F50000040B0F1004F09D108480C38006820F06B
:101F60004050216D084305490C390860B8F1000F55
:101F700002D10020BDE8F0810120FBE7584402585F
:101F80002DE9F04104460D4614B90120BDE8F08169
:101F9000B648006800F00F00A8420ED2B3480068AF
:101FA00020F00F002843B14908600846006800F09F
:101FB0000F00A84201D00120E8E7207800F00400DB
:101FC00004280ED1AA492069096801F070018842ED
:101FD00007D9A748006820F0700021690843A44988
:101FE0000860207800F00800082811D1A049091DD8
:101FF0006069096801F07001884209D99C48001D98
:10200000006820F07000616908439949091D086063
:10201000207800F01000102811D19549091DA06901
:10202000096801F4E061884209D99148001D0068FF
:1020300020F4E060A16908438D49091D08602078FB
:1020400000F02000202811D189490831E069096891
:1020500001F07001884209D985480830006820F0F5
:102060007000E1690843824908310860207800F077
:10207000020002280ED17E49E068096801F00F01D4
:10208000884207D97A48006820F00F00E1680843C9
:1020900077490860207800F00100002850D074488B
:1020A000006820F47060A1680843714908606068A6
:1020B000022807D16E4818380068C0F34040F8B9CC
:1020C000012063E76068032807D169481838006871
:1020D000C0F34060A0B9012058E76068012807D12B
:1020E000634818380068C0F3002048B901204DE764
:1020F0005F4818380068C0F3800008B9012045E740
:102100005B480838006820F00700616808435849B8
:1021100008390860FEF7DCFB064608E0FEF7D8FB4E
:10212000801B41F28831884201D903202EE75048B4
:102130000838006800F038006168B0EBC10FEDD1DD
:10214000207800F0020002280ED14949E0680968B1
:1021500001F00F01884207D24548006820F00F00C7
:10216000E1680843424908604048006800F00F00F9
:10217000A8420ED93D48006820F00F0028433B4993
:1021800008600846006800F00F00A84201D0012056
:10219000FCE6207800F0040004280ED134492069C0
:1021A000096801F07001884207D23148006820F0C8
:1021B0007000216908432E490860207800F008006B
:1021C000082811D12A49091D6069096801F07001C8
:1021D000884209D22648001D006820F0700061691D
:1021E00008432349091D0860207800F010001028DA
:1021F00011D11F49091DA069096801F4E0618842F5
:1022000009D21B48001D006820F4E060A169084362
:102210001749091D0860207800F02000202811D1FE
:1022200013490831E069096801F07001884209D258
:102230000F480830006820F07000E16908430C493D
:102240000831086000F058F809490968C1F3032112
:10225000084A515C01F01F01C8400749086007485F
:102260000068FEF74FFB074638468FE60020005215
:10227000184402581C6C0008000000240C000024C4
:1022800010B5FEF7D3FB0749096801F00F01064AB4
:10229000515C01F01F01C84004490860084600680D
:1022A00010BD0000184402581C6C000804000024F3
:1022B00010B5FFF7E5FF05490968C1F30211044AAB
:1022C000515C01F01F01C84010BD00001C440258C1
:1022D0001C6C000810B5FFF7D3FF05490968C1F36E
:1022E0000221044A515C01F01F01C84010BD0000EA
:1022F0001C4402581C6C0008F0B5824E366806F08B
:10230000380636B1082E15D0102E15D0182E7DD1D6
:1023100014E07C4E103E3668C6F3401646B1794E46
:10232000103E3668C6F3C107774E26FA07F000E084
:102330007548E5E07548E3E07548E1E0714E183610
:10234000366806F003046F4E18363668C6F305117A
:102350006C4E1C36366806F001056A4E2436366827
:10236000C6F3CC0616FB05F601EE106AB8EE410A7C
:10237000002971D024B1012C50D0022C6DD16DE018
:10238000604E103E3668C6F340163EB35D4E103EBA
:102390003668C6F3C1075C4E26FA07F301EE103A21
:1023A000F8EE411A01EE101AB8EE411A81EE812AB8
:1023B0009FED581AC0EE011A524E20363668C6F309
:1023C000080601EE106AB8EE411A31EE811AF7EEF6
:1023D000001A31EE211A62EE010A1EE001EE101A17
:1023E000B8EE411ADFED4C1A81EE812A9FED491AB1
:1023F000C0EE011A434E20363668C6F3080601EED9
:10240000106AB8EE411A31EE811A00E076E0F7EE7C
:10241000001A31EE211A62EE010A5BE001EE101A99
:10242000B8EE411A9FED3D2AC2EE011A9FED391A0E
:1024300080EE012A334E20363668C6F3080601EED8
:10244000106AB8EE411A32EE011AB7EE002A31EEE8
:10245000021A61EE810A3DE04EE01DE001EE101A25
:10246000B8EE411ADFED2E1A81EE812A9FED291A6E
:10247000C0EE011A234E20363668C6F3080601EE78
:10248000106AB8EE411A31EE811AF7EE001A31EEF9
:10249000211A62EE010A1DE001EE101AB8EE411A8F
:1024A0009FED1E2AC2EE011A9FED1A1A80EE012A34
:1024B000144E20363668C6F3080601EE106AB8EEF0
:1024C000411A32EE011AB7EE002A31EE021A61EE1D
:1024D000810A00BF00BF0B4E20363668C6F3462681
:1024E000721C01EE102AB8EE411AC0EE811ABCEE41
:1024F000E11A11EE100A00E0002001E0034800BFDD
:1025000000BFF0BD104402580090D00300093D0008
:1025100040787D01000000460024744C0024744A79
:1025200020BCBE4B2DE9F041044614B90120BDE8A2
:10253000F081207800F00100002871D0F848006890
:1025400000F03806F64818300768102E05D0182E0F
:102550000FD107F0030002280BD1F14810380068B2
:10256000C0F3404000286AD06068002867D101208D
:10257000DDE700BF6068B0F5803F08D1E84810385B
:10258000006840F48030E649103908602EE0606849
:1025900068B9E3481038006820F48030E049103909
:1025A00008600846006820F4802008601EE060682B
:1025B000B0F5A02F0DD1DA481038006840F4802023
:1025C000D749103908600846006840F48030086038
:1025D0000CE0D3481038006820F48030D04910391E
:1025E00008600846006820F48020086000BF60682A
:1025F00090B1FEF76DF9054606E0FEF769F9401B5C
:10260000642801D9032092E7C54810380068C0F358
:1026100040400028F1D012E0FEF75AF9054607E0E5
:102620000EE0FEF755F9401B642801D903207EE730
:10263000BB4810380068C0F340400028F1D100BF0B
:10264000207800F0020002287ED1B548006800F032
:102650003806B3481830076826B1182E48D107F05D
:102660000300C0BBAE4810380068C0F3800018B14A
:10267000E06808B901205AE7A9481038006820F03E
:102680001900E1680843A64910390860FEF720F9EF
:10269000054606E0FEF71CF9401B022801D903207D
:1026A00045E79F4810380068C0F380000028F1D04B
:1026B00000BFFEF707F941F2030188420CD89848A1
:1026C0000C38006820F47C30216940EA01309449DC
:1026D0000C3908600BE00BE091480C38006820F0E2
:1026E000FE40217C40EA01608D490C39086059E0C8
:1026F000E06850B38A481038006820F01900E1689B
:102700000843874910390860FEF7E2F8054606E0FD
:10271000FEF7DEF8401B022801D9032007E78048B6
:1027200010380068C0F380000028F1D000BFFEF729
:10273000C9F841F2030188420ED879480C38006884
:1027400020F47C30216901E02DE011E040EA013005
:1027500073490C3908600AE071480C38006820F0B1
:10276000FE40217C40EA01606D490C39086019E0A7
:102770006B481038006820F0010069491039086082
:10278000FEF7A6F8054606E0FEF7A2F8401B022871
:1027900001D90320CBE6624810380068C0F38000FE
:1027A0000028F1D100BF207800F01000102878D167
:1027B0005B48006800F03806594818300768082E52
:1027C00005D0182E2FD107F0030001282BD1544833
:1027D00010380068C0F3002020B1E069802801D0E3
:1027E0000120A4E600BFFEF76DF841F20301884224
:1027F0000CD84B480C38006820F0F84094F82010B2
:1028000040EA816046490C3908600BE04448001FEB
:10281000006820F07C5094F8201040EA01604049A4
:10282000091F086058E0E069D0B33D4810380068DF
:1028300040F080003A4910390860FEF749F8054633
:1028400006E0FEF745F8401B022801D903206EE69A
:10285000334810380068C0F300200028F1D000BFD2
:10286000FEF730F841F2030188420CD82C480C38AE
:10287000006820F0F84094F8201040EA8160284970
:102880000C3908600BE02648001F006820F07C50DF
:1028900094F8201040EA01602149091F08601BE0FC
:1028A00000E01AE01E481038006820F080001C4943
:1028B00010390860FEF70CF8054606E0FEF708F848
:1028C000401B022801D9032031E615481038006862
:1028D000C0F300200028F1D100BF207800F00800EC
:1028E000082836D16069E8B10D486430006840F0CE
:1028F00001000B4964310860FDF7EAFF054606E078
:10290000FDF7E6FF401B022801D903200FE604482B
:1029100064300068C0F340000028F1D019E00000E6
:1029200010440258CF48006820F00100CD490860EB
:10293000FDF7CEFF054606E0FDF7CAFF401B022863
:1029400001D90320F3E5C7480068C0F34000002820
:10295000F2D1207800F02000202836D1A069D0B133
:10296000C0487438006840F48050BE49743908602B
:10297000FDF7AEFF054606E0FDF7AAFF401B022863
:1029800001D90320D3E5B74874380068C0F340305C
:102990000028F1D019E0B3487438006820F4805062
:1029A000B04974390860FDF793FF054606E0FDF76E
:1029B0008FFF401B022801D90320B8E5A9487438CD
:1029C0000068C0F340300028F1D1207800F0040006
:1029D00004287DD1A448006840F48070A2490860B2
:1029E000FDF776FF054606E0FDF772FF401B642801
:1029F00001D903209BE59C48006800F48070002802
:102A0000F2D000BFA068012808D19648001F0068D6
:102A100040F001009349091F08602DE0A06868B9E3
:102A20009048001F006820F001008E49091F0860CF
:102A30000846006820F0040008601DE0A068052832
:102A40000DD18848001F006840F004008549091F27
:102A500008600846006840F0010008600CE081480A
:102A6000001F006820F001007E49091F0860084629
:102A7000006820F00400086000BFA068A0B1FDF766
:102A800027FF054608E0FDF723FF401B41F2883190
:102A9000884201D903204AE57248001F0068C0F34C
:102AA00040000028EFD013E0FDF712FF054608E0D4
:102AB000FDF70EFF401B41F28831884201D9032007
:102AC00035E56848001F0068C0F340000028EFD1DA
:102AD000606A00287ED063486438006800F03800DF
:102AE000182878D0606A022876D15E487438006869
:102AF00020F080705B4974390860FDF7E9FE0546F7
:102B000006E0FDF7E5FE401B022801D903200EE593
:102B1000544874380068C0F340600028F1D100BF09
:102B2000D4E90A1041EA00104E494C39096840F2D4
:102B3000F332914308434B494C390860208E401EC4
:102B4000C0F30800616B491E4FF47E4202EA412146
:102B50000843218F491ED20102EA014108433C216A
:102B6000095D491E120202EA016108433D494439E8
:102B7000086000BF081F006820F00100091F0860FE
:102B80003848403800684FF6F8718843A16C40EA35
:102B9000C10034494039086032484838006820F0A4
:102BA0000C00216C08432F4948390860084600682A
:102BB00020F00200616C08432A4948390860084641
:102BC000006840F4803008600846006840F4003037
:102BD000086002E043E040E024E00846006840F47A
:102BE000802008600846006840F0010008601D4829
:102BF0007438006840F080701A4974390860FDF735
:102C000067FE054606E0FDF763FE401B022801D97A
:102C100003208CE4134874380068C0F34060002837
:102C2000F1D01CE00F487438006820F080700D4926
:102C300074390860FDF74CFE054606E0FDF748FED6
:102C4000401B022801D9032071E40648743800684B
:102C5000C0F340600028F1D101E0012067E40020CA
:102C600065E40000744402580048025870477047F9
:102C70007047704770B588B004460D46032084F84D
:102C80003000A06B032820D0B5F5004F04D1606B55
:102C900040F0805060631CE0B5F5804F07D12046BE
:102CA00002F0D8F80646606B3043606311E03DB92E
:102CB000204602F09BF80646606B3043606308E0F4
:102CC000606B40F00060606303E0606B40F0805038
:102CD0006063606B38B1194821688863012084F80B
:102CE000300008B070BD60680390A068049005953E
:102CF000206906906069042802D3606907900FE09C
:102D0000A06DB0F5007F02D16069079008E0A06D6A
:102D1000B0F5807F02D10220079001E004200790E7
:102D2000DDE90601CDE90001206803A90EC901F023
:102D300081FC012084F830000020D2E7FF0FE01F63
:102D40002DE9F04704468846914647464E4694F89A
:102D50003000012877D100206063BE4206D2606B4C
:102D600040F0006060630120BDE8F087206DB04254
:102D700005D2606B40F0007060630120F4E703202F
:102D800084F830004020005D00F0200050B92F484A
:102D900021688863606B40F080606063012084F884
:102DA0003000E1E70021206801F03DFC00F00070F8
:102DB000B0F1007F0AD1254821688863606B40F438
:102DC00000606063012084F83000CDE7A06B01282B
:102DD00001D07F027602A06B03281FD039462068FD
:102DE00001F0CCF805464DB1184821688863606B46
:102DF00028436063012084F83000B5E7314620683D
:102E000001F09FF805464DB1104821688863606B5A
:102E100028436063012084F83000A5E7206801F0B2
:102E200009F8054655B1094821688863606B284355
:102E30006063012084F8300096E704E0012084F804
:102E40003000002090E702208EE70000FF0FE01F17
:102E50007047000010B50246D06D800F0870D06D2D
:102E6000C0F383604870D06DC0F301608870D06D8E
:102E7000000CC870B2F85C00000A087192F85C009F
:102E80004871106E000DC880106EC0F303400872C8
:102E90006020805AC0F3C03048726020805AC0F36E
:102EA000803088726020805AC0F34030C872602041
:102EB000805AC0F30030087300204873906B0028DC
:102EC00036D16020805A8005030D506E43EA907021
:102ED0000861506EC0F3C2600875506EC0F30260A6
:102EE0004875506EC0F342508875506EC0F38240F2
:102EF000C875506EC0F3C23008760869401C9064F3
:102F00000B7E906C03F007039B1C01249C406043E4
:102F10009064087A00F00F0301209840D064D2E951
:102F200012035B0A584310654FF40073536521E0A8
:102F3000906B012813D16020805C8006830A506E5C
:102F400043EA104008610869401C83029364936C53
:102F500013654FF40073D364D36C53650AE02E48B5
:102F600013689863506B40F080505063012082F8E2
:102F7000300010BD6420805AC0F3803001F8190F72
:102F80006420805AC0F3C61048706420805C00F052
:102F90007F008870906EC00FC870906EC0F3417053
:102FA0000871906EC0F382604871906EC0F38350D8
:102FB0008871906EC0F34050C87100200872906E06
:102FC000C0F3004048726820805AC0F3C030887255
:102FD0006820805AC0F38030C8726820805AC0F3DD
:102FE000403008736820805AC0F30030487368206E
:102FF000805AC0F3812088736820805AC0F3012072
:10300000C8736820805CC0F34600087401204874CF
:1030100019390020ADE70000FF0FE01FF8B50446A6
:10302000002000906946204601F01EFE054615B1BD
:10303000606B284360630098C0F343263046F8BDB8
:1030400070B590B005460C466946284601F072FD01
:10305000064656B1284829688863686B3043686320
:10306000012085F8300010B070BD0098C0F38110C9
:1030700020700098C0F340106070009800F47F004A
:10308000000A009940EA11606080019800060199E9
:1030900001F47F4140EA0120019901F47F0140EAF7
:1030A0001120019940EA1160606002982072029834
:1030B000000A60720298C0F30350A0720398C0B275
:1030C000029901F07F4140EA1140A0810398C0F3CA
:1030D0008520A0730398C0F30120E0730398C0F328
:1030E00003102074039800F00F0060740498000E21
:1030F000A0740020B7E70000FF0FE01F70B5044682
:10310000E56A2068406BC0F3C03030B105F00800BC
:1031100018B1204601F0ECFC26E12068406BC0F3BA
:103120000020002876D04FF48070216888632068E2
:10313000C06B4CF23A1188432168C8632068C06BA9
:1031400020F080502168C8632068C06820F04000EB
:103150002168C86005F0080030B305F0020010B91E
:1031600005F0200050B1206800F0EAFF06462EB1BD
:10317000606B304360632046FFF76AFE7B4821683E
:103180008863012084F830000020E06205F001002F
:1031900010B905F0020018B1204600F027FAE3E06C
:1031A000204600F029FADFE005F080000028B3D0C7
:1031B0000020216888622168C8622168086505F0DE
:1031C000020010B905F0200050B1206800F0B8FFEF
:1031D00006462EB1606B304360632046FFF738FE31
:1031E000012084F830000020E06205F0100010B9E2
:1031F00005F0200010B1204600F0FEF905F00100B6
:1032000018B905F00200002886D0204600F0EEF93B
:10321000AAE0FFE72068406BC0F3803030B105F0D2
:10322000080018B1204601F049FE9DE02068406B7F
:1032300000F03A0008B1012000E00020002870D022
:103240002068406BC0F3400018B1606B40F0020092
:1032500060632068406BC0F3C00018B1606B40F041
:10326000080060632068406BC0F3401018B1606BC9
:1032700040F0200060632068406BC0F3001018B17C
:10328000606B40F0100060633848216888632068F4
:10329000C06B20F49D702168C8632068C06820F06E
:1032A00040002168C8602068C06A40F4005021686E
:1032B000C8622068C06840F080002168C86020684B
:1032C00000F03EFF616B084360632068C06820F037
:1032D00080002168C8604FF400602168886305F0B1
:1032E000080040B1012084F830000020E062204650
:1032F000FFF7AEFD38E005F0800030B3606B20B31F
:103300002068C06B20F080502168C86300202168CD
:103310000865012084F830002046FFF799FD23E07E
:10332000FFE72068406BC0F3007070B14FF0805031
:10333000216888632068006D00F0040050B905F032
:10334000200018B12046FFF794FC0DE02046FFF75F
:103350008EFC09E005F0200018B12046FFF788FC3C
:1033600002E02046FFF782FC70BD00003A0F001813
:10337000F0B585B0044614B9012005B0F0BD94F84D
:10338000300020B900202076204600F09FF803206E
:1033900084F83000204600F045F808B10120ECE741
:1033A00069462046FFF74CFE08B10120E5E79DF88D
:1033B00010609DF81170A06B012805D106B91FB1EE
:1033C0004FF40071A16507E0A06B012802D1010252
:1033D000A16501E00021A1652046E168FFF74AFCF4
:1033E00008B10120C9E7FDF773FA05460CE0FDF7C7
:1033F0006FFA401B401C38B94FF000406063012059
:1034000084F830000320B8E72046FFF707FE0428C1
:10341000EDD100206063E062012084F830000020DC
:10342000ABE700002DE9F04188B00446002003908E
:10343000049005900690FA200790DDE90601CDE999
:103440000001206803A90EC901F0F4F807461FB176
:10345000012008B0BDE8F081206801F005F90746B9
:103460000FB10120F5E74FF48030FDF751FE4FF426
:10347000FA71B0FBF1F646B11348B0FBF6F000F17B
:1034800001084046FDF7F8F802E00220FDF7F4F8E5
:10349000204601F0CBFA05463DB1012084F830000A
:1034A000606B284360630120D3E7204601F0E0F918
:1034B00005463DB1012084F83000606B284360630D
:1034C0000120C6E70020C4E710210100704700007A
:1034D0002DE9F04387B004460F4691461E46C84684
:1034E0003FB9606B40F000606063012007B0BDE849
:1034F000F08394F83000012874D10020606308EB59
:103500000601206D814205D9606B40F00070606358
:103510000120EBE7032084F8300000202168C86216
:1035200067627002A062A06B012801D04FEA4828B0
:103530004FF40071206800F044FC05464DB12A4864
:1035400021688863606B28436063012084F8300041
:10355000CCE74FF0FF300190700202909020039072
:103560000220049000200590069001A9206800F038
:103570004BFE2068C06B40F495702168C8632068DA
:10358000C06840F040002168C8602068876501205D
:1035900021680865012E07D98220E0624146206833
:1035A00000F095FC054606E08120E0624146206877
:1035B00000F0AAFC05469DB10B482168886320688D
:1035C000C06B20F495702168C863606B284360630A
:1035D000012084F830000020E062012086E701E04D
:1035E000002083E7022081E7FF0FE01F0121014A4D
:1035F00011707047120000240121014A11707047B8
:10360000110000242DE9F04387B004460F4691468F
:103610001E46C8463FB9606B40F000606063012001
:1036200007B0BDE8F08394F83000012873D1002082
:10363000606308EB0601206D814205D9606B40F0A4
:10364000007060630120EBE7032084F83000002065
:103650002168C862E76170022062A06B012801D076
:103660004FEA48284FF40071206800F0AAFB054695
:103670004DB12A4821688863606B2843606301204C
:1036800084F83000CCE74FF0FF30019070020290D8
:1036900090200390002004900590069001A92068D6
:1036A00000F0B2FD2068C06B40F48D702168C863E3
:1036B0002068C06840F040002168C86020688765C5
:1036C000012021680865012E07D9A020E06241464B
:1036D000206800F05FFD054606E09020E06241466C
:1036E000206800F074FD05469DB10C482168886390
:1036F0002068C06B20F48D702168C863606B28431C
:103700006063012084F830000020E062012087E738
:1037100001E0002084E7022082E70000FF0FE01FA5
:10372000704710B5FFF7FCFF10BD10B504460CB98B
:10373000012010BDA06900B100E000BFD4F88000F6
:1037400028B9002084F87C00204600F02AF82420C4
:10375000C4F880002068006820F00100216808603B
:10376000204601F045FD012800D1E2E7A06A10B132
:10377000204601F087FC2068406820F490402168D2
:1037800048602068806820F02A00216888602068EE
:10379000006840F0010021680860204601F0EEFC5E
:1037A000C7E770472DE9F84F04460E46174699467D
:1037B000D4F8800020285DD106B117B90120BDE8FA
:1037C000F88F00BF94F87C00012801D10220F6E7B1
:1037D000012084F87C0000BF002054346063212065
:1037E000E062FDF775F8824627806780543CA06848
:1037F000B0F5805F04D1206910B90025B04602E021
:1038000035464FF000081DE0534600228021204637
:10381000CDF8009003F064F808B10320CFE745B974
:10382000B8F80000C0F308002168886208F10208B7
:1038300003E02878216888626D1CB4F85600401EA9
:10384000A4F85600B4F856000028DDD153460022F3
:1038500040212046CDF8009003F042F808B1032043
:10386000ADE72020C4F8800000BF002084F87C0071
:1038700000BFA4E70220A2E700BFFEE700B587B0C3
:1038800000BF1648006840F001001449086008466F
:10389000006800F00100019000BF00BF00BF0846B3
:1038A000006840F0040008600846006800F004006A
:1038B000019000BF00BF0120029000200390022071
:1038C000049002A90648FCF7EBFE4FF4005002906A
:1038D00002A90448FCF7E4FE07B000BDE04402582A
:1038E000000002580008025870B504460D462946EB
:1038F0002046FCF7D9FF012808D100BF2946204601
:10390000FCF7D2FF0128F9D0012070BD0020FCE7B0
:1039100000B587B000BF0F48006840F004000D49B3
:1039200008600846006800F00400019000BF00BF76
:10393000082002900120039004900220059002A923
:103940000548FCF7ADFE082003491831086007B0B0
:1039500000BD0000E04402580008025800BFFEE726
:10396000704770472DE9F04104460E460027554840
:10397000006800F00300032802D10120BDE8F081B7
:1039800050482838006820F080604E492839086087
:10399000FCF79EFF054606E0FCF79AFF401B022855
:1039A00001D90320EAE7474828380068C0F3C0601F
:1039B0000028F1D100BF4348006820F47C30216822
:1039C00040EA01303F490860A088401EC0F308006B
:1039D000A168491E4FF47E4202EA41210843A189B1
:1039E000491ED20102EA01410843217C491E12020C
:1039F00002EA0161084333491031086000BF3148D1
:103A0000001D006820F0C000616908432D49091DB0
:103A100008600846006820F02000A1690843294991
:103A2000091D08600846006820F01000086025485D
:103A3000143000684FF6F8718843E16940EAC1002C
:103A40002049143108601F48001D006840F0100034
:103A50001C49091D08602EB90846006840F4002082
:103A6000086012E0012E08D11648001D006840F4DD
:103A700080101449091D086007E01248001D006805
:103A800040F400100F49091D08600E4828380068EE
:103A900040F080600B4928390860FCF719FF0546A3
:103AA00006E0FCF715FF401B022801D9032065E75B
:103AB000044828380068C0F3C0600028F1D03846B8
:103AC0005CE70000284402582DE9F04104460E4608
:103AD00000275548006800F00300032802D10120A8
:103AE000BDE8F08150482838006820F080504E49E9
:103AF00028390860FCF7ECFE054606E0FCF7E8FE16
:103B0000401B022801D90320EAE74748283800680B
:103B1000C0F340700028F1D100BF4348006820F096
:103B20007C70218840EA01503F490860A088401E0F
:103B3000C0F30800A168491E4FF47E4202EA412109
:103B40000843A189491ED20102EA01410843217CB0
:103B5000491E120202EA0161084333491831086024
:103B600000BF3148001D006820F4406061690843CF
:103B70002D49091D08600846006820F40070A169FD
:103B800008432949091D08600846006820F4807030
:103B9000086025481C3000684FF6F8718843E169D9
:103BA00040EAC10020491C3108601F48001D006820
:103BB00040F480701C49091D08602EB90846006851
:103BC00040F48000086012E0012E08D11648001D64
:103BD000006840F400001449091D086007E012481D
:103BE000001D006840F080700F49091D08600E48F4
:103BF0002838006840F080500B4928390860FCF7ED
:103C000067FE054606E0FCF763FE401B022801D96B
:103C1000032065E7044828380068C0F34070002896
:103C2000F1D038465CE700002844025810B5002364
:103C3000234C236000BF00BF00BFBFF34F8F00BF06
:103C400000BF00BF231F1868C0F34E3100BFC0F390
:103C5000C90200BF43F6E07303EA41134FF040444A
:103C600004EA82742343174C236000BF00BF131E75
:103C7000A2F10102EED10B1EA1F10101E7D100BFBB
:103C800000BF00BFBFF34F8F00BF00BF00BF0C4B92
:103C9000703B1B6843F48033094C703C236000BFC9
:103CA00000BF00BFBFF34F8F00BF00BF00BF00BF0A
:103CB00000BF00BFBFF36F8F00BF00BF00BF10BDCC
:103CC00084ED00E060EF00E000BF00BF00BFBFF385
:103CD0004F8F00BF00BF00BF00BF00BF00BFBFF3DA
:103CE0006F8F00BF00BF00BF00201449086000BFF5
:103CF00000BF00BFBFF34F8F00BF00BF00BF00BFBA
:103D000000BF00BFBFF36F8F00BF00BF00BF0C48F4
:103D1000006840F400300A49086000BF00BF00BFDF
:103D2000BFF34F8F00BF00BF00BF00BF00BF00BF89
:103D3000BFF36F8F00BF00BF00BF704750EF00E0C0
:103D400014ED00E010B50248FFF7D8F910BD0000EF
:103D50001800002470B586B005460C460194372043
:103D600002904FF480700390002004904FF4805034
:103D7000059001A9284600F083FC41F288323721E2
:103D8000284600F079FA0646304606B070BD70B598
:103D900086B005460C460194292002904FF48070AD
:103DA0000390002004904FF48050059001A928460C
:103DB00000F066FC284600F06BFB0646304606B075
:103DC00070BD70B586B005460C4601941020029077
:103DD00000010390002004904FF48050059001A949
:103DE000284600F04DFC41F288321021284600F0B0
:103DF00043FA0646304606B070BD70B586B005463B
:103E00000C460194062002904FF48070039000202D
:103E100004904FF48050059001A9284600F030FC32
:103E200041F288320621284600F026FA064630463E
:103E300006B070BD30B585B0044600200090262045
:103E400001904FF480700290002003904FF4805056
:103E500004906946204600F013FC4FF218622621B8
:103E6000204600F009FA0546284605B030BD30B5B9
:103E700085B00446002000900190029003904FF41A
:103E8000805004906946204600F0FAFB204600F07E
:103E9000D1F90546284605B030BD30B585B0044699
:103EA0004FF4D5700090082001904001029000204E
:103EB00003904FF4805004906946204600F0E0FBE8
:103EC000204600F071FB0546284605B030BD70B5B0
:103ED00086B005460C460194122002904FF4807083
:103EE0000390002004904FF48050059001A92846CB
:103EF00000F0C6FB41F288321221284600F0BCF9DE
:103F00000646304606B070BD70B586B005460C4614
:103F10000194112002904FF48070039000200490CF
:103F20004FF48050059001A9284600F0A9FB41F20A
:103F300088321121284600F09FF90646304606B027
:103F400070BD70B586B005460C46019421200290E4
:103F50004FF480700390002004904FF4805005903F
:103F600001A9284600F08CFB41F288322121284625
:103F700000F082F90646304606B070BD70B586B0D6
:103F800005460C46019420200290C00003900020BA
:103F900004904FF48050059001A9284600F070FB72
:103FA00041F288322021284600F066F90646304664
:103FB00006B070BDF0B585B0064614461D460094A7
:103FC000072001904FF480700290002003904FF47E
:103FD000805004906946304600F052FB41F288322E
:103FE0000721304600F048F90746384605B0F0BDD5
:103FF00030B585B0044600200090022001904FF4B7
:1040000040700290002003904FF480500490694665
:10401000204600F035FB204600F006FA054628460B
:1040200005B030BD70B586B005460C460194092038
:1040300002904FF440700390002004904FF48050A1
:10404000059001A9284600F01BFB284600F0ECF97A
:104050000646304606B070BD30B585B00446002037
:104060000090332001904FF4807002900020039064
:104070004FF4805004906946204600F001FB41F265
:1040800088323321204600F0F7F80546284605B06F
:1040900030BD70B586B005460C4601940D200290E7
:1040A0004FF480700390002004904FF480500590EE
:1040B00001A9284600F0E4FA41F288320D21284691
:1040C00000F0DAF80646304606B070BD70B586B02E
:1040D00005460C4600200190032002904FF48070AA
:1040E0000390002004904FF48050059001A92846C9
:1040F00000F0C6FA22460321284600F0F7F90646EA
:10410000304606B070BD30B585B004460020009042
:104110000D2001904FF480700290002003904FF426
:10412000805004906946204600F0AAFA41F2883295
:104130000D21204600F0A0F80546284605B030BD08
:1041400030B585B00446002000900C2001904FF45B
:1041500080700290002003904FF480500490E0683B
:1041600040F08000E060E06820F04000E0606946D8
:10417000204600F085FA064A0C21204600F07CF823
:104180000546E06820F08000E060284605B030BDBC
:1041900000E1F50570B586B005460C46019419207E
:1041A00002904FF480700390002004904FF48050F0
:1041B000059001A9284600F063FA41F288321921DE
:1041C000284600F059F80646304606B070BD70B576
:1041D00086B005460C460194182002904FF480707A
:1041E0000390002004904FF48050059001A92846C8
:1041F00000F046FA41F288321821284600F03CF8D7
:104200000646304606B070BD10B502460023086869
:10421000506248689062D1E9020420430C6920434F
:104220004C6920430343D06A20F0FF001843D0625A
:10423000002010BD01460E480068C0084FF47A7394
:10424000B0FBF3F041F2883300FB03F200BF101E15
:10425000A2F1010202D14FF000407047486B00F01C
:1042600080000028F3D0034888630020F5E70000B1
:1042700000000024C50020002DE9F04305460F464C
:10428000904666480068C0084FF47A71B0FBF1F0C0
:1042900000FB08F900BFB9F10000A9F1010903D141
:1042A0004FF00040BDE8F0836E6B5D483040002861
:1042B000F1D006F400500028EDD1686B00F0040046
:1042C00010B10420A863EDE7686B00F0010010B1A5
:1042D0000120A863E6E752488030A863284600F032
:1042E00099F9B84201D00120DCE70021284600F00E
:1042F0009AF904464B48204008B90020D2E704F060
:104300000040B0F1004F02D14FF00070CAE704F056
:104310008040B0F1804F01D14020C3E704F000504D
:10432000B0F1005F01D18020BCE704F08050B0F113
:10433000805F02D14FF48070B4E704F00060B0F108
:10434000006F02D14FF40070ACE704F08060B0F170
:10435000806F02D14FF48060A4E704F08070B0F168
:10436000807F02D14FF400609CE704F40000B0F5B8
:10437000000F02D14FF4805094E704F48000B0F5B0
:10438000800F02D14FF400508CE704F40010B0F518
:10439000001F02D14FF4804084E704F48010B0F590
:1043A000801F02D14FF400407CE704F48020B0F578
:1043B000802F02D14FF4003074E704F40030B0F5E0
:1043C000003F02D14FF480206CE704F48030B0F558
:1043D000803F02D14FF4002064E704F40040B0F5C0
:1043E000004F02D14FF480105CE704F48040B0F538
:1043F000804F02D14FF4001054E704F40050B0F5A0
:10440000005F02D14FF480004CE704F00800082858
:1044100001D1000546E74FF4803043E70000002457
:104420004500200008E0FFFD10B501461648006871
:10443000C0084FF47A74B0FBF4F041F2883400FB0A
:1044400004F300BF181EA3F1010302D14FF0004096
:1044500010BD4A6B02F045000028F3D002F4005072
:104460000028EFD1486B00F0040010B104208863ED
:10447000EEE7486B00F0010010B101208863E7E728
:10448000024888630020E3E700000024C500200004
:1044900010B5014613480068C0084FF47A74B0FBA9
:1044A000F4F041F2883400FB04F300BF181EA3F1BE
:1044B000010302D14FF0004010BD4A6B02F04500ED
:1044C0000028F3D002F400500028EFD1486B00F030
:1044D000040010B104208863EEE7034888630020DD
:1044E000EAE7000000000024C50020002DE9F043A9
:1044F00004460F4690462A480068C0084FF47A7177
:10450000B0FBF1F041F2883100FB01F900BFB9F1D5
:104510000000A9F1010903D14FF00040BDE8F0838C
:10452000666B06F045000028F1D006F40050002824
:10453000EDD1606B00F0040010B10420A063EDE742
:10454000606B00F0010010B10120A063E6E7204697
:1045500000F060F8B84201D00120DFE71148A06305
:104560000021204600F05FF8054605F4604020B9C0
:10457000280CA8F800000020D0E705F48040B0F532
:10458000804F02D14FF40050C8E705F40040B0F569
:10459000004F02D14FF48050C0E74FF48030BDE7A8
:1045A00000000024C500200010B50146184800682E
:1045B000C0084FF47A74B0FBF4F041F2883400FB89
:1045C00004F300BF181EA3F1010302D14FF0004015
:1045D00010BD4A6B02F045000028F3D002F40050F1
:1045E0000028EFD1486B00F0040010B1042088636C
:1045F000EEE7486B00F0010010B101208863E7E7A7
:10460000486B00F0400008B1402088630020DFE7DD
:104610000000002401460869C0B2704701460868DE
:1046200000F003007047024602F1140043181868B6
:10463000704700000FB410B504460021DDE9030205
:104640001043059A1043069A1043079A10430143FA
:104650006068044A104008436060002010BC5DF8A8
:1046600014FB0000002CC0FF0146086840F0030066
:104670000860002070470146D1F8800070470000B4
:1046800010B50246002308689060D1E90104204378
:10469000CC6820430C6920430343D068024C20407F
:1046A0001843D060002010BDC0E0FEFF024608683D
:1046B000C2F880000020704770B50024002554B96E
:1046C0004FF4A05200210D48FEF73AFB044602F0D9
:1046D0008FF900B101253DB94FF400200849086069
:1046E00008A002F097F908E00820054908600AA030
:1046F00002F090F90D4802F08DF970BD1800002409
:10470000180802585344BFA8B2C1B3FDB2E2CAD4DC
:10471000B3C9B9A6A3A10A005344BFA8B2C1B3FD4F
:10472000B2E2CAD4CAA7B0DCA3A10A00406D000857
:104730002DE9F04389B004460F46FCF7C9F88146DD
:104740004FF000080020019002903E4608212068AA
:10475000FFF737FB05461DB1284609B0BDE8F083D9
:104760004422125B11042068FFF7F4FA05460DB1EC
:104770002846F2E74FF0FF300390082004903020E5
:10478000059002200690002007900120089003A9C0
:104790002068FFF739FD2068FFF75EFC05460DB184
:1047A0002846DAE71AE02068406B00F4002060B980
:1047B000B8F1000F09D12068FFF75DFF0190206874
:1047C000FFF759FF029008F10108FCF781F8A0EB10
:1047D0000900401C10B94FF00040BEE72068406B54
:1047E00040F22A5108400028DDD02068406B00F0DC
:1047F000080018B1082021688863AEE72068406B84
:1048000000F0020018B1022021688863A5E7206843
:10481000406B00F0200018B12020216888639CE7DD
:1048200012482168886302980006029901F47F41CA
:1048300040EA0120029901F47F0140EA1120029927
:1048400040EA11603060361D01980006019901F4BC
:104850007F4140EA0120019901F47F0140EA1120E3
:10486000019940EA11603060002076E73A0F0018A5
:1048700030B58DB00446012001902068FFF7CEFED0
:1048800018B94FF080600DB030BDA06B03281AD06E
:104890002068FFF7ADFB05460DB12846F3E7002180
:1048A0002068FFF7C0FEE06604212068FFF7BBFE2A
:1048B000206708212068FFF7B6FE60670C2120689A
:1048C000FFF7B1FEA067A06B032807D001A92068FD
:1048D000FFF7FCFB05460DB12846D4E7A06B032883
:1048E00020D0BDF8041061644422125B11042068DA
:1048F000FFF798FB05460DB12846C4E70021206864
:10490000FFF791FEE06504212068FFF78CFE20662A
:1049100008212068FFF787FE60660C212068FFF7FA
:1049200082FEA06604212068FFF77DFE010D216450
:1049300002A92046FEF78EFA10B14FF08050A2E790
:104940004420005B01040A4600232068FFF732FB85
:1049500005460DB1284696E7002094E770B500247F
:1049600001250020244908702449087000224FF4D2
:10497000A0612348FBF775FE7CB90A230022204979
:104980002048FEF73FFE044642F21070FBF7C2FDDE
:1049900000BF194800780028FBD000224FF4A06126
:1049A0001948FBF75EFE7CB90A2300221649154818
:1049B000FEF78EFD044642F21070FBF7ABFD00BF20
:1049C0000E4800780028FBD034B94FF4A0620E499D
:1049D0000B48FBF777FD05463DB94FF400200B4926
:1049E00008600BA002F016F805E0082007490860EF
:1049F0000D4802F00FF870BD1100002412000024D1
:104A0000940000241800002494050024180802587B
:104A10004D756C746920626C6F636B20B2E2CAD40E
:104A2000B3C9B9A6A3A10A00FC6C0008F8B50446F6
:104A300000200090002600272068FFF718FA05469E
:104A40000DB12846F8BD2068FFF727FA054645B1A5
:104A50000021E1632068FFF70AFA05461DB12846E8
:104A6000F0E70121E163E06B012808D10021206813
:104A7000FFF770F9054615B14FF08050E2E71DE0F1
:104A800000212068FFF766F905460DB12846D9E7F1
:104A900016492068FFF77BF9054615B14FF08050A5
:104AA000D0E700212068FFF7BEFD0646012080EA1E
:104AB000D67080F001070098401C00904FF6FF71FF
:104AC0000098884201D2002FDAD04FF6FF7100988B
:104AD000884202D34FF08070B4E706F08040B0F116
:104AE000804F01D10120A0630020ABE7000010C17E
:104AF0002DE9F04105466C6AA86A202817D30027E3
:104B00000FE02868FFF7B7FD06462670641C300AE0
:104B10002070641C300C2070641C300E2070641CEB
:104B20007F1C082FEDD36C62A86A2038A862BDE80C
:104B3000F08100002DE9F04387B004460F46FBF7F3
:104B4000C7FE80463E4600212068FFF76CFD00F05E
:104B50000070B0F1007F04D14FF4006007B0BDE8F1
:104B6000F08340212068FFF72CF905461DB1606BEA
:104B700060632846F2E74422125B11042068FFF7C5
:104B8000E9F805461DB1606B60632846E6E74FF023
:104B9000FF3001904020029060200390022004909A
:104BA000002005900120069001A92068FFF72CFB4A
:104BB0002068FFF7A8FA05461DB1606B60632846C0
:104BC000CCE71AE02068406B00F4004060B14FF081
:104BD000000906E02068FFF74EFD3060361D09F140
:104BE0000109B9F1080FF5D3FBF772FEA0EB08003D
:104BF000401C10B94FF00040B0E72068406B00F453
:104C000095700028DED02068406B00F0080008B1E5
:104C10000820A3E72068406B00F0020008B10220E2
:104C20009CE72068406B00F0200008B1202095E749
:104C30000DE02068FFF71FFD3060361DFBF748FED2
:104C4000A0EB0800401C10B94FF0004086E7206838
:104C5000406B00F480500028EBD102482168886343
:104C600000207BE73A0F001870B504460D4615B9D1
:104C70004FF0006070BD4422125B11042068FFF702
:104C800008FA06460EB13046F4E700212068FFF727
:104C9000CAFC28600020EDE770B500240125002241
:104CA00080211C48FBF7DDFC5CB901230022194977
:104CB0001948FEF7A7FC044600BF184800780028F2
:104CC000FBD0002280211648FBF7CBFC5CB9012306
:104CD000002213491048FEF7FBFB044600BF1148B1
:104CE00000780028FBD02CB980220D490948FBF739
:104CF000E9FB05463DB94FF400200B4908600BA0C5
:104D000001F088FE05E00820074908600E4801F020
:104D100081FE70BD940000241800002411000024BE
:104D200094050024120000241808025853696E6785
:104D30006C6520626C6F636B20B2E2CAD4B3C9B9F0
:104D4000A6A3A10A00000000B46C000810B508205A
:104D500010490860FBF732FB30B108200D490860AC
:104D60000DA001F057FE13E01BA001F053FE4FF41D
:104D7000002008490860FFF79FFC082005490860EB
:104D8000FFF78AFF4FF4002002490860FFF7E6FDB5
:104D900010BD0000180802585344BFA8B3F5CABCA0
:104DA000BBAFCAA7B0DCA3ACC7EBC8B7B1A3534431
:104DB000BFA8D2D1D5FDC8B7BDD3C8EBBFAAB7A293
:104DC000B0E5A3ACBBF2BBBBD2BBD5C55344BFA8B7
:104DD000B2E2CAD4A3A10A005344BFA8B3F5CABC27
:104DE000BBAFB3C9B9A6A3A10A0000007CB50446B5
:104DF00000200090019000212068FFF714FC00F0D3
:104E00000070B0F1007F02D14FF400607CBD6946B4
:104E10002046FFF78DFC05460DB12846F6E70198C0
:104E200000F4803098B14422125B11042068FEF730
:104E300091FF05460DB12846E8E700212068FEF7FE
:104E4000DCFF05460DB12846E0E70020DEE74FF025
:104E50008060DBE77CB504460020009001900021D3
:104E60002068FFF7E0FB00F00070B0F1007F02D196
:104E70004FF400607CBD69462046FFF759FC0546AB
:104E80000DB12846F6E7019800F4802098B144223D
:104E9000125B11042068FEF75DFF05460DB1284640
:104EA000E8E702212068FEF7A8FF05460DB1284675
:104EB000E0E70020DEE74FF08060DBE7F8B505466D
:104EC000EC69286A202821D3002619E02078009078
:104ED000641C2078009941EA00200090641C20782E
:104EE000009941EA00400090641C2078009941EA52
:104EF00000600090641C69462868FFF7D7FB761CA9
:104F0000082EE3D3EC61286A20382862F8BD704788
:104F100010B5FBF7EBFCFEF704FC10BD00B59DB02F
:104F20004C210AA8FBF70EFA202102A8FBF70AFA87
:104F30000220FBF74BFD00BF002001902A480068CB
:104F400040F44040284908600846006800F44040AA
:104F500001902648006820F00100401C23490860A9
:104F60000846006800F00100019000BF00BF00BFCC
:104F70001D48006800F40050B0F5005FF8D1012032
:104F80000A9000040B900220139002211491052135
:104F90001591C02116910221179104211891022127
:104FA000199108211A9100211B911C910AA8FDF763
:104FB000B9FA08B100BFFEE73F200290032003903A
:104FC00000200490082005904020069007900001E2
:104FD000089040200990042102A8FCF7D1FF08B1F5
:104FE00000BFFEE71DB000BD184802582C04005851
:104FF0002048006840F470001E4908601E480068A0
:1050000040F001001C49086000201B491031086075
:1050100019480068194908401749086000201649D6
:1050200018310860091D0860091D086012492831FF
:105030000860091D0860091D0860091D0860091D38
:105040000860091D0860091D0860091D08600A48FC
:10505000006820F48020084908600020064960317B
:105060000860012006490860C006024980390860CE
:105070007047000088ED00E0004402587FEDF6EA3A
:105080000881005190F8281001F0010139B1016840
:10509000496821F40031C26A11430268516090F8F6
:1050A000281001F00201022907D10168496821F4A2
:1050B0008031026B11430268516090F8281001F0B2
:1050C0000401042907D10168496821F48021426B59
:1050D00011430268516090F8281001F00801082976
:1050E00007D10168496821F40041826B11430268CD
:1050F000516090F8281001F01001102907D10168C3
:10510000896821F48051C26B11430268916090F864
:10511000281001F02001202907D10168896821F4B5
:105120000051026C11430268916090F8281001F060
:105130004001402913D10168496821F48011426C73
:10514000114302685160416CB1F5801F07D10168BD
:10515000496821F4C001826C11430268516090F8E3
:10516000281001F08001802907D10168496821F4E5
:105170000021C26C114302685160704738B5044683
:105180000020C4F88800FBF7A3FB054620680068F0
:1051900000F0080008280CD16FF07E402B4600225A
:1051A0004FF400110090204601F09AFB08B1032053
:1051B00038BD2068006800F0040004280CD16FF0AE
:1051C0007E402B4600224FF480010090204601F0E3
:1051D00087FB08B10320EBE72020C4F88000C4F867
:1051E000840000BF002084F87C0000BF00BFDFE720
:1051F0002DE9F04F89B004464FF0000900200790D8
:105200008346F9492068884200D100E000BF216947
:10521000A068084361690843E16940EA010A606ED9
:1052200040EA0A0A20680068F049084040EA0A009B
:10523000216808602068406820F44050E168084315
:1052400021684860D4F818A0E7492068884202D055
:10525000206A40EA0A0A20688068E549084040EA76
:105260000A00216888602068C06A20F00F00616A27
:1052700008432168C86200BFDE492068884220D107
:10528000DD48006800F03800182811D005DC48B16E
:10529000082809D0102811D108E020280AD0282891
:1052A0000CD109E001250BE0042509E0082507E001
:1052B000102505E0202503E0402501E0802500BF02
:1052C000F8E0CE492068884219D1CB48006800F048
:1052D0000700062810D2DFE800F0030507090B0DD0
:1052E00000250BE0042509E0082507E0102505E06E
:1052F000202503E0402501E0802500BFDAE0C04919
:105300002068884219D1BC48006800F007000628D0
:1053100010D2DFE800F0030507090B0D00250BE0B4
:10532000042509E0082507E0102505E0202503E015
:10533000402501E0802500BFBCE0B24920688842DA
:1053400019D1AD48006800F00700062810D2DFE848
:1053500000F0030507090B0D00250BE0042509E00B
:10536000082507E0102505E0202503E0402501E0A1
:10537000802500BF9EE0A4492068884219D19E483C
:10538000006800F00700062810D2DFE800F00305EF
:1053900007090B0D00250BE0042509E0082507E0AF
:1053A000102505E0202503E0402501E0802500BF11
:1053B00080E096492068884220D18F48006800F03C
:1053C0003800182811D005DC48B1082809D0102869
:1053D00011D108E020280AD028280CD109E00125A5
:1053E0000BE0042509E0082507E0102505E020254D
:1053F00003E0402501E0802500BF5BE08449206890
:10540000884219D17C48006800F00700062810D2B5
:10541000DFE800F0030507090B0D00250BE004256C
:1054200009E0082507E0102505E0202503E04025D8
:1054300001E0802500BF3DE076492068884219D10F
:105440006D48006800F00700062810D2DFE800F081
:10545000030507090B0D00250BE0042509E00825CD
:1054600007E0102505E0202503E0402501E0802528
:1054700000BF1FE05C49206888421AD15E48001DC9
:10548000006800F00700062810D2DFE800F00305EE
:1054900007090B0D02250BE0042509E0082507E0AC
:1054A000102505E0202503E0402501E0802500BF10
:1054B00000E0802500BF4C492068884271D1102D42
:1054C00070D006DC022D09D0042D49D0082D6AD1F8
:1054D000A6E0202D68D0402DF9D1B3E1FBF7BEFA4C
:1054E000616A09B9012138E0616A012901D102210B
:1054F00033E0616A022901D104212EE0616A0329A7
:1055000001D1062129E0616A042901D1082124E0A2
:10551000616A052901D10A211FE0616A062901D1CA
:105520000C211AE0616A072901D1102115E0616A96
:10553000082901D1202110E0616A092901D1402107
:105540000BE0616A0A2901D1802106E0616A0B291A
:1055500002D14FF4807100E00121B0FBF1FBB6E114
:1055600004A8FBF7A5FB0598616A09B9012154E07D
:10557000616A012901D102214FE0616A022901D14A
:1055800004214AE0616A032901D1062145E0616AEC
:10559000042901D1082140E0616A052905D10A21C9
:1055A0003BE0FDE380E08FE10BE1616A062901D178
:1055B0000C2132E0616A072901D110212DE0616AD6
:1055C000082901D1202128E0616A092901D140215F
:1055D00023E0616A0A2901D180211EE0616A0B295A
:1055E0001AD14FF4807118E0000C0058F369FFCF16
:1055F000FFF4FF11001001405444025800440040E1
:1056000000480040004C00400050004000140140A1
:1056100000780040007C00400121B0FBF1FB56E126
:1056200001A8FBF75DFC0298616A09B9012138E025
:10563000616A012901D1022133E0616A022901D1A5
:1056400004212EE0616A032901D1062129E0616A63
:10565000042901D1082124E0616A052901D10A2128
:105660001FE0616A062901D10C211AE0616A07294D
:1056700001D1102115E0616A082901D1202110E033
:10568000616A092901D140210BE0616A0A2901D12F
:10569000802106E0616A0B2902D14FF4807100E09D
:1056A0000121B0FBF1FB12E1FA480068C0F34010A1
:1056B00088B3F8480068C0F3C101F748C840616A80
:1056C00009B9012139E0616A012901D1022134E0DF
:1056D000616A022901D104212FE0616A032901D105
:1056E00006212AE0616A042901D1082125E0616AC6
:1056F000052901D10A2120E0616A062901D10C2186
:105700001BE0616A072901D1102116E0616A0829AE
:1057100002D1202111E013E0616A092901D1402161
:105720000BE0616A0A2901D1802106E0616A0B2938
:1057300002D14FF4807100E00121B0FBF1FB3FE0AA
:10574000606A08B9012038E0606A012801D10220AE
:1057500033E0606A022801D104202EE0606A032849
:1057600001D1062029E0606A042801D1082024E044
:10577000606A052801D10A201FE0606A062801D16D
:105780000C201AE0606A072801D1102015E0606A39
:10579000082801D1202010E0606A092801D14020AA
:1057A0000BE0606A0A2801D1802006E0606A0B28BD
:1057B00002D14FF4807000E00120B749B1FBF0FB4B
:1057C00085E0606A08B9012038E0606A012801D1EB
:1057D000022033E0606A022801D104202EE0606AD2
:1057E000032801D1062029E0606A042801D108209D
:1057F00024E0606A052801D10A201FE0606A0628BB
:1058000001D10C201AE0606A072801D1102015E0B0
:10581000606A082801D1202010E0606A092801D1BF
:1058200040200BE0606A0A2801D1802006E0606A0F
:105830000B2802D14FF4807000E001209749B1FBA2
:10584000F0FB44E0606A08B9012038E0606A012892
:1058500001D1022033E0606A022801D104202EE049
:10586000606A032801D1062029E0606A042801D17A
:10587000082024E0606A052801D10A201FE0606A40
:10588000062801D10C201AE0606A072801D11020F7
:1058900015E0606A082801D1202010E0606A09281C
:1058A00001D140200BE0606A0A2801D1802006E087
:1058B000606A0B2802D14FF4807000E001204FF4A1
:1058C0000041B1FBF0FB02E00120079000BF00BFE8
:1058D000BBF1000F00F0F287606800EB4000584514
:1058E00003D860680003584503D20120079000F0F8
:1058F000E5BF102D75D006DC022D09D0042D67D030
:10590000082D6FD1CCE0202D6DD0402DF9D14DE286
:10591000FBF7A4F88046606A08B9012238E0606AA3
:10592000012801D1022233E0606A022801D1042259
:105930002EE0606A032801D1062229E0606A04286B
:1059400001D1082224E0606A052801D10A221FE063
:10595000606A062801D10C221AE0606A072801D18A
:10596000102215E0606A082801D1202210E0606A48
:10597000092801D140220BE0606A0A2801D1802267
:1059800006E0606A0B2802D14FF4807200E0012229
:105990009446002340461946FAF79CFC4FF4807366
:1059A00000228C46A0FB031E0CFB03E300FB02332A
:1059B000606840088C461CEB000643EB0201D4F8FB
:1059C00004C0624600233046FAF784FC81464EE26A
:1059D00004A8FBF76DF9DDF814E0606A20B9012234
:1059E0003BE0BFE040E282E1606A012801D102228F
:1059F00033E0606A022801D104222EE0606A0328A5
:105A000001D1062229E0606A042801D1082224E09D
:105A1000606A052801D10A221FE0606A062801D1C8
:105A20000C221AE0606A072801D1102215E0606A92
:105A3000082801D1202210E0606A092801D1402203
:105A40000BE0606A0A2801D1802206E0606A0B2818
:105A500002D14FF4807200E0012294460023704688
:105A60001946FAF737FC4FF4807C0022A0FB0C3E6D
:105A700001FB0CE100FB0211606840081E18514157
:105A8000D4F804C0624600233046FAF723FC81466E
:105A9000EDE10000004402580090D00300093D00F1
:105AA00001A8FBF71DFADDF808C0606A08B90122F9
:105AB00038E0606A012801D1022233E0606A0228DE
:105AC00001D104222EE0606A032801D1062229E0D8
:105AD000606A042801D1082224E0606A052801D107
