:020000040800F2
:10000000A8040024B1020008892C0008352C00083F
:10001000852C0008BD030008F94A00080000000014
:10002000000000000000000000000000D12F0008C8
:10003000BD040008000000008B2C0008D32F00082E
:10004000CB020008CB020008CB020008CB0200085C
:10005000CB020008CB020008CB020008CB0200084C
:10006000CB020008CB020008CB020008CB0200083C
:10007000CB020008CB020008CB020008CB0200082C
:10008000CB020008CB020008CB020008CB0200081C
:10009000CB020008CB020008CB020008CB0200080C
:1000A000CB020008CB020008CB020008CB020008FC
:1000B000CB020008CB020008CB020008CB020008EC
:1000C000CB020008CB020008CB020008CB020008DC
:1000D000CB020008C14A0008CB020008CB0200088E
:1000E000CB020008CB02000800000000CB02000891
:1000F000CB020008CB020008CB020008CB020008AC
:10010000CB020008CB020008CB020008CB0200089B
:10011000CB020008CB020008CB020008CB0200088B
:10012000CB020008CB020008CB020008CB0200087B
:10013000CB020008CB020008CB020008CB0200086B
:1001400000000000000000000000000000000000AF
:10015000CB020008CB020008CB020008CB0200084B
:10016000CB020008CB020008CB020008CB0200083B
:10017000CB020008CB020008CB020008CB0200082B
:10018000CB020008CB020008CB020008CB0200081B
:10019000CB020008CB020008CB020008CB0200080B
:1001A000CB020008CB020008CB020008CB020008FB
:1001B000CB020008CB020008CB020008CB020008EB
:1001C000CB020008CB020008CB020008CB020008DB
:1001D000CB020008CB020008CB020008CB020008CB
:1001E000CB020008CB020008CB020008CB020008BB
:1001F000CB020008CB020008CB020008CB020008AB
:10020000CB020008CB020008CB020008CB0200089A
:10021000CB020008CB020008CB020008CB0200088A
:10022000CB020008CB020008CB020008000000004F
:10023000CB020008CB02000800000000CB0200083F
:10024000CB020008CB020008CB020008CB0200085A
:10025000CB020008CB020008CB020008CB0200084A
:10026000CB020008CB020008CB020008CB0200083A
:10027000CB020008CB020008CB02000800000000FF
:10028000CB020008CB020008CB02000800000000EF
:1002900000000000CB020008DFF810D000F07CF86E
:1002A00000480047C54B0008AFF30080A8040024B5
:1002B0000648804706480047FEE7FEE7FEE7FEE700
:1002C000FEE7FEE7FEE7FEE7FEE7FEE7AD300008EB
:1002D000990200082DE9F05F0546002092469B46F2
:1002E00088460646814640241BE02846414647464C
:1002F000224600F041F853465A46C01A914110D3A5
:1003000011461846224600F028F82D1A67EB01081E
:100310004F4622460120002100F01FF817EB00098C
:100320004E41201EA4F10104DFDC484631462A4636
:100330004346BDE8F09FD2B201E000F8012B491E10
:10034000FBD270470022F6E710B513460A46044672
:100350001946FFF7F0FF204610BD202A04DB203AA3
:1003600000FA02F1002070479140C2F1200320FA08
:1003700003F3194390407047202A04DB203A21FA06
:1003800002F00021704721FA02F3D040C2F12002AE
:100390009140084319467047064C074D06E0E06857
:1003A00040F0010394E8070098471034AC42F6D3BC
:1003B000FFF776FFD04C0008F04C000800BFFEE7C6
:1003C00000B5B5B000BF3948006840F001003749BA
:1003D00008600846006800F00100009000BF00BF00
:1003E00000BF0846006840F0010008600846006849
:1003F00000F00100009000BF00BF0120019000202C
:100400001F9001A800F0B2FD00BF2848103000681E
:1004100040F010002549103108600846006800F0DF
:100420001000009000BF00BF4FF400703090022019
:10043000319001203290022033900720349030A96F
:100440001B4800F08DF94FF4806030900720349005
:1004500030A9174800F084F91648174908604FF48E
:10046000E1304860002114488160C16001610C21C5
:10047000416100218161C161016200200E498862F1
:10048000084602F09BFA00221146252000F0A6FA49
:10049000252000F093FA08480068006840F020002A
:1004A00005490968086035B000BD0000E044025805
:1004B000000002580010014018000024704700009E
:1004C00070B504460CB9012070BD94F835000228BF
:1004D00003D0802060650120F6E79F4920688842AC
:1004E00049D09D4918312068884244D09A4930311A
:1004F000206888423FD098494831206888423AD0E5
:10050000954960312068884235D093497831206818
:10051000884230D090499031206888422BD08E4953
:10052000A8312068884226D08C492068884222D091
:100530008A491831206888421DD0884930312068A6
:10054000884218D0854948312068884213D08349B1
:100550006031206888420ED0804978312068884216
:1005600009D07E4990312068884204D07B49A83167
:100570002068884201D1012000E00020F0B304206F
:1005800084F835007449206888424BD0724918318C
:100590002068884246D0704930312068884241D076
:1005A0006D494831206888423CD06B4960312068F1
:1005B000884237D0684978312068884232D066490D
:1005C0009031206888422DD06349A8312068884244
:1005D00028D062492068884224D0604918312068B8
:1005E00088421FD05D493031206888421AD05B496B
:1005F00048312068884215D0584900E020E0603139
:10060000206888420ED0554978312068884209D048
:10061000524990312068884204D05049A83120685E
:10062000884206D12068006820F001002168086037
:1006300090E02068006820F001002168086089E0EF
:100640002068006820F00E00216808604249206898
:10065000884249D0404918312068884244D03E49F8
:100660003031206888423FD03B4948312068884279
:100670003AD0394960312068884235D036497831DE
:100680002068884230D034499031206888422BD08D
:100690003149A8312068884226D0304920688842F4
:1006A00022D02E491831206888421DD02B49303184
:1006B0002068884218D0294948312068884213D0E0
:1006C00026496031206888420ED02449783120685C
:1006D000884209D0214990312068884204D01F49BE
:1006E000A8312068884206D12068006820F0010007
:1006F0002168086005E02068006820F0010021689A
:100700000860206E006820F48070216E0860A56D7E
:1007100094F85C0000F01F01012088406860D4E973
:1007200019104860E06E40B1E06E006820F48070FF
:10073000E16E0860D4E91C10486000BF002084F816
:10074000340000BF012084F83500206D10B1204630
:10075000216D88470020B7E61000024010040240D7
:10076000F8B502460023734DDEE001279F400E6876
:1007700006EA0704002C71D04E68022E02D04E68A3
:10078000122E13D1DF0802F1200656F827005E076B
:10079000F70E0F26BE40B0435F07FF0E0E69BE4046
:1007A0003043DF0802F1200646F8270010685F009A
:1007B0000326BE40B0430E7906F003065F00BE403C
:1007C000304310604E68012E08D04E68022E05D0CE
:1007D0004E68112E02D04E68122E13D190685F0021
:1007E0000326BE40B0435F00CE68BE4030439060F9
:1007F000506801269E40B0430E79C6F300169E4015
:1008000030435060D0685F000326BE40B0435F00B5
:100810008E68BE403043D0604E6806F08056B6F118
:10082000805F1BD100BF444E366846F00206424F3F
:100830003E603E46366806F00206009600BF00BFE6
:100840003E4E9F0856F827009E07370F0F26BE40E2
:10085000B0433B4EB24202D100262EE063E0394E57
:10086000B24201D1012628E0374EB24201D1022620
:1008700023E0364EB24201D103261EE0344EB2428E
:1008800001D1042619E0334EB24201D1052614E00D
:10089000314EB24201D106260FE0304EB24201D1B4
:1008A00007260AE02E4EB24201D1082605E02D4E61
:1008B000B24201D1092600E00A269F073F0FBE4041
:1008C00030431E4E9F0846F827002868A0434E6814
:1008D00006F48036B6F5803F00D120432860686872
:1008E000A0434E6806F40036B6F5003F00D1204321
:1008F00068604FF0B0463068A0434E6806F480163A
:10090000B6F5801F00D120434FF0B04630607068CC
:10091000A0434E6806F40016B6F5001F00D1204330
:100920004FF0B04670605B1C0E68DE40002E7FF416
:100930001CAFF8BD80000058F44402580804005869
:10094000000002580004025800080258000C025827
:10095000001002580014025800180258001C0258D7
:10096000002002580024025801480068000C70471B
:100970000010005C044840680449B0FBF1F04FF4FB
:100980007A71484370470000001000E000389C1C5A
:1009900001460848006840F08070064A1060002058
:1009A000054A50601046006840F0010010600020C9
:1009B00070470000FCED00E0001000E00146084632
:1009C000002809DB00F01F0301229A4043099B0025
:1009D00003F1E023C3F8002100BF70472DE9F05F69
:1009E00080460D46164604F0A3F8074639462A46C7
:1009F000334601F00700C0F1070ABAF1040F02D92B
:100A00004FF0040A01E0C0F1070AD14600F1040AE0
:100A1000BAF1070F02D24FF0000A01E0A0F1030A79
:100A2000D4464FF0010A0AFA09FAAAF1010A0AEAC1
:100A3000020A0AFA0CFA4FF0010B0BFA0CFBABF1AD
:100A4000010B0BEA030B4AEA0B042146404604F073
:100A500077F8BDE8F09F000070B5044615480068BF
:100A600000F00400042807D01248006800F00700D6
:100A7000A04201D0012070BD0E48006820F00700A0
:100A800020430C490860FFF775FF054607E0FFF7B4
:100A900071FF401BB0F57A7F01D90320EBE70548D1
:100AA0000838006800F40050B0F5005FEFD1002076
:100AB000E1E700000C48025810B501F0B5F907490C
:100AC0000968C1F30321064A515C01F01F01C840C7
:100AD000044908600846006810BD00001844025828
:100AE000C04C00080000002410B501F061F9054970
:100AF0000968C1F30211044A515C01F01F01C840AA
:100B000010BD000020440258C04C000870B50146DA
:100B1000844D2D6805F00303824D2D68C5F3053023
:100B2000804D2D1D2D6805F010047E4D14352D6867
:100B3000C5F3CC0515FB04F501EE105AB8EE411AC9
:100B4000F0EE410A00286FD023B1012B4ED0022BCA
:100B50006BD16BE0734D283D2D68C5F340153DB357
:100B6000704D283D2D68C5F3C1066F4D25FA06F27C
:100B700001EE102AF8EE411A01EE100AB8EE411A01
:100B800081EE812A9FED691AC0EE811A654D1035FC
:100B90002D68C5F3080501EE105AB8EE411A31EE82
:100BA000811AF7EE001A31EE211A22EE010A1CE03A
:100BB00001EE100AB8EE411ADFED5D1A81EE812ACE
:100BC0009FED5A1AC0EE811A564D10352D68C5F3A7
:100BD000080501EE105AB8EE411A31EE811AF7EE0F
:100BE000001A31EE211A22EE010A5BE001EE100A32
:100BF000B8EE411ADFED4F1A81EE812A9FED4B1AB4
:100C0000C0EE811A474D10352D68C5F3080501EE79
:100C1000105AB8EE411A31EE811AF7EE001A31EE91
:100C2000211A22EE010A3DE077E01DE001EE100AF4
:100C3000B8EE411A9FED402AC2EE011A9FED3B1A11
:100C400080EE812A374D10352D68C5F3080501EE79
:100C5000105AB8EE411A32EE011AB7EE002A31EE00
:100C6000021A21EE810A1DE001EE100AB8EE411AC7
:100C7000DFED301A81EE812A9FED2C1AC0EE811A29
:100C8000284D10352D68C5F3080501EE105AB8EE51
:100C9000411A31EE811AF7EE001A31EE211A22EED6
:100CA000010A00BF00BF1F4D10352D68C5F3462552
:100CB00001EE105AB8EE411AF7EE001A31EE211A81
:100CC000C0EE011ABCEEE11A81ED001A154D103587
:100CD0002D68C5F3064501EE105AB8EE411AF7EE3D
:100CE000001A31EE211AC0EE011ABCEEE11A81EDB4
:100CF000011A0C4D10352D68C5F3066501EE105A2A
:100D0000B8EE411AF7EE001A31EE211AC0EE011AC0
:100D1000BCEEE11A81ED021A03E000250D604D6082
:100D20008D6070BD284402580090D003000000463A
:100D30000024744C0024744A20BCBE4B70B501469C
:100D4000844D2D6805F00303824D2D68C5F30550D1
:100D5000804D2D1D2D6805F480747E4D1C352D6849
:100D6000C5F3CC0515FB04F501EE105AB8EE411A97
:100D7000F0EE410A00286FD023B1012B4ED0022B98
:100D80006BD16BE0734D283D2D68C5F340153DB325
:100D9000704D283D2D68C5F3C1066F4D25FA06F24A
:100DA00001EE102AF8EE411A01EE100AB8EE411ACF
:100DB00081EE812A9FED691AC0EE811A654D1835C2
:100DC0002D68C5F3080501EE105AB8EE411A31EE50
:100DD000811AF7EE001A31EE211A22EE010A1CE008
:100DE00001EE100AB8EE411ADFED5D1A81EE812A9C
:100DF0009FED5A1AC0EE811A564D18352D68C5F36D
:100E0000080501EE105AB8EE411A31EE811AF7EEDC
:100E1000001A31EE211A22EE010A5BE001EE100AFF
:100E2000B8EE411ADFED4F1A81EE812A9FED4B1A81
:100E3000C0EE811A474D18352D68C5F3080501EE3F
:100E4000105AB8EE411A31EE811AF7EE001A31EE5F
:100E5000211A22EE010A3DE077E01DE001EE100AC2
:100E6000B8EE411A9FED402AC2EE011A9FED3B1ADF
:100E700080EE812A374D18352D68C5F3080501EE3F
:100E8000105AB8EE411A32EE011AB7EE002A31EECE
:100E9000021A21EE810A1DE001EE100AB8EE411A95
:100EA000DFED301A81EE812A9FED2C1AC0EE811AF7
:100EB000284D18352D68C5F3080501EE105AB8EE17
:100EC000411A31EE811AF7EE001A31EE211A22EEA4
:100ED000010A00BF00BF1F4D18352D68C5F3462518
:100EE00001EE105AB8EE411AF7EE001A31EE211A4F
:100EF000C0EE011ABCEEE11A81ED001A154D18354D
:100F00002D68C5F3064501EE105AB8EE411AF7EE0A
:100F1000001A31EE211AC0EE011ABCEEE11A81ED81
:100F2000011A0C4D18352D68C5F3066501EE105AEF
:100F3000B8EE411AF7EE001A31EE211AC0EE011A8E
:100F4000BCEEE11A81ED021A03E000250D604D6050
:100F50008D6070BD284402580090D0030000004608
:100F60000024744C0024744A20BCBE4B2DE9F0418F
:100F700004460025A846206800F00060B0F1006F2C
:100F800030D1606E48B1B0F5801F0DD0B0F5001FB4
:100F900010D0B0F5401F15D113E0F948006840F4B7
:100FA0000030F74908600FE00221201D01F06EFEBD
:100FB000054609E0022104F1240001F019FF05466D
:100FC00002E001E0012500BF00BF55B9EC48243024
:100FD000006820F44010616E0843E949243108603C
:100FE00000E0A846208800F48070B0F5807F2DD105
:100FF000606D05281AD2DFE800F0030A1017180008
:10100000DF48006840F40030DD49086010E000214E
:10101000201D01F03BFE05460AE0002104F12400FA
:1010200001F0E6FE054603E002E001E0012500BF15
:1010300000BF55B9D2482430006820F00700616D28
:101040000843CF492431086000E0A846208800F416
:101050000070B0F5007F33D1A06D802817D003DC7D
:1010600040B140281CD10CE0C02817D0B0F5807FDB
:1010700016D114E0C248006840F40030C04908604E
:1010800010E00021201D01F001FE05460AE00021CC
:1010900004F1240001F0ACFE054603E002E001E0AB
:1010A000012500BF00BF55B9B5482430006820F4C1
:1010B000E070A16D0843B2492431086000E0A84601
:1010C000208800F48060B0F5806F38D1D4F8A40097
:1010D000B0F5800F19D004DC50B1B0F5001F1DD160
:1010E0000DE0B0F5C00F17D0B0F5000F16D114E029
:1010F000A348006840F40030A149086010E00021D6
:10110000201D01F0C3FD05460AE0002104F1240082
:1011100001F06EFE054603E002E001E0012500BF9C
:1011200000BF5DB996482C30006820F46000D4F808
:10113000A410084392492C31086000E0A84620889A
:1011400000F40060B0F5006F38D1D4F8A800B0F119
:10115000007F19D004DC50B1B0F1807F1DD10DE0CB
:10116000B0F1407F17D0B0F1806F16D114E0844801
:10117000006840F400308249086010E00021201D22
:1011800001F084FD05460AE0002104F1240001F08D
:101190002FFE054603E002E001E0012500BF00BF8D
:1011A0005DB977482C30006820F0E060D4F8A810D2
:1011B000084373492C31086000E0A846206800F01D
:1011C0000070B0F1007F27D1A06CA0B1102804D02E
:1011D000202809D030280FD10CE06948006840F47D
:1011E00000306749086009E00221201D01F04EFD32
:1011F000054603E002E001E0012500BF00BF55B94C
:101200005F482030006820F03000A16C08435C4942
:101210002031086000E0A846208800F48050B0F536
:10122000805F36D1E06DB0F5005F19D004DC50B1BD
:10123000B0F5805F1DD10DE0B0F5405F17D0B0F57F
:10124000804F16D114E04E48006840F400304C49FD
:10125000086010E00021201D01F018FD05460AE09D
:10126000002104F1240001F0C3FD054603E002E083
:1012700001E0012500BF00BF55B941482430006896
:1012800020F4E040E16D08433D492431086000E06E
:10129000A846208800F40050B0F5005F34D1206EDD
:1012A000B0F5403F1DD007DC68B1B0F5803F0BD0F2
:1012B000B0F5003F18D10DE0B0F5802F12D0B0F599
:1012C000A02F11D10FE011E00121201D01F0DEFC63
:1012D00005460BE0012104F1240001F089FD0546DB
:1012E00004E003E002E001E0012500BF00BF55B9C2
:1012F00023482430006820F4E020216E0843204970
:101300002431086000E0A846208800F48040B0F551
:10131000804F38D1D4F8AC00B0F1405F1DD007DC6D
:1013200068B1B0F1805F0BD0B0F1005F18D10DE073
:10133000B0F1804F12D0B0F1A04F11D10FE011E009
:101340000121201D01F0A2FC05460BE0012104F162
:10135000240001F04DFD054604E003E002E001E059
:10136000012500BF00BF6DB905482C30006820F092
:10137000E040D4F8AC10084301492C31086002E089
:101380002C440258A846208800F40040B0F5004FD5
:1013900026D1E06E98B1B0F1805F03D0B0F1005F6C
:1013A0000ED106E0F948006840F40030F7490860C3
:1013B00008E00121201D01F069FC054602E001E082
:1013C000012500BF00BF55B9F0482430006820F067
:1013D0004050E16E0843ED492431086000E0A84622
:1013E000206800F08070B0F1807F27D1606CA0B1E0
:1013F000012804D0022809D003280FD10CE0E348CB
:10140000006840F40030E149086009E00221201D35
:1014100001F03CFC054603E002E001E0012500BFCD
:1014200000BF55B9D9482030006820F00300616C36
:101430000843D6492031086000E0A846206800F43F
:101440008000B0F5800F7DD1D148006840F48070F5
:10145000CF490860FFF78EFA064606E0FFF78AFAE2
:10146000801B642801D9032505E0C948006800F401
:1014700080700028F2D000BF85BBC44844300068AB
:1014800000F44070B4F8B01001F44071884213D0F9
:10149000BE484430006820F44077BC4844300068BF
:1014A00040F48030B949443108600846006820F4AF
:1014B0008030086008460760D4F8B000B0F5807F3F
:1014C00015D1FFF757FA064609E0FFF753FA801BDC
:1014D00041F28831884202D9032507E038E0AB4861
:1014E00044300068C0F340000028EED000BF55BB78
:1014F00000BFB4F8B00000F44070B0F5407F0ED1EA
:10150000A2481C38006820F47C51A24AD4F8B000EC
:10151000104041EA10109D491C39086007E09B48C3
:101520001C38006820F47C5098491C3908609748A2
:1015300044300068B4F8B010C1F30B01084393497C
:10154000443101E005E001E0086002E0A84600E067
:10155000A846207800F0010068B3A06F182819D0C1
:1015600005DC48B1082808D0102816D10BE0202847
:1015700011D0282811D10FE011E00121201D01F028
:1015800085FB05460BE0012104F1240001F030FC4D
:10159000054604E003E002E001E0012500BF00BFD2
:1015A00055B97A482830006820F03800A16F084308
:1015B00076492831086000E0A846207800F0020053
:1015C000022828D1606F062815D2DFE800F0030456
:1015D0000A11121311E00121201D01F057FB0546ED
:1015E0000BE0012104F1240001F002FC054604E0B7
:1015F00003E002E001E0012500BF00BF55B96348E8
:101600002830006820F00700616F08435F492831E7
:10161000086000E0A846207800F0040004282AD1E1
:10162000D4F89000062815D2DFE800F003040A1170
:10163000121311E00121201D01F028FB05460BE0EB
:10164000012104F1240001F0D3FB054604E003E08E
:1016500002E001E0012500BF00BF5DB94B482C301E
:10166000006820F00700D4F89010084347492C3157
:10167000086000E0A846207800F02000202836D13D
:10168000D4F88C00B0F1405F1DD007DC68B1B0F138
:10169000805F0BD0B0F1005F18D10DE0B0F1804F4A
:1016A00012D0B0F1A04F11D10FE011E00021201DA8
:1016B00001F0ECFA05460BE0022104F1240001F0F0
:1016C00097FB054604E003E002E001E0012500BFCE
:1016D00000BF5DB92D482830006820F0E040D4F804
:1016E0008C10084329492831086000E0A84620787A
:1016F00000F04000402836D1D4F89800B0F5406F93
:101700001DD007DC68B1B0F5806F0BD0B0F5006F6D
:1017100018D10DE0B0F5805F12D0B0F5A05F11D107
:101720000FE011E00021201D01F0B0FA05460BE0AA
:10173000022104F1240001F05BFB054604E003E014
:1017400002E001E0012500BF00BF5DB90F482C3069
:10175000006820F4E050D4F8981008430B492C316D
:10176000086000E0A846207800F0800080283AD188
:10177000D4F89C00B0F5C04F23D00DDC98B1B0F583
:10178000005F11D0B0F5804F1ED113E02C440258F9
:1017900000480258FFFCFF0FB0F5004F12D0B0F523
:1017A000204F11D10FE011E00021201D01F06EFA51
:1017B00005460BE0022104F1240001F019FB054667
:1017C00004E003E002E001E0012500BF00BF4DB9E5
:1017D000B648006820F46040D4F89C100843B34930
:1017E000086000E0A846207800F00800082818D11A
:1017F000D4F88000B0F5805F08D1022104F1240004
:1018000001F0F6FA68B14FF001080AE0A748001F9E
:10181000006820F44050D4F880100843A349091F01
:101820000860207800F01000102816D1D4F8940039
:10183000B0F5807F08D1022104F1240001F0D8FA2C
:1018400058B14FF0010808E09848006820F4407053
:10185000D4F89410084395490860206800F40020EB
:10186000B0F5002F26D1D4F8A00030B1B0F5803FFC
:1018700009D0B0F5003F0ED10CE00021201D01F091
:1018800005FA054609E0022104F1240001F0B0FA4E
:10189000054602E001E0012500BF00BF4DB98348C5
:1018A000006820F44030D4F8A01008437F49086055
:1018B00000E0A846206800F48020B0F5802F2DD1EC
:1018C000D4F88400B0F5801F06D0B0F5001F0CD00E
:1018D000B0F5401F11D10FE074482C38006840F477
:1018E000003072492C39086009E0012104F124001C
:1018F00001F07EFA054602E001E0012500BF00BFCD
:101900005DB96A48001F006820F44010D4F88410C4
:1019100008436649091F086000E0A846206800F4F3
:101920008030B0F5803F24D1E06C18B1B0F5803F35
:101930000FD108E05D482C38006840F400305B4966
:101940002C39086007E00221201D01F09FF90546AF
:1019500001E0012500BF00BF55B954480C380068AC
:1019600020F48030E16C084350490C39086000E0F5
:10197000A846206800F00050B0F1005F07D10221B6
:1019800004F1240001F034FA08B14FF00108206896
:1019900000F40030B0F5003F27D1E06FA0B1B0F502
:1019A000807F06D0B0F5007F0CD0B0F5407F0CD121
:1019B00009E03E482C38006840F400303B492C399F
:1019C000086004E003E002E001E0012500BF00BF81
:1019D00055B93648001F006820F44070E16F084395
:1019E0003249091F086000E0A846206800F4801012
:1019F000B0F5801F09D12D480838006820F000405C
:101A0000216F0843294908390860206800F0805098
:101A1000B0F1805F0AD125484838006820F4804042
:101A2000D4F8B4100843214948390860206800F40C
:101A30000010B0F5001F09D11C480838006820F0DC
:101A40008070A16E0843194908390860206800F0C9
:101A50008040B0F1804F11D100BF14484838006871
:101A600020F4004011494839086008460068D4F85D
:101A7000B81008430D494839086000BF206800F0DD
:101A80000040B0F1004F09D108480C38006820F040
:101A90004050216D084305490C390860B8F1000F2A
:101AA00002D10020BDE8F0810120FBE75844025834
:101AB0002DE9F04104460D4614B90120BDE8F0813E
:101AC000B648006800F00F00A8420ED2B348006884
:101AD00020F00F002843B14908600846006800F074
:101AE0000F00A84201D00120E8E7207800F00400B0
:101AF00004280ED1AA492069096801F070018842C2
:101B000007D9A748006820F0700021690843A4495C
:101B10000860207800F00800082811D1A049091DAC
:101B20006069096801F07001884209D99C48001D6C
:101B3000006820F07000616908439949091D086038
:101B4000207800F01000102811D19549091DA069D6
:101B5000096801F4E061884209D99148001D0068D4
:101B600020F4E060A16908438D49091D08602078D0
:101B700000F02000202811D189490831E069096866
:101B800001F07001884209D985480830006820F0CA
:101B90007000E1690843824908310860207800F04C
:101BA000020002280ED17E49E068096801F00F01A9
:101BB000884207D97A48006820F00F00E16808439E
:101BC00077490860207800F00100002850D0744860
:101BD000006820F47060A16808437149086060687B
:101BE000022807D16E4818380068C0F34040F8B9A1
:101BF000012063E76068032807D169481838006846
:101C0000C0F34060A0B9012058E76068012807D1FF
:101C1000634818380068C0F3002048B901204DE738
:101C20005F4818380068C0F3800008B9012045E714
:101C30005B480838006820F007006168084358498D
:101C400008390860FEF796FE064608E0FEF792FEA9
:101C5000801B41F28831884201D903202EE7504889
:101C60000838006800F038006168B0EBC10FEDD1B2
:101C7000207800F0020002280ED14949E068096886
:101C800001F00F01884207D24548006820F00F009C
:101C9000E1680843424908604048006800F00F00CE
:101CA000A8420ED93D48006820F00F0028433B4968
:101CB00008600846006800F00F00A84201D001202B
:101CC000FCE6207800F0040004280ED13449206995
:101CD000096801F07001884207D23148006820F09D
:101CE0007000216908432E490860207800F0080040
:101CF000082811D12A49091D6069096801F070019D
:101D0000884209D22648001D006820F070006169F1
:101D100008432349091D0860207800F010001028AE
:101D200011D11F49091DA069096801F4E0618842C9
:101D300009D21B48001D006820F4E060A169084337
:101D40001749091D0860207800F02000202811D1D3
:101D500013490831E069096801F07001884209D22D
:101D60000F480830006820F07000E16908430C4912
:101D70000831086000F058F809490968C1F30321E7
:101D8000084A515C01F01F01C84007490860074834
:101D90000068FEF7FDFD074638468FE6002000523A
:101DA00018440258C04C0008000000240C00002415
:101DB00010B5FEF781FE0749096801F00F01064AD8
:101DC000515C01F01F01C8400449086008460068E2
:101DD00010BD000018440258C04C00080400002444
:101DE00010B5FFF7E5FF05490968C1F30211044A80
:101DF000515C01F01F01C84010BD00001C44025896
:101E0000C04C000810B5FFF7D3FF05490968C1F3BE
:101E10000221044A515C01F01F01C84010BD0000BE
:101E20001C440258C04C0008F0B5824E366806F0DB
:101E3000380636B1082E15D0102E15D0182E7DD1AB
:101E400014E07C4E103E3668C6F3401646B1794E1B
:101E5000103E3668C6F3C107774E26FA07F000E059
:101E60007548E5E07548E3E07548E1E0714E1836E5
:101E7000366806F003046F4E18363668C6F305114F
:101E80006C4E1C36366806F001056A4E24363668FC
:101E9000C6F3CC0616FB05F601EE106AB8EE410A51
:101EA000002971D024B1012C50D0022C6DD16DE0ED
:101EB000604E103E3668C6F340163EB35D4E103E8F
:101EC0003668C6F3C1075C4E26FA07F301EE103AF6
:101ED000F8EE411A01EE101AB8EE411A81EE812A8D
:101EE0009FED581AC0EE011A524E20363668C6F3DE
:101EF000080601EE106AB8EE411A31EE811AF7EECB
:101F0000001A31EE211A62EE010A1EE001EE101AEB
:101F1000B8EE411ADFED4C1A81EE812A9FED491A85
:101F2000C0EE011A434E20363668C6F3080601EEAD
:101F3000106AB8EE411A31EE811A00E076E0F7EE51
:101F4000001A31EE211A62EE010A5BE001EE101A6E
:101F5000B8EE411A9FED3D2AC2EE011A9FED391AE3
:101F600080EE012A334E20363668C6F3080601EEAD
:101F7000106AB8EE411A32EE011AB7EE002A31EEBD
:101F8000021A61EE810A3DE04EE01DE001EE101AFA
:101F9000B8EE411ADFED2E1A81EE812A9FED291A43
:101FA000C0EE011A234E20363668C6F3080601EE4D
:101FB000106AB8EE411A31EE811AF7EE001A31EECE
:101FC000211A62EE010A1DE001EE101AB8EE411A64
:101FD0009FED1E2AC2EE011A9FED1A1A80EE012A09
:101FE000144E20363668C6F3080601EE106AB8EEC5
:101FF000411A32EE011AB7EE002A31EE021A61EEF2
:10200000810A00BF00BF0B4E20363668C6F3462655
:10201000721C01EE102AB8EE411AC0EE811ABCEE15
:10202000E11A11EE100A00E0002001E0034800BFB1
:1020300000BFF0BD104402580090D00300093D00DD
:1020400040787D01000000460024744C0024744A4E
:1020500020BCBE4B2DE9F041044614B90120BDE877
:10206000F081207800F00100002871D0F848006865
:1020700000F03806F64818300768102E05D0182EE4
:102080000FD107F0030002280BD1F1481038006887
:10209000C0F3404000286AD06068002867D1012062
:1020A000DDE700BF6068B0F5803F08D1E848103830
:1020B000006840F48030E649103908602EE060681E
:1020C00068B9E3481038006820F48030E0491039DE
:1020D00008600846006820F4802008601EE0606800
:1020E000B0F5A02F0DD1DA481038006840F48020F8
:1020F000D749103908600846006840F4803008600D
:102100000CE0D3481038006820F48030D0491039F2
:1021100008600846006820F48020086000BF6068FE
:1021200090B1FEF727FC054606E0FEF723FC401BB6
:10213000642801D9032092E7C54810380068C0F32D
:1021400040400028F1D012E0FEF714FC054607E0FD
:102150000EE0FEF70FFC401B642801D903207EE748
:10216000BB4810380068C0F340400028F1D100BFE0
:10217000207800F0020002287ED1B548006800F007
:102180003806B3481830076826B1182E48D107F032
:102190000300C0BBAE4810380068C0F3800018B11F
:1021A000E06808B901205AE7A9481038006820F013
:1021B0001900E1680843A64910390860FEF7DAFB08
:1021C000054606E0FEF7D6FB401B022801D9032096
:1021D00045E79F4810380068C0F380000028F1D020
:1021E00000BFFEF7C1FB41F2030188420CD89848BA
:1021F0000C38006820F47C30216940EA01309449B1
:102200000C3908600BE00BE091480C38006820F0B6
:10221000FE40217C40EA01608D490C39086059E09C
:10222000E06850B38A481038006820F01900E1686F
:102230000843874910390860FEF79CFB054606E015
:10224000FEF798FB401B022801D9032007E78048CE
:1022500010380068C0F380000028F1D000BFFEF7FE
:1022600083FB41F2030188420ED879480C3800689C
:1022700020F47C30216901E02DE011E040EA0130DA
:1022800073490C3908600AE071480C38006820F086
:10229000FE40217C40EA01606D490C39086019E07C
:1022A0006B481038006820F0010069491039086057
:1022B000FEF760FB054606E0FEF75CFB401B0228CC
:1022C00001D90320CBE6624810380068C0F38000D3
:1022D0000028F1D100BF207800F01000102878D13C
:1022E0005B48006800F03806594818300768082E27
:1022F00005D0182E2FD107F0030001282BD1544808
:1023000010380068C0F3002020B1E069802801D0B7
:102310000120A4E600BFFEF727FB41F2030188423B
:102320000CD84B480C38006820F0F84094F8201086
:1023300040EA816046490C3908600BE04448001FC0
:10234000006820F07C5094F8201040EA0160404979
:10235000091F086058E0E069D0B33D4810380068B4
:1023600040F080003A4910390860FEF703FB05464B
:1023700006E0FEF7FFFA401B022801D903206EE6B3
:10238000334810380068C0F300200028F1D000BFA7
:10239000FEF7EAFA41F2030188420CD82C480C38C7
:1023A000006820F0F84094F8201040EA8160284945
:1023B0000C3908600BE02648001F006820F07C50B4
:1023C00094F8201040EA01602149091F08601BE0D1
:1023D00000E01AE01E481038006820F080001C4918
:1023E00010390860FEF7C6FA054606E0FEF7C2FAA5
:1023F000401B022801D9032031E615481038006837
:10240000C0F300200028F1D100BF207800F00800C0
:10241000082836D16069E8B10D486430006840F0A2
:1024200001000B4964310860FEF7A4FA054606E096
:10243000FEF7A0FA401B022801D903200FE604484A
:1024400064300068C0F340000028F1D019E00000BB
:1024500010440258CF48006820F00100CD490860C0
:10246000FEF788FA054606E0FEF784FA401B0228CC
:1024700001D90320F3E5C7480068C0F340000028F5
:10248000F2D1207800F02000202836D1A069D0B108
:10249000C0487438006840F48050BE497439086000
:1024A000FEF768FA054606E0FEF764FA401B0228CC
:1024B00001D90320D3E5B74874380068C0F3403031
:1024C0000028F1D019E0B3487438006820F4805037
:1024D000B04974390860FEF74DFA054606E0FEF78C
:1024E00049FA401B022801D90320B8E5A9487438ED
:1024F0000068C0F340300028F1D1207800F00400DB
:1025000004287DD1A448006840F48070A249086086
:10251000FEF730FA054606E0FEF72CFA401B642869
:1025200001D903209BE59C48006800F480700028D6
:10253000F2D000BFA068012808D19648001F0068AB
:1025400040F001009349091F08602DE0A06868B9B8
:102550009048001F006820F001008E49091F0860A4
:102560000846006820F0040008601DE0A068052807
:102570000DD18848001F006840F004008549091FFC
:1025800008600846006840F0010008600CE08148DF
:10259000001F006820F001007E49091F08600846FE
:1025A000006820F00400086000BFA068A0B1FEF73A
:1025B000E1F9054608E0FEF7DDF9401B41F28831FC
:1025C000884201D903204AE57248001F0068C0F321
:1025D00040000028EFD013E0FEF7CCF9054608E0F4
:1025E000FEF7C8F9401B41F28831884201D9032027
:1025F00035E56848001F0068C0F340000028EFD1AF
:10260000606A00287ED063486438006800F03800B3
:10261000182878D0606A022876D15E48743800683D
:1026200020F080705B4974390860FEF7A3F9054615
:1026300006E0FEF79FF9401B022801D903200EE5B2
:10264000544874380068C0F340600028F1D100BFDE
:10265000D4E90A1041EA00104E494C39096840F2A9
:10266000F332914308434B494C390860208E401E99
:10267000C0F30800616B491E4FF47E4202EA41211B
:102680000843218F491ED20102EA014108433C213F
:10269000095D491E120202EA016108433D494439BD
:1026A000086000BF081F006820F00100091F0860D3
:1026B0003848403800684FF6F8718843A16C40EA0A
:1026C000C10034494039086032484838006820F079
:1026D0000C00216C08432F494839086008460068FF
:1026E00020F00200616C08432A4948390860084616
:1026F000006840F4803008600846006840F400300C
:10270000086002E043E040E024E00846006840F44E
:10271000802008600846006840F0010008601D48FD
:102720007438006840F080701A4974390860FEF708
:1027300021F9054606E0FEF71DF9401B022801D9E4
:1027400003208CE4134874380068C0F3406000280C
:10275000F1D01CE00F487438006820F080700D49FB
:1027600074390860FEF706F9054606E0FEF702F93F
:10277000401B022801D9032071E406487438006820
:10278000C0F340600028F1D101E0012067E400209F
:1027900065E400007444025800480258704710B5C0
:1027A000FFF7FCFF10BD704770477047704700008F
:1027B0002DE9F04704462068C5692068066820684E
:1027C000876840F60F0005EA0008B8F1000F0FD146
:1027D00005F0200060B106F0200010B907F080502D
:1027E00030B1E06E10B12046E16E8847BDE8F08759
:1027F000B8F1000F7ED06E48384018B96D483040AF
:102800000028F7D005F0010058B106F4807040B1FF
:10281000012021680862D4F8880040F00100C4F863
:10282000880005F0020058B107F0010040B1022015
:1028300021680862D4F8880040F00400C4F88800D9
:1028400005F0040058B107F0010040B104202168F0
:102850000862D4F8880040F00200C4F8880005F04F
:10286000080070B106F0200010B95148384040B15E
:10287000082021680862D4F8880040F00800C4F8F5
:10288000880005F4006060B106F0806048B14FF444
:10289000006021680862D4F8880040F02000C4F885
:1028A0008800D4F88800002844D005F0200050B1FA
:1028B00006F0200010B907F0805020B1E06E10B192
:1028C0002046E16E8847D4F888902068806800F040
:1028D0004000402802D009F0280028B3204600F02C
:1028E000F1FC2068806800F04000402818D1206882
:1028F000806800E01FE020F0400021688860A06F41
:1029000050B12D48A16F0865A06FFDF7D9FD88B1C2
:10291000A06F016D88470DE02046FFF747FF09E0F3
:102920002046FFF743FF05E02046FFF73FFF00206A
:10293000C4F888005AE705F4801050B107F480000D
:1029400038B14FF48010216808622046FFF72DFF50
:102950004CE705F0800058B106F0800010B907F48C
:10296000000028B1206F10B12046216F88473DE755
:1029700005F0400030B106F0400018B1204600F0EC
:10298000B5FC33E705F4000030B106F0804018B123
:102990002046FFF709FF29E705F0807030B106F007
:1029A000004018B12046FFF7FEFE1FE700BF1DE7FD
:1029B0000100001020010004AD32000810B50446EB
:1029C0000CB9012010BDA06900B100E000BFD4F82F
:1029D000800028B9002084F87C00204600F02AF806
:1029E0002420C4F880002068006820F001002168DD
:1029F0000860204600F08CFC012800D1E2E7A06AC4
:102A000010B1204600F09CFB2068406820F4904004
:102A1000216848602068806820F02A00216888606A
:102A20002068006840F0010021680860204600F03E
:102A300003FCC7E770472DE9F84F04460E461746DA
:102A40009A46D4F8840020287DD106B117B9012018
:102A5000BDE8F88F00BF94F87C00012801D1022066
:102A6000F6E7012084F87C0000BF00205C34E062BF
:102A70002220A062FDF77EFF8346278067805C3CB2
:102A800000BFA068B0F5805F0AD1206920B940F28C
:102A9000FF10A4F8600020E0FF20A4F860001CE014
:102AA000A06848B9206918B9FF20A4F8600014E0B4
:102AB0007F20A4F8600010E0A068B0F1805F09D129
:102AC000206918B97F20A4F8600006E03F20A4F830
:102AD000600002E00020A4F8600000BFB4F860903D
:102AE000A068B0F5805F04D1206910B90025B04618
:102AF00002E035464FF0000820E05B46002220212E
:102B00002046CDF800A001F07BFF08B103209FE72D
:102B100045B92068406A00EA0900A8F8000008F1F9
:102B2000020806E02068406A09F0FF0108402870AA
:102B30006D1CB4F85E00401EA4F85E00B4F85E00A0
:102B40000028DAD100E008E02020C4F8840000BFAB
:102B5000002084F87C0000BF7AE7022078E72DE9A6
:102B6000F84F04460E4617469946D4F880002028B0
:102B70005DD106B117B90120BDE8F88F00BF94F808
:102B80007C00012801D10220F6E7012084F87C00B6
:102B900000BF0020543460632120E062FDF7EAFEAC
:102BA000824627806780543CA068B0F5805F04D1DE
:102BB000206910B90025B04602E035464FF0000804
:102BC0001DE05346002280212046CDF8009001F000
:102BD00017FF08B10320CFE745B9B8F80000C0F3EC
:102BE00008002168886208F1020803E0287821685B
:102BF00088626D1CB4F85600401EA4F85600B4F864
:102C000056000028DDD15346002240212046CDF851
:102C1000009001F0F5FE08B10320ADE72020C4F8D4
:102C2000800000BF002084F87C0000BFA4E70220E1
:102C3000A2E7704700BFFEE700B587B000BF0F48AE
:102C4000006840F004000D4908600846006800F084
:102C50000400019000BF00BF0820029001200390F3
:102C600004900220059002A90548FDF779FD08208F
:102C700003491831086007B000BD0000E044025865
:102C80000008025800BFFEE7704770472DE9F04189
:102C900004460E4600275548006800F0030003284C
:102CA00002D10120BDE8F08150482838006820F0AA
:102CB00080604E4928390860FDF75CFE054606E055
:102CC000FDF758FE401B022801D90320EAE74748D8
:102CD00028380068C0F3C0600028F1D100BF434825
:102CE000006820F47C30216840EA01303F490860E8
:102CF000A088401EC0F30800A168491E4FF47E4220
:102D000002EA41210843A189491ED20102EA014198
:102D10000843217C491E120202EA0161084333493B
:102D20001031086000BF3148001D006820F0C0006D
:102D3000616908432D49091D08600846006820F0B4
:102D40002000A16908432949091D08600846006858
:102D500020F0100008602548143000684FF6F87124
:102D60008843E16940EAC1002049143108601F48E6
:102D7000001D006840F010001C49091D08602EB9B4
:102D80000846006840F40020086012E0012E08D1D7
:102D90001648001D006840F480101449091D0860A1
:102DA00007E01248001D006840F400100F49091D9B
:102DB00008600E482838006840F080600B492839C8
:102DC0000860FDF7D7FD054606E0FDF7D3FD401B83
:102DD000022801D9032065E7044828380068C0F3B9
:102DE000C0600028F1D038465CE700002844025853
:102DF0002DE9F04104460E4600275548006800F0D2
:102E00000300032802D10120BDE8F0815048283892
:102E1000006820F080504E4928390860FDF7AAFD6F
:102E2000054606E0FDF7A6FD401B022801D9032058
:102E3000EAE7474828380068C0F340700028F1D11D
:102E400000BF4348006820F07C70218840EA0150B0
:102E50003F490860A088401EC0F30800A168491ED1
:102E60004FF47E4202EA41210843A189491ED20162
:102E700002EA01410843217C491E120202EA016173
:102E8000084333491831086000BF3148001D00680D
:102E900020F44060616908432D49091D0860084617
:102EA000006820F40070A16908432949091D0860E1
:102EB0000846006820F48070086025481C300068CF
:102EC0004FF6F8718843E16940EAC10020491C319E
:102ED00008601F48001D006840F480701C49091DEF
:102EE00008602EB90846006840F48000086012E0CF
:102EF000012E08D11648001D006840F40000144956
:102F0000091D086007E01248001D006840F080704D
:102F10000F49091D08600E482838006840F08050AD
:102F20000B4928390860FDF725FD054606E0FDF749
:102F300021FD401B022801D9032065E704482838F9
:102F40000068C0F340700028F1D038465CE700000C
:102F50002844025800BF00BF00BFBFF34F8F00BF1F
:102F600000BF00BF00BF00BF00BFBFF36F8F00BF37
:102F700000BF00BF00201449086000BF00BF00BFB1
:102F8000BFF34F8F00BF00BF00BF00BF00BF00BF37
:102F9000BFF36F8F00BF00BF00BF0C48006840F454
:102FA00000300A49086000BF00BF00BFBFF34F8F69
:102FB00000BF00BF00BF00BF00BF00BFBFF36F8FE7
:102FC00000BF00BF00BF704750EF00E014ED00E00D
:102FD000704710B5FFF7E3FB10BD000000B59DB0D2
:102FE0004C210AA8FDF7AEF9202102A8FDF7AAF9A5
:102FF0000220FDF731FD00BF002001902948006844
:1030000040F44040274908600846006800F440400A
:1030100001902548006820F00100401C224908600A
:103020000846006800F00100019000BF00BF00BF2B
:103030001C48006800F40050B0F5005FF8D1012092
:103040000A9000040B900220139002211491052194
:103050001591C021169102211791189119910821FB
:103060001A9100211B911C910AA8FEF7F3FF08B1E9
:1030700000BFFEE73F200290032003900020049051
:1030800008200590402006900790000108904020FD
:103090000990042102A8FEF70BFD08B100BFFEE76E
:1030A0001DB000BD184802582C0400582048006884
:1030B00040F470001E4908601E48006840F001009E
:1030C0001C49086000201B4910310860194800683D
:1030D000194908401749086000201649183108604E
:1030E000091D0860091D0860124928310860091D82
:1030F0000860091D0860091D0860091D0860091D98
:103100000860091D0860091D08600A48006820F46D
:1031100080200849086000200649603108600120CD
:1031200006490860C00602498039086070470000FF
:1031300088ED00E0004402587FEDF6EA0881005176
:1031400090F8281001F0010139B10168496821F4B3
:103150000031C26A11430268516090F8281001F0F2
:103160000201022907D10168496821F48031026B0C
:1031700011430268516090F8281001F004010429FD
:1031800007D10168496821F48021426B114302682C
:10319000516090F8281001F00801082907D1016852
:1031A000496821F40041826B11430268516090F834
:1031B000281001F01001102907D10168896821F455
:1031C0008051C26B11430268916090F8281001F0A1
:1031D0002001202907D10168896821F40051026C7F
:1031E00011430268916090F8281001F040014029D5
:1031F00013D10168496821F48011426C11430268BF
:103200005160416CB1F5801F07D10168496821F414
:10321000C001826C11430268516090F8281001F0DF
:103220008001802907D10168496821F40021C26C1E
:10323000114302685160704738B504460020C4F855
:103240008800FDF797FB05462068006800F008003D
:1032500008280CD16FF07E402B4600224FF400115D
:103260000090204601F0CCFB08B1032038BD206857
:10327000006800F0040004280CD16FF07E402B465B
:1032800000224FF480010090204601F0B9FB08B104
:103290000320EBE72020C4F88000C4F8840000BFBE
:1032A000002084F87C0000BF00BFDFE770B5054652
:1032B000AC6B0020A4F85E00A4F856002046FFF78F
:1032C00075FA70BD0168096821F490710268116097
:1032D00001688968044A1140026891602021C0F8A1
:1032E00084100021C1667047FEFFFFEF10B5044651
:1032F0002068006820F04000216808602020C4F8A1
:103300008000002020672046FFF793FC10BD0000DE
:103310002DE9F04F89B004464FF0000900200790D6
:103320008346F9492068884200D100E000BF216946
:10333000A068084361690843E16940EA010A606ED8
:1033400040EA0A0A20680068F049084040EA0A009A
:10335000216808602068406820F44050E168084314
:1033600021684860D4F818A0E7492068884202D054
:10337000206A40EA0A0A20688068E549084040EA75
:103380000A00216888602068C06A20F00F00616A26
:1033900008432168C86200BFDE492068884220D106
:1033A000DD48006800F03800182811D005DC48B16D
:1033B000082809D0102811D108E020280AD0282890
:1033C0000CD109E001250BE0042509E0082507E000
:1033D000102505E0202503E0402501E0802500BF01
:1033E000F8E0CE492068884219D1CB48006800F047
:1033F0000700062810D2DFE800F0030507090B0DCF
:1034000000250BE0042509E0082507E0102505E06C
:10341000202503E0402501E0802500BFDAE0C04917
:103420002068884219D1BC48006800F007000628CF
:1034300010D2DFE800F0030507090B0D00250BE0B3
:10344000042509E0082507E0102505E0202503E014
:10345000402501E0802500BFBCE0B24920688842D9
:1034600019D1AD48006800F00700062810D2DFE847
:1034700000F0030507090B0D00250BE0042509E00A
:10348000082507E0102505E0202503E0402501E0A0
:10349000802500BF9EE0A4492068884219D19E483B
:1034A000006800F00700062810D2DFE800F00305EE
:1034B00007090B0D00250BE0042509E0082507E0AE
:1034C000102505E0202503E0402501E0802500BF10
:1034D00080E096492068884220D18F48006800F03B
:1034E0003800182811D005DC48B1082809D0102868
:1034F00011D108E020280AD028280CD109E00125A4
:103500000BE0042509E0082507E0102505E020254B
:1035100003E0402501E0802500BF5BE0844920688E
:10352000884219D17C48006800F00700062810D2B4
:10353000DFE800F0030507090B0D00250BE004256B
:1035400009E0082507E0102505E0202503E04025D7
:1035500001E0802500BF3DE076492068884219D10E
:103560006D48006800F00700062810D2DFE800F080
:10357000030507090B0D00250BE0042509E00825CC
:1035800007E0102505E0202503E0402501E0802527
:1035900000BF1FE05C49206888421AD15E48001DC8
:1035A000006800F00700062810D2DFE800F00305ED
:1035B00007090B0D02250BE0042509E0082507E0AB
:1035C000102505E0202503E0402501E0802500BF0F
:1035D00000E0802500BF4C492068884271D1102D41
:1035E00070D006DC022D09D0042D49D0082D6AD1F7
:1035F000A6E0202D68D0402DF9D1B3E1FDF774FA93
:10360000616A09B9012138E0616A012901D1022109
:1036100033E0616A022901D104212EE0616A0329A5
:1036200001D1062129E0616A042901D1082124E0A1
:10363000616A052901D10A211FE0616A062901D1C9
:103640000C211AE0616A072901D1102115E0616A95
:10365000082901D1202110E0616A092901D1402106
:103660000BE0616A0A2901D1802106E0616A0B2919
:1036700002D14FF4807100E00121B0FBF1FBB6E113
:1036800004A8FDF743FA0598616A09B9012154E0DD
:10369000616A012901D102214FE0616A022901D149
:1036A00004214AE0616A032901D1062145E0616AEB
:1036B000042901D1082140E0616A052905D10A21C8
:1036C0003BE0FDE380E08FE10BE1616A062901D177
:1036D0000C2132E0616A072901D110212DE0616AD5
:1036E000082901D1202128E0616A092901D140215E
:1036F00023E0616A0A2901D180211EE0616A0B2959
:103700001AD14FF4807118E0000C0058F369FFCF14
:10371000FFF4FF11001001405444025800440040DF
:1037200000480040004C00400050004000140140A0
:1037300000780040007C00400121B0FBF1FB56E125
:1037400001A8FDF7FBFA0298616A09B9012138E086
:10375000616A012901D1022133E0616A022901D1A4
:1037600004212EE0616A032901D1062129E0616A62
:10377000042901D1082124E0616A052901D10A2127
:103780001FE0616A062901D10C211AE0616A07294C
:1037900001D1102115E0616A082901D1202110E032
:1037A000616A092901D140210BE0616A0A2901D12E
:1037B000802106E0616A0B2902D14FF4807100E09C
:1037C0000121B0FBF1FB12E1FA480068C0F34010A0
:1037D00088B3F8480068C0F3C101F748C840616A7F
:1037E00009B9012139E0616A012901D1022134E0DE
:1037F000616A022901D104212FE0616A032901D104
:1038000006212AE0616A042901D1082125E0616AC4
:10381000052901D10A2120E0616A062901D10C2184
:103820001BE0616A072901D1102116E0616A0829AD
:1038300002D1202111E013E0616A092901D1402160
:103840000BE0616A0A2901D1802106E0616A0B2937
:1038500002D14FF4807100E00121B0FBF1FB3FE0A9
:10386000606A08B9012038E0606A012801D10220AD
:1038700033E0606A022801D104202EE0606A032848
:1038800001D1062029E0606A042801D1082024E043
:10389000606A052801D10A201FE0606A062801D16C
:1038A0000C201AE0606A072801D1102015E0606A38
:1038B000082801D1202010E0606A092801D14020A9
:1038C0000BE0606A0A2801D1802006E0606A0B28BC
:1038D00002D14FF4807000E00120B749B1FBF0FB4A
:1038E00085E0606A08B9012038E0606A012801D1EA
:1038F000022033E0606A022801D104202EE0606AD1
:10390000032801D1062029E0606A042801D108209B
:1039100024E0606A052801D10A201FE0606A0628B9
:1039200001D10C201AE0606A072801D1102015E0AF
:10393000606A082801D1202010E0606A092801D1BE
:1039400040200BE0606A0A2801D1802006E0606A0E
:103950000B2802D14FF4807000E001209749B1FBA1
:10396000F0FB44E0606A08B9012038E0606A012891
:1039700001D1022033E0606A022801D104202EE048
:10398000606A032801D1062029E0606A042801D179
:10399000082024E0606A052801D10A201FE0606A3F
:1039A000062801D10C201AE0606A072801D11020F6
:1039B00015E0606A082801D1202010E0606A09281B
:1039C00001D140200BE0606A0A2801D1802006E086
:1039D000606A0B2802D14FF4807000E001204FF4A0
:1039E0000041B1FBF0FB02E00120079000BF00BFE7
:1039F000BBF1000F00F0F287606800EB4000584513
:103A000003D860680003584503D20120079000F0F6
:103A1000E5BF102D75D006DC022D09D0042D67D02E
:103A2000082D6FD1CCE0202D6DD0402DF9D14DE285
:103A3000FDF75AF88046606A08B9012238E0606AEA
:103A4000012801D1022233E0606A022801D1042258
:103A50002EE0606A032801D1062229E0606A04286A
:103A600001D1082224E0606A052801D10A221FE062
:103A7000606A062801D10C221AE0606A072801D189
:103A8000102215E0606A082801D1202210E0606A47
:103A9000092801D140220BE0606A0A2801D1802266
:103AA00006E0606A0B2802D14FF4807200E0012228
:103AB0009446002340461946FCF70CFC4FF48073F3
:103AC00000228C46A0FB031E0CFB03E300FB023329
:103AD000606840088C461CEB000643EB0201D4F8FA
:103AE00004C0624600233046FCF7F4FB81464EE2F8
:103AF00004A8FDF70BF8DDF814E0606A20B9012294
:103B00003BE0BFE040E282E1606A012801D102228D
:103B100033E0606A022801D104222EE0606A0328A3
:103B200001D1062229E0606A042801D1082224E09C
:103B3000606A052801D10A221FE0606A062801D1C7
:103B40000C221AE0606A072801D1102215E0606A91
:103B5000082801D1202210E0606A092801D1402202
:103B60000BE0606A0A2801D1802206E0606A0B2817
:103B700002D14FF4807200E0012294460023704687
:103B80001946FCF7A7FB4FF4807C0022A0FB0C3EFB
:103B900001FB0CE100FB0211606840081E18514156
:103BA000D4F804C0624600233046FCF793FB8146FC
:103BB000EDE10000004402580090D00300093D00F0
:103BC00001A8FDF7BBF8DDF808C0606A08B901225A
:103BD00038E0606A012801D1022233E0606A0228DD
:103BE00001D104222EE0606A032801D1062229E0D7
:103BF000606A042801D1082224E0606A052801D106
:103C00000A221FE0606A062801D10C221AE0606ACD
:103C1000072801D1102215E0606A082801D120226E
:103C200010E0606A092801D140220BE0606A0A288E
:103C300001D1802206E0606A0B2802D14FF4807225
:103C400000E001229646002360461946FCF742FB3D
:103C50004FF4807300228C46A0FB031E0CFB03E391
:103C600000FB0233606840088C461CEB000643EB07
:103C70000201D4F804C0624600233046FCF72AFB58
:103C8000814684E1F8480068C0F3401090B3F648DC
:103C90000068C0F3C101F54820FA01FE606A08B966
:103CA000012239E0606A012801D1022234E0606A11
:103CB000022801D104222FE0606A032801D10622E4
:103CC0002AE0606A042801D1082225E0606A0528FC
:103CD00001D10A2220E0606A062801D10C221BE0F3
:103CE000606A072801D1102216E0606A082802D114
:103CF000202211E030E0606A092801D140220BE067
:103D0000606A0A2801D1802206E0606A0B2802D18D
:103D10004FF4807200E00122944600237046194659
:103D2000FCF7D8FA4FF4807300228C46A0FB031EE8
:103D30000CFB03E300FB0233606840088C461CEB7D
:103D4000000643EB0201D4F804C06246002330466B
:103D5000FCF7C0FA814659E0606A08B9012238E0F0
:103D6000606A012801D1022233E0606A022801D191
:103D700004222EE0606A032801D1062229E0606A4D
:103D8000042801D1082224E0606A052801D10A2212
:103D90001FE0606A062801D10C221AE0606A072839
:103DA00001D1102215E0606A082801D1202210E01C
:103DB000606A092801D140220BE0606A0A2801D11B
:103DC000802206E0606A0B2802D14FF4807200E086
:103DD000012294460023A5481946FCF77BFA4FF4CC
:103DE000807300228C46A0FB031E0CFB03E300FB48
:103DF0000233606840080E1843EB0201D4F804C097
:103E0000624600233046FCF765FA8146BFE0606AEF
:103E100008B9012238E0606A012801D1022233E0AA
:103E2000606A022801D104222EE0606A032801D1D1
:103E3000062229E0606A042801D1082224E0606A91
:103E4000052801D10A221FE0606A062801D10C2250
:103E50001AE0606A072801D1102215E0606A08287C
:103E600001D1202210E0606A092801D140220BE034
:103E7000606A0A2801D1802206E0606A0B2802D11C
:103E80004FF4807200E001229446002378481946DE
:103E9000FCF720FA4FF4807300228C46A0FB031E2F
:103EA0000CFB03E300FB0233606840088C461CEB0C
:103EB000000643EB0201D4F804C06246002300E090
:103EC00073E03046FCF706FA814660E0606A08B9A4
:103ED000012238E0606A012801D1022233E0606AE1
:103EE000022801D104222EE0606A032801D10622B3
:103EF00029E0606A042801D1082224E0606A0528CC
:103F000001D10A221FE0606A062801D10C221AE0C2
:103F1000606A072801D1102215E0606A082801D1E3
:103F2000202210E0606A092801D140220BE0606A7B
:103F30000A2801D1802206E0606A0B2802D14FF4E2
:103F4000807200E00122944600234FF4004019469D
:103F5000FCF7C0F94FF4807300228C46A0FB031ECF
:103F60000CFB03E300FB0233606840088C461CEB4B
:103F7000000643EB0201D4F804C062460023304639
:103F8000FCF7A8F9814602E00120079000BF00BFBE
:103F9000B9F5407F06D3B9F5801F03D22068C0F879
:103FA0000C9034E50120079031E5E069B0F5004F51
:103FB00071D1082D70D005DC5DB1012D5AD0042DD2
:103FC0006BD1A7E0102D69D0202D68D0402DF7D1FE
:103FD0001EE2FDF705FF8046606A08B9012038E05F
:103FE000606A012801D1022033E0606A022801D111
:103FF00004202EE0606A032801D1062029E0606ACF
:10400000042801D1082024E0606A052801D10A2093
:104010001FE0606A062801D10C201AE0606A0728B8
:1040200001D1102015E0606A082801D1202010E09D
:10403000606A092801D140200BE0606A0A2801D19A
:10404000802006E0606A0B2802D14FF4807000E007
:104050000120B8FBF0F04000616800EB5100B0FBBC
:10406000F1F01FFA80F920E2004402580090D003DA
:1040700000093D00FDF7C6FE8046606A08B90120D0
:104080003DE0606A012801D1022038E0606A022820
:1040900006D1042033E020E288E003E2D2E06EE1C2
:1040A000606A032801D1062029E0606A042801D152
:1040B000082024E0606A052801D10A201FE0606A18
:1040C000062801D10C201AE0606A072801D11020CF
:1040D00015E0606A082801D1202010E0606A0928F4
:1040E00001D140200BE0606A0A2801D1802006E05F
:1040F000606A0B2802D14FF4807000E00120B8FB09
:10410000F0F04000616800EB5100B0FBF1F01FFAE5
:1041100080F9CAE104A8FCF7F9FC0598616A09B9BD
:10412000012138E0616A012901D1022133E0616A8D
:10413000022901D104212EE0616A032901D106215F
:1041400029E0616A042901D1082124E0616A052976
:1041500001D10A211FE0616A062901D10C211AE070
:10416000616A072901D1102115E0616A082901D18E
:10417000202110E0616A092901D140210BE0616A28
:104180000A2901D1802106E0616A0B2902D14FF48E
:10419000807100E00121B0FBF1F04000616800EBAC
:1041A0005100B0FBF1F01FFA80F97EE101A8FCF7A5
:1041B000C5FD0298616A09B9012138E0616A0129E7
:1041C00001D1022133E0616A022901D104212EE0EC
:1041D000616A032901D1062129E0616A042901D11C
:1041E000082124E0616A052901D10A211FE0616AE2
:1041F000062901D10C211AE0616A072901D1102199
:1042000015E0616A082901D1202110E0616A0929BD
:1042100001D140210BE0616A0A2901D1802106E029
:10422000616A0B2902D14FF4807100E00121B0FBDB
:10423000F1F04000616800EB5100B0FBF1F01FFAB3
:1042400080F932E1F9480068C0F3401088B3F748BC
:104250000068C0F3C101F648C840616A09B901218C
:1042600039E0616A012901D1022134E0616A022941
:1042700001D104212FE0616A032901D106212AE03E
:10428000616A042901D1082125E0616A052901D16B
:104290000A2120E0616A062901D10C211BE0616A34
:1042A000072901D1102116E0616A082902D12021D5
:1042B00011E01BE0616A092901D140210BE0616A2C
:1042C0000A2901D1802106E0616A0B2902D14FF44D
:1042D000807100E00121B0FBF1F04000616800EB6B
:1042E0005100B0FBF1F01FFA80F947E0606A08B9AD
:1042F000012038E0606A012801D1022033E0606AC1
:10430000022801D104202EE0606A032801D1062092
:1043100029E0606A042801D1082024E0606A0528A9
:1043200001D10A201FE0606A062801D10C201AE0A2
:10433000606A072801D1102015E0606A082801D1C1
:10434000202010E0606A092801D140200BE0606A5B
:104350000A2801D1802006E0606A0B2802D14FF4C0
:10436000807000E00120B249B1FBF0F040006168CC
:1043700000EB5100B0FBF1F01FFA80F995E0606AA4
:1043800008B9012038E0606A012801D1022033E039
:10439000606A022801D104202EE0606A032801D15E
:1043A000062029E0606A042801D1082024E0606A20
:1043B000052801D10A201FE0606A062801D10C20DF
:1043C0001AE0606A072801D1102015E0606A082809
:1043D00001D1202010E0606A092801D140200BE0C3
:1043E000606A0A2801D1802006E0606A0B2802D1A9
:1043F0004FF4807000E001208E49B1FBF0F04000E6
:10440000616800EB5100B0FBF1F01FFA80F94CE05D
:10441000606A08B9012038E0606A012801D10220F1
:1044200033E0606A022801D104202EE0606A03288C
:1044300001D1062029E0606A042801D1082024E087
:10444000606A052801D10A201FE0606A062801D1B0
:104450000C201AE0606A072801D1102015E0606A7C
:10446000082801D1202010E0606A092801D14020ED
:104470000BE0606A0A2801D1802006E0606A0B2800
:1044800002D14FF4807000E001204FF40041B1FBF5
:10449000F0F04000616800EB5100B0FBF1F01FFA52
:1044A00080F902E00120079000BF00BFB9F1100FB2
:1044B00010D3B9F5803F0DD24FF6F07009EA000035
:1044C0000890C9F3420108980843089008982168A9
:1044D000C86083E20120079080E2082D72D005DCDD
:1044E0005DB1012D53D0042D6DD1A5E0102D6BD001
:1044F000202D6AD0402D66D117E2FDF771FC804671
:10450000606A08B9012038E0606A012801D1022000
:1045100033E0606A022801D104202EE0606A03289B
:1045200001D1062029E0606A042801D1082024E096
:10453000606A052801D10A201FE0606A062801D1BF
:104540000C201AE0606A072801D1102015E0606A8B
:10455000082801D1202010E0606A092801D14020FC
:104560000BE0606A0A2801D1802006E0606A0B280F
:1045700002D14FF4807000E00120B8FBF0F06168D8
:1045800000EB5100B0FBF1F01FFA80F919E2FDF7E2
:1045900039FC8046606A08B901203CE0606A012865
:1045A00001D1022037E0606A022801D1042032E004
:1045B000606A032801D106202DE0606A042805D135
:1045C000082028E083E0F9E1CCE066E1606A052894
:1045D00001D10A201FE0606A062801D10C201AE0F0
:1045E000606A072801D1102015E0606A082801D10F
:1045F000202010E0606A092801D140200BE0606AA9
:104600000A2801D1802006E0606A0B2802D14FF40D
:10461000807000E00120B8FBF0F0616800EB510011
:10462000B0FBF1F01FFA80F9CBE100000044025822
:104630000090D00300093D0004A8FCF767FA059834
:10464000616A09B9012138E0616A012901D10221B9
:1046500033E0616A022901D104212EE0616A032955
:1046600001D1062129E0616A042901D1082124E051
:10467000616A052901D10A211FE0616A062901D179
:104680000C211AE0616A072901D1102115E0616A45
:10469000082901D1202110E0616A092901D14021B6
:1046A0000BE0616A0A2901D1802106E0616A0B29C9
:1046B00002D14FF4807100E00121B0FBF1F061689C
:1046C00000EB5100B0FBF1F01FFA80F979E101A88D
:1046D000FCF734FB0298616A09B9012138E0616A8C
:1046E000012901D1022133E0616A022901D10421AB
:1046F0002EE0616A032901D1062129E0616A0429BB
:1047000001D1082124E0616A052901D10A211FE0B5
:10471000616A062901D10C211AE0616A072901D1D9
:10472000102115E0616A082901D1202110E0616A99
:10473000092901D140210BE0616A0A2901D18021B8
:1047400006E0616A0B2902D14FF4807100E001217B
:10475000B0FBF1F0616800EB5100B0FBF1F01FFA23
:1047600080F92EE1A3480068C0F3401088B3A14847
:104770000068C0F3C101A048C840616A09B90121BD
:1047800039E0616A012901D1022134E0616A02291C
:1047900001D104212FE0616A032901D106212AE019
:1047A000616A042901D1082125E0616A052901D146
:1047B0000A2120E0616A062901D10C211BE0616A0F
:1047C000072901D1102116E0616A082902D12021B0
:1047D00011E01AE0616A092901D140210BE0616A08
:1047E0000A2901D1802106E0616A0B2902D14FF428
:1047F000807100E00121B0FBF1F0616800EB510035
:10480000B0FBF1F01FFA80F946E0606A08B90120B8
:1048100038E0606A012801D1022033E0606A022892
:1048200001D104202EE0606A032801D1062029E08E
:10483000606A042801D1082024E0606A052801D1BB
:104840000A201FE0606A062801D10C201AE0606A85
:10485000072801D1102015E0606A082801D1202026
:1048600010E0606A092801D140200BE0606A0A2844
:1048700001D1802006E0606A0B2802D14FF48070DD
:1048800000E001205C49B1FBF0F0616800EB5100F1
:10489000B0FBF1F01FFA80F993E0606A08B90120DB
:1048A00038E0606A012801D1022033E0606A022802
:1048B00001D104202EE0606A032801D1062029E0FE
:1048C000606A042801D1082024E0606A052801D12B
:1048D0000A201FE0606A062801D10C201AE0606AF5
:1048E000072801D1102015E0606A082801D1202096
:1048F00010E0606A092801D140200BE0606A0A28B4
:1049000001D1802006E0606A0B2802D14FF480704C
:1049100000E001203949B1FBF0F0616800EB510083
:10492000B0FBF1F01FFA80F94BE0606A08B9012092
:1049300038E0606A012801D1022033E0606A022871
:1049400001D104202EE0606A032801D1062029E06D
:10495000606A042801D1082024E0606A052801D19A
:104960000A201FE0606A062801D10C201AE0606A64
:10497000072801D1102015E0606A082801D1202005
:1049800010E0606A092801D140200BE0606A0A2823
:1049900001D1802006E0606A0B2802D14FF48070BC
:1049A00000E001204FF40041B1FBF0F0616800EB42
:1049B0005100B0FBF1F01FFA80F902E001200790EE
:1049C00000BF00BFB9F1100F06D3B9F5803F03D285
:1049D0002068C0F80C9001E0012007900120A4F8A5
:1049E0006A00A4F868000020E0662067079809B014
:1049F000BDE8F08F004402580090D00300093D004C
:104A00002DE9F04104460D4617469846069E4AE0B9
:104A1000701C002847D0FBF7ADFFA0EB0800B042A8
:104A200000D8C6B92068006820F4D07021680860FA
:104A30002068806820F00100216888602020C4F888
:104A40008000C4F8840000BF002084F87C0000BF10
:104A50000320BDE8F0812068006800F0040010B376
:104A60002068C069C0F3C020E8B14FF4006021683D
:104A700008622068006820F4D0702168086020680F
:104A8000806820F00100216888602020C4F8800040
:104A9000C4F88400C4F8880000BF002084F87C00BB
:104AA00000BF0320D5E72068C0692840A84201D193
:104AB000012000E00020B842AAD00020C9E7000091
:104AC00010B50A480068C069C0F3401048B1012021
:104AD000074908704FF47A73012206490348FDF72D
:104AE000AAFF0248FDF764FE10BD00001800002474
:104AF000110000241200002400BFFEE770B5044638
:104B0000002500BF61194FF47A7301220348FEF7B4
:104B100026F86D1C605D0028F4D170BD18000024DB
:104B2000014A024900F02FB8A94B000814000024E4
:104B300002480068C0F30220704700000CED00E05E
:104B400010B5002804DB0A07130E054A135406E0CB
:104B50000A07140E034A00F00F031B1FD45410BDA4
:104B600000E400E018ED00E002E008C8121F08C1F0
:104B7000002AFAD170477047002001E001C1121FDE
:104B8000002AFBD170472DE9F04116460F46044636
:104B9000002503E03946B047641C6D1C20780028CE
:104BA000F8D12846BDE8F08113B50C464FF47A736E
:104BB000012269460248FDF7D2FF00981CBD0000A3
:104BC00018000024C0B00024FEF708FAFEF7C2F96E
:104BD000FEF732F8FBF7F4FB17A0FFF7A1FF23A0C5
:104BE000FFF78CFF2DA0FFF789FF24E03148007804
:104BF00008B3FF2C07D8304802782046611C8CB2DD
:104C00000DF8002000E000242B4800780A2807D186
:104C10004FF47A73224669462848FDF7A0FF002426
:104C200000202449087025480068006840F02000F2
:104C3000224909680860D9E70D0A5072696E7466E6
:104C4000B7BDCABDCAE4B3F6A3BAD5E2CAC7D2BBE0
:104C5000B8F6B4AEBFDAD6D0B6CFBDD3CAD5BBD8BE
:104C6000CFD4CAB5D1E9200D0A000000D7D4B6A828
:104C7000D2E5BAAFCAFDCAE4B3F6A3BAD5E2CAC751
:104C8000D2BBB8F6B4AEBFDAD6D0B6CFBDD3CAD594
:104C9000BBD8CFD4CAB5D1E90A000000CAE4C8EB3A
:104CA000CAFDBEDDB2A2D2D4BBD8B3B5BCFCBDE157
:104CB000CAF80A0011000024120000241800002481
:104CC00000000000010203040102030406070809B2
:104CD000F04C00080000002418000000684B000899
:104CE000084D00081800002490040000784B0008CC
:104CF0000090D0030090D0030000000010000000DE
:084D00000100000000000000AA
:040000050800029954
:00000001FF
