:020000040800F2
:1000000038C101246D030008A73A000863390008CD
:10001000A53A000895070008755600080000000082
:10002000000000000000000000000000B102000815
:10003000DD0800080000000005030008153D000869
:100040008703000887030008870300088703000868
:100050008703000887030008870300088703000858
:100060008703000887030008870300088703000848
:100070008703000887030008870300088703000838
:100080008703000887030008870300088703000828
:100090008703000887030008870300088703000818
:1000A0008703000887030008870300088703000808
:1000B00087030008870300088703000887030008F8
:1000C00087030008870300088703000887030008E8
:1000D00087030008870300088703000887030008D8
:1000E000870300088703000800000000870300085A
:1000F00087030008870300088703000887030008B8
:1001000087030008870300088703000887030008A7
:100110008703000887030008870300088703000897
:100120008703000887030008870300088703000887
:1001300087030008E90A000887030008870300080E
:1001400000000000000000000000000000000000AF
:100150008703000887030008870300088703000857
:100160008703000887030008870300088703000847
:1001700087030008870300088703000800000000C9
:100180008703000887030008870300088703000827
:100190008703000887030008870300088703000817
:1001A0008703000887030008870300088703000807
:1001B00087030008870300088703000887030008F7
:1001C00087030008870300088703000887030008E7
:1001D00087030008870300088703000887030008D7
:1001E00087030008870300088703000887030008C7
:1001F00087030008870300088703000887030008B7
:1002000087030008870300088703000887030008A6
:100210008703000887030008870300088703000896
:100220008703000887030008870300080000000018
:100230008703000887030008000000008703000808
:100240008703000887030008870300088703000866
:100250008703000887030008870300088703000856
:100260008703000887030008870300088703000846
:1002700087030008870300088703000800000000C8
:1002800087030008870300088703000800000000B8
:100290000000000087030008DFF810D000F026F906
:1002A0000048004731900008AFF3008038C10124B6
:1002B0002B4B19680868B0E8F04F80F30988BFF34A
:1002C0006F8F4FF0000080F311887047000000002E
:1002D00006480068006880F3088862B661B6BFF31C
:1002E0004F8FBFF36F8F00DF00BF00BF08ED00E04E
:1002F000DFF80C00016841F470010160704700BF35
:1003000088ED00E0EFF30980BFF36F8F144B1A689C
:100310001EF0100F08BF20ED108A20E9F04F10608A
:1003200008B44FF0500072B680F31188BFF34F8FBE
:10033000BFF36F8F62B611F025F84FF0000080F325
:10034000118808BC19680868B0E8F04F1EF0100F5B
:1003500008BFB0EC108A80F30988BFF36F8F704735
:1003600024000024EFF30580704700000648804712
:1003700006480047FEE7FEE7FEE7FEE7FEE7FEE78A
:10038000FEE7FEE7FEE7FEE7F13D00089902000800
:100390002DE9F05F0546002092469B4688460646BA
:1003A000814640241BE0284641464746224600F04D
:1003B0008CF853465A46C01A914110D3114618463C
:1003C000224600F073F82D1A67EB01084F462246CB
:1003D0000120002100F06AF817EB00094E41201EB1
:1003E000A4F10104DFDC484631462A464346BDE815
:1003F000F09F0000004870478C2701080649074A13
:100400000868504343F239021044086040087047BE
:100410000149086070470000940100246D4EC641F8
:1004200010B5431A934209D28318881803E010F8D4
:10043000011D03F8011D521EF9D210BD40EA01034F
:100440009B0703D009E008C9121F08C0042AFAD28A
:1004500003E011F8013B00F8013B521EF9D210BD38
:10046000D2B201E000F8012B491EFBD270470022F6
:10047000F6E710B513460A4604461946FFF7F0FFA3
:10048000204610BD421C10F8011B0029FBD1801A28
:10049000704730B504460020034600E05B1C9342E1
:1004A00003D2E05CCD5C401BF8D030BD202A04DBD9
:1004B000203A00FA02F1002070479140C2F1200377
:1004C00020FA03F3194390407047202A04DB203AB6
:1004D00021FA02F00021704721FA02F3D040C2F164
:1004E000200291400843194670470000064C074D12
:1004F00006E0E06840F0010394E8070098471034F4
:10050000AC42F6D3FFF7CCFE80290108A0290108F0
:1005100030B58C1810F8012B12F00F0301D110F830
:10052000013B120906D110F8012B03E010F8015B22
:1005300001F8015B5B1EF9D101E001F8013B521E9D
:10054000FBD1A142E6D3002030BD00001CB503F072
:100550009BFC06F027FB20A005F08EF826A005F0F6
:100560008BF8344805F088F833A005F085F83FA0F3
:1005700005F082F84B4805F07FF84BA005F07CF8B9
:1005800010F00CFC5348012100234C022246CDE917
:100590000010544850A111F0D3FA012802D152A002
:1005A00005F06AF84B48022100232246001DCDE9E0
:1005B0000010584854A111F0C3FA012802D156A0E6
:1005C00005F05AF84348001F006810F07BFDBDE8B5
:1005D0001C4010F023BC0000B1BEC0FDB3CCD1DD87
:1005E000CABEBFAAB7A2B0E5D7F668747470B7FEEA
:1005F000CEF1C6F70A0A0000CDF8C2E7C1ACBDD300
:10060000C4A3D0CDC8E7CFC2A3BA0A0920B5E7C4B6
:10061000D43C2D2DCDF8CFDF2D2D3EC2B7D3C93C14
:100620002D2DCDF8CFDF2D2D3EBFAAB7A2B0E50A04
:100630000A00000090270108B1BEC0FDB3CCB5C4CC
:100640004950B5D8D6B7BEF9D4DA557365722F6163
:100650007263682F7379735F617263682E68CEC4AA
:10066000BCFED6D0D0DEB8C40A0A0000B1BEC0FDC0
:10067000B3CCB2CEBFBC3C3C4C774950D3A6D3C31D
:10068000CAB5D5BDBFAAB7A2D6B8C4CF3E3EB5DA6B
:100690003230D5C2204854545020B7FECEF1C6F7B0
:1006A0000A0A0000E0270108CDA8B9FDE4AFC0C0E8
:1006B000C6F7B5C44C4544BFD8D6C6B0B4C5A5BF6F
:1006C000D8D6C6BFAAB7A2B0E5B5C44C4544B5C696
:1006D0000A0A00001800002454657374315F5461E5
:1006E000736B00002D3F00084372656174652054F0
:1006F000657374315F5461736B20737563657373D5
:100700002E2E2E0D0A00000054657374325F546162
:10071000736B0000493F00084372656174652054A3
:10072000657374325F5461736B20737563657373A3
:100730002E2E2E0A0A00000010B503F071F900F009
:100740002BF801F0CFFB00F033FD0848016841F0C1
:100750000401016003F0F6FA03F042F900F05CF8DE
:10076000BDE8104002A004F087BF00009CEF00E04D
:100770002D2D2D2D2D2D2D2D2D2D2D204C776970CE
:100780002064656D6F202D2D2D2D2D2D2D2D2D2DC2
:100790002D2D0A00FEE70000F0B5BFF34F8FBFF329
:1007A0006F8F1B4900200860BFF34F8FBFF36F8F1F
:1007B000184E316841F400313160BFF34F8FBFF301
:1007C0006F8F144970310860BFF34F8F081F0068A6
:1007D000C0F34E310E4A43F6FF771032C0F3C9051D
:1007E000284607EA411343EA80741460401E441C03
:1007F000F9D1491E481CF3D1BFF34F8F306840F444
:1008000080303060BFF34F8FBFF36F8FF0BD0000BB
:1008100050EF00E014ED00E070B5B6B02B48016871
:1008200041F001010160016801F0010101910168DD
:1008300041F001010160006800F001000190012415
:1008400002940025209502A801F0FEFD1F481030FB
:10085000016841F010010160006800F01000019093
:100860006002319002203290339434900724359402
:1008700031A9174E304601F019FA4FF480613191D9
:10088000359431A9304601F011FA134C114820601B
:100890004FF4E1306060A560E56025610C20606187
:1008A000A561E5612562A562204602F0BDFF002238
:1008B0000621252001F0AEFB252001F09EFB2068DB
:1008C000016841F02001016036B070BDE04402587B
:1008D00000000258001001409C010024704710B530
:1008E00000220023016902EB420401EBC4010B600A
:1008F0004B608B60CB600B614B6100EB8204E1626B
:10090000521C042AEED3C36303644364C364836448
:100910000322016801F58051C1F8302101680269A4
:1009200001F58051C1F81C210169006801F5D86109
:1009300000F58050C0F8281110BD10B5002200232A
:10094000C16802EB420401EBC4010B604B608B6099
:10095000CB6000EB8204A161521C042AF0D38362B5
:100960000322016801F58051C1F82C210168C26899
:1009700001F58051C1F81421C168006800F580506C
:10098000C0F8201110BD0000F0B587B052480168D2
:1009900041F004010160016801F004010191016866
:1009A00041F001010160016801F00101019101685C
:1009B00041F004010160016801F004010191016846
:1009C00041F001010160016801F00101019101683C
:1009D00041F001010160016801F00101019101682C
:1009E00041F004010160016801F004010191016816
:1009F00041F004010160016801F004010191016806
:100A000041F002010160016801F0020101910168F9
:100A100041F002010160016801F0020101910168E9
:100A200041F002010160006800F00200019008F04E
:100A300021FB0120029002250595039000240494D7
:100A400002A9264E304601F031F9042002900595A6
:100A5000039504940B24069402A9214F384601F013
:100A600025F90295069402A9304601F01FF9029576
:100A7000069402A9384601F019F9802002900694E4
:100A800002A9384601F012F910200290069402A93A
:100A9000304601F00BF920200290069402A930465E
:100AA00001F004F9A8020290069402A90D4D28460F
:100AB00001F0FCF84FF480510291069402A92846F7
:100AC00001F0F4F84FF400510291069402A928466F
:100AD00001F0ECF807B0F0BDE044025800080258FD
:100AE000000002580004025810B55020EFF31184A2
:100AF00072B680F31188BFF34F8FBFF36F8F62B66A
:100B0000024800F049FD84F3118810BD44BA012465
:100B100070B5A2B0064601258DF83350002412941A
:100B20008DF841408DF843408DF828508DF856508F
:100B30008DF832508DF84C408DF8845068030F903A
:100B40008DF85C4018948DF885408DF886404FF400
:100B5000C36016908DF830400B948DF835508DF8A9
:100B600036408DF840401D941B9414948DF86440D9
:100B70008DF87A408DF84250202020908DF8445016
:100B80008DF855404FF040500990A8030E908DF815
:100B9000314002201F908DF878408DF879408DF813
:100BA00054408DF834501A948DF8705009A930468D
:100BB00000F034FA8DF80450029500948DF81C4032
:100BC0008DF80D408DF80C40690506918DF81440A4
:100BD00004918DF81D404FF4067008906946304628
:100BE00000F0CCF922B070BD70B505462868D0F889
:100BF000000220F4706402F0E7F91149114A01443F
:100C0000914202D244F4007416E00F490F4A0144A5
:100C1000914202D244F440740EE00D490D4A014461
:100C2000914209D30C4908440C49884202D244F449
:100C3000807401E044F480642868C0F8004270BD0C
:100C400000D3CEFEC0E1E40040F1E9FD40787D0133
:100C500000796CFC005A6202001F0AFA80F0FA0266
:100C60002DE9F04700F118073D692E464FF0000CC2
:100C700057F825308C68D3F80C80B8F1000F02DAF1
:100C80000220BDE8F08791F800805FEA487843D5FC
:100C9000D3F80C80D1F824906FF30F0848EA0908C4
:100CA000C3F80C80D3F80C8048F48038C3F80C806B
:100CB000D0F80080D8F8609049F48019C8F86090A6
:100CC00091F800805FEA087826D5B1F82C90D3F827
:100CD000088069F31F48C3F80880D3F80C8048F4F3
:100CE0000038C3F80C80D3F80C80D1F8309028F489
:100CF000402848EA0908C3F80C80D0F80080D8F8EA
:100D0000649049F48019C8F864900068D0F8508065
:100D100048F08068C0F850800878C0060BD5986805
:100D2000D1F818806FF30D0040EA08009860D86889
:100D300040F08060D860087810F0140F1AD0D8689E
:100D400040F08040D860D86840F00040D8606D1C0A
:100D5000042D00D32D1F57F825304FF0010CD86813
:100D6000002807DA57F82600C16821F00041C16069
:100D7000022086E70CF1010C206818609868D4F80E
:100D800004806FF30D0040EA08009860DFF8E88106
:100D90004FF00009A06858B1044620685860D3F8A5
:100DA00008A0A0880AEA080A4AEA0040986005E01C
:100DB000C3F80490986800EA080098600878C006B4
:100DC00014D5D868B1F820A020F4F00040EACA4059
:100DD000D860D868D1F81CA06FF3110040EA0A006F
:100DE000D860D86840F48020D8601DE0D868D1F879
:100DF00004A06FF30E0040EA0A00D8600878C0072C
:100E000007D0D868D1F814A020F4403040EA0A0096
:100E1000D8600878800607D5D868D1F810A020F0EF
:100E2000406040EA0A00D8600878400707D5986813
:100E3000D1F828A020F4404040EA0A009860D86821
:100E400040F00050D860D86820F08040D860D86862
:100E500040F00040D8600878800778D5D868D1F88D
:100E60000CA020F0607040EA0A00D8606FE0D868FB
:100E700020F08050D8606D1C042D00D32D1F57F832
:100E80002530D86820F00050D860D868002812DAE1
:100E900057F8261000200AE0CA6822F00042CA6013
:100EA000761C042E00D3361F57F82610401C6045D0
:100EB000F2D30220E5E60CF1010CA468206818606A
:100EC0009868D4F804A06FF30D0040EA0A00986017
:100ED000A06858B10446206858609868B4F804A027
:100EE00000EA080040EA0A40986005E0C3F8049070
:100EF000986800EA080098600878C0060CD5D868A1
:100F0000D1F81CA06FF3110040EA0A00D860D8683D
:100F100040F48020D86012E0D868D1F804A06FF3C4
:100F20000E0040EA0A00D8600878C00707D0D868E9
:100F3000D1F814A020F4403040EA0A00D860D86804
:100F400040F00040D860D86820F08040D860A068A9
:100F500000288CD122B1986840F00040986003E0EE
:100F6000986820F000409860D86840F08050D860C1
:100F70003D61002085E60000FFFF00C030B502683B
:100F800002F58052136847F60204A3430C6823431A
:100F900013600A790B7B120342EAC3338A68134356
:100FA000026802F5805254684DF20105AC431C43BF
:100FB00054604B7B0A6A42EA0343026802F580529E
:100FC000D2F80041124D2C401C43C2F800410A7D6A
:100FD0004B7F120142EA03330A691343026802F5A8
:100FE0008052D2F804410B4D2C401C43C2F80441FE
:100FF0008A69097F42EAC171006800F58050D0F823
:101000000821054B1A400A43C0F8082130BD0000F2
:1010100000C0FEFFEFEFC0FFFFFFC07F30B50B68E1
:101020008A680C7B1A430B79DB0643EAC4531A43E4
:101030004B7B42EA83528B7B42EA4352CB7B42EAB0
:1010400003530A7C002A7CD0002243EAC2434A7C34
:10105000002A77D0002243EA42428B7C42EA0342D4
:101060004B691A438B691A430B7F42EA03324B7F69
:1010700042EAC3238A7F002A65D0002243EA822203
:10108000CB7F42EA432391F82020002A7CD0002223
:1010900043EA022251F8243F1A430B7942EA031330
:1010A0008A681343026814683F4D2C401C43146047
:1010B0000A7E0B7D520642EA03620B7B42EA8342C0
:1010C0004B7B42EA43438A7B2439002A65D00022C5
:1010D00043EA02434A6B134302685468334D2C4081
:1010E0001C43546091F840304A6C42EA0323026882
:1010F000D46840F20F15AC431C43D46091F85430CF
:101100000A6D42EA430391F84C20E2B3002231F821
:10111000484FD20142EA044213430268146F4FF66B
:101120000D752C401C4314674B7B8A7B42EA4303BA
:10113000026852F8904F24F003041C4314600268C4
:1011400002E022E023E024E0D2F8003D0C6923F025
:1011500072032343C2F8003D0A7E4B69483902B34B
:10116000002243EA821211F8613F49781B0143EAE9
:10117000C1010A430068D0F8301D21F07B01114302
:10118000C0F8301D30BD0AE005E001225DE7012214
:1011900061E7012272E701227AE7012298E7012242
:1011A000B5E70122DDE70000838004000080F8C07D
:1011B00008B51948016841F080010160016801F03B
:1011C00080010091016841F004010160016801F0B3
:1011D00004010091016841F001010160016801F022
:1011E00001010091016841F002010160016801F014
:1011F00002010091016841F040010160016801F0C5
:1012000040010091016841F480710160006800F4C0
:101210008070009008BD0000E044025870B504469C
:1012200000F04AFE0546601C02D0044800780444E1
:1012300000F042FE401BA042FAD370BD080000241B
:1012400070B500F12C035A6953F822109D69002DE6
:1012500004D0DC6904B16D1C002423E0012070BDC2
:101260000E690E604FF08076CE604E692EB14E69E9
:101270008E60CE6846F00076CE60CE6846F00046BE
:10128000CE601E6A1EB1CE6846F08046CE609E6972
:10129000761EA64205D9521C042A00D3121F53F809
:1012A0002210641CAC42DBD3006800F58050C0F80B
:1012B00028110020986170BD704710B500EB8104C3
:1012C000E46A002A01D0042903D30121C165012069
:1012D00010BD22602261E06840F08070E0602BB1B8
:1012E000A3606361E06840F00070E060E06840F097
:1012F0000040E060002010BD704700297DD00268EA
:10130000126802F00C02CA6202681268C2F300128C
:1013100081F828200268126802F060024A620268BE
:10132000126842F30022521C81F8202002681268E1
:10133000C2F34022CA770268126842F38022521C2C
:101340008A7702681268C2F3C0224A77026812687C
:10135000C2F300320A770268126802F400528A610E
:101360000268126802F480424A6102681268C2F39D
:1013700000428A740268126842F34042521C4A7466
:101380000268126842F3C042521C0A740268126872
:10139000C2F30052CA7302681268C2F340528A73E1
:1013A00002681268C2F380524A7302681268C2F37C
:1013B000C0520A730268126802F0E0628A60026832
:1013C0001268C2F3C0620A710268126802F0E04259
:1013D0000A6002685268C2F30D024A6302685268EA
:1013E00042F30042521C81F8322002685268C2F374
:1013F000404281F83120026800E062E05268C2F3A6
:10140000804281F8302002685268C2F3006281F89D
:10141000382002685268C2F34462CA630268D26824
:10142000C2F3002281F840200268D26802F00F0265
:101430004A640268126FC2F3400281F854200268C5
:10144000126F42F3C012521C81F84C200268126FD6
:1014500002F070020A650268126F120C8A64026858
:10146000D2F89020C2F3000281F856200268D2F828
:101470009020C2F3400281F855200268D2F8002D76
:1014800002F072028A650268D2F8302D02F023025F
:10149000CA650268D2F8302DC2F3C00281F862201A
:1014A0000268D2F8302DC2F3001281F86120006882
:1014B000D0F8300D40F38010401C81F8600000200F
:1014C000704701207047F0B506460C4606F12C0522
:1014D0006B69002755F82320002C02D0A86918B1A9
:1014E00009E00120F065F0BD304600F07DF920B143
:1014F0006B6955F82320002017E00120F0BD116929
:10150000216071696160516921B1A46851692160EC
:1015100071696160D168C1F30E075B1C042B00D3B5
:101520001B1F55F82320A468401CA969491E81424D
:10153000E5D8D068C0F30E00C01B11692160716945
:10154000814201D3606008E0536943B16160A168E2
:1015500052690A607269801A48600020F0BD01205B
:10156000F0BD70B50E4600F12C046569A169002933
:1015700002D100F039F968B1A0696D1E2844042831
:1015800000D3001F54F82000C068C0F30E00306084
:10159000002070BD012070BD70B50446206800F5C4
:1015A0008050D0F8601149060DD5D0F834014006BE
:1015B00009D5204600F0FCF9206848F2400100F50A
:1015C0008050C0F86011206800F58050D0F860119C
:1015D000C9070DD0D0F83401C00709D0204600F06B
:1015E00013FB206848F2010100F58050C0F860113B
:1015F000206800F58050D0F860114FF0E0064904F3
:1016000024D5D0F83411490420D5E16D41F008010A
:10161000E165D0F86011C9040CD500F59A70C16A73
:1016200041F2021211402166016821F4404101603B
:10163000666508E0D0F8601101F4CD4121664FF4F1
:10164000CD41C0F860112046FFF736FE2068D0F883
:10165000B0100025C1F34131032907D1D0F8B800FB
:1016600060666665204600F02CF965662068D0F853
:10167000B010C90608D5D0F8C00000F06000A06620
:10168000204600F05FF9A5662068D0F8B010890602
:1016900008D5D0F8C00000F00F00E0662046FFF744
:1016A0002BFEE5664FF0B040D0F8A810490206D5F1
:1016B0004FF48001C0F8A810204600F0C3FA70BDB6
:1016C000F8B50446002C02D0606D10B104E0012092
:1016D000F8BD204600F0F6F8232060654048016818
:1016E00041F002010160006800F002000090207AE1
:1016F00088B14FF4000002F08DF8206800F58050AA
:10170000016841F00101016000F0D6FB0546E026CA
:101710004FF4FA770DE0002002F07CF8EDE700F0DE
:10172000CBFB401BB84204D90420E065666501206C
:10173000F8BD206800F580500068C007EFD1204652
:10174000FFF752FA01F040FC2649B0FBF1F02168A6
:10175000401EC1F8DC002046FFF7DAF9206800F5EA
:101760008050D0F8001121F4E01141F40021C0F8BC
:1017700000116169880703D00120E0656665F8BD46
:10178000206800F58050D0F8082147F6FE739A4390
:1017900042EA4101C0F808112046FFF7CEF8204682
:1017A000FFF79DF860680179407941EA00202168DF
:1017B000C1F800036068C278017841EA026182786A
:1017C0004078120442EA002001432068C0F8041364
:1017D0000020E06510206065A0650020F8BD0000D5
:1017E000F444025840420F0070B52C30016950F8A3
:1017F00021200025002400238669002E33D00020FC
:1018000070BD6D1CD668F6001AD5641C012C00D181
:101810000B46491C042900D3091F50F82120D56824
:10182000002D08DBD268520005D50122C261491C97
:10183000042900D3091F016143618461012070BD47
:10184000D268920008D50B460124491C042900D314
:10185000091F50F8212006E0641C491C042900D30C
:10186000091F50F82120D668002E01DB042DC8D3B3
:101870001CB350F8232000211DE0156915604FF0BE
:101880008075D56055692DB155699560D56845F06D
:101890000075D560D56845F00045D560056A1DB175
:1018A000D56845F08045D5605B1C042B00D31B1F19
:1018B00050F82320491CA142DFD300218161002080
:1018C00070BD704738B5FFF75FF8002206213D2054
:1018D00000F0A0FB3D2000F090FB1848016841F4A7
:1018E00000410160016801F400410091016841F488
:1018F00080310160016801F480310091016841F498
:1019000000310160006800F4003000900C4C0122AE
:101910001146204600F0C2FA6420FFF77FFC002247
:101920002046012100F0BAFA6420FFF777FC204638
:10193000BDE838400122114600F0B0BAD844025840
:101940000008025870472DE9F04104461F46206800
:10195000D0F80032DB0702D00120BDE8F081D0F8DA
:10196000003223F0787343EA415121F4F81141EA3F
:10197000024141F00C0141F00101C0F8001200F0F9
:101980009BFA05464FF47A7606E000F095FA401B84
:10199000B04201D90120E0E72068D0F80002C0077A
:1019A000F3D12068D0F8040280B238600020D4E778
:1019B00008B50C48016881F0080101600020009022
:1019C00009486946006810F00DF80098002807D013
:1019D00006494FF080500860BFF34F8FBFF36F8F01
:1019E00008BD0000140802586C01002404ED00E05A
:1019F00010B5002904D0826D102A03D0012010BD3B
:101A0000012010BDFFF70AFB002010BD10B500211A
:101A1000C26A436D102B01D0012010BD2323436502
:101A20000023D46844F08044D460491C042900D3C6
:101A3000091F00EB8102D26A5B1C042BF1D3012148
:101A4000C16401680A6842F002020A6001680A681B
:101A500042F001020A600168D1F8002D42F0010253
:101A6000C1F8002D016801F58051D1F8042142F040
:101A70000102C1F80421016801F58051D1F8082163
:101A800042F00102C1F80821016801F58051D1F846
:101A9000602142F48172C1F8602110214165222148
:101AA0008165006800F58050D0F834114DF2410294
:101AB0001143C0F83411002010BD10B5C26A416D49
:101AC00000293DD023214165016801F58051D1F8FD
:101AD000343148F24104A343C1F83431016801F5BF
:101AE0008051D1F8043123F00103C1F804310168B9
:101AF00001F58051D1F8083123F00103C1F8083114
:101B000001680B6823F001030B600168D1F8003D08
:101B100043F00103C1F8003D01680B6823F00203A4
:101B20000B600021D36823F08043D360491C042953
:101B3000F8D30021C164102141658165002010BDEA
:101B4000012010BD2DE9F04104461546002905D0BD
:101B5000606D102808D00120BDE8F081E06D40F0F4
:101B60000100E0650120F7E700222046FFF778F842
:101B700028B1E06D40F00200E0650120ECE7A06ACA
:101B800004EB80018F69401CA062042801D3001F70
:101B9000A062A06A04EB80008169206800F5805093
:101BA000C0F8201100F088F906464FF010081CE03C
:101BB000206800F58050D0F86001C0040DD5E06DBC
:101BC00040F00800E065206800F58050D0F8600122
:101BD0002066E02060650120BEE7681C05D000F0AB
:101BE0006BF9801BA84207D835B1F8680028DFDB05
:101BF000C4F854800020AFE7E06D40F00400E065D9
:101C0000C4F854800120A7E710B504A003F034FD08
:101C1000BDE8104005A003F02FBD00000D0A5B4495
:101C2000454255475D203E3E2000000048414C5F44
:101C30004554485F547843706C7443616C6C6261C6
:101C4000636B0A007047000070B505462868D0F83D
:101C50000042E40701D0012070BDD0F8000220F05E
:101C6000787040EA415020F4F81040EA024020F039
:101C70000C00001D40F001000B499AB24A60086058
:101C800000F01AF904464FF47A7606E000F014F9F1
:101C9000001BB04201D9012070BD2868D0F80002B5
:101CA000C007F3D170BD0000008202402DE9F84F5B
:101CB00000226E4C4FF0B0494FF0010A4FF0030E76
:101CC0004FF00F08CAE00AFA02F73B40002B70D031
:101CD0004D68022D01D0122D12D1D50800EB850CD4
:101CE000DCF820605507ED0E08FA05FB26EA0B0626
:101CF000D1F810B00BFA05FB4BEA060BCCF820B07C
:101D0000D0F800C055000EFA05F62CEA060C91F842
:101D100004B00BF0030B0BFA05FB4BEA0C0BC0F8FD
:101D200000B0D1F804C0BCF1010F08D0BCF1020F23
:101D300005D0BCF1110F02D0BCF1120F16D1D0F8B2
:101D400008C02CEA060CD1F80CB00BFA05FB4BEAE4
:101D50000C0BC0F808B0D0F804C02CEA070C0F79BF
:101D6000C7F30017974047EA0C074760C768B743B7
:101D70008E68AE403E43C6604D68ED006DD53C4D6B
:101D80002E6846F002062E602D6805F002050095CB
:101D900022F0030606F1B046D6F808C495072F0FC7
:101DA00008FA07F52CEA050C324DA84202D10025AD
:101DB0002EE052E0304DA84201D1012528E02F4D00
:101DC000A84201D1022523E02D4DA84201D10325CF
:101DD0001EE02C4DA84201D1042519E02A4DA8424D
:101DE00001D1052514E0294DA84201D106250FE0B7
:101DF000274DA84201D107250AE0264DA84201D16E
:101E0000082505E0244DA84201D1092500E00A2556
:101E1000BD4045EA0C05C6F8085425689D434E6848
:101E2000F60300D51D43256065689D434E68B603E3
:101E300000D51D436560D9F800509D434E68F602F9
:101E400000D51D43C9F80050D9F804509D434E6891
:101E5000B60200D51D43C9F80450521C0B6833FA72
:101E600002F57FF430AFBDE8F88F00008000005825
:101E7000F4440258000002580004025800080258B6
:101E8000000C0258001002580014025800180258A2
:101E9000001C02580020025800240258002A01D0D9
:101EA0008161704709048161704700000148006842
:101EB000000C70470010005C044840680449B0FB07
:101EC000F1F04FF47A71484370470000001000E0D1
:101ED0000084D717024881680278114481607047F6
:101EE0000800002410B5032000F0B4F801F0A6F8B3
:101EF0000E4A1168C1F303230D49CB5C03F01F03A5
:101F0000D8400C4B1860126802F00F02895C01F097
:101F10001F01C84008490860002000F00FF808B110
:101F2000012010BD00F068F8002010BD18440258D0
:101F3000101F010800000024040000240648016866
:101F400041F080710160054800214160016841F065
:101F50000101016000207047FCED00E0001000E08E
:101F6000144A41781160111D03780A1D002B1CD002
:101F700043680B60017BC37A090741EA0361837AF6
:101F800041EAC341437B41EA8341837B41EA4341C8
:101F9000C37B41EA0341437A41EA0321037A007893
:101FA00041EA43010143116070470020086010605E
:101FB0007047000098ED00E0BFF35F8F04480168B0
:101FC00021F48031016002490020703108607047BF
:101FD00024ED00E0074940F0010008600548703832
:101FE000016841F480310160BFF34F8FBFF36F8F01
:101FF0007047000094ED00E07047002809DB0121E4
:1020000000F01F0291404009800000F1E020C0F87C
:1020100000117047F0B40D460D4B1B68C3F302234B
:10202000C3F10704042C00D90424191D072901D287
:10203000002300E0DB1E012606FA04F1491E2940B8
:1020400099409E40761E16403143F0BC03F024BBFD
:102050000CED00E000F00701054A10684FF6FF03A1
:10206000184040EA0120034908431060704700000F
:102070000CED00E00000FA0510B500F0DFFF0649A6
:102080000968064AC1F30321515C01F01F01C840F1
:102090000349086010BD000018440258101F0108D1
:1020A0000000002410B500F08FFF05490968054ABB
:1020B000C1F30211515C01F01F01C84010BD0000C6
:1020C00020440258101F010810B569490A6802F03F
:1020D00003020968C1F30531654B1B1D1B6803F042
:1020E0001003634C14342468C4F3CC0414FB03F3CE
:1020F00000EE103AB8EE400A002971D09FED5D1A4B
:102100005B4BF7EE000A1033F2B39FED5B2A012A16
:102110007FD0022A7CD001EE901A1968F8EE611A7D
:10212000C2EE212AC1F3080101EE901AF8EE611AFD
:1021300040EE011A31EEA00A22EE800A1968C1F3BE
:10214000462101EE101AB8EE411A31EE201AC0EE07
:10215000011ABCEEE11A80ED001A1968C1F30641BC
:1021600001EE101AB8EE411A31EE201AC0EE011A33
:10217000BCEEE11A80ED011A1968C1F3066101EEA7
:10218000101AB8EE411A00E008E071EE200A80EE65
:10219000201ABCEEC10A80ED020A10BD344A283A6A
:1021A0001468A4061ED51268C2F3C104334AE24083
:1021B00001EE902AF8EE612A01EE901A1968F8EE05
:1021C000611A82EEA12AC1F3080101EE901AF8EE1D
:1021D000611A40EE011A31EEA00A22EE000AADE7C4
:1021E00041E016E001EE901ADFED252A1968F8EEBD
:1021F000611A82EEA12AC1F3080101EE901AF8EEED
:10220000611A40EE011A31EEA00A22EE000A95E7AB
:1022100013E001EE901A1968F8EE611AC2EE212A55
:10222000C1F3080101EE901AF8EE611A40EE011AAE
:1022300031EEA00A22EE800A80E701EE901ADFED6F
:10224000112A1968F8EE611A82EEA12AC1F3080179
:1022500001EE901AF8EE611A40EE011A31EEA00A72
:1022600022EE000A6AE7002101604160816010BD32
:1022700028440258000000390024744A0090D0031A
:102280000024744C20BCBE4B10B569490A6802F0AA
:1022900003020968C1F30551654B1B1D1B6803F45C
:1022A0008073634C1C342468C4F3CC0414FB03F324
:1022B00000EE103AB8EE400A002971D09FED5D1A89
:1022C0005B4BF7EE000A1833F2B39FED5B2A012A4D
:1022D0007FD0022A7CD001EE901A1968F8EE611ABC
:1022E000C2EE212AC1F3080101EE901AF8EE611A3C
:1022F00040EE011A31EEA00A22EE800A1968C1F3FD
:10230000462101EE101AB8EE411A31EE201AC0EE45
:10231000011ABCEEE11A80ED001A1968C1F30641FA
:1023200001EE101AB8EE411A31EE201AC0EE011A71
:10233000BCEEE11A80ED011A1968C1F3066101EEE5
:10234000101AB8EE411A00E008E071EE200A80EEA3
:10235000201ABCEEC10A80ED020A10BD344A283AA8
:102360001468A4061ED51268C2F3C104334AE240C1
:1023700001EE902AF8EE612A01EE901A1968F8EE43
:10238000611A82EEA12AC1F3080101EE901AF8EE5B
:10239000611A40EE011A31EEA00A22EE000AADE702
:1023A00041E016E001EE901ADFED252A1968F8EEFB
:1023B000611A82EEA12AC1F3080101EE901AF8EE2B
:1023C000611A40EE011A31EEA00A22EE000A95E7EA
:1023D00013E001EE901A1968F8EE611AC2EE212A94
:1023E000C1F3080101EE901AF8EE611A40EE011AED
:1023F00031EEA00A22EE800A80E701EE901ADFEDAE
:10240000112A1968F8EE611A82EEA12AC1F30801B7
:1024100001EE901AF8EE611A40EE011A31EEA00AB0
:1024200022EE000A6AE7002101604160816010BD70
:1024300028440258000000390024744A0090D00358
:102440000024744C20BCBE4B2DE9F84F04460025F7
:102450000026FB4F2068DFF8EC83010104F1240023
:1024600000900DD5606EB0B1B0F5801F18D0B0F5FA
:10247000001F1BD0B0F5401F00D00125E5B12E464E
:102480002088C00535D5606D05282FD2DFE800F023
:102490001D22282F2F00386840F400303860EDE707
:1024A0000221201D01F000FB0546E7E7009802210C
:1024B00001F08CFB0546E1E7D8F80000616E20F4DE
:1024C00040100843C8F80000DAE7386840F40030EC
:1024D00038600CE00021201D01F0E6FA054606E018
:1024E0000098002101F072FB054600E001255DB176
:1024F0002E462088800518D5A06D802830D00CDCB1
:1025000018B340280ED125E0D8F80000616D20F006
:1025100007000843C8F80000EBE7C02803D0B0F577
:10252000807F00D001250DB32E462088DFF8189358
:1025300040052DD5D4F8A400B0F5800F42D01EDCA4
:10254000A0B3B0F5001F20D136E0386840F4003069
:102550003860E8E70021201D01F0A6FA0546E2E711
:102560000098002101F032FB0546DCE7D8F80000B6
:10257000A16D20F4E0700843C8F80000D5E7B0F57D
:10258000C00F03D0B0F5000F00D0012505B32E46D3
:10259000208800052FD5D4F8A800B0F1007F52D0D4
:1025A00020DCE8B3B0F1807F22D146E0FFE7386855
:1025B00040F400303860E9E70021201D01F074FA92
:1025C0000546E3E70098002101F000FB0546DDE742
:1025D000D9F80000D4F8A41020F460000843C9F82A
:1025E0000000D5E7B0F1407F03D0B0F1806F00D09C
:1025F000012575B32E46206880010AD5A06C30B144
:10260000102831D0202835D0302800D0012585B3BE
:102610002E462088C00446D5E06DB0F5005F00E08E
:1026200006E05BD036DCA0B3B0F5805F38D14FE078
:10263000386840F400303860DBE70021201D01F0ED
:1026400033FA0546D5E70098002101F0BFFA0546A8
:10265000CFE7FFE7D9F80000D4F8A81020F0E06039
:102660000843C9F80000C6E7386840F40030386015
:10267000CDE705E00221201D01F016FA0546C6E768
:102680007048001F0168A26C21F030011143016005
:10269000BFE718E0B0F5405F03D0B0F5804F00D041
:1026A00001250DB32E46208880042FD5206EB0F56D
:1026B000403F29D021DC38B3B0F5803F37D0B0F5AA
:1026C000003F20D139E0386840F400303860E8E756
:1026D0000021201D01F0E8F90546E2E700980021FD
:1026E00001F074FA0546DCE7D8F80000E16D20F44B
:1026F000E0400843C8F80000D5E7B0F5802F03D0CC
:10270000B0F5A02F00D00125EDB12E462088400461
:102710002BD5D4F8AC00B0F1405F24D01CDC10B352
:10272000B0F1805F4BD0B0F1005F1BD14EE00121D2
:10273000201D01F0B9F90546E6E70098012101F0F6
:1027400045FA0546E0E7D8F80000216E20F4E020C5
:102750000843C8F80000D9E7B0F1804F03D0B0F1CA
:10276000A04F00D0012585B32E46208800040AD54D
:10277000E06E30B1B0F1805F39D0B0F1005F3BD096
:1027800001259DB32E462068C0010AD5606C30B18A
:10279000012841D0022844D0032800D001258DB360
:1027A0002E462068DFF8A4B0400261D528480168B1
:1027B00041F480710160FFF77FFB824652E0012106
:1027C000201D01F071F90546CDE705E000980121D3
:1027D00001F0FCF90546C6E7D9F80000D4F8AC10C2
:1027E00020F0E0400843C9F80000BEE70BE038687D
:1027F00040F400303860C4E70121201D01F054F995
:102800000546BEE713E0D8F80000E16E20F0405026
:102810000843C8F80000B6E7386840F40030386074
:10282000BDE70221201D01F03FF90546B7E7054845
:10283000001F0168626C21F0030111430160B0E7E1
:102840002C4402585044025858440258104402582C
:1028500000480258FFF730FBA0EB0A00642801D9BA
:10286000032503E0FE480068C005F3D57DB12E4680
:102870002078DFF8F0A3C00766D0A06F182861D0D9
:102880005BDC80B308286AD010285AD16DE0F54887
:102890001C30006800F44071B4F8B00000F44070DF
:1028A00081420DD0EF481C30016821F4407102686C
:1028B00042F480320260026822F4803202600160D9
:1028C000D4F8B000B0F5807F13D1FFF7F5FA824657
:1028D0000AE0FFF7F1FAA0EB0A0141F288308142E9
:1028E00002D9032505E02DE0DE481C300068800792
:1028F000EFD50DB12E46BBE7D4F8B000C0F30121EF
:1029000003290FD0DBF8000020F47C50CBF8000046
:10291000D4481C300168B4F8B020C2F30B02114354
:102920000160A5E7DBF80010CF4A21F47C5110408C
:1029300041EA1010CBF80000EAE7202802D028284E
:1029400000D00125BDB12E46207880072BD5606FC1
:10295000062825D2DFE800F025181E2525250121AF
:10296000201D01F0A1F80546ECE70098012101F0D7
:102970002DF90546E6E7DAF80000A16F20F03800EF
:102980000843CAF80000DFE70121201D01F08CF8A0
:10299000054606E00098012101F018F9054600E01F
:1029A000012565B12E462078400720D5D4F8900047
:1029B000062819D2DFE800F0190C12191919DAF8F3
:1029C0000000616F20F007000843CAF80000EAE742
:1029D0000121201D01F068F8054606E0009801215C
:1029E00001F0F4F8054600E001258DB12E4620786F
:1029F000800620D5D4F88C00B0F1405F19D011DCEE
:102A0000B8B1B0F1805F27D0B0F1005F10D129E0FC
:102A1000D9F80000D4F8901020F007000843C9F856
:102A20000000E4E7B0F1804F03D0B0F1A04F00D038
:102A30000125EDB12E46207840062CD5D4F898001B
:102A4000B0F5406F25D01DDC18B3B0F5806F33D0E2
:102A5000B0F5006F1CD135E00021201D01F024F8F5
:102A60000546E6E70098022101F0B0F80546E0E7E8
:102A7000DAF80000D4F88C1020F0E0400843CAF8DF
:102A80000000D8E7B0F5805F03D0B0F5A05F00D0BC
:102A90000125EDB12E46207800062CD5D4F89C00F7
:102AA000B0F5C04F25D01DDC18B3B0F5005F7CD069
:102AB000B0F5804F1CD1E0E00021201D00F0F4FFB4
:102AC0000546E6E70098022101F080F80546E0E7B8
:102AD000D9F80000D4F8981020F4E0500843C9F861
:102AE0000000D8E7B0F5004F03D0B0F5204F00D07C
:102AF0000125EDB32E46207800070BD5D4F88000D1
:102B0000B0F5805F75D0DAF8001021F44051014330
:102B1000CAF800102078C0060BD5D4F89400B0F5A0
:102B2000807F68D0D9F8001021F440710143C9F8C2
:102B30000010206800030BD5D4F8A000B0B3B0F5A6
:102B4000803F7DD0B0F5003F00D001257DB32E46FB
:102B5000206840030FD5D4F88400B0F5801F71D0F1
:102B6000B0F5001F6FD0B0F5401F00D0012500E088
:102B700089E0E5B32E462068C00307D5E06CB8B302
:102B8000B0F5803F72D00125A5B32E4620688000A5
:102B900005D50098022101F019F800B1012620683E
:102BA000800311D5E06F68B102E060E089E094E055
:102BB000B0F5807F71D0B0F5007F03D0B0F5407FD5
:102BC00000D00125EDB32E462068C00207D5D8F805
:102BD0000000216F20F000400843C8F80000206882
:102BE000C0000ED5DBF8000020F4804004E089E04E
:102BF00092E053E09BE05AE0D4F8B4100843CBF8DD
:102C000000002068800207D5D8F80000A16E20F0EF
:102C100080700843C8F80000206840000CD5DBF83D
:102C2000000020F40040CBF80000DBF80000D4F8EE
:102C3000B8100843CBF80000206800280CDA03E045
:102C400045E081E053E057E0064808380168226D0E
:102C500021F040511143016096B30120BDE8F88F87
:102C60000048025854440258FFFCFF0F59E000216D
:102C7000201D00F019FF05463BE70098022100F0F7
:102C8000A5FF054635E7D9F80000D4F89C1020F4DC
:102C900060400843C9F800002DE750E00098022189
:102CA00000F094FF00283FF435AF012632E700988A
:102CB000022100F08BFF00283FF43BAF012638E7EC
:102CC0004BE00021201D00F0EFFE05463EE7009896
:102CD000022100F07BFF054638E7D9F80000D4F860
:102CE000A01020F440300843C9F8000030E73868ED
:102CF00040F4003038603AE70098012100F066FFA8
:102D0000054634E7DAF80000D4F8841020F44010C7
:102D10000843CAF800002EE7386840F400303860F5
:102D200032E70221201D00F0BFFE05462CE70C48CB
:102D30000168E26C21F480311143016026E73868B4
:102D400040F4003038603DE7DAF80000E16F20F42D
:102D500040700843CAF8000036E700207EE7000014
:102D60004C4402582DE9F05F04460D46002C17D064
:102D7000DFF83882D8F8000000F00F00A84211D226
:102D8000D8F8000020F00F002843C8F80000D8F859
:102D9000000000F00F00A84204D00120BDE8F09F21
:102DA0000120FBE72078824E40070AD52069316870
:102DB00001F07001884204D9316821F070010143AB
:102DC000316020787B4F00070AD56069396801F0CF
:102DD0007001884204D9396821F0700101433960DB
:102DE0002078C0060AD5A069396801F4E0618842FC
:102DF00004D9396821F4E061014339602078DFF8B3
:102E0000B89180060DD5E069D9F8001001F0700185
:102E1000884206D9D9F8001021F070010143C9F8A1
:102E20000010207880070AD5E068316801F00F01B2
:102E3000884204D9316821F00F01014331602078C4
:102E4000C00743D03068A16820F470600843306048
:102E5000574960681839022808D003280BD0012888
:102E60000ED00968490710D4012097E70968890343
:102E70000BD4012092E70968890106D401208DE76F
:102E80000968C90501D4012088E7DFF824A1AAF167
:102E9000080ADAF8001021F007010143CAF800100F
:102EA000FFF70AF8834609E0FFF706F8A0EB0B01ED
:102EB00041F28830814201D903206FE7DAF800003F
:102EC000616800F03800B0EBC10FEDD120788007C9
:102ED0000AD5E068316801F00F01884204D23168F8
:102EE00021F00F0101433160D8F8000000F00F001D
:102EF000A8420ED9D8F8000020F00F002843C8F8E7
:102F00000000D8F8000000F00F00A84201D0012016
:102F100044E7207840070AD52069316801F0700144
:102F2000884204D2316821F0700101433160207879
:102F300000070AD56069396801F07001884204D23F
:102F4000396821F07001014339602078C0060AD544
:102F5000A069396801F4E061884204D2396821F43B
:102F6000E06101433960207880060DD5E069D9F829
:102F7000001001F07001884206D2D9F8001021F04B
:102F800070010143C9F8001000F058F831680B4A8D
:102F9000C1F30321515C01F01F01C84008490860DA
:102FA00008480068BDE8F05FFEF7C8BF0020005287
:102FB000184402581C44025820440258101F0108AB
:102FC000000000240C00002410B5FFF755F8064956
:102FD0000968064A01F00F01515C01F01F01C84069
:102FE0000349086010BD000018440258101F010872
:102FF0000400002410B5FFF7E7FF05490968054AFA
:10300000C1F30211515C01F01F01C84010BD000066
:103010001C440258101F010810B5FFF7D5FF0549E1
:103020000968054AC1F30221515C01F01F01C84043
:1030300010BD00001C440258101F010830B5644840
:103040000068654C10F03801624808D00211082968
:103050000DD010290DD018290DD0104630BD216893
:103060008906FBD52168C1F3C101C84030BD1046B7
:1030700030BD5A4830BD564918310A6802F0030283
:103080000968C1F30511524B1C331B6803F001039F
:103090004F4D24352D68C5F3CC0515FB03F300EE29
:1030A000103AB8EE400A002977D0DFED4D0A484BC0
:1030B000B7EE001A20333AB39FED4A2A012A58D0BE
:1030C000022A6CD001EE901A1868F8EE611AC2EE6E
:1030D000212AC0F3080001EE900AF8EE611A40EED2
:1030E000201A31EE810A22EE800A1868C0F34620C9
:1030F000401C00EE900AF8EE600A80EE201ABCEE4A
:10310000C10A10EE100A30BD226892061BD5226853
:10311000C2F3C102D04001EE900A1868F8EE612AAD
:1031200001EE901AF8EE611A82EEA12AC0F30800AF
:1031300001EE900AF8EE611A40EE201A31EE810A93
:1031400022EE000AD1E701EE901ADFED272A186877
:10315000F8EE611A82EEA12AC0F3080001EE900A8F
:10316000F8EE611A40EE201A31EE810A22EE000AD2
:10317000BBE701EE901A1868F8EE611AC2EE212A38
:10318000C0F3080001EE900AF8EE611A40EE201A32
:1031900031EE810A22EE800AA7E716E0FFE701EE92
:1031A000901ADFED122A1868F8EE611A82EEA12A51
:1031B000C0F3080001EE900AF8EE611A40EE201A02
:1031C00031EE810A22EE000A8FE7002030BD0000B8
:1031D000104402580090D0030044025840787D010A
:1031E000000000390024744A0024744C20BCBE4BFB
:1031F000F0B587B00C4615461E4E1E4B002102222C
:103200000327D03E00281AD0186840F00400186048
:10321000186800F0040001901002029003920597D4
:103220000491069102A91448FEF740FD306844EA73
:10323000C51120F07E400843306007B0F0BD18682B
:1032400040F001001860186800F0010001904FF490
:1032500080700290039205970491069102A9074895
:10326000FEF724FD30682C4320F0FE7020433060D0
:10327000E3E70000E044025800080258000002584A
:103280002DE9F05F0446002C10D02078DFF8EC83A5
:10329000FB4FFC4DC0075DD0D8F8000000F03800AF
:1032A000396810281FD0182803D006E00120BDE897
:1032B000F09F01F00300022815D06068B0F5803F50
:1032C00018D0E0B1B0F5A02F22D0286820F48030CB
:1032D0002860286820F480202860606860B3FEF7CA
:1032E000EBFD064624E02868800333D5606810BBF8
:1032F0000120DCE7286840F480302860EDE728688A
:1033000020F480302860286820F480202860E4E7DA
:10331000286840F480202860286840F480302860C5
:10332000DBE7FEF7C9FD801B642801D90320BEE757
:1033300028688003F5D50DE0FEF7BEFD064606E0E1
:10334000FEF7BAFD801B642801D90320AFE7286887
:103350008003F5D4207841F2030ACB4E800777D55D
:10336000D8F8000000F03800396870B1182801D191
:1033700088070AD0E06880B3296821F01901014369
:103380002960FEF799FD814638E02868400701D59D
:10339000E06848B12868E16820F019000843286017
:1033A000FEF78AFD814609E0012080E7FEF784FDF3
:1033B000A0EB0900022801D9032078E7286840071C
:1033C000F4D5FEF773FD504508D83068216920F424
:1033D0007C3040EA013030603AE026E03068217C01
:1033E00020F0FE4040EA0160306031E0FEF764FD0D
:1033F000A0EB0900022801D9032058E728684007FC
:10340000F4D5FEF753FD504507D83068216920F404
:103410007C3040EA013030601AE03068217C20F0D6
:10342000FE4040EA0160306012E0286820F00100B0
:103430002860FEF741FD814607E0FEF73DFDA0EB69
:103440000900022801D9032031E728684007F4D495
:103450002078C00670D5D8F8000000F03800396830
:10346000DFF818B20828ABF1040B0FD0182803D1ED
:1034700001F00300012809D0E06978B3286840F022
:1034800080002860FEF718FD814628E02868C00506
:1034900004D5E069802801D0012008E7FEF706FD89
:1034A000504508D8306894F8201020F0F84040EAE1
:1034B0008160306040E0DBF8000094F8201020F0DC
:1034C0007C5040EA0160CBF8000035E0FEF7F4FCE8
:1034D000A0EB0900022802D90320E8E61AE02868D8
:1034E000C005F3D5FEF7E2FC504508D8306894F8E3
:1034F000201020F0F84040EA816030601CE0DBF8EA
:10350000000094F8201020F07C5040EA0160CBF8D5
:10351000000011E0286820F080002860FEF7CCFC55
:10352000064606E0FEF7C8FC801B022801D90320EE
:10353000BDE62868C005F5D4207800072AD5504E8E
:1035400060694C3698B1306840F001003060FEF799
:10355000B3FC814607E0FEF7AFFCA0EB09000228B0
:1035600001D90320A3E630688007F4D512E0306863
:1035700020F001003060FEF79FFC814607E0FEF777
:103580009BFCA0EB0900022801D903208FE63068DC
:103590008007F4D42078800626D5A06990B12868E9
:1035A00040F480502860FEF787FC064606E0FEF7F0
:1035B00083FC801B022801D9032078E62868800458
:1035C000F5D511E0286820F480502860FEF774FCDF
:1035D000064606E0FEF770FC801B022801D9032096
:1035E00065E628688004F5D42078400778D5274E12
:1035F000306840F480703060FEF75EFC814607E082
:10360000FEF75AFCA0EB0900642801D903204EE61E
:103610003068C005F4D5DFF86890A06809F1480962
:10362000012816D0E0B1052832D0D9F8000020F0EA
:103630000100C9F80000D9F8000020F00400C9F822
:103640000000A06841F2883AB8B1FEF735FC0646A2
:1036500032E0D9F8000040F00100C9F80000F0E7BE
:10366000D9F8000020F00100C9F80000D9F80000E6
:1036700020F00400C9F80000E3E722E010440258FB
:103680002844025800440258044402580048025892
:10369000D9F8000040F00400C9F80000D9F8000093
:1036A00040F00100C9F80000CBE7FEF705FC801BE5
:1036B000504501D90320FAE5D9F800008007F4D578
:1036C0000EE0FEF7F9FB064606E0FEF7F5FB801B71
:1036D000504501D90320EAE5D9F800008007F4D469
:1036E000606AE8B3D8F80010C1F3C201032975D0AD
:1036F000022807D0286820F080702860FEF7DCFBE5
:1037000004467EE0286820F080702860FEF7D4FB35
:10371000064606E0FEF7D0FB801B022801D90320F5
:10372000C5E528688001F5D4386840F2F331884354
:10373000E16A40EA0110A16A08433860208E4FF622
:10374000FF72616B401E491EC0F3080002EA41216E
:103750000843218F4FF4FE02491E02EA014100E0B6
:1037600052E0084394F83C10491E120202EA01613B
:10377000084327490860081F016821F00101016022
:103780002349091D0A684FF6F8739A43A36C42EA6D
:10379000C3020A600168226C21F00C011143016030
:1037A0000168626C21F0020111430160016841F47B
:1037B00080310160016841F400310160016841F429
:1037C00080210160016841F001010160286840F03A
:1037D00080702860FEF770FB044607E016E0FEF7F5
:1037E0006BFB001B022801D9032060E528688001DB
:1037F000F5D509E0FEF760FB001B022801D9032084
:1038000055E528688001F5D4002050E501204EE5FB
:103810003044025803490A6822F4600202430A60F5
:10382000704700000404005810B50446002C03D073
:10383000D4F8800010B107E0012010BD002084F80A
:103840007C00204600F028F82420C4F8800020687E
:10385000016821F001010160204600F017FC0128F9
:1038600018D0A06A10B1204600F07CFB20684168A7
:1038700021F4904141602068816821F02A01816033
:103880002068016841F0010101602046BDE8104058
:1038900000F0CCBB012010BD70472DE9F843044671
:1038A0000E4615461F46D4F88000202802D002207C
:1038B000BDE8F883D6B1CDB194F87C00012817D0CB
:1038C000012084F87C004FF00008C4F88880212093
:1038D000C4F88000FEF7F0FA8146A4F85450A4F82A
:1038E0005650A068B0F5805F04D005E00120DFE706
:1038F0000220DDE7206910B13546002615E00025DD
:1039000013E000224B4680212046009701F05EFE26
:1039100008B10320CCE7B5B1216815F8010B886226
:10392000B4F85600401EA4F85600B4F8560000281B
:10393000E7D100224B4640212046009701F046FE89
:1039400040B10320B4E7216836F8020BC0F3080049
:103950008862E5E72020C4F8800084F87C8000209D
:10396000A6E7FEE708B5002100911F226B46FDF790
:10397000EAFF08B1002008BD009808BDF8B505466B
:10398000002000900024002228464FF400431146F6
:10399000FEF75AF908B10120F8BD0F20FDF73EFCF3
:1039A000002228464FF480531146FEF74DF908B126
:1039B0000120F8BD0F20FDF731FC4FF480366B4637
:1039C000012228460021FDF7BEFF641CB44201D34A
:1039D0000320F8BD00988006F1D50020F8BD000056
:1039E00010B586B00C48016841F004010160006820
:1039F00000F004000090082401940120029003903C
:103A00000220049001A90548FEF750F90348183038
:103A1000046006B010BD0000E044025800080258DF
:103A20007FB5FEF7C9FA01258DF800501B480190BB
:103A300007208DF8080003268DF80B608DF80F50D5
:103A400000248DF80E408DF80D408DF801408DF862
:103A50000A408DF809408DF80C406846FEF780FA60
:103A60008DF800500E4801900D208DF808008DF85B
:103A70000B608DF80F408DF80E508DF80D408DF8CD
:103A800001508DF80A408DF809408DF80C406846C9
:103A9000FEF766FA0420FEF79DFA7FBD00000430B1
:103AA00000400430FEE770472DE9F04704468846A1
:103AB0000027DFF81491D9F80000C043800709D02F
:103AC000414D283D286820F080602860FEF7F4F919
:103AD000064609E00120BDE8F087FEF7EDF9801BFE
:103AE000022801D90320F6E728680001F5D4D9F8A7
:103AF0000000216820F47C3040EA0130C9F8000061
:103B0000A0884FF6FF72A168401E491EC0F308004E
:103B100002EA41210843A1894FF4FE02491E02EA4C
:103B200001410843217C1202491E02EA0161084357
:103B30002549103108602448001D0168626921F0A0
:103B4000C001114301600168A26921F02001114305
:103B50000160016821F0100101601B4914310A68FD
:103B60004FF6F8739A43E36942EAC3020A600168B8
:103B700041F010010160B8F1000F0ED0B8F1010F53
:103B800010D0016841F400110160286840F08060A5
:103B90002860FEF791F9044610E0016841F4002125
:103BA0000160F2E7016841F480110160EDE7FEF782
:103BB00083F9001B022801D903208CE72868000143
:103BC000F5D5384687E70000284402582DE9F0472C
:103BD000044688460027DFF81491D9F80000C04356
:103BE000800709D0414D283D286820F0805028608A
:103BF000FEF762F9064609E00120BDE8F087FEF70E
:103C00005BF9801B022801D90320F6E728688000B1
:103C1000F5D4D9F80000218820F07C7040EA0150EA
:103C2000C9F80000A0884FF6FF72A168401E491E27
:103C3000C0F3080002EA41210843A1894FF4FE02C3
:103C4000491E02EA01410843217C1202491E02EA90
:103C5000016108432549183108602448001D0168A6
:103C6000626921F44061114301600168A26921F495
:103C7000007111430160016821F4807101601B49EA
:103C80001C310A684FF6F8739A43E36942EAC302AB
:103C90000A60016841F480710160B8F1000F0ED034
:103CA000B8F1010F10D0016841F0807101602868FF
:103CB00040F080502860FEF7FFF8044610E00168ED
:103CC00041F480010160F2E7016841F40001016004
:103CD000EDE7FEF7F1F8001B022801D903208CE77D
:103CE00028688000F5D5384687E700002844025848
:103CF0002022BFF34F8F064B02E018601044891A50
:103D00000029FADCBFF34F8FBFF36F8F70470000BD
:103D10005CEF00E010B55020EFF3118472B680F331
:103D20001188BFF34F8FBFF36F8F62B6FEF7D2F8E3
:103D30000DF036FF012801D00DF0DAFB84F3118875
:103D400010BD000030B59DB02648016821F0040187
:103D5000016000242448016821F00101016000682D
:103D600020480C30016841F440410160016801F4D1
:103D70004041019101688904FCD5012002900004B2
:103D800003900594099402200B900C9005210D914D
:103D9000C0210E910F901190109013940825129548
:103DA00002A8FFF76DFA00B1FEE73F20159003204F
:103DB000169017941895402019901A9001011B91A4
:103DC0001C90042115A8FEF7CDFF00B1FEE70748BF
:103DD000016841F000410160006800F0004001907E
:103DE0001DB030BD0C4802582C040058DC44025869
:103DF0002048016841F4700101601F49086840F0E3
:103E0000010008601C4A0020103210600A681B4B39
:103E10001A400A60184A18321060121D1060121DF4
:103E20001060154A28321060121D1060121D1060BB
:103E3000121D1060121D1060121D1060121D106006
:103E4000121D10600A6822F480220A600A4960315B
:103E500008600B4800686FF30F00B0F1005F02D2FA
:103E60000849012008604FF000600249803908606D
:103E70007047000088ED00E0004402587FEDF6EA4C
:103E80000010005C088100513EB5002108460CF08E
:103E9000C3F91A48184901606FF07F401749091D9E
:103EA0000860091D1648086000221749134B154881
:103EB00008330290CDE900211A1F1448111F06F0A3
:103EC0008BF9124806F01AFB104C94F82D004007AD
:103ED00003D5204606F07EFB02E00C4806F014FBFA
:103EE0006068010E0091C0F30743C0F30722C1B21E
:103EF00007A001F0C1FB3EBDC0A8037A88010024E1
:103F0000C0A8030119030108996A000800BD012433
:103F1000B1BEB5D84950B5D8D6B7CAC73A25642E70
:103F200025642E25642E25640A0A0000054C4FF4F2
:103F30007A75216881F00801216028460DF086F825
:103F4000F7E7000014080258054C4FF4FA652168A1
:103F500081F00801216028460DF078F8F7E70000AD
:103F60001408025890F82810C90706D001684A685A
:103F7000C36A22F400321A434A6090F82810890775
:103F800006D501684A68036B22F480321A434A60FE
:103F900090F82810490706D501684A68436B22F457
:103FA00080221A434A6090F82810090706D5016854
:103FB0004A68836B22F400421A434A6090F8281042
:103FC000C90606D501688A68C36B22F480521A4379
:103FD0008A6090F82810890606D501688A68036C03
:103FE00022F400521A438A6090F82810490611D52D
:103FF00001684A68436C22F480121A434A60416C9B
:10400000B1F5801F06D101684A68836C22F4C002B2
:104010001A434A6090F82810090606D501684A68D4
:10402000C06C22F4002202434A607047F8B504468F
:104030000026C4F88860FDF73FFF07462068006847
:104040006FF07E4500070AD500223B464FF4001171
:104050002046009501F0BAFA08B10320F8BD2068A7
:10406000006840070AD500223B464FF480012046F5
:10407000009501F0ABFA08B10320F8BD20207C3494
:104080006060A06026700020F8BD00002DE9F04FB0
:1040900087B004464FF0000800250020F74B216848
:1040A0002669A268E769324366693E433243666E19
:1040B00016430A68F24F3A4032430A6021684A6860
:1040C000E66822F4405232434A60A16922689A426B
:1040D00001D0266A31439668EA4F3E400E4396600F
:1040E0002168CA6A666A22F00F023243CA62E64E4B
:1040F0002168E64AB14224D1126802F03802182A37
:1041000016D005DC5AB1082A0CD0102A04D10CE0D4
:10411000202A10D0282A11D04FF0800B2AE14FF02E
:10412000010B27E14FF0040B24E14FF0080B21E1D4
:104130004FF0100B1EE14FF0200B1BE14FF0400B36
:1041400018E1D34EB1421ED1126802F00702062ACE
:1041500016D2DFE802F00306090C0F124FF0000B35
:1041600008E14FF0040B05E14FF0080B02E14FF0BE
:10417000100BFFE04FF0200BFCE04FF0400BF9E09C
:104180004FF0800BF6E0C34EB1421ED1126802F030
:104190000702062A16D2DFE802F00306090C0F1206
:1041A0004FF0000BE6E04FF0040BE3E04FF0080B9C
:1041B000E0E04FF0100BDDE04FF0200BDAE04FF0C5
:1041C000400BD7E04FF0800BD4E0B34EB1421ED18C
:1041D000126802F00702062A16D2DFE802F0030690
:1041E000090C0F124FF0000BC4E04FF0040BC1E0BC
:1041F0004FF0080BBEE04FF0100BBBE04FF0200B70
:10420000B8E04FF0400BB5E04FF0800BB2E0A34EAA
:10421000B1421ED1126802F00702062A16D2DFE868
:1042200002F00306090C0F124FF0000BA2E04FF052
:10423000040B9FE04FF0080B9CE04FF0100B99E04F
:104240004FF0200B96E04FF0400B93E04FF0800BC7
:1042500090E0934EB14224D1126802F03802182A3D
:1042600016D005DC5AB1082A0CD0102A04D10CE073
:10427000202A10D0282A11D04FF0800B7AE04FF07E
:10428000010B77E04FF0040B74E04FF0080B71E086
:104290004FF0100B6EE04FF0200B6BE04FF0400B37
:1042A00068E0804EB1421ED1126802F00702062A71
:1042B00016D2DFE802F00306090C0F124FF0000BD4
:1042C00058E04FF0040B55E04FF0080B52E04FF070
:1042D000100B4FE04FF0200B4CE04FF0400B49E04B
:1042E0004FF0800B46E0704EB1421ED1126802F0D2
:1042F0000702062A16D2DFE802F00306090C0F12A5
:104300004FF0000B36E04FF0040B33E04FF0080B9A
:1043100030E04FF0100B2DE04FF0200B2AE04FF073
:10432000400B27E04FF0800B24E0994220D1574A00
:10433000121D126802F00702062A16D2DFE802F008
:104340000306090C0F124FF0020B13E04FF0040BA1
:1043500010E04FF0080B0DE04FF0100B0AE04FF0AB
:10436000200B07E04FF0400B04E04FF0800B01E022
:104370004FF0800BDFF834A1002799424FF4807989
:1043800077D1BBF1100F75D009DCBBF1020F19D04A
:10439000BBF1040F4DD0BBF1080F06D1A1E0BBF17A
:1043A000200F68D0BBF1400F66D00125002808D04F
:1043B000666806EB4601814202D8B0EB063F77D92A
:1043C0000125EEE3FDF76EFE0146606AC8B10128E3
:1043D00019D0022819D0032819D0042819D005288B
:1043E00019D0062819D0072819D0082819D009286B
:1043F00019D00A2819D00B2819D00120B1FBF0F0F0
:10440000D4E70120FAE70220F8E70420F6E70620C7
:10441000F4E70820F2E70A20F0E70C20EEE710208E
:10442000ECE72020EAE74020E8E78020E6E748467E
:10443000E4E704A8FDF748FE0599606AE8B10128A1
:1044400039D0022839D0032839D0042839D005289A
:1044500039D0062839D0072839D0082839D009287A
:1044600039D00A2839D00B2839D00120B1FBF0F01F
:104470009CE7AEE36DE0DDE011E11AE0000C0058CE
:10448000F369FFCFFFF4FF110010014054440258BC
:104490000044004000480040004C004000500040F4
:1044A0000014014000780040007C00400090D003E0
:1044B0002BE10120DAE70220D8E70420D6E7062026
:1044C000D4E70820D2E70A20D0E70C20CEE710205E
:1044D000CCE72020CAE74020C8E78020C6E748464E
:1044E000C4E701A8FDF7D0FE0299606AC8B10128AF
:1044F00019D0022819D0032819D0042819D005286A
:1045000019D0062819D0072819D0082819D0092849
:1045100019D00A2819D00B2819D00120B1FBF0F0CE
:1045200044E70120FAE70220F8E70420F6E7062036
:10453000F4E70820F2E70A20F0E70C20EEE710206D
:10454000ECE72020EAE74020E8E78020E6E748465D
:10455000E4E7F7480168890638D50068C0F3C10070
:104560002AFA00F1606AC8B1012819D0022819D0CE
:10457000032819D0042819D0052819D0062819D0E5
:10458000072819D0082819D0092819D00A2819D0C5
:104590000B2819D00120B1FBF0F007E70120FAE762
:1045A0000220F8E70420F6E70620F4E70820F2E707
:1045B0000A20F0E70C20EEE71020ECE72020EAE7E5
:1045C0004020E8E78020E6E74846E4E7606AC8B1B3
:1045D000012819D0022819D0032819D0042819D08D
:1045E000052819D0062819D0072819D0082819D06D
:1045F000092819D00A2819D00B2819D00120BAFB94
:10460000F0F0D3E60120FAE70220F8E70420F6E70D
:104610000620F4E70820F2E70A20F0E70C20EEE796
:104620001020ECE72020EAE74020E8E78020E6E7DA
:104630004846E4E7606AD0B101281AD002281AD0AF
:1046400003281AD004281AD005281AD006281AD010
:1046500007281AD008281AD009281AD00A281AD0F0
:104660000B281AD00120B349B1FBF0F09EE60120DF
:10467000F9E70220F7E70420F5E70620F3E7082032
:10468000F1E70A20EFE70C20EDE71020EBE7202010
:10469000E9E74020E7E78020E5E74846E3E7606A8E
:1046A000D8B101281BD002281BD003281BD0042816
:1046B0001BD005281BD006281BD007281BD0082894
:1046C0001BD009281BD00A281BD00B281BD0012087
:1046D0004FF40041B1FBF0F068E60120F8E702205A
:1046E000F6E70420F4E70620F2E70820F0E70A20C6
:1046F000EEE70C20ECE71020EAE72020E8E7402076
:10470000E6E78020E4E74846E2E7BBF1100F7DD002
:1047100009DCBBF1020F16D0BBF1040F64D0BBF172
:10472000080F06D1B8E0BBF1200F70D0BBF1400FED
:104730006ED001258049A8F54070884269D820686C
:10474000C0F80C802DE2FDF7ADFC0146606A50B365
:1047500001282BD002282CD003282DD004282ED0BD
:1047600005282FD0062830D0072831D0082832D08D
:10477000092833D00A2834D00B2801D04FF0010982
:10478000084600234A461946FBF702FE6268090202
:10479000030241EA10615008181879410023FBF721
:1047A000F7FD8046C6E74FF00109E9E74FF002093F
:1047B000E6E74FF00409E3E74FF00609E0E74FF0C2
:1047C0000809DDE74FF00A09DAE74FF00C09D7E7EF
:1047D0004FF01009D4E74FF02009D1E74FF040091E
:1047E000CEE74FF08009CBE704A8FDF76DFC0599F3
:1047F000606A78B3012831D0022832D0032833D040
:10480000042834D0052835D0062803E09CE040E198
:104810008DE1DCE131D0072832D0082833D00928D7
:1048200034D00A2835D00B2801D04FF001090846B2
:1048300000234A461946FBF7ABFD626809020302F2
:1048400041EA10615008181879410023FBF7A0FDD8
:1048500080466FE7FFE74FF00109E8E74FF00209F4
:10486000E5E74FF00409E2E74FF00609DFE74FF014
:104870000809DCE74FF00A09D9E74FF00C09D6E741
:104880004FF01009D3E74FF02009D0E74FF040096F
:10489000CDE74FF08009CAE701A8FDF7F5FC0299C2
:1048A000606A50B301282BD002282CD003282DD0C9
:1048B00004282ED005282FD0062830D0072831D044
:1048C000082832D0092839D00A283AD00B2801D03C
:1048D0004FF00109084600234A461946FBF758FDE8
:1048E00062680902030241EA106150081818794110
:1048F0000023FBF74DFD80461CE74FF00109E9E777
:104900004FF00209E6E74FF00409E3E74FF006092C
:10491000E0E74FF00809DDE74FF00A09DAE74FF06A
:104920000C09D7E74FF01009D4E74FF02009D1E781
:104930000044025800093D00FFFC0F004FF0400901
:10494000C8E74FF08009C5E7F7480168890652D5E6
:104950000068C0F3C1002AFA00FA606A50B3012867
:104960002BD002282CD003282DD004282ED00528A7
:104970002FD0062830D0072831D0082832D0092877
:1049800033D00A2834D00B2801D04FF0010950460B
:1049900000234A461946FBF7FBFC0902020241EAE2
:1049A000106170081018324679410023FBF7F0FCC3
:1049B0008046BFE64FF00109E9E74FF00209E6E75C
:1049C0004FF00409E3E74FF00609E0E74FF008096C
:1049D000DDE74FF00A09DAE74FF00C09D7E74FF0AF
:1049E0001009D4E74FF02009D1E74FF04009CEE796
:1049F0004FF08009CBE7606A50B301282BD0022822
:104A00002CD003282DD004282ED005282FD00628FE
:104A100030D0072831D0082832D0092833D00A28CE
:104A200034D00B2801D04FF00109504600234A46EC
:104A30001946FBF7ADFC0902020241EA1061700859
:104A40001018324679410023FBF7A2FC804671E63C
:104A50004FF00109E9E74FF00209E6E74FF00409DA
:104A6000E3E74FF00609E0E74FF00809DDE74FF014
:104A70000A09DAE74FF00C09D7E74FF01009D4E73D
:104A80004FF02009D1E74FF04009CEE74FF0800901
:104A9000CBE7606A50B301282BD002282CD0032822
:104AA0002DD004282ED005282FD0062830D0072856
:104AB00031D0082832D0092833D00A2834D00B2826
:104AC00001D04FF00109994800234A461946FBF7E7
:104AD0005FFC0902020241EA1061700810183246B8
:104AE00079410023FBF754FC804623E64FF001098F
:104AF000E9E74FF00209E6E74FF00409E3E74FF07A
:104B00000609E0E74FF00809DDE74FF00A09DAE7A8
:104B10004FF00C09D7E74FF01009D4E74FF0200908
:104B2000D1E74FF04009CEE74FF08009CBE7606A4C
:104B300058B301282CD002282DD003282ED00428C9
:104B400030D0052831D0062832D0072833D00828A5
:104B500034D0092835D00A2836D00B2801D04FF0A0
:104B6000010900234A464FF400401946FBF710FCA8
:104B70000902020241EA10617008101832467941B8
:104B80000023FBF705FC8046D4E54FF00109E8E778
:104B90004FF00209E5E74FF00409E2E74FF006099C
:104BA000DFE797E24FF00809DBE74FF00A09D8E7A3
:104BB0004FF00C09D5E74FF01009D2E74FF020096C
:104BC000CFE74FF04009CCE74FF08009C9E7012556
:104BD00080E2E0694FF400414FF6EF7688426ED1F3
:104BE000BBF1080F6CD009DCBBF1000F1ED0BBF18C
:104BF000010F66D0BBF1040F09D1B4E0BBF1100F77
:104C00007DD0BBF1200F7BD0BBF1400F79D00125C7
:104C1000A8F11000B04275D84FF6F07108EA010013
:104C2000C8F3420108432168C86053E2FEF7E2F985
:104C30000146606A10B3012823D0022824D003283B
:104C400025D0042826D0052827D0062828D00728D4
:104C500029D008282AD009282BD00A282CD00B28A4
:104C600001D04FF00109B1FBF9F04100606801EBA0
:104C70005001B1FBF0F01FFA80F8C9E74FF00109CD
:104C8000F1E74FF00209EEE74FF00409EBE74FF0D0
:104C90000609E8E74FF00809E5E74FF00A09E2E7FF
:104CA0004FF00C09DFE74FF01009DCE74FF0200967
:104CB000D9E74FF04009D6E74FF08009D3E70AE281
:104CC0009BE0FEF7A9F90146606A38B3012828D0B5
:104CD00002282DD003282ED004282FD0052830D02C
:104CE000062831D0072832D0082833D0092834D0FC
:104CF0000A2835D00B2801D04FF0010903E0C6E0A7
:104D00005AE1A0E1E5E1B1FBF9F04100606801EB97
:104D10005001B1FBF0F01FFA80F879E74FF001097C
:104D2000ECE74FF00209E9E70044025800093D00B2
:104D30004FF00409E2E74FF00609DFE74FF00809FA
:104D4000DCE74FF00A09D9E74FF00C09D6E74FF03E
:104D50001009D3E74FF02009D0E74FF04009CDE725
:104D60004FF08009CAE704A8FDF7AEF90599606A1B
:104D700010B3012823D0022824D0032825D00428EA
:104D800026D0052827D0062828D0072829D008288B
:104D90002AD009282BD00A282CD00B2801D04FF07C
:104DA0000109B1FBF9F04100606801EB5001B1FB72
:104DB000F0F01FFA80F82BE74FF00109F1E74FF010
:104DC0000209EEE74FF00409EBE74FF00609E8E7C8
:104DD0004FF00809E5E74FF00A09E2E74FF00C0948
:104DE000DFE74FF01009DCE74FF02009D9E74FF07B
:104DF0004009D6E74FF08009D3E701A8FDF744FA50
:104E00000299606A10B3012823D0022824D0032815
:104E100025D0042826D0052827D0062828D0072802
:104E200029D008282AD009282BD00A282CD00B28D2
:104E300001D04FF00109B1FBF9F04100606801EBCE
:104E40005001B1FBF0F01FFA80F8E1E64FF00109E4
:104E5000F1E74FF00209EEE74FF00409EBE74FF0FE
:104E60000609E8E74FF00809E5E74FF00A09E2E72D
:104E70004FF00C09DFE74FF01009DCE74FF0200995
:104E8000D9E74FF04009D6E74FF08009D3E7FE4855
:104E9000016889064AD50068C0F3C1002AFA00FA01
:104EA000606A10B3012823D0022824D0032825D01B
:104EB000042826D0052827D0062828D0072829D05E
:104EC00008282AD009282BD00A282CD00B2801D05A
:104ED0004FF00109BAFBF9F04100606801EB5001A5
:104EE000B1FBF0F01FFA80F892E64FF00109F1E70C
:104EF0004FF00209EEE74FF00409EBE74FF0060927
:104F0000E8E74FF00809E5E74FF00A09E2E74FF05C
:104F10000C09DFE74FF01009DCE74FF02009D9E773
:104F20004FF04009D6E74FF08009D3E7606A10B32D
:104F3000012823D0022824D0032825D0042826D0F5
:104F4000052827D0062828D0072829D008282AD0C5
:104F500009282BD00A282CD00B2801D04FF00109AA
:104F6000BAFBF9F04100606801EB5001B1FBF0F0D1
:104F70001FFA80F84CE64FF00109F1E74FF0020903
:104F8000EEE74FF00409EBE74FF00609E8E74FF0D2
:104F90000809E5E74FF00A09E2E74FF00C09DFE7FF
:104FA0004FF01009DCE74FF02009D9E74FF0400936
:104FB000D6E74FF08009D3E7606A18B3012824D000
:104FC000022825D0032826D0042827D0052828D059
:104FD000062829D007282AD008282BD009282CD029
:104FE0000A282DD00B2801D04FF00109A748B0FBAB
:104FF000F9F04100606801EB5001B1FBF0F01FFADD
:1050000080F805E64FF00109F0E74FF00209EDE7FF
:105010004FF00409EAE74FF00609E7E74FF0080907
:10502000E4E74FF00A09E1E74FF00C09DEE74FF043
:105030001009DBE74FF02009D8E74FF04009D5E72A
:105040004FF08009D2E7606A10B3012823D002280C
:1050500024D0032825D0042826D0052827D00628C8
:1050600028D0072829D008282AD009282BD00A2898
:105070002CD00B2801D04FF00109B1FBF9F0410011
:10508000606801EB5001B1FBF0F01FFA80F8BFE55A
:105090004FF00109F1E74FF00209EEE74FF0040984
:1050A000EBE74FF00609E8E74FF00809E5E74FF0B6
:1050B0000A09E2E74FF00C09DFE74FF01009DCE7DF
:1050C0004FF02009D9E74FF04009D6E74FF08009AB
:1050D000D3E701256CE2BBF1080F7DD009DCBBF101
:1050E000000F18D0BBF1010F5DD0BBF1040F09D147
:1050F000A7E0BBF1100F70D0BBF1200F6ED0BBF159
:10510000400F6CD00125A8F11000B04268D820688B
:10511000C0F80C804CE2FDF76DFF0146606A08B3F1
:10512000012822D0022823D0032824D0042825D007
:10513000052826D0062827D0072828D0082829D0D7
:1051400009282AD00A282BD00B2801D04FF00109BA
:105150006068B1FBF9F101EB5001B1FBF0F01FFA0F
:1051600080F8D0E74FF00109F2E74FF00209EFE7CE
:105170004FF00409ECE74FF00609E9E74FF00809A2
:10518000E6E74FF00A09E3E74FF00C09E0E74FF0DC
:105190001009DDE74FF02009DAE74FF04009D7E7C3
:1051A0004FF08009D4E7FDF737FF0146606A38B356
:1051B000012828D0022829D003282AD004282BD05F
:1051C00005282CD006282DD007282ED008282FD02F
:1051D000092830D00A2804E082E0CAE05CE1A1E1BD
:1051E000E5E12BD00B2801D04FF001096068B1FB3D
:1051F000F9F101EB5001B1FBF0F01FFA80F882E702
:105200004FF00109F2E74FF00209EFE74FF0040910
:10521000ECE74FF00609E9E74FF00809E6E74FF041
:105220000A09E3E74FF00C09E0E74FF01009DDE76A
:105230004FF02009DAE74FF04009D7E74FF0800937
:10524000D4E704A8FCF740FF0599606AD8B10128AB
:1052500028D0022829D003282AD004282BD00528BA
:105260002CD006282DD007282ED008282FD009288A
:1052700030D00A2831D00B2801D04FF001096068E6
:10528000B1FBF9F104E00AE00044025800093D00D6
:1052900001EB5001B1FBF0F01FFA80F833E74FF05B
:1052A0000109ECE74FF00209E9E74FF00409E6E7EE
:1052B0004FF00609E3E74FF00809E0E74FF00A096D
:1052C000DDE74FF00C09DAE74FF01009D7E74FF0B0
:1052D0002009D4E74FF04009D1E74FF08009CEE72D
:1052E00001A8FCF7D1FF0299606A08B3012822D017
:1052F000022823D0032824D0042825D0052826D02E
:10530000062827D0072828D0082829D009282AD0FD
:105310000A282BD00B2801D04FF001096068B1FB9F
:10532000F9F101EB5001B1FBF0F01FFA80F8EAE669
:105330004FF00109F2E74FF00209EFE74FF00409DF
:10534000ECE74FF00609E9E74FF00809E6E74FF010
:105350000A09E3E74FF00C09E0E74FF01009DDE739
:105360004FF02009DAE74FF04009D7E74FF0800906
:10537000D4E794480168890649D50068C0F3C100A4
:105380002AFA00FA606A08B3012822D0022823D042
:10539000032824D0042825D0052826D0062827D085
:1053A000072828D0082829D009282AD00A282BD055
:1053B0000B2801D04FF001096068BAFBF9F101EB4D
:1053C0005001B1FBF0F01FFA80F89CE64FF00109A4
:1053D000F2E74FF00209EFE74FF00409ECE74FF076
:1053E0000609E9E74FF00809E6E74FF00A09E3E7A5
:1053F0004FF00C09E0E74FF01009DDE74FF020090E
:10540000DAE74FF04009D7E74FF08009D4E7606A48
:1054100008B3012822D0022823D0032824D004284E
:1054200025D0052826D0062827D0072828D00828E8
:1054300029D009282AD00A282BD00B2801D04FF0D8
:1054400001096068BAFBF9F101EB5001B1FBF0F022
:105450001FFA80F857E64FF00109F2E74FF0020912
:10546000EFE74FF00409ECE74FF00609E9E74FF0EA
:105470000809E6E74FF00A09E3E74FF00C09E0E717
:105480004FF01009DDE74FF02009DAE74FF040094F
:10549000D7E74FF08009D4E7606A10B3012823D022
:1054A000022824D0032825D0042826D0052827D078
:1054B000062828D0072829D008282AD009282BD048
:1054C0000A282CD00B2801D04FF001093E48B0FB30
:1054D000F9F1606801EB5001B1FBF0F01FFA80F8C0
:1054E00011E64FF00109F1E74FF00209EEE74FF046
:1054F0000409EBE74FF00609E8E74FF00809E5E794
:105500004FF00A09E2E74FF00C09DFE74FF010090E
:10551000DCE74FF02009D9E74FF04009D6E74FF01C
:105520008009D3E7606A08B3012822D0022823D07B
:10553000032824D0042825D0052826D0062827D0E3
:10554000072828D0082829D009282AD00A282BD0B3
:105550000B2801D04FF001096068B1FBF9F101EBB4
:105560005001B1FBF0F01FFA80F8CCE54FF00109D3
:10557000F2E74FF00209EFE74FF00409ECE74FF0D4
:105580000609E9E74FF00809E6E74FF00A09E3E703
:105590004FF00C09E0E74FF01009DDE74FF020096C
:1055A000DAE74FF04009D7E74FF08009D4E701254B
:1055B00001206834608020806760A76007B02846BB
:1055C000BDE8F08F0044025800093D002DE9F04786
:1055D00004460E4617469846089D4FF0000A4FF0C5
:1055E00020093BE0681C39D0FCF766FCA0EB080002
:1055F000A84221D805B32068016849072ED5C069A3
:10560000C04300052AD421684FF400600862206876
:10561000016821F4D07101602068816821F00101E6
:105620008160C4F88090C4F88490C4F8889084F8AD
:105630007CA00320BDE8F0872068016821F4D071C8
:1056400001602068816821F001018160C4F88090C8
:10565000C4F8849084F87CA00320EBE72068C0693C
:1056600036EA000004D00020B842BBD00020E1E7B9
:105670000120F9E7FEE700000FB4054B10B503A9C0
:10568000044A029800F028F810BC5DF814FB0000F2
:105690008D6B0008980100240907090E002804DB1F
:1056A00000F1E02080F80014704700F00F0000F1D6
:1056B000E02080F8141D704702E008C8121F08C1DE
:1056C000002AFAD170477047002001E001C1121F83
:1056D000002AFBD1704700002DE9FF4F8DB09B469B
:1056E0000F460446002606E025280BD05A460F999F
:1056F0009047641C761C20780028F5D111B0304604
:10570000BDE8F08F0025A8460122984900E0054336
:1057100014F8013F203B02FA03F00842F7D1207849
:105720002E2817D114F8010F45F004052A280ED0B1
:105730006FF02F022078A0F1300109290AD808EB78
:10574000880102EB410100EB0108641CF2E757F805
:10575000048B641C20786C280DD004DC4C2812D0FB
:105760006A2811D104E074280DD07A280CD10AE0FF
:1057700045F4001507E0617845F48015814202D1B7
:10578000641C05F58015641C2078692844D008DC69
:105790000028B3D0582867D063280FD0642808D1D8
:1057A0003AE0702865D0732812D075285AD078282E
:1057B0005AD05A460F999047761CD5E017F8040B3B
:1057C0008DF8000000208DF80100E946012003E07B
:1057D00057F8049B4FF0FF3069074FF0000501D4E4
:1057E0000AE06D1C45450DDA8542FADB19F8051013
:1057F0000029F6D106E06D1C8542FCDB19F8051086
:105800000029F8D12E4404E019F8010B5A460F99EB
:1058100090476D1EF8D2A7E00A200021CDE90801CB
:10582000C5F3025002280CD001CFC117021E71F13E
:1058300000020CDA0023D0EB030063EB01012D2200
:1058400008E0FF1D27F00707F7E80201EEE72A0549
:1058500004D52B228DF8282001223CE0EA073AD01B
:105860002022F7E70A2000E010200021CDE90801FE
:1058700007E01020002145F00405CDE908014FF0B4
:105880000808C5F30250022810D001CF00214FF0C4
:10589000000A2A0720D52278702A0DD0DDE908C336
:1058A0008CF0100C5CEA030C0CD015E0FF1D27F007
:1058B0000707F7E80201EAE740228DF828204FF0B9
:1058C000010A0CE050EA010306D030238DF828309D
:1058D0008DF82920022292462278582A04D024A248
:1058E0000DF120090B9209E026A2F9E7DDE9082372
:1058F000FAF74EFD0B9B9B5C09F8013D50EA010253
:10590000F4D1ADEB090020300890680701D44FF0C6
:1059100001080899884503DD0898A8EB000000E01D
:1059200000208046002506E00AA85A46405D0F99EF
:1059300090476D1C761C5545F6DB04E030205A4636
:105940000F999047761CB8F10001A8F10108F5DC29
:1059500005E019F8010B5A460F999047761C0899F3
:10596000481E08900029F4DC641CC4E609280100E4
:1059700030313233343536373839616263646566C5
:105980000000000030313233343536373839414287
:1059900043444546000000002DE9F04704460E460A
:1059A0001746002C6FF0050546D004F11400804620
:1059B00006F0E5F9002841D0002E6FF00C093FD029
:1059C00017B134A0FFF758FE2078616A03F09EFFFC
:1059D00005464FF0FF3775B36E60284606F0F8F8BD
:1059E0002946404606F0BDF9D0B36C680021204638
:1059F00006F050FC0021204609F0A4F800212046C2
:105A000009F070FB00222046114608F0D5FA00216B
:105A1000204606F053FF0020686005F110000446A0
:105A200006F084F9204606F099F9284604F090F82B
:105A30003846BDE8F08714E02846FAE72846F8E73C
:105A4000484603F07DFA0146404606F08AF928B937
:105A5000636A1BB100222046114698472846E8E7B2
:105A60000FE0484603F06CFA0146404606F079F92B
:105A700028B9636A1BB10022204611469847384670
:105A8000D7E7636A1BB100222046114698470020E1
:105A9000CFE70000657870656374206E657770638A
:105AA00062203D3D204E554C4C206F722065727235
:105AB000203D3D204552525F4F4B000001460020E3
:105AC000002909D0C97A491C022905D2034A52F893
:105AD0002110002900D00120704700009800002408
