:020000040800F2
:1000000018040020B102000837100008730F000820
:10001000351000081D0300087111000800000000E1
:100020000000000000000000000000003B1000087D
:100030001F03000800000000391000083D100008F0
:10004000CB020008CB020008CB020008CB0200085C
:10005000CB020008CB020008CB020008CB0200084C
:10006000CB020008CB020008CB020008CB0200083C
:10007000CB020008CB020008CB020008CB0200082C
:10008000CB020008CB020008CB020008CB0200081C
:10009000CB020008CB020008CB020008CB0200080C
:1000A000CB020008CB020008CB020008CB020008FC
:1000B000CB020008CB020008CB020008CB020008EC
:1000C000CB020008CB020008CB020008CB020008DC
:1000D000CB020008CB020008CB020008CB020008CC
:1000E000CB020008CB02000800000000CB02000891
:1000F000CB020008CB020008CB020008CB020008AC
:10010000CB020008CB020008CB020008CB0200089B
:10011000CB020008CB020008CB020008CB0200088B
:10012000CB020008CB020008CB020008CB0200087B
:10013000CB020008CB020008CB020008CB0200086B
:1001400000000000000000000000000000000000AF
:10015000CB020008CB020008CB020008CB0200084B
:10016000CB020008CB020008CB020008CB0200083B
:10017000CB020008CB020008CB020008CB0200082B
:10018000CB020008CB020008CB020008CB0200081B
:10019000CB020008CB020008CB020008CB0200080B
:1001A000CB020008CB020008CB020008CB020008FB
:1001B000CB020008CB020008CB020008CB020008EB
:1001C000CB020008CB020008CB020008CB020008DB
:1001D000CB020008CB020008CB020008CB020008CB
:1001E000CB020008CB020008CB020008CB020008BB
:1001F000CB020008CB020008CB020008CB020008AB
:10020000CB020008CB020008CB020008CB0200089A
:10021000CB020008CB020008CB020008CB0200088A
:10022000CB020008CB020008CB020008000000004F
:10023000CB020008CB02000800000000CB0200083F
:10024000CB020008CB020008CB020008CB0200085A
:10025000CB020008CB020008CB020008CB0200084A
:10026000CB020008CB020008CB020008CB0200083A
:10027000CB020008CB020008CB02000800000000FF
:10028000CB020008CB020008CB02000800000000EF
:1002900000000000CB020008DFF810D000F02CF8BE
:1002A0000048004791110008AFF3008018040020B7
:1002B0000648804706480047FEE7FEE7FEE7FEE700
:1002C000FEE7FEE7FEE7FEE7FEE7FEE7D9100008DF
:1002D00099020008D2B201E000F8012B491EFBD2BE
:1002E00070470022F6E710B513460A460446194641
:1002F000FFF7F0FF204610BD064C074D06E0E06812
:1003000040F0010394E8070098471034AC42F6D35C
:10031000FFF7C6FF1C1200083C120008FEE77047FA
:100320002DE9F84F00226E4C4FF0B0494FF0010A12
:100330004FF0030E4FF00F08CAE00AFA02F73B40F5
:10034000002B70D04D68022D01D0122D12D1D5088E
:1003500000EB850CDCF820605507ED0E08FA05FB74
:1003600026EA0B06D1F810B00BFA05FB4BEA060B98
:10037000CCF820B0D0F800C055000EFA05F62CEAF3
:10038000060C91F804B00BF0030B0BFA05FB4BEADB
:100390000C0BC0F800B0D1F804C0BCF1010F08D0BC
:1003A000BCF1020F05D0BCF1110F02D0BCF1120F4D
:1003B00016D1D0F808C02CEA060CD1F80CB00BFA14
:1003C00005FB4BEA0C0BC0F808B0D0F804C02CEACF
:1003D000070C0F79C7F30017974047EA0C074760EF
:1003E000C768B7438E68AE403E43C6604D68ED00B7
:1003F0006DD53C4D2E6846F002062E602D6805F046
:100400000205009522F0030606F1B046D6F808C4AE
:1004100095072F0F08FA07F52CEA050C324DA84274
:1004200002D100252EE052E0304DA84201D1012535
:1004300028E02F4DA84201D1022523E02D4DA842EE
:1004400001D103251EE02C4DA84201D1042519E05D
:100450002A4DA84201D1052514E0294DA84201D119
:1004600006250FE0274DA84201D107250AE0264DB9
:10047000A84201D1082505E0244DA84201D1092553
:1004800000E00A25BD4045EA0C05C6F80854256879
:100490009D434E68F60300D51D43256065689D4366
:1004A0004E68B60300D51D436560D9F800509D43E2
:1004B0004E68F60200D51D43C9F80050D9F8045023
:1004C0009D434E68B60200D51D43C9F80450521C26
:1004D0000B6833FA02F57FF430AFBDE8F88F000007
:1004E00080000058F44402580000025800040258EA
:1004F00000080258000C025800100258001402585C
:1005000000180258001C025800200258002402580B
:100510000069084201D001207047002070470000A8
:1005200001480068000C70470010005C04484068F7
:100530000449B0FBF1F04FF47A7148437047000072
:10054000001000E000389C1C0648016841F08071F2
:100550000160054800214160016841F0010101602E
:1005600000207047FCED00E0001000E070B512497B
:100570000A68520706D40A6802F00702824201D0D4
:10058000012070BD0A6822F0070202430A60FFF7EB
:10059000CDFF0446084D4FF47A76083D06E0FFF79C
:1005A000C5FF001BB04201D9032070BD286880043C
:1005B000F5D5002070BD00000C4802582DE9F05F11
:1005C00004460D46002C17D0DFF83882D8F800001A
:1005D00000F00F00A84211D2D8F8000020F00F0060
:1005E0002843C8F80000D8F8000000F00F00A84227
:1005F00004D00120BDE8F09F0120FBE72078824E67
:1006000040070AD52069316801F07001884204D999
:10061000316821F070010143316020787B4F000781
:100620000AD56069396801F07001884204D93968D7
:1006300021F07001014339602078C0060AD5A06915
:10064000396801F4E061884204D9396821F4E06135
:10065000014339602078DFF8B89180060DD5E06954
:10066000D9F8001001F07001884206D9D9F80010BD
:1006700021F070010143C9F80010207880070AD5E5
:10068000E068316801F00F01884204D9316821F037
:100690000F01014331602078C00743D03068A16862
:1006A00020F47060084330605749606818390228A8
:1006B00008D003280BD001280ED00968490710D4B0
:1006C000012097E7096889030BD4012092E70968A4
:1006D000890106D401208DE70968C90501D40120EC
:1006E00088E7DFF824A1AAF1080ADAF8001021F05F
:1006F00007010143CAF80010FFF718FF834609E01D
:10070000FFF714FFA0EB0B0141F28830814201D9C1
:1007100003206FE7DAF80000616800F03800B0EB02
:10072000C10FEDD1207880070AD5E068316801F06B
:100730000F01884204D2316821F00F01014331607A
:10074000D8F8000000F00F00A8420ED9D8F8000039
:1007500020F00F002843C8F80000D8F8000000F08F
:100760000F00A84201D0012044E7207840070AD5B5
:100770002069316801F07001884204D2316821F0AB
:10078000700101433160207800070AD5606939683B
:1007900001F07001884204D2396821F070010143F0
:1007A00039602078C0060AD5A069396801F4E06193
:1007B000884204D2396821F4E0610143396020782D
:1007C00080060DD5E069D9F8001001F0700188426B
:1007D00006D2D9F8001021F070010143C9F80010C9
:1007E00000F01EF831680B4AC1F30321515C01F09F
:1007F0001F01C8400849086008480068BDE8F05F6C
:10080000FFF7A2BE00200052184402581C440258B0
:10081000204402580C120008000000200C000020A8
:1008200030B564480068654C10F03801624808D063
:10083000021108290DD010290DD018290DD010460D
:1008400030BD21688906FBD52168C1F3C101C840CC
:1008500030BD104630BD5A4830BD564918310A687F
:1008600002F003020968C1F30511524B1C331B68E7
:1008700003F001034F4D24352D68C5F3CC0515FB5E
:1008800003F300EE103AB8EE400A002977D0DFED0E
:100890004D0A484BB7EE001A20333AB39FED4A2A6F
:1008A000012A58D0022A6CD001EE901A1868F8EE8E
:1008B000611AC2EE212AC0F3080001EE900AF8EE98
:1008C000611A40EE201A31EE810A22EE800A186881
:1008D000C0F34620401C00EE900AF8EE600A80EE5D
:1008E000201ABCEEC10A10EE100A30BD2268920632
:1008F0001BD52268C2F3C102D04001EE900A1868ED
:10090000F8EE612A01EE901AF8EE611A82EEA12A41
:10091000C0F3080001EE900AF8EE611A40EE201ACA
:1009200031EE810A22EE000AD1E701EE901ADFEDE6
:10093000272A1868F8EE611A82EEA12AC0F308008F
:1009400001EE900AF8EE611A40EE201A31EE810AAB
:1009500022EE000ABBE701EE901A1868F8EE611A61
:10096000C2EE212AC0F3080001EE900AF8EE611AE7
:1009700040EE201A31EE810A22EE800AA7E716E047
:10098000FFE701EE901ADFED122A1868F8EE611AFF
:1009900082EEA12AC0F3080001EE900AF8EE611A77
:1009A00040EE201A31EE810A22EE000A8FE7002085
:1009B00030BD0000104402580090D003004402589B
:1009C00040787D01000000390024744A0024744CF2
:1009D00020BCBE4B2DE9F05F0446002C10D02078DF
:1009E000DFF8EC83FB4FFC4DC0075DD0D8F800006A
:1009F00000F03800396810281FD0182803D006E00E
:100A00000120BDE8F09F01F00300022815D06068C6
:100A1000B0F5803F18D0E0B1B0F5A02F22D0286803
:100A200020F480302860286820F4802028606068E6
:100A300060B3FFF77BFD064624E02868800333D5CA
:100A4000606810BB0120DCE7286840F48030286033
:100A5000EDE7286820F480302860286820F48020A2
:100A60002860E4E7286840F480202860286840F483
:100A700080302860DBE7FFF759FD801B642801D92F
:100A80000320BEE728688003F5D50DE0FFF74EFD93
:100A9000064606E0FFF74AFD801B642801D90320C3
:100AA000AFE728688003F5D4207841F2030ACB4EE3
:100AB000800777D5D8F8000000F03800396870B1A9
:100AC000182801D188070AD0E06880B3296821F08E
:100AD000190101432960FFF729FD814638E02868A4
:100AE000400701D5E06848B12868E16820F01900A6
:100AF00008432860FFF71AFD814609E0012080E7DE
:100B0000FFF714FDA0EB0900022801D9032078E7C4
:100B100028684007F4D5FFF703FD504508D8306832
:100B2000216920F47C3040EA013030603AE026E070
:100B30003068217C20F0FE4040EA0160306031E006
:100B4000FFF7F4FCA0EB0900022801D9032058E7C5
:100B500028684007F4D5FFF7E3FC504507D8306814
:100B6000216920F47C3040EA013030601AE03068BE
:100B7000217C20F0FE4040EA0160306012E02868ED
:100B800020F001002860FFF7D1FC814607E0FFF765
:100B9000CDFCA0EB0900022801D9032031E7286829
:100BA0004007F4D42078C00670D5D8F8000000F0D3
:100BB00038003968DFF818B20828ABF1040B0FD001
:100BC000182803D101F00300012809D0E06978B3A7
:100BD000286840F080002860FFF7A8FC814628E0E4
:100BE0002868C00504D5E069802801D0012008E705
:100BF000FFF796FC504508D8306894F8201020F094
:100C0000F84040EA8160306040E0DBF8000094F892
:100C1000201020F07C5040EA0160CBF8000035E065
:100C2000FFF784FCA0EB0900022802D90320E8E6C4
:100C30001AE02868C005F3D5FFF772FC504508D8C4
:100C4000306894F8201020F0F84040EA816030606D
:100C50001CE0DBF8000094F8201020F07C5040EA03
:100C60000160CBF8000011E0286820F080002860C7
:100C7000FFF75CFC064606E0FFF758FC801B0228E5
:100C800001D90320BDE62868C005F5D42078000707
:100C90002AD5504E60694C3698B1306840F001005A
:100CA0003060FFF743FC814607E0FFF73FFCA0EB15
:100CB0000900022801D90320A3E630688007F4D593
:100CC00012E0306820F001003060FFF72FFC814611
:100CD00007E0FFF72BFCA0EB0900022801D9032055
:100CE0008FE630688007F4D42078800626D5A06986
:100CF00090B1286840F480502860FFF717FC064642
:100D000006E0FFF713FC801B022801D9032078E6D8
:100D100028688004F5D511E0286820F48050286008
:100D2000FFF704FC064606E0FFF700FC801B0228E4
:100D300001D9032065E628688004F5D420784007AF
:100D400078D5274E306840F480703060FFF7EEFBB6
:100D5000814607E0FFF7EAFBA0EB0900642801D910
:100D600003204EE63068C005F4D5DFF86890A0682F
:100D700009F14809012816D0E0B1052832D0D9F888
:100D8000000020F00100C9F80000D9F8000020F0B0
:100D90000400C9F80000A06841F2883AB8B1FFF732
:100DA000C5FB064632E0D9F8000040F00100C9F862
:100DB0000000F0E7D9F8000020F00100C9F80000B9
:100DC000D9F8000020F00400C9F80000E3E722E0B1
:100DD000104402582844025800440258044402585F
:100DE00000480258D9F8000040F00400C9F800009B
:100DF000D9F8000040F00100C9F80000CBE7FFF788
:100E000095FB801B504501D90320FAE5D9F8000075
:100E10008007F4D50EE0FFF789FB064606E0FFF7F2
:100E200085FB801B504501D90320EAE5D9F8000075
:100E30008007F4D4606AE8B3D8F80010C1F3C201A7
:100E4000032975D0022807D0286820F08070286018
:100E5000FFF76CFB04467EE0286820F08070286075
:100E6000FFF764FB064606E0FFF760FB801B0228E5
:100E700001D90320C5E528688001F5D4386840F21F
:100E8000F3318843E16A40EA0110A16A08433860FF
:100E9000208E4FF6FF72616B401E491EC0F30800A2
:100EA00002EA41210843218F4FF4FE02491E02EA63
:100EB000014100E052E0084394F83C10491E120240
:100EC00002EA0161084327490860081F016821F010
:100ED000010101602349091D0A684FF6F8739A431E
:100EE000A36C42EAC3020A600168226C21F00C0183
:100EF000114301600168626C21F00201114301603D
:100F0000016841F480310160016841F40031016001
:100F1000016841F480210160016841F00101016034
:100F2000286840F080702860FFF700FB044607E067
:100F300016E0FFF7FBFA001B022801D9032060E549
:100F400028688001F5D509E0FFF7F0FA001B0228B8
:100F500001D9032055E528688001F5D4002050E52B
:100F600001204EE530440258704710B5FFF7FCFFF2
:100F700010BDFEE700B587B01148016841F00101DE
:100F80000160016801F001010191016841F0040173
:100F90000160006800F00400019001200290002030
:100FA000039002200490074802A9FFF7B9F94FF413
:100FB00000500290044802A9FFF7B2F907B000BD43
:100FC000E0440258000002580008025870B5044678
:100FD0000D4629462046FFF79BFA012801D0002044
:100FE00070BD29462046FFF793FA0128F9D0012069
:100FF00070BD000010B586B00C48016841F00401D6
:101000000160006800F004000090082401940120B1
:10101000029003900220049001A90548FFF780F98F
:1010200003481830046006B010BD0000E0440258C8
:1010300000080258FEE7704770477047FFF795BFFA
:1010400030B59DB04C210AA8FFF74BF9202102A82A
:10105000FFF747F90220FFF789FA00241C480168CE
:1010600041F44041016001681A490A6842F00102F6
:101070000A60096801F00101019101688904FCD549
:1010800001200A9000040B90022013901490052177
:101090001591C021169117901890199008251A954E
:1010A0001B941C940AA8FFF795FC3F200290032094
:1010B0000390049405954020069007900101089143
:1010C0000990042102A8FFF779FA1DB030BD000095
:1010D000184802582C0400582048016841F4700157
:1010E00001601F49086840F0010008601C4A0020A8
:1010F000103210600A681B4B1A400A60184A1832F6
:101100001060121D1060121D1060154A2832106008
:10111000121D1060121D1060121D1060121D106053
:10112000121D1060121D1060121D10600A6822F45A
:1011300080220A600A49603108600B4800686FF33A
:101140000F00B0F1005F02D20849012008604FF0A3
:1011500000600249803908607047000088ED00E0B7
:10116000004402587FEDF6EA0010005C088100514F
:10117000FEE702E008C8121F08C1002AFAD1704732
:101180007047002001E001C1121F002AFBD1704707
:10119000FFF756FFBFF34F8FBFF36F8F1749002044
:1011A0000860BFF34F8FBFF36F8F1548016841F49C
:1011B00000310160BFF34F8FBFF36F8FFFF71AFF4E
:1011C000FFF7D8FE104C4FF400560E4D0E4F14345E
:1011D00001212846FFF7FAFE012803D1206880F09C
:1011E0000800206031463846FFF7F0FE0128EFD1B5
:1011F000206880F008002060EAE7000050EF00E07F
:1012000014ED00E000000258000802580000000041
:101210000102030401020304060708093C12000846
:101220000000002014000000721100085012000895
:101230001400002004040000821100080090D00374
:101240000090D0030100000010000000000000002A
:040000050800029954
:00000001FF
