:020000040800F2
:1000000000060024B102000803410008B1400008C6
:1000100001410008290D00088D5B00080000000068
:100020000000000000000000000000005143000834
:100030008511000800000000054100085343000836
:10004000CB020008CB020008CB020008CB0200085C
:10005000CB020008CB020008CB020008CB0200084C
:10006000CB020008CB020008CB020008CB0200083C
:10007000CB020008CB020008CB020008CB0200082C
:10008000CB020008CB020008CB020008CB0200081C
:10009000CB020008CB020008CB020008CB0200080C
:1000A000CB020008CB020008CB020008CB020008FC
:1000B000CB020008CB020008CB020008CB020008EC
:1000C000CB020008CB020008CB020008CB020008DC
:1000D000CB020008CB020008CB020008CB020008CC
:1000E000CB020008CB02000800000000CB02000891
:1000F000CB020008CB020008CB020008CB020008AC
:10010000CB020008CB020008CB020008CB0200089B
:10011000CB020008CB020008CB020008CB0200088B
:10012000CB020008CB020008CB020008CB0200087B
:10013000CB020008CB020008CB020008CB0200086B
:1001400000000000000000000000000000000000AF
:10015000CB020008CB020008CB020008CB0200084B
:10016000CB020008CB020008CB020008CB0200083B
:10017000CB020008CB020008CB020008CB0200082B
:10018000CB020008CB020008CB020008CB0200081B
:10019000CB020008CB020008CB020008CB0200080B
:1001A000CB020008CB020008CB020008CB020008FB
:1001B000CB020008CB020008CB020008CB020008EB
:1001C000CB020008CB020008CB020008CB020008DB
:1001D000CB020008CB020008CB020008CB020008CB
:1001E000CB020008CB020008CB020008CB020008BB
:1001F000CB020008CB020008CB020008CB020008AB
:10020000CB020008CB020008CB020008CB0200089A
:10021000CB020008CB020008CB020008CB0200088A
:10022000CB020008CB020008CB020008000000004F
:10023000CB020008CB02000800000000CB0200083F
:10024000CB020008CB020008CB020008CB0200085A
:10025000CB020008CB020008CB020008CB0200084A
:10026000CB020008CB020008CB020008CB0200083A
:10027000CB020008CB020008CB02000800000000FF
:10028000CB020008CB020008CB02000800000000EF
:1002900000000000CB020008DFF810D000F05CFA8C
:1002A0000048004795640008AFF300800006002472
:1002B0000648804706480047FEE7FEE7FEE7FEE700
:1002C000FEE7FEE7FEE7FEE7FEE7FEE7F94300088C
:1002D000990200082DE9F05F0546002092469B46F2
:1002E00088460646814640241BE02846414647464C
:1002F000224600F069F853465A46C01A914110D37D
:1003000011461846224600F050F82D1A67EB0108F6
:100310004F4622460120002100F047F817EB000964
:100320004E41201EA4F10104DFDC484631462A4636
:100330004346BDE8F09F40EA01039B0703D009E074
:1003400008C9121F08C0042AFAD203E011F8013BC1
:1003500000F8013B521EF9D27047D2B201E000F81A
:10036000012B491EFBD270470022F6E710B5134659
:100370000A4604461946FFF7F0FF204610BD30B587
:100380000B46014600202022012409E021FA02F553
:100390009D4205D303FA02F5491B04FA02F52844ED
:1003A000151EA2F10102F1DC30BD202A04DB203A47
:1003B00000FA02F1002070479140C2F1200320FAB8
:1003C00003F3194390407047202A04DB203A21FAB6
:1003D00002F00021704721FA02F3D040C2F120025E
:1003E00091400843194670472DE9FE4F804681EA47
:1003F0000300C00F0C46009021F0004123F000459F
:10040000B8EB0200A94105D24046214690461C4661
:100410000B46024623F00040104347D0270DC7F398
:100420000A00C3F30A510290401A019040286BDA87
:10043000C3F3130040F4801B0098924620B10023C0
:10044000D2EB030A63EB0B0B01985946C0F1400253
:100450005046FFF7AAFF06460D4650465946019AF8
:1004600000F08CF910EB08006141002487EA11527A
:1004700084EAE7731A4340D0009A62B3019A012AD2
:100480004FEA075215DC001B61EB02014FF00042FE
:1004900002EA0752CDE90042001C41F580113246C4
:1004A0002B4600F08CF903B0BDE8F08F40462146A2
:1004B000F9E7001B61EB0201001C41F580130018F5
:1004C0005B412018A2F5001747EB030140EAD57005
:1004D000B6196D4111E06D084FEA360645EAC07560
:1004E0004FEA0752001B61EB0201001C41F580112D
:1004F00049084FEA30000019514132462B4603B0FB
:10050000BDE8F04F00F04CB90098012240000023F4
:10051000D0EB020263EBE073009821464FEAE074EF
:10052000B8EB000061EB0401E9E783F000435BE70F
:1005300081F0004158E72DE9FE4F81EA030404F001
:10054000004421F0004100944FF0000B23F00043E1
:1005500050EA01045ED052EA03045BD0C3F30A54AC
:10056000C1F30A552C44A4F2F3340194A0FB0254C5
:10057000C1F3130141F48011C3F3130343F4801357
:1005800001FB024400FB034E840A970A44EA8154AB
:1005900047EA8357A4FB076802958D0A05FB078588
:1005A0004FEA932C04FB0C542705029D4FEA065892
:1005B00047EA1637B5EB08056EEB070C870E920E6F
:1005C00047EA811742EA8312A7FB0201B6EB0B014F
:1005D00064EB00042B0D43EA0C335E1844EB1C5013
:1005E000DA465146E7FB0201C5F313044FEA0B3329
:1005F00043EA14534FEA0432019C43EA0603A4F190
:100600000C040294009CCDE900B400F0D8F803B0CB
:10061000BDE8F08F00200146F9E72DE9F04D81EAB1
:10062000030404F0004B21F0004514464FF0000A8B
:1006300023F0004150EA050220D054EA01021DD007
:10064000C5F30A570246C5F31303C1F31300C1F300
:100650000A5640F4801543F48013A7EB0608101BDC
:10066000D64608F2FD3873EB050002D308F1010805
:1006700001E092185B41B8F1000F03DA0020014657
:10068000BDE8F08D00204FF48011064684460EE050
:10069000171B73EB050705D3121B63EB050306431A
:1006A0004CEA010C49084FEA300092185B4150EACD
:1006B0000107EDD152EA030012D082EA040083EA76
:1006C0000501084305D0101BAB4106D201220023CF
:1006D00006E000224FF0004302E06FF001025310E9
:1006E0001AEB06004CEB085110EB0A0041EB0B0132
:1006F000BDE8F04D00F054B8C1F30A52C1F3130144
:1007000040F2FF3341F480119A4202DA00200146A0
:10071000704740F233439A42A2F2334202DC524223
:10072000FFF752BEFFF741BE30B5041E71F1000461
:1007300004DB4FF00044404264EB0101141E73F1EE
:10074000000405DB1C464FF00043524263EB0403F8
:10075000994208BF904230BD064C074D06E0E06864
:1007600040F0010394E8070098471034AC42F6D3F8
:10077000FFF796FDF865000818660008202A06DBDA
:10078000CB17203A41FA02F043EAE07306E041FA5F
:1007900002F3D040C2F1200291400843194670474D
:1007A00010B5141E73F1000408DA401C41F1000179
:1007B00092185B411A4301D120F0010010BD2DE9D0
:1007C000F04D92469B4611B1B1FA81F202E0B0FAC7
:1007D00080F220329046FFF7E8FD04460F4640EADB
:1007E0000A0041EA0B0153465A46084313D011460A
:1007F00053EA010019D0C8F140025046FFF7E4FD6A
:1008000005460E46504659464246FFF7CEFD084380
:1008100005D0012004E020463946BDE8F08D0020D7
:10082000054346EAE0762C4337430A986305E40A19
:10083000A0EB08000022FD0A44EA47540A3002D522
:1008400000200146E9E7010510196941DDE9084585
:1008500000196941BDE8F04DA2E7000070B50546FA
:1008600044492868884202D0434A904205D1D1F8D1
:10087000080310F4403F05D118E04048006810F428
:10088000403F13D002F094FF04466868B0F5803F03
:1008900006D0B0F5003F03D0B0F5403F28D103E0CB
:1008A000000CB4FBF0F423E0A40821E04FF4002096
:1008B00002F04EF8044668688103890B18D1811450
:1008C0000C2915D2DFE801F0140606060606060B11
:1008D0000D0F1113800C4000B4FBF0F408E0240964
:1008E00006E0640904E0A40902E0E40900E0240A47
:1008F00001F0EAFC41F2030188420ED8204884420C
:1009000005D92868816841F48071816070BD2868CC
:10091000816821F48071816070BD60081949884246
:1009200005D82868816821F44071816070BD15493F
:10093000144AC943521E0144914207D8286881686D
:1009400021F4407141F48071816070BD0E4908440A
:100950000E49884207D82868816821F4407141F423
:100960000071816070BD2868816841F440718160C8
:1009700070BD0000002002400021024008630258C0
:10098000002D3101105E5F00DF4341FF1FBCBE0040
:1009900010B5846B616D11F0500F06D0616DC90602
:1009A00030D5204600F051FF10BD606D40F400705E
:1009B000606520680168090712D503F08AFBE8B179
:1009C0002068C068800419D4606D20F48070606570
:1009D000606DC00412D4606D40F0010060650DE0F0
:1009E000C06880070AD1606D20F480706065606D1A
:1009F000C00403D4606D40F001006065204600F043
:100A00001BFF10BDE16CC96CBDE81040084710B574
:100A1000806B416D41F040014165816D41F0040101
:100A2000816500F012FF10BD10B5806B00F00CFF67
:100A300010BD000070B5044620688168C1F3400510
:100A400003F03BFB78B375BB2068816801F00D01B2
:100A5000012909D0606D40F010006065A06D40F084
:100A60000100A065012070BD8168104A1140891CF9
:100A7000816021680320086001F02CFC05460EE02F
:100A800001F028FC401B022809D9606D40F01000DD
:100A90006065A06D40F00100A065012070BD206878
:100AA0008068C007ECD1002070BD0000C0FFFF7F50
:100AB00070B50446206803F000FB50BB20688168D5
:100AC000234A114209D0606D40F010006065A06DAE
:100AD00040F00100A065012070BD81681C4E7F3E82
:100AE0003140491C816001F0F5FB05461949206839
:100AF000194B884201D0984201D1184A00E0184AA7
:100B0000926802F01F02984200D00146814218D03C
:100B1000BAB11BE003F0D1FA20B9206881683140F6
:100B2000491C816001F0D6FB401B022809D9606D89
:100B300040F010006065A06D40F00100A06501204C
:100B400070BD20680168C943C907E3D1002070BDAA
:100B50003F000080002002400021024000230240AC
:100B60000063025800B587B00A48016841F00101EE
:100B70000160006800F00100019003200390002054
:100B8000049010200290044802A901F0A5FA07B0D1
:100B900000BD0000E04402580000025810B5FFF705
:100BA000E1FF00F00BF8044800F06AFF0248BDE8DE
:100BB0001040643000F064BF280000242DE9F041AB
:100BC000B8B04FF40020029000250A954FF00508B8
:100BD000CDF80C80A02004901920059002200690EA
:100BE00007908020089009952A9502A802F020F825
:100BF0004648016841F020010160016801F02001D0
:100C00000191016841F001010160016801F00101F9
:100C10000191016841F020010160006800F02000AE
:100C200001903C4E3A48306009207060B560F56034
:100C300035614FF480577761B7613811F0613562E3
:100C40007562304600F09EFFA6F1C804E664B46306
:100C5000314820606560012060750320E0622577DF
:100C60000426266165622575276384F83850A560DF
:100C7000E560204600F0EEFD40F2FF7520460021C1
:100C80002A4600F081FA04F16400244902C0482297
:100C9000211DFFF750FB04F1640000F0DBFD002193
:100CA0002A4604F1640000F06FFA1D4C31940620CE
:100CB0003290CDF8CC803495359631A91548C83896
:100CC00000F0BEFB319431A91248643800F0B8FB43
:100CD0001048C838FFF7ECFE0E486438FFF7E8FE0E
:100CE0000C4871037830416007210160F101816097
:100CF0000146A0F5A07000F099FA064801220949C2
:100D0000C83800F025FB38B0BDE8F081D84402585F
:100D100028000240F0000024002002400021024090
:100D20000000844B20000024FEE7000070B5B6B040
:100D30002B48016841F001010160016801F00101E7
:100D40000191016841F001010160006800F00100BB
:100D50000190012402940025209502A801F068FF6B
:100D60001F481030016841F010010160006800F078
:100D70001000019060023190022032903394349040
:100D80000724359431A9174E304601F0A5F94FF4E8
:100D900080613191359431A9304601F09DF9134CB1
:100DA000114820604FF4E1306060A560E560256186
:100DB0000C206061A561E5612562A562204603F013
:100DC000DAF800222520114601F0B2FA252001F0C0
:100DD000A1FA2068016841F02001016036B070BDC1
:100DE000E044025800000258001001407401002441
:100DF00010B52C4A016891423AD02A4A18329142E1
:100E000036D0284A3032914232D0264A4832914276
:100E10002ED0244A603291422AD0224A783291421E
:100E200026D0204A9032914222D01E4AA8329142C6
:100E30001ED01D4A91421BD01B4A1832914217D036
:100E4000194A3032914213D0174A483291420FD09A
:100E5000154A603291420BD0134A7832914207D042
:100E6000114A9032914203D00F4AA832914214D1D4
:100E7000CAB2103A1823B2FBF3F20C4C02F007038B
:100E8000E35CC365032A04D96FF30901091D816579
:100E900006E06FF30901816502E021F0FF01816541
:100EA000806D10BD1000024010040240F065000883
:100EB00010B501680123224CCAB2A1421BD0204CBC
:100EC0001434A14217D01E4C2834A14213D01C4C1C
:100ED0003C34A1420FD01A4C5034A1420BD0184CD4
:100EE0006434A14207D0164C7834A14203D0144C8C
:100EF0008C34A1420FD1083A1421B2FBF1F1114A0E
:100F000002EB810202660F4A8032426601F01F0145
:100F10008B40836610BD103A1824B2FBF4F20A4CE1
:100F20002144A82900D80832084901EB8201016652
:100F300006498031416602F01F018B40836610BD77
:100F40000854025800580258F0FBFDBF0008024048
:100F50000279521E072A31D8194B016899421BD0D9
:100F6000174B1433994217D0154B2833994213D09D
:100F7000134B3C3399420FD0114B503399420BD055
:100F80000F4B6433994207D00D4B7833994203D00D
:100F90000B4B8C33994207D10A4901EB8201C166A0
:100FA00008494031016706E0074901EB8201C1664B
:100FB00005494031016701219140416770470000B8
:100FC000085402580059025800090240014610B561
:100FD00000208B694FF0C0748A6A002B0ED0B3F5E5
:100FE000005F1AD062B3012A2AD0022A28D0032A2D
:100FF00003D1C96AC90100D5012010BD1AB1012A67
:1010000006D0022AF9D1C96AC901F6D5012010BD5E
:10101000C96AA142FBD1012010BD52B1012A0AD0F8
:10102000022A06D0032AF7D1C96AA142F4D10120CD
:1010300010BD012010BDC96AC901FBD5012010BD3A
:10104000012010BD70B5856DD0E919647460C46E5F
:10105000002C02D0D0E91C647460474E0468B4428E
:101060003AD0454E1836B44236D0434E3036B442AC
:1010700032D0414E4836B4422ED03F4E6036B44254
:101080002AD03D4E7836B44226D03B4E9036B442FC
:1010900022D0394EA836B4421ED0384EB4421BD0AE
:1010A000364E1836B44217D0344E3036B44213D0D0
:1010B000324E4836B4420FD0304E6036B4420BD078
:1010C0002E4E7836B44207D02C4E9036B44203D020
:1010D0002A4EA836B4421AD190F85C4004F01F069C
:1010E0003F24B440AC600468256825F48025256061
:1010F000046863608368402B04D0036899600068CB
:10110000C26070BD03689A600068C16070BD1C4E0B
:10111000B4421BD01A4E1436B44217D0184E28369B
:10112000B44213D0164E3C36B4420FD0144E503653
:10113000B4420BD0124E6436B44207D0104E78360B
:10114000B44203D00E4E8C36B442DFD190F85C40EE
:1011500004F01F060124B4406C6004686360836877
:10116000402B04D0036899600068C26070BD0368BA
:101170009A600068C16070BD100002401004024017
:101180000854025870470000F8B504460E4617464A
:101190000025009594F85000012810D0012084F813
:1011A00050002046FFF746FC0346180009D0606D4A
:1011B00040F01000606584F850501846F8BD0220D9
:1011C000F8BD606D20F4885040F002006065206832
:1011D00006F4803107F0804211438268114E32409C
:1011E000114341F0004181600F4920680FE0009AEF
:1011F000521C0092009A8A4209D3606D20F00200CE
:1012000040F01000606584F850500120F8BD8268FD
:10121000D20F002AEBD1606D20F0020040F00100F7
:101220006065C8E7C0FFFE3F00F8C3252DE9F04721
:101230009AB004460D464FF0000894F8500001287B
:101240000BD0012084F85000DFF8F09000272068D0
:101250003B4E484505D1019604E002201AB0BDE896
:10126000F0870197019840B1019802F02EFF824665
:10127000206802F02AFF40B10AE0606D40F02000D3
:10128000606584F850700120E8E7BAF1000F09D0DA
:10129000606D40F0200060654FF0010884F85070E8
:1012A0004046DBE72068484501D0B04201D12548DF
:1012B00000E0254840F61F72244B296811B381686D
:1012C000D5F804C021F4404141EA0C018160216855
:1012D000494501D0B14208D1D9F80810C1F3000145
:1012E000B368C3F30003194302E09968C1F3000136
:1012F0000029D3D1AB682968194383689343194304
:101300008160CBE7816821F44041816021684945D3
:1013100001D0B14208D1D9F80810C1F30001B36877
:10132000C3F30003194302E09968C1F300010029E7
:10133000B4D1816891438160B0E700000020024091
:10134000002102400023024000630258006002585E
:101350002DE9F04399B004460E461746206802F086
:10136000B4FE18B1022019B0BDE8F08394F8500023
:1013700001280DD0012084F85000DFF8A48000255A
:101380002068DFF8A090404504D1CDF8009002E03D
:101390000220E8E70095009820B12046FFF788FB7F
:1013A00040B10AE0606D40F02000606584F8505064
:1013B0000120D8E76846FFF77BFB10B184F8505056
:1013C000D1E7606D40F60161884340F4807060654C
:1013D000A565E16C1448C863E16C14480864E16CCD
:1013E0001348C8642068404501D0484501D11149DF
:1013F00000E011491C22026084F8505020684268C5
:1014000042F010024260E06C0C313B46324600F084
:101410002DFD21688A68094B1A40121D8A60A2E7D7
:10142000002002400021024091090008290A00081A
:101430000F0A00080023024000630258C0FFFF7F2C
:101440002DE9FC5F04460D464FF00008C346CDF879
:1014500004B0DFF8B0A3EC4EEC4F94F85000012834
:1014600012D04FF0010984F85090206802F029FE54
:1014700060B1606D40F0200060654FF0010884F8B5
:1014800050B04046BDE8FC9F0220FBE72168CA69D6
:101490002868030329D090FAA0F0B0FA80F000F099
:1014A0001F0009FA00F00243CA61A98820682A686F
:1014B00001F4407300EB9310036B01F01F014FF038
:1014C0001F0CC2F384620CFA01FC8A4023EA0C036D
:1014D00013430363206802F0F4FD0090206802F0DB
:1014E000E8FD0099014303D086E0C0F38460D6E7AD
:1014F000AA682968206802F0F4FDC5480068B9EBC5
:10150000107F07D121686869C968C1F38201490069
:10151000884010E02168C868C00606D46869C968B8
:10152000C1F382014900884005E06869C96801F09B
:10153000100149088840296904292DD023682A68A8
:1015400003EB81010B6E02F0F842024303F000430B
:1015500013430B66697E20682A69012916D0002191
:1015600000EB8200026E22F000420A430266297EEE
:1015700020682A6901290CD00021036902F01F02AA
:1015800023F4F04391400B43036135E04FF00041F9
:10159000E6E74FF40061F0E72068016E2A7801F079
:1015A000F841B1EB826F03D1016E21F00041016679
:1015B0002068416E2A7801F0F841B1EB826F03D1C7
:1015C000416E21F0004141662068816E2A7801F069
:1015D000F841B1EB826F03D1816E21F00041816649
:1015E0002068C16E2A7801F0F841B1EB826F03D117
:1015F000C16E21F00041C166206802F05EFD002846
:101600007FF43DAF20682A7B296850F8C03FC1F3C2
:10161000130C23EA0C0302F0180C7E4A22FA0CF297
:101620000A40134303607C48E968814274D128680A
:10163000010319D090FAA0F1B1FA81F1491C01F02F
:101640001F01092931D80103002910D090FAA0F117
:10165000B1FA81F101F1010101F01F0109FA01F96B
:1016600008D1C0F3846109E0C0F38461E6E7C0F308
:101670008461EFE790FAA0F1B1FA81F101F1010183
:1016800001F01F0149EA816102D1C0F3846003E0E7
:1016900090FAA0F0B0FA80F000F1010000F01F0015
:1016A00000EB400041EA005132E04FEA00310029EE
:1016B0000DD090FAA0F1B1FA81F101F1010101F030
:1016C0001F0109FA01F905D1C0F3846106E0C0F3F6
:1016D0008461F2E790FAA0F1B1FA81F101F1010120
:1016E00001F01F0149EA816102D1C0F3846003E087
:1016F00090FAA0F0B0FA80F000F1010000F01F00B5
:10170000A0F10A0000EB400041EA005040F00071F7
:10171000AA68206802F0E5FC2A68002ABFF6AFAE8E
:1017200020683E4BDFF8F8C0504501D0B04201D1EF
:10173000194600E06146896801F0E071504501D02A
:10174000B0420AD1DAF80850C5F30005D6F808907F
:10175000C9F3000945EA090502E0BD68C5F30005C3
:1017600035B1606D40F0200060654FF0010886E6FD
:101770002C4DAA421ED10D021CD4B842F7D15045BF
:1017800002D0B04200D0634641F40000996821F0D5
:10179000E07101439960244824490068B0FBF1F0EE
:1017A0004000019002E00198401E0190019800283D
:1017B000F9D164E61E4DAA4210D1CD010ED4B84233
:1017C000D5D1504502D0B04200D0634641F0807080
:1017D000996821F0E0710143996050E6154DAA42E5
:1017E000C5D14A02C3D4B842C1D1504502D0B0429B
:1017F00000D0634641F48000996821F0E071014314
:1018000099603CE60020024000210240006002583E
:101810000010005CFFFF0F000000FF4700230240A4
:1018200000630258000084CB00000024400D030038
:10183000000052C70000B8CF10B500F007F801490A
:10184000086010BD20000024704770470068006CDD
:1018500070470000F8B50446002500260096002CCD
:1018600002D0606D10B107E00120F8BD204600F005
:1018700005F9A66584F8506020688168C1F340715D
:1018800019B18168724A1140816020688168C1F392
:10189000007191B981686F4A114041F080518160B7
:1018A0006D486E490068B0FBF1F0009002E00098CE
:1018B000401E009000980028F9D120688168C1F38B
:1018C000007141B9616D41F010016165A16D41F098
:1018D0000101A165012502F0F4FB616DC90600D488
:1018E00030B1606D40F01000606501252846F8BDFC
:1018F000606D20F4807040F002006065206802F0A6
:10190000DCFB00BB564A2068564B904201D09842FF
:1019100007D19168C1F300019E68C6F30006314308
:1019200003E051498968C1F3000161B9904201D0D7
:10193000984201D14D4800E04D486168826822F428
:101940007C120A43826000F0BFFC41F2030188422E
:1019500002D9A06810280CD0A168206B227F084310
:10196000617D490341EA02410843217F01290CD0EE
:101970000FE0617D227F206B490340F0100041EAB7
:101980000241084340F00C00EFE7218C491E40EA79
:101990004140616A29B1A26A01F47871014342EAC7
:1019A00001002168CA68334B1A400243CA602068AC
:1019B00002F087FB0646206802F07BFB06431DD140
:1019C000217DE06A40EA81312068C26844F2030365
:1019D0009A430A43C26094F8380001281DD0206859
:1019E000016921F00101016120680169626B21F048
:1019F0007041114301612046FEF730FFE068012885
:101A00001DD02068016B21F00F010163606D20F093
:101A1000020040F00100606568E7A28F0123D4E96D
:101A20001010521E0143A06C03EB0242104301430D
:101A300020680269104B1A4011430161D4E7206805
:101A4000016BA26921F00F01521E11430163DDE712
:101A5000C0FFFF5FC0FFFF7F00000024400D0300B8
:101A60000020024000210240006002580023024092
:101A70000063025803C0F0FF1EF800FC704700002E
:101A80002DE9F04104463A4E3A4F2068B04201D069
:101A9000B84201D1384900E03849896801F01F0592
:101AA00002F00FFB18B102210846BDE8F08194F85E
:101AB000500001280BD0012084F850002046FEF78A
:101AC000F7FF0146002321B184F85030ECE70220F3
:101AD000EBE7606D40F60162904340F48070606512
:101AE0002068B84201D1324600E00246824200D06E
:101AF0001DB9626D22F480126265626DD20404D554
:101B0000A26D22F00602A26500E0A3651C2202601D
:101B100084F850302068B84201D1324600E00246D5
:101B2000824215D0A5B1052D12D0092D10D0626DBD
:101B300042F480126265B84200D13046C06880012C
:101B4000B2D5606D20F4005040F480506065ABE782
:101B5000C268920105D5626D22F4005242F48052AF
:101B600062658268064B1A40121D82609CE7000085
:101B7000002002400021024000230240006302587E
:101B8000C0FFFF7F2DE9F05F044600F0A3FB054690
:101B9000002C7DD0B04A0127AF4B0026AE49183249
:101BA000DFF8B4C23033DFF8B082DFF8AC920CF16A
:101BB000480CDFF8A4A208F16008DFF89CB209F134
:101BC000780920680AF1900ADFF890E20BF1A80B7F
:101BD00088422BD0904229D0984227D0604525D00A
:101BE000404523D0484521D050451FD058451DD0F1
:101BF00070451BD099491831884217D09749303128
:101C0000884213D09549483188420FD093496031BA
:101C100088420BD091497831884207D08F49903162
:101C2000884203D08D49A83188427DD184F8346040
:101C3000022184F83510884988422DD090422BD05B
:101C4000984229D0604527D0404525D0484523D02B
:101C5000504521D058451FD070451DD07F491831BF
:101C6000884219D07D493031884215D07B494831AE
:101C7000884211D07949603188420DD07749783156
:101C8000884209D075499031884205D0734900E0F7
:101C900007E0A831884207D1016821F00101016005
:101CA00013E00120BDE8F09F016821F0010101600F
:101CB0000BE000F00FFB401B052806D920206065D3
:101CC000032084F835000120ECE720680068C00795
:101CD000EFD121680A6862480240D4E90203184340
:101CE000D4E904352B431843A3691843E369184327
:101CF000236A18431043626A042A03D1D4E90B23F0
:101D00001A43104308602068406920F00701606AA8
:101D100040EA010504280FD1A06A0543E06A58B1E2
:101D20002046FFF753F900E013E028B1402060653A
:101D300084F835700120B5E7206845612046FFF73B
:101D400057F894F85C1001F01F023F219140816028
:101D500053E0444988421BD042491431884217D08D
:101D600040492831884213D03E493C3188420FD047
:101D70003C49503188420BD03A496431884207D0FF
:101D800038497831884203D036498C31884240D175
:101D900084F83460022184F83510026832490A4020
:101DA000A168402930D0802930D00021E36841EA81
:101DB000D301236941EAD301636941EAD301A369ED
:101DC00041EAD301E36941EAD301236A41EA1311ED
:101DD0001143016023492068494208441421B0FBA3
:101DE000F1F08000E0652046FFF702F894F85C10FF
:101DF00001F01F0107FA01F141602046FFF758F892
:101E0000A06880280CD00CE01021CFE74FF480416F
:101E1000CCE740206065032084F83500012041E7CD
:101E20006660216E20790860D4E919104860606806
:101E3000401E072808D82046FFF78AF8E06E0660A3
:101E4000D4E91C10486002E0E666266766676665AE
:101E500084F83570002025E710000240100402408D
:101E60003F8010FE085402580F00FEFF2DE9F84F86
:101E7000044600200090002C15D094F8340001286E
:101E800013D0012084F8340094F835500020012D3F
:101E90000DD084F834004FF400606065012000909C
:101EA0000098BDE8F88F0120FBE70220F9E7022542
:101EB00084F8355060657D4D7C4E7C4F1835DFF8D9
:101EC000ECC13036DFF8E4814837DFF8E091DFF825
:101ED000DCA108F16008DFF8D4B109F178092068C5
:101EE0000AF1900A0BF1A80B60453BD0A84239D00B
:101EF000B04237D0B84235D0404533D0484531D0D4
:101F000050452FD058452DD0DFF8A4C1604529D0C9
:101F1000DFF89CC10CF1180C604523D0DFF890C1AC
:101F20000CF1300C60451DD0DFF884C10CF1480C79
:101F3000604517D0DFF878C10CF1600C604511D016
:101F4000DFF86CC10CF1780C60450BD0DFF860C194
:101F50000CF1900C604505D0DFF854C10CF1A80CD1
:101F6000604506D1D0F800C02CF0010CC0F800C0CC
:101F700005E0D0F800C02CF0010CC0F800C02046ED
:101F8000FFF760F84949206888422CD0A8422AD03F
:101F9000B04228D0B84226D0404524D0484522D06F
:101FA000504520D058451ED0414A90421BD0404A4F
:101FB0001832904217D03E4A3032904213D03C4AF9
:101FC000483290420FD03A4A603290420BD0384AA1
:101FD0007832904207D0364A9032904203D0344A49
:101FE000A83290420DD1026822F01E0242F0160281
:101FF0000260206C90B12068026842F00802026022
:102000000CE0026822F00E0242F00A020260206C2C
:1020100020B12068026842F004020260206E02686B
:10202000D20303D5026842F480720260E06E18B1F8
:10203000026842F480720260206888422CD0A84274
:102040002AD0B04228D0B84226D0404524D04845B6
:1020500022D0504520D058451ED0154988421BD06B
:1020600013491831884217D011493031884213D0B2
:102070000F49483188420FD00D49603188420BD05A
:102080000B497831884207D009499031884203D002
:102090000749A831884204D1016841F0010101607B
:1020A000FEE6016841F001010160F9E6100002401E
:1020B0001004024070B5044600F00CF90546601C9F
:1020C00002D004480078044400F004F9401BA04208
:1020D000FAD370BD080000242DE9F84F00226E4CA1
:1020E0004FF0B0494FF0010A4FF0030E4FF00F08C8
:1020F000CAE00AFA02F73B40002B70D04D68022D6F
:1021000001D0122D12D1D50800EB850CDCF820602F
:102110005507ED0E08FA05FB26EA0B06D1F810B0BC
:102120000BFA05FB4BEA060BCCF820B0D0F800C048
:1021300055000EFA05F62CEA060C91F804B00BF0E7
:10214000030B0BFA05FB4BEA0C0BC0F800B0D1F8FF
:1021500004C0BCF1010F08D0BCF1020F05D0BCF1E6
:10216000110F02D0BCF1120F16D1D0F808C02CEA22
:10217000060CD1F80CB00BFA05FB4BEA0C0BC0F8BF
:1021800008B0D0F804C02CEA070C0F79C7F3001789
:10219000974047EA0C074760C768B7438E68AE4070
:1021A0003E43C6604D68ED006DD53C4D2E6846F04F
:1021B00002062E602D6805F00205009522F0030648
:1021C00006F1B046D6F808C495072F0F08FA07F5B0
:1021D0002CEA050C324DA84202D100252EE052E037
:1021E000304DA84201D1012528E02F4DA84201D150
:1021F000022523E02D4DA84201D103251EE02C4DE0
:10220000A84201D1042519E02A4DA84201D1052593
:1022100014E0294DA84201D106250FE0274DA84220
:1022200001D107250AE0264DA84201D1082505E085
:10223000244DA84201D1092500E00A25BD4045EA08
:102240000C05C6F8085425689D434E68F60300D572
:102250001D43256065689D434E68B60300D51D4348
:102260006560D9F800509D434E68F60200D51D43C5
:10227000C9F80050D9F804509D434E68B60200D505
:102280001D43C9F80450521C0B6833FA02F57FF461
:1022900030AFBDE8F88F000080000058F4440258C9
:1022A000000002580004025800080258000C0258AE
:1022B000001002580014025800180258001C02585E
:1022C000002002580024025801480068000C7047A2
:1022D0000010005C044840680449B0FBF1F04FF482
:1022E0007A71484370470000001000E00084D7175F
:1022F0000648016841F08071016005480021416095
:10230000016841F00101016000207047FCED00E030
:10231000001000E0002809DB012100F01F029140BD
:102320004009800000F1E020C0F800117047000073
:10233000F0B40D460D4B1B68C3F30223C3F1070431
:10234000042C00D90424191D072901D2002300E020
:10235000DB1E012606FA04F1491E294099409E40E1
:10236000761E16403143F0BC03F022BC0CED00E0B9
:1023700070B512490A68520706D40A6802F00702CB
:10238000824201D0012070BD0A6822F00702024398
:102390000A60FFF79FFF0446084D4FF47A76083D28
:1023A00006E0FFF797FF001BB04201D9032070BD84
:1023B00028688004F5D5002070BD00000C48025844
:1023C00010B501F02FFA06490968064AC1F3032146
:1023D000515C01F01F01C8400349086010BD0000B6
:1023E00018440258E06500080000002410B501F010
:1023F000DFF905490968054AC1F30211515C01F092
:102400001F01C84010BD000020440258E0650008CC
:1024100010B569490A6802F003020968C1F30511A1
:10242000654B1B1D1B6803F00103634C0C342468CF
:10243000C4F3CC0414FB03F300EE103AB8EE400AE8
:10244000002971D09FED5D1A5B4BF7EE000A08334F
:10245000F2B39FED5B2A012A7FD0022A7CD001EEE5
:10246000901A1968F8EE611AC2EE212AC1F3080128
:1024700001EE901AF8EE611A40EE011A31EEA00A50
:1024800022EE800A1968C1F3462101EE101AB8EE57
:10249000411A31EE201AC0EE011ABCEEE11A80EDAD
:1024A000001A1968C1F3064101EE101AB8EE411A7C
:1024B00031EE201AC0EE011ABCEEE11A80ED011ACD
:1024C0001968C1F3066101EE101AB8EE411A00E076
:1024D00008E071EE200A80EE201ABCEEC10A80ED01
:1024E000020A10BD344A283A1468A4061ED51268A0
:1024F000C2F3C104334AE24001EE902AF8EE612AA9
:1025000001EE901A1968F8EE611A82EEA12AC1F361
:10251000080101EE901AF8EE611A40EE011A31EE50
:10252000A00A22EE000AADE741E016E001EE901AA3
:10253000DFED252A1968F8EE611A82EEA12AC1F3AF
:10254000080101EE901AF8EE611A40EE011A31EE20
:10255000A00A22EE000A95E713E001EE901A19682E
:10256000F8EE611AC2EE212AC1F3080101EE901AB9
:10257000F8EE611A40EE011A31EEA00A22EE800A4E
:1025800080E701EE901ADFED112A1968F8EE611A62
:1025900082EEA12AC1F3080101EE901AF8EE611A49
:1025A00040EE011A31EEA00A22EE000A6AE700218D
:1025B00001604160816010BD28440258000000396C
:1025C0000024744A0090D0030024744C20BCBE4BFD
:1025D00010B569490A6802F003020968C1F30531C0
:1025E000654B1B1D1B6803F01003634C14342468F7
:1025F000C4F3CC0414FB03F300EE103AB8EE400A27
:10260000002971D09FED5D1A5B4BF7EE000A103385
:10261000F2B39FED5B2A012A7FD0022A7CD001EE23
:10262000901A1968F8EE611AC2EE212AC1F3080166
:1026300001EE901AF8EE611A40EE011A31EEA00A8E
:1026400022EE800A1968C1F3462101EE101AB8EE95
:10265000411A31EE201AC0EE011ABCEEE11A80EDEB
:10266000001A1968C1F3064101EE101AB8EE411ABA
:1026700031EE201AC0EE011ABCEEE11A80ED011A0B
:102680001968C1F3066101EE101AB8EE411A00E0B4
:1026900008E071EE200A80EE201ABCEEC10A80ED3F
:1026A000020A10BD344A283A1468A4061ED51268DE
:1026B000C2F3C104334AE24001EE902AF8EE612AE7
:1026C00001EE901A1968F8EE611A82EEA12AC1F3A0
:1026D000080101EE901AF8EE611A40EE011A31EE8F
:1026E000A00A22EE000AADE741E016E001EE901AE2
:1026F000DFED252A1968F8EE611A82EEA12AC1F3EE
:10270000080101EE901AF8EE611A40EE011A31EE5E
:10271000A00A22EE000A95E713E001EE901A19686C
:10272000F8EE611AC2EE212AC1F3080101EE901AF7
:10273000F8EE611A40EE011A31EEA00A22EE800A8C
:1027400080E701EE901ADFED112A1968F8EE611AA0
:1027500082EEA12AC1F3080101EE901AF8EE611A87
:1027600040EE011A31EEA00A22EE000A6AE70021CB
:1027700001604160816010BD2844025800000039AA
:102780000024744A0090D0030024744C20BCBE4B3B
:1027900010B569490A6802F003020968C1F30551DE
:1027A000654B1B1D1B6803F48073634C1C34246849
:1027B000C4F3CC0414FB03F300EE103AB8EE400A65
:1027C000002971D09FED5D1A5B4BF7EE000A1833BC
:1027D000F2B39FED5B2A012A7FD0022A7CD001EE62
:1027E000901A1968F8EE611AC2EE212AC1F30801A5
:1027F00001EE901AF8EE611A40EE011A31EEA00ACD
:1028000022EE800A1968C1F3462101EE101AB8EED3
:10281000411A31EE201AC0EE011ABCEEE11A80ED29
:10282000001A1968C1F3064101EE101AB8EE411AF8
:1028300031EE201AC0EE011ABCEEE11A80ED011A49
:102840001968C1F3066101EE101AB8EE411A00E0F2
:1028500008E071EE200A80EE201ABCEEC10A80ED7D
:10286000020A10BD344A283A1468A4061ED512681C
:10287000C2F3C104334AE24001EE902AF8EE612A25
:1028800001EE901A1968F8EE611A82EEA12AC1F3DE
:10289000080101EE901AF8EE611A40EE011A31EECD
:1028A000A00A22EE000AADE741E016E001EE901A20
:1028B000DFED252A1968F8EE611A82EEA12AC1F32C
:1028C000080101EE901AF8EE611A40EE011A31EE9D
:1028D000A00A22EE000A95E713E001EE901A1968AB
:1028E000F8EE611AC2EE212AC1F3080101EE901A36
:1028F000F8EE611A40EE011A31EEA00A22EE800ACB
:1029000080E701EE901ADFED112A1968F8EE611ADE
:1029100082EEA12AC1F3080101EE901AF8EE611AC5
:1029200040EE011A31EEA00A22EE000A6AE7002109
:1029300001604160816010BD2844025800000039E8
:102940000024744A0090D0030024744C20BCBE4B79
:102950002DE9F04389B00146B2484FF48078DFF8A2
:10296000C0C24FF08055B04CB04F031146044145F2
:10297000ACF104022ED1DCF8001001F007010529AA
:1029800026D2DFE801F0030A0F23140006A8FFF7A0
:102990003FFD079809B0BDE8F08303A8FFF718FED4
:1029A0000398F7E76846FFF7F3FE0098F2E711682F
:1029B00001F040510029EDD0A94201D11846E9E7C4
:1029C000B14201D12046E5E70020E3E73846E1E7E0
:1029D0000020DFE7B1F5007F1ED0DFF84482B1F5BB
:1029E000806F08F1080848D0B1F5006F72D04FF43D
:1029F000805949456FD1DCF8001001F4E041B1F590
:102A0000005F69D069DC002968D0494567D103A817
:102A1000FFF7DEFD0398BDE7DCF8001001F4E0717C
:102A200080291BD003DC79B1402924D111E0C029D1
:102A30001FD041451FD1116801F040510029A9D094
:102A4000A94210D11846A5E706A8FFF7E1FC0798B0
:102A5000A0E703A8FFF7BCFD03989BE76846FFF7D4
:102A600097FE009896E7B14201D1204692E70020F8
:102A700090E738468EE700208CE7D8F8001001F484
:102A80006001B1F5800F17D004DC59B1B1F5001F1A
:102A900006D10CE0B1F5C00F28D0B1F5000F10D071
:102AA000002077E706A8FFF7B3FC079872E703A8B2
:102AB000FFF78EFD03986DE76846FFF769FE009803
:102AC00068E7116801F040510029A4D0A94207D15C
:102AD00018465FE70CE063E04CE03EE045E042E092
:102AE000B14201D1204655E7002053E7384651E76F
:102AF000D8F8001001F0E061B1F1007F17D004DCDC
:102B000059B1B1F1807F06D10CE0B1F1407F22D004
:102B1000B1F1806F10D000203CE706A8FFF778FCE9
:102B2000079837E703A8FFF753FD039832E7684695
:102B3000FFF72EFE00982DE7116801F040510029A3
:102B400086D0A94201D1184624E7B14201D12046DE
:102B500020E700201EE738461CE7B1F5405F1DD096
:102B6000B1F5804F0BD0002014E706A8FFF750FC0A
:102B700007980FE76846FFF70BFE00980AE7116811
:102B800001F0405100298CD0A94201D1184601E73B
:102B9000B14201D12046FDE60020FBE63846F9E6C9
:102BA000B1F5002F4FF480370CD0B94236D1106800
:102BB00000F4803058B3B8422ED103A8FFF708FDC7
:102BC0000598E7E6D8F8001001F4403131B1B94278
:102BD00009D0B1F5003F0BD00020DBE603A8FFF7DA
:102BE000F7FC0398D6E66846FFF7D2FD0298D1E6D7
:102BF000116801F0405100298ED0A94201D1184638
:102C0000C8E6B14201D12046C4E60020C2E606A8CB
:102C1000FFF7FEFB0798BDE60020BBE60020B9E603
:102C2000504402580090D00340787D010080BB00E2
:102C30002DE9F84F044600250026FB4F2068DFF8F9
:102C4000EC83010104F1240000900DD5606EB0B159
:102C5000B0F5801F18D0B0F5001F1BD0B0F5401F95
:102C600000D00125E5B12E462088C00535D5606D20
:102C700005282FD2DFE800F01D22282F2F0038680A
:102C800040F400303860EDE70221201D01F03CFAED
:102C90000546E7E70098022101F0C8FA0546E1E79A
:102CA000D8F80000616E20F440100843C8F8000016
:102CB000DAE7386840F4003038600CE00021201D6D
:102CC00001F022FA054606E00098002101F0AEFA74
:102CD000054600E001255DB12E462088800518D507
:102CE000A06D802830D00CDC18B340280ED125E030
:102CF000D8F80000616D20F007000843C8F8000014
:102D0000EBE7C02803D0B0F5807F00D001250DB3DC
:102D10002E462088DFF8189340052DD5D4F8A4005E
:102D2000B0F5800F42D01EDCA0B3B0F5001F20D15B
:102D300036E0386840F400303860E8E70021201DB4
:102D400001F0E2F90546E2E70098002101F06EFA91
:102D50000546DCE7D8F80000A16D20F4E0700843D8
:102D6000C8F80000D5E7B0F5C00F03D0B0F5000FEC
:102D700000D0012505B32E46208800052FD5D4F8B4
:102D8000A800B0F1007F52D020DCE8B3B0F1807F22
:102D900022D146E0FFE7386840F400303860E9E7C8
:102DA0000021201D01F0B0F90546E3E7009800215D
:102DB00001F03CFA0546DDE7D9F80000D4F8A4108C
:102DC00020F460000843C9F80000D5E7B0F1407F67
:102DD00003D0B0F1806F00D0012575B32E46206876
:102DE00080010AD5A06C30B1102831D0202835D010
:102DF000302800D0012585B32E462088C00446D552
:102E0000E06DB0F5005F00E006E05BD036DCA0B31B
:102E1000B0F5805F38D14FE0386840F4003038605A
:102E2000DBE70021201D01F06FF90546D5E700988A
:102E3000002101F0FBF90546CFE7FFE7D9F80000D4
:102E4000D4F8A81020F0E0600843C9F80000C6E7F5
:102E5000386840F400303860CDE705E00221201DDD
:102E600001F052F90546C6E77048001F0168A26CE0
:102E700021F0300111430160BFE718E0B0F5405F79
:102E800003D0B0F5804F00D001250DB32E46208829
:102E900080042FD5206EB0F5403F29D021DC38B317
:102EA000B0F5803F37D0B0F5003F20D139E0386829
:102EB00040F400303860E8E70021201D01F024F9DB
:102EC0000546E2E70098002101F0B0F90546DCE78D
:102ED000D8F80000E16D20F4E0400843C8F8000095
:102EE000D5E7B0F5802F03D0B0F5A02F00D0012595
:102EF000EDB12E46208840042BD5D4F8AC00B0F1BB
:102F0000405F24D01CDC10B3B0F1805F4BD0B0F137
:102F1000005F1BD14EE00121201D01F0F5F80546B0
:102F2000E6E70098012101F081F90546E0E7D8F8CD
:102F30000000216E20F4E0200843C8F80000D9E723
:102F4000B0F1804F03D0B0F1A04F00D0012585B380
:102F50002E46208800040AD5E06E30B1B0F1805FC3
:102F600039D0B0F1005F3BD001259DB32E462068DB
:102F7000C0010AD5606C30B1012841D0022844D08C
:102F8000032800D001258DB32E462068DFF8A4B0B9
:102F9000400261D52848016841F480710160FFF763
:102FA00099F9824652E00121201D01F0ADF8054655
:102FB000CDE705E00098012101F038F90546C6E7A4
:102FC000D9F80000D4F8AC1020F0E0400843C9F86C
:102FD0000000BEE70BE0386840F400303860C4E71A
:102FE0000121201D01F090F80546BEE713E0D8F856
:102FF0000000E16E20F040500843C8F80000B6E73A
:10300000386840F400303860BDE70221201D01F02F
:103010007BF80546B7E70548001F0168626C21F0A0
:10302000030111430160B0E72C4402585044025898
:10303000584402581044025800480258FFF74AF911
:10304000A0EB0A00642801D9032503E0FE480068CC
:10305000C005F3D57DB12E462078DFF8F0A3C00778
:1030600066D0A06F182861D05BDC80B308286AD0D6
:1030700010285AD16DE0F5481C30006800F440710A
:10308000B4F8B00000F4407081420DD0EF481C301D
:10309000016821F44071026842F4803202600268E3
:1030A00022F4803202600160D4F8B000B0F5807F75
:1030B00013D1FFF70FF982460AE0FFF70BF9A0EBF7
:1030C0000A0141F28830814202D9032505E02DE052
:1030D000DE481C3000688007EFD50DB12E46BBE7F7
:1030E000D4F8B000C0F3012103290FD0DBF80000B1
:1030F00020F47C50CBF80000D4481C300168B4F8B0
:10310000B020C2F30B0211430160A5E7DBF8001009
:10311000CF4A21F47C51104041EA1010CBF8000056
:10312000EAE7202802D0282800D00125BDB12E468C
:10313000207880072BD5606F062825D2DFE800F0C5
:1031400025181E2525250121201D00F0DDFF05463F
:10315000ECE70098012101F069F80546E6E7DAF8A6
:103160000000A16F20F038000843CAF80000DFE734
:103170000121201D00F0C8FF054606E0009801214E
:1031800001F054F8054600E0012565B12E4620788F
:10319000400720D5D4F89000062819D2DFE800F0C7
:1031A000190C12191919DAF80000616F20F00700E4
:1031B0000843CAF80000EAE70121201D00F0A4FF3F
:1031C000054606E00098012101F030F8054600E0D0
:1031D00001258DB12E462078800620D5D4F88C00AC
:1031E000B0F1405F19D011DCB8B1B0F1805F27D0E9
:1031F000B0F1005F10D129E0D9F80000D4F89010A8
:1032000020F007000843C9F80000E4E7B0F1804F60
:1032100003D0B0F1A04F00D00125EDB12E462078AB
:1032200040062CD5D4F89800B0F5406F25D01DDCB1
:1032300018B3B0F5806F33D0B0F5006F1CD135E016
:103240000021201D00F060FF0546E6E700980221FE
:1032500000F0ECFF0546E0E7DAF80000D4F88C1047
:1032600020F0E0400843CAF80000D8E7B0F5805FDE
:1032700003D0B0F5A05F00D00125EDB12E46207837
:1032800000062CD5D4F89C00B0F5C04F25D01DDC2D
:1032900018B3B0F5005F7CD0B0F5804F1CD1E0E0F2
:1032A0000021201D00F030FF0546E6E700980221CE
:1032B00000F0BCFF0546E0E7D9F80000D4F898100C
:1032C00020F4E0500843C9F80000D8E7B0F5004FFB
:1032D00003D0B0F5204F00D00125EDB32E46207865
:1032E00000070BD5D4F88000B0F5805F75D0DAF810
:1032F000001021F440510143CAF800102078C006A4
:103300000BD5D4F89400B0F5807F68D0D9F80010C0
:1033100021F440710143C9F80010206800030BD567
:10332000D4F8A000B0B3B0F5803F7DD0B0F5003F39
:1033300000D001257DB32E46206840030FD5D4F878
:103340008400B0F5801F71D0B0F5001F6FD0B0F5CC
:10335000401F00D0012500E089E0E5B32E4620683B
:10336000C00307D5E06CB8B3B0F5803F72D001253B
:10337000A5B32E462068800005D50098022100F0F4
:1033800055FF00B101262068800311D5E06F68B1B8
:1033900002E060E089E094E0B0F5807F71D0B0F5A4
:1033A000007F03D0B0F5407F00D00125EDB32E465D
:1033B0002068C00207D5D8F80000216F20F0004037
:1033C0000843C8F800002068C0000ED5DBF80000F4
:1033D00020F4804004E089E092E053E09BE05AE072
:1033E000D4F8B4100843CBF800002068800207D559
:1033F000D8F80000A16E20F080700843C8F80000E3
:10340000206840000CD5DBF8000020F40040CBF829
:103410000000DBF80000D4F8B8100843CBF8000037
:10342000206800280CDA03E045E081E053E057E033
:10343000064808380168226D21F0405111430160AF
:1034400096B30120BDE8F88F004802585444025852
:10345000FFFCFF0F59E00021201D00F055FE05463E
:103460003BE70098022100F0E1FE054635E7D9F878
:103470000000D4F89C1020F460400843C9F8000014
:103480002DE750E00098022100F0D0FE00283FF424
:1034900035AF012632E70098022100F0C7FE002870
:1034A0003FF43BAF012638E74BE00021201D00F040
:1034B0002BFE05463EE70098022100F0B7FE0546C8
:1034C00038E7D9F80000D4F8A01020F440300843C1
:1034D000C9F8000030E7386840F4003038603AE757
:1034E0000098012100F0A2FE054634E7DAF800005A
:1034F000D4F8841020F440100843CAF800002EE7E6
:10350000386840F40030386032E70221201D00F0B6
:10351000FBFD05462CE70C480168E26C21F4803184
:103520001143016026E7386840F4003038603DE719
:10353000DAF80000E16F20F440700843CAF8000098
:1035400036E700207EE700004C4402582DE9F05F8A
:1035500004460D46002C17D0DFF83882D8F800005A
:1035600000F00F00A84211D2D8F8000020F00F00A0
:103570002843C8F80000D8F8000000F00F00A84267
:1035800004D00120BDE8F09F0120FBE72078824EA7
:1035900040070AD52069316801F07001884204D9DA
:1035A000316821F070010143316020787B4F0007C2
:1035B0000AD56069396801F07001884204D9396818
:1035C00021F07001014339602078C0060AD5A06956
:1035D000396801F4E061884204D9396821F4E06176
:1035E000014339602078DFF8B89180060DD5E06995
:1035F000D9F8001001F07001884206D9D9F80010FE
:1036000021F070010143C9F80010207880070AD525
:10361000E068316801F00F01884204D9316821F077
:103620000F01014331602078C00743D03068A168A2
:1036300020F47060084330605749606818390228E8
:1036400008D003280BD001280ED00968490710D4F0
:10365000012097E7096889030BD4012092E70968E4
:10366000890106D401208DE70968C90501D401202C
:1036700088E7DFF824A1AAF1080ADAF8001021F09F
:1036800007010143CAF80010FEF724FE834609E053
:10369000FEF720FEA0EB0B0141F28830814201D9F8
:1036A00003206FE7DAF80000616800F03800B0EB43
:1036B000C10FEDD1207880070AD5E068316801F0AC
:1036C0000F01884204D2316821F00F0101433160BB
:1036D000D8F8000000F00F00A8420ED9D8F800007A
:1036E00020F00F002843C8F80000D8F8000000F0D0
:1036F0000F00A84201D0012044E7207840070AD5F6
:103700002069316801F07001884204D2316821F0EB
:10371000700101433160207800070AD5606939687B
:1037200001F07001884204D2396821F07001014330
:1037300039602078C0060AD5A069396801F4E061D3
:10374000884204D2396821F4E0610143396020786D
:1037500080060DD5E069D9F8001001F070018842AB
:1037600006D2D9F8001021F070010143C9F8001009
:1037700000F058F831680B4AC1F30321515C01F0A5
:103780001F01C8400849086008480068BDE8F05FAC
:10379000FEF7AEBD00200052184402581C440258E7
:1037A00020440258E0650008000000240C000024BA
:1037B00010B5FEF705FE06490968064A01F00F013B
:1037C000515C01F01F01C8400349086010BD0000B2
:1037D00018440258E06500080400002410B5FFF703
:1037E000E7FF05490968054AC1F30211515C01F080
:1037F0001F01C84010BD00001C440258E0650008CD
:1038000010B5FFF7D5FF05490968054AC1F3022144
:10381000515C01F01F01C84010BD00001C4402585B
:10382000E065000830B564480068654C10F0380168
:10383000624808D0021108290DD010290DD018298E
:103840000DD0104630BD21688906FBD52168C1F333
:10385000C101C84030BD104630BD5A4830BD564940
:1038600018310A6802F003020968C1F30511524BCE
:103870001C331B6803F001034F4D24352D68C5F33D
:10388000CC0515FB03F300EE103AB8EE400A002910
:1038900077D0DFED4D0A484BB7EE001A20333AB32C
:1038A0009FED4A2A012A58D0022A6CD001EE901AC4
:1038B0001868F8EE611AC2EE212AC0F3080001EE82
:1038C000900AF8EE611A40EE201A31EE810A22EEDB
:1038D000800A1868C0F34620401C00EE900AF8EEFB
:1038E000600A80EE201ABCEEC10A10EE100A30BD4C
:1038F000226892061BD52268C2F3C102D04001EEB5
:10390000900A1868F8EE612A01EE901AF8EE611A32
:1039100082EEA12AC0F3080001EE900AF8EE611AC7
:1039200040EE201A31EE810A22EE000AD1E701EEC4
:10393000901ADFED272A1868F8EE611A82EEA12AA4
:10394000C0F3080001EE900AF8EE611A40EE201A6A
:1039500031EE810A22EE000ABBE701EE901A1868E8
:10396000F8EE611AC2EE212AC0F3080001EE900AB7
:10397000F8EE611A40EE201A31EE810A22EE800A3A
:10398000A7E716E0FFE701EE901ADFED122A1868AC
:10399000F8EE611A82EEA12AC0F3080001EE900A47
:1039A000F8EE611A40EE201A31EE810A22EE000A8A
:1039B0008FE7002030BD0000104402580090D00373
:1039C0000044025840787D01000000390024744A08
:1039D0000024744C20BCBE4B2DE9F05F0446002C43
:1039E00010D02078DFF8EC83FB4FFC4DC0075DD092
:1039F000D8F8000000F03800396810281FD01828C7
:103A000003D006E00120BDE8F09F01F0030002288A
:103A100015D06068B0F5803F18D0E0B1B0F5A02FA8
:103A200022D0286820F480302860286820F4802084
:103A30002860606860B3FEF74DFC064624E0286805
:103A4000800333D5606810BB0120DCE7286840F4B0
:103A500080302860EDE7286820F4803028602868EE
:103A600020F480202860E4E7286840F48020286063
:103A7000286840F480302860DBE7FEF72BFC801BD1
:103A8000642801D90320BEE728688003F5D50DE03E
:103A9000FEF720FC064606E0FEF71CFC801B6428AF
:103AA00001D90320AFE728688003F5D4207841F2DC
:103AB000030ACB4E800777D5D8F8000000F0380015
:103AC000396870B1182801D188070AD0E06880B33E
:103AD000296821F0190101432960FEF7FBFB8146AB
:103AE00038E02868400701D5E06848B12868E168F7
:103AF00020F0190008432860FEF7ECFB814609E03E
:103B0000012080E7FEF7E6FBA0EB0900022801D9BF
:103B1000032078E728684007F4D5FEF7D5FB504529
:103B200008D83068216920F47C3040EA01303060E8
:103B30003AE026E03068217C20F0FE4040EA016057
:103B4000306031E0FEF7C6FBA0EB0900022801D986
:103B5000032058E728684007F4D5FEF7B5FB504529
:103B600007D83068216920F47C3040EA01303060A9
:103B70001AE03068217C20F0FE4040EA01603060AD
:103B800012E0286820F001002860FEF7A3FB8146C0
:103B900007E0FEF79FFBA0EB0900022801D90320F4
:103BA00031E728684007F4D42078C00670D5D8F8EB
:103BB000000000F038003968DFF818B20828ABF1CF
:103BC000040B0FD0182803D101F00300012809D0FD
:103BD000E06978B3286840F080002860FEF77AFB3F
:103BE000814628E02868C00504D5E069802801D016
:103BF000012008E7FEF768FB504508D8306894F8C4
:103C0000201020F0F84040EA8160306040E0DBF8AE
:103C1000000094F8201020F07C5040EA0160CBF8BE
:103C2000000035E0FEF756FBA0EB0900022802D9A0
:103C30000320E8E61AE02868C005F3D5FEF744FB48
:103C4000504508D8306894F8201020F0F84040EA39
:103C5000816030601CE0DBF8000094F8201020F058
:103C60007C5040EA0160CBF8000011E0286820F0A9
:103C700080002860FEF72EFB064606E0FEF72AFBD2
:103C8000801B022801D90320BDE62868C005F5D4B1
:103C9000207800072AD5504E60694C3698B13068BC
:103CA00040F001003060FEF715FB814607E0FEF7AB
:103CB00011FBA0EB0900022801D90320A3E630681C
:103CC0008007F4D512E0306820F001003060FEF784
:103CD00001FB814607E0FEF7FDFAA0EB0900022890
:103CE00001D903208FE630688007F4D4207880065D
:103CF00026D5A06990B1286840F480502860FEF76E
:103D0000E9FA064606E0FEF7E5FA801B022801D92B
:103D1000032078E628688004F5D511E0286820F4AF
:103D200080502860FEF7D6FA064606E0FEF7D2FA83
:103D3000801B022801D9032065E628688004F5D499
:103D40002078400778D5274E306840F48070306086
:103D5000FEF7C0FA814607E0FEF7BCFAA0EB0900C7
:103D6000642801D903204EE63068C005F4D5DFF899
:103D70006890A06809F14809012816D0E0B105282B
:103D800032D0D9F8000020F00100C9F80000D9F8BD
:103D9000000020F00400C9F80000A06841F2883A51
:103DA000B8B1FEF797FA064632E0D9F8000040F0C5
:103DB0000100C9F80000F0E7D9F8000020F0010088
:103DC000C9F80000D9F8000020F00400C9F800008C
:103DD000E3E722E010440258284402580044025805
:103DE0000444025800480258D9F8000040F004008A
:103DF000C9F80000D9F8000040F00100C9F800003F
:103E0000CBE7FEF767FA801B504501D90320FAE59E
:103E1000D9F800008007F4D50EE0FEF75BFA0646FD
:103E200006E0FEF757FA801B504501D90320EAE56A
:103E3000D9F800008007F4D4606AE8B3D8F800101D
:103E4000C1F3C201032975D0022807D0286820F0E9
:103E500080702860FEF73EFA04467EE0286820F075
:103E600080702860FEF736FA064606E0FEF732FA62
:103E7000801B022801D90320C5E528688001F5D4FC
:103E8000386840F2F3318843E16A40EA0110A16AE0
:103E900008433860208E4FF6FF72616B401E491E4A
:103EA000C0F3080002EA41210843218F4FF4FE02CB
:103EB000491E02EA014100E052E0084394F83C1038
:103EC000491E120202EA0161084327490860081FDF
:103ED000016821F0010101602349091D0A684FF6BC
:103EE000F8739A43A36C42EAC3020A600168226C29
:103EF00021F00C01114301600168626C21F00201A4
:103F000011430160016841F480310160016841F4AE
:103F100000310160016841F480210160016841F0D5
:103F200001010160286840F080702860FEF7D2F936
:103F3000044607E016E0FEF7CDF9001B022801D980
:103F4000032060E528688001F5D509E0FEF7C2F995
:103F5000001B022801D9032055E528688001F5D40B
:103F6000002050E501204EE530440258704710B55E
:103F7000FFF7FCFF10BD10B50446002C03D0D4F8A9
:103F8000800010B107E0012010BD002084F87C0003
:103F9000204600F028F82420C4F88000206801683A
:103FA00021F001010160204600F0FCFA012818D040
:103FB000A06A10B1204600F061FA2068416821F43F
:103FC000904141602068816821F02A018160206869
:103FD000016841F0010101602046BDE8104000F099
:103FE000B1BA012010BD70472DE9F84304460E46D2
:103FF00015461F46D4F88000202802D00220BDE8D4
:10400000F883D6B1CDB194F87C00012817D00120F7
:1040100084F87C004FF00008C4F888802120C4F8A0
:104020008000FEF757F98146A4F85450A4F8565082
:10403000A068B0F5805F04D005E00120DFE7022032
:10404000DDE7206910B13546002615E0002513E0B4
:1040500000224B4680212046009701F043FD08B125
:104060000320CCE7B5B1216815F8010B8862B4F8DC
:104070005600401EA4F85600B4F856000028E7D1B8
:1040800000224B4640212046009701F02BFD40B115
:104090000320B4E7216836F8020BC0F308008862F9
:1040A000E5E72020C4F8800084F87C800020A6E7A3
:1040B000FEE78068C0F3C00070478068C0F300006E
:1040C00070478068C0F3800070478068C0F380004C
:1040D0007047C06810F4406F01D000207047012085
:1040E000704710B501F0007300EBD350436907240B
:1040F000C1F304518C408A40A3431343436110BD74
:10410000FEE77047704700002DE9F04704468846F7
:104110000027DFF81491D9F80000C043800709D0C8
:10412000414D283D286820F080602860FEF7D2F8D5
:10413000064609E00120BDE8F087FEF7CBF8801BBA
:10414000022801D90320F6E728680001F5D4D9F840
:104150000000216820F47C3040EA0130C9F80000FA
:10416000A0884FF6FF72A168401E491EC0F30800E8
:1041700002EA41210843A1894FF4FE02491E02EAE6
:1041800001410843217C1202491E02EA01610843F1
:104190002549103108602448001D0168626921F03A
:1041A000C001114301600168A26921F0200111439F
:1041B0000160016821F0100101601B4914310A6897
:1041C0004FF6F8739A43E36942EAC3020A60016852
:1041D00041F010010160B8F1000F0ED0B8F1010FED
:1041E00010D0016841F400110160286840F080603F
:1041F0002860FEF76FF8044610E0016841F40021E2
:104200000160F2E7016841F480110160EDE7FEF71B
:1042100061F8001B022801D903208CE728680001FF
:10422000F5D5384687E70000284402582DE9F047C5
:10423000044688460027DFF81491D9F80000C043EF
:10424000800709D0414D283D286820F08050286023
:10425000FEF740F8064609E00120BDE8F087FEF7CA
:1042600039F8801B022801D90320F6E7286880006E
:10427000F5D4D9F80000218820F07C7040EA015084
:10428000C9F80000A0884FF6FF72A168401E491EC1
:10429000C0F3080002EA41210843A1894FF4FE025D
:1042A000491E02EA01410843217C1202491E02EA2A
:1042B000016108432549183108602448001D016840
:1042C000626921F44061114301600168A26921F42F
:1042D000007111430160016821F4807101601B4984
:1042E0001C310A684FF6F8739A43E36942EAC30245
:1042F0000A60016841F480710160B8F1000F0ED0CE
:10430000B8F1010F10D0016841F080710160286898
:1043100040F080502860FDF7DDFF044610E00168A2
:1043200041F480010160F2E7016841F4000101609D
:10433000EDE7FDF7CFFF001B022801D903208CE732
:1043400028688000F5D5384687E7000028440258E1
:104350007047FFF70CBE000030B59DB04C210AA895
:10436000FCF702F8202102A8FBF7FEFF0220FDF770
:10437000FFFF00241E48016841F4404101600168CC
:104380001C490A6842F001020A60096801F0010153
:10439000019101688904FCD501200A9000040B906A
:1043A00002201390149005211591C02116911790A9
:1043B0001890199008251A951B941C940AA8FFF7C9
:1043C0000BFB00B1FEE73F20029003200390049412
:1043D000059540200690079001010891099004215D
:1043E00002A8FFF7B3F8002800D0FEE71DB030BDEB
:1043F000184802582C0400581C48016841F4700108
:1044000001601B49086840F001000860184A00205C
:10441000103210600A68174B1A400A60144A1832AA
:104420001060121D1060121D1060114A28321060B9
:10443000121D1060121D1060121D1060121D106000
:10444000121D1060121D1060121D10600A6822F407
:1044500080220A6006496031086001200649086030
:10446000C0060249803908607047000088ED00E00E
:10447000004402587FEDF6EA0881005190F82810B8
:10448000C90706D001684A68C36A22F400321A4399
:104490004A6090F82810890706D501684A68036BBE
:1044A00022F480321A434A6090F82810490706D552
:1044B00001684A68436B22F480221A434A6090F8EC
:1044C0002810090706D501684A68836B22F4004268
:1044D0001A434A6090F82810C90606D501688A6810
:1044E000C36B22F480521A438A6090F82810890620
:1044F00006D501688A68036C22F400521A438A6068
:1045000090F82810490611D501684A68436C22F4D6
:1045100080121A434A60416CB1F5801F06D10168D0
:104520004A68836C22F4C0021A434A6090F828104B
:10453000090606D501684A68C06C22F400220243CD
:104540004A607047F8B504460026C4F88860FDF755
:10455000C1FE0746206800686FF07E4500070AD557
:1045600000223B464FF400112046009501F0BAFAB4
:1045700008B10320F8BD2068006840070AD5002272
:104580003B464FF480012046009501F0ABFA08B19C
:104590000320F8BD20207C346060A06026700020DD
:1045A000F8BD00002DE9F04F87B004464FF0000839
:1045B00000250020F74B21682669A268E76932438D
:1045C00066693E433243666E16430A68F24F3A40CC
:1045D00032430A6021684A68E66822F44052324356
:1045E0004A60A16922689A4201D0266A31439668DE
:1045F000EA4F3E400E4396602168CA6A666A22F01E
:104600000F023243CA62E64E2168E64AB14224D123
:10461000126802F03802182A16D005DC5AB1082AAE
:104620000CD0102A04D10CE0202A10D0282A11D056
:104630004FF0800B2AE14FF0010B27E14FF0040B04
:1046400024E14FF0080B21E14FF0100B1EE14FF079
:10465000200B1BE14FF0400B18E1D34EB1421ED1AD
:10466000126802F00702062A16D2DFE802F00306FB
:10467000090C0F124FF0000B08E14FF0040B05E19D
:104680004FF0080B02E14FF0100BFFE04FF0200B52
:10469000FCE04FF0400BF9E04FF0800BF6E0C34E2A
:1046A000B1421ED1126802F00702062A16D2DFE8D4
:1046B00002F00306090C0F124FF0000BE6E04FF07A
:1046C000040BE3E04FF0080BE0E04FF0100BDDE0EF
:1046D0004FF0200BDAE04FF0400BD7E04FF0800BAB
:1046E000D4E0B34EB1421ED1126802F00702062A8E
:1046F00016D2DFE802F00306090C0F124FF0000B90
:10470000C4E04FF0040BC1E04FF0080BBEE04FF0E7
:10471000100BBBE04FF0200BB8E04FF0400BB5E0C2
:104720004FF0800BB2E0A34EB1421ED1126802F0EE
:104730000702062A16D2DFE802F00306090C0F1260
:104740004FF0000BA2E04FF0040B9FE04FF0080B7E
:104750009CE04FF0100B99E04FF0200B96E04FF0EB
:10476000400B93E04FF0800B90E0934EB14224D188
:10477000126802F03802182A16D005DC5AB1082A4D
:104780000CD0102A04D10CE0202A10D0282A11D0F5
:104790004FF0800B7AE04FF0010B77E04FF0040B05
:1047A00074E04FF0080B71E04FF0100B6EE04FF02B
:1047B000200B6BE04FF0400B68E0804EB1421ED101
:1047C000126802F00702062A16D2DFE802F003069A
:1047D000090C0F124FF0000B58E04FF0040B55E09E
:1047E0004FF0080B52E04FF0100B4FE04FF0200B52
:1047F0004CE04FF0400B49E04FF0800B46E0704E2C
:10480000B1421ED1126802F00702062A16D2DFE872
:1048100002F00306090C0F124FF0000B36E04FF0C8
:10482000040B33E04FF0080B30E04FF0100B2DE09D
:104830004FF0200B2AE04FF0400B27E04FF0800BA9
:1048400024E0994220D1574A121D126802F0070253
:10485000062A16D2DFE802F00306090C0F124FF009
:10486000020B13E04FF0040B10E04FF0080B0DE0CB
:104870004FF0100B0AE04FF0200B07E04FF0400B19
:1048800004E04FF0800B01E04FF0800BDFF834A123
:10489000002799424FF4807977D1BBF1100F75D082
:1048A00009DCBBF1020F19D0BBF1040F4DD0BBF1F5
:1048B000080F06D1A1E0BBF1200F68D0BBF1400F7B
:1048C00066D00125002808D0666806EB46018142C3
:1048D00002D8B0EB063F77D90125EEE3FDF786FD60
:1048E0000146606AC8B1012819D0022819D00328EE
:1048F00019D0042819D0052819D0062819D007285E
:1049000019D0082819D0092819D00A2819D00B283D
:1049100019D00120B1FBF0F0D4E70120FAE7022022
:10492000F8E70420F6E70620F4E70820F2E70A207B
:10493000F0E70C20EEE71020ECE72020EAE740202B
:10494000E8E78020E6E74846E4E704A8FDF740FEF4
:104950000599606AE8B1012839D0022839D00328C6
:1049600039D0042839D0052839D0062839D007286D
:1049700039D0082839D0092839D00A2839D00B284D
:1049800039D00120B1FBF0F09CE7AEE36DE0DDE053
:1049900011E11AE0000C0058F369FFCFFFF4FF119A
:1049A00000100140544402580044004000480040B8
:1049B000004C0040005000400014014000780040CE
:1049C000007C00400090D0032BE10120DAE70220B8
:1049D000D8E70420D6E70620D4E70820D2E70A204B
:1049E000D0E70C20CEE71020CCE72020CAE74020FB
:1049F000C8E78020C6E74846C4E701A8FDF7C8FE1F
:104A00000299606AC8B1012819D0022819D0032878
:104A100019D0042819D0052819D0062819D007283C
:104A200019D0082819D0092819D00A2819D00B281C
:104A300019D00120B1FBF0F044E70120FAE7022091
:104A4000F8E70420F6E70620F4E70820F2E70A205A
:104A5000F0E70C20EEE71020ECE72020EAE740200A
:104A6000E8E78020E6E74846E4E7F748016889067A
:104A700038D50068C0F3C1002AFA00F1606AC8B1F5
:104A8000012819D0022819D0032819D0042819D0D8
:104A9000052819D0062819D0072819D0082819D0B8
:104AA000092819D00A2819D00B2819D00120B1FBE8
:104AB000F0F007E70120FAE70220F8E70420F6E724
:104AC0000620F4E70820F2E70A20F0E70C20EEE7E2
:104AD0001020ECE72020EAE74020E8E78020E6E726
:104AE0004846E4E7606AC8B1012819D0022819D005
:104AF000032819D0042819D0052819D0062819D060
:104B0000072819D0082819D0092819D00A2819D03F
:104B10000B2819D00120BAFBF0F0D3E60120FAE708
:104B20000220F8E70420F6E70620F4E70820F2E781
:104B30000A20F0E70C20EEE71020ECE72020EAE75F
:104B40004020E8E78020E6E74846E4E7606AD0B125
:104B500001281AD002281AD003281AD004281AD003
:104B600005281AD006281AD007281AD008281AD0E3
:104B700009281AD00A281AD00B281AD00120B349C4
:104B8000B1FBF0F09EE60120F9E70220F7E70420F0
:104B9000F5E70620F3E70820F1E70A20EFE70C200D
:104BA000EDE71020EBE72020E9E74020E7E7802051
:104BB000E5E74846E3E7606AD8B101281BD0022840
:104BC0001BD003281BD004281BD005281BD0062887
:104BD0001BD007281BD008281BD009281BD00A2867
:104BE0001BD00B281BD001204FF40041B1FBF0F08B
:104BF00068E60120F8E70220F6E70420F4E7062043
:104C0000F2E70820F0E70A20EEE70C20ECE710209E
:104C1000EAE72020E8E74020E6E78020E4E748468E
:104C2000E2E7BBF1100F7DD009DCBBF1020F16D01B
:104C3000BBF1040F64D0BBF1080F06D1B8E0BBF1A3
:104C4000200F70D0BBF1400F6ED001258049A8F530
:104C50004070884269D82068C0F80C802DE2FDF7CA
:104C6000C5FB0146606A50B301282BD002282CD026
:104C700003282DD004282ED005282FD0062830D088
:104C8000072831D0082832D0092833D00A2834D058
:104C90000B2801D04FF00109084600234A46194667
:104CA000FBF718FB62680902030241EA1061500831
:104CB000181879410023FBF70DFB8046C6E74FF03B
:104CC0000109E9E74FF00209E6E74FF00409E3E7DD
:104CD0004FF00609E0E74FF00809DDE74FF00A0959
:104CE000DAE74FF00C09D7E74FF01009D4E74FF09F
:104CF0002009D1E74FF04009CEE74FF08009CBE71C
:104D000004A8FDF765FC0599606A78B3012831D0E5
:104D1000022832D0032833D0042834D0052835D0D7
:104D2000062803E09CE040E18DE1DCE131D007287A
:104D300032D0082833D0092834D00A2835D00B289F
:104D400001D04FF00109084600234A461946FBF7F7
:104D5000C1FA62680902030241EA1061500818189A
:104D600079410023FBF7B6FA80466FE7FFE74FF083
:104D70000109E8E74FF00209E5E74FF00409E2E72F
:104D80004FF00609DFE74FF00809DCE74FF00A09AA
:104D9000D9E74FF00C09D6E74FF01009D3E74FF0F1
:104DA0002009D0E74FF04009CDE74FF08009CAE76E
:104DB00001A8FDF7EDFC0299606A50B301282BD0E1
:104DC00002282CD003282DD004282ED005282FD03F
:104DD000062830D0072831D0082832D0092839D009
:104DE0000A283AD00B2801D04FF0010908460023C9
:104DF0004A461946FBF76EFA62680902030241EA65
:104E000010615008181879410023FBF763FA8046B7
:104E10001CE74FF00109E9E74FF00209E6E74FF020
:104E20000409E3E74FF00609E0E74FF00809DDE782
:104E30004FF00A09DAE74FF00C09D7E74FF01009F5
:104E4000D4E74FF02009D1E70044025800093D00A3
:104E5000FFFC0F004FF04009C8E74FF08009C5E79D
:104E6000F7480168890652D50068C0F3C1002AFAE4
:104E700000FA606A50B301282BD002282CD00328F6
:104E80002DD004282ED005282FD0062830D0072872
:104E900031D0082832D0092833D00A2834D00B2842
:104EA00001D04FF00109504600234A461946FBF74E
:104EB00011FA0902020241EA106170081018324624
:104EC00079410023FBF706FA8046BFE64FF001095F
:104ED000E9E74FF00209E6E74FF00409E3E74FF096
:104EE0000609E0E74FF00809DDE74FF00A09DAE7C5
:104EF0004FF00C09D7E74FF01009D4E74FF0200925
:104F0000D1E74FF04009CEE74FF08009CBE7606A68
:104F100050B301282BD002282CD003282DD00428F0
:104F20002ED005282FD0062830D0072831D00828C9
:104F300032D0092833D00A2834D00B2801D04FF0C2
:104F40000109504600234A461946FBF7C3F90902F6
:104F5000020241EA106170081018324679410023BC
:104F6000FBF7B8F9804671E64FF00109E9E74FF029
:104F70000209E6E74FF00409E3E74FF00609E0E72E
:104F80004FF00809DDE74FF00A09DAE74FF00C09A6
:104F9000D7E74FF01009D4E74FF02009D1E74FF0E1
:104FA0004009CEE74FF08009CBE7606A50B3012893
:104FB0002BD002282CD003282DD004282ED0052851
:104FC0002FD0062830D0072831D0082832D0092821
:104FD00033D00A2834D00B2801D04FF0010999486A
:104FE00000234A461946FBF775F90902020241EA15
:104FF000106170081018324679410023FBF76AF9F6
:10500000804623E64FF00109E9E74FF00209E6E7A1
:105010004FF00409E3E74FF00609E0E74FF0080915
:10502000DDE74FF00A09DAE74FF00C09D7E74FF058
:105030001009D4E74FF02009D1E74FF04009CEE73F
:105040004FF08009CBE7606A58B301282CD00228C2
:105050002DD003282ED0042830D0052831D00628A2
:1050600032D0072833D0082834D0092835D00A2870
:1050700036D00B2801D04FF0010900234A464FF4E7
:1050800000401946FBF726F90902020241EA1061C5
:1050900070081018324679410023FBF71BF980464F
:1050A000D4E54FF00109E8E74FF00209E5E74FF0DA
:1050B0000409E2E74FF00609DFE797E24FF008093D
:1050C000DBE74FF00A09D8E74FF00C09D5E74FF0BE
:1050D0001009D2E74FF02009CFE74FF04009CCE7A5
:1050E0004FF08009C9E7012580E2E0694FF40041F3
:1050F0004FF6EF7688426ED1BBF1080F6CD009DC19
:10510000BBF1000F1ED0BBF1010F66D0BBF1040F45
:1051100009D1B4E0BBF1100F7DD0BBF1200F7BD0E3
:10512000BBF1400F79D00125A8F11000B04275D82D
:105130004FF6F07108EA0100C8F342010843216804
:10514000C86053E2FEF74AFB0146606A10B30128CB
:1051500023D0022824D0032825D0042826D00528CF
:1051600027D0062828D0072829D008282AD009289F
:105170002BD00A282CD00B2801D04FF00109B1FB0D
:10518000F9F04100606801EB5001B1FBF0F01FFA4B
:1051900080F8C9E74FF00109F1E74FF00209EEE7A7
:1051A0004FF00409EBE74FF00609E8E74FF0080974
:1051B000E5E74FF00A09E2E74FF00C09DFE74FF0AF
:1051C0001009DCE74FF02009D9E74FF04009D6E796
:1051D0004FF08009D3E70AE29BE0FEF711FB01469E
:1051E000606A38B3012828D002282DD003282ED099
:1051F00004282FD0052830D0062831D0072832D0F7
:10520000082833D0092834D00A2835D00B2801D0FB
:105210004FF0010903E0C6E05AE1A0E1E5E1B1FB8E
:10522000F9F04100606801EB5001B1FBF0F01FFAAA
:1052300080F879E74FF00109ECE74FF00209E9E760
:105240000044025800093D004FF00409E2E74FF026
:105250000609DFE74FF00809DCE74FF00A09D9E754
:105260004FF00C09D6E74FF01009D3E74FF02009B3
:10527000D0E74FF04009CDE74FF08009CAE704A816
:10528000FDF7A6F90599606A10B3012823D002281A
:1052900024D0032825D0042826D0052827D0062886
:1052A00028D0072829D008282AD009282BD00A2856
:1052B0002CD00B2801D04FF00109B1FBF9F04100CF
:1052C000606801EB5001B1FBF0F01FFA80F82BE7AA
:1052D0004FF00109F1E74FF00209EEE74FF0040942
:1052E000EBE74FF00609E8E74FF00809E5E74FF074
:1052F0000A09E2E74FF00C09DFE74FF01009DCE79D
:105300004FF02009D9E74FF04009D6E74FF0800968
:10531000D3E701A8FDF73CFA0299606A10B30128AF
:1053200023D0022824D0032825D0042826D00528FD
:1053300027D0062828D0072829D008282AD00928CD
:105340002BD00A282CD00B2801D04FF00109B1FB3B
:10535000F9F04100606801EB5001B1FBF0F01FFA79
:1053600080F8E1E64FF00109F1E74FF00209EEE7BE
:105370004FF00409EBE74FF00609E8E74FF00809A2
:10538000E5E74FF00A09E2E74FF00C09DFE74FF0DD
:105390001009DCE74FF02009D9E74FF04009D6E7C4
:1053A0004FF08009D3E7FE48016889064AD50068B6
:1053B000C0F3C1002AFA00FA606A10B3012823D0B2
:1053C000022824D0032825D0042826D0052827D059
:1053D000062828D0072829D008282AD009282BD029
:1053E0000A282CD00B2801D04FF00109BAFBF9F0A4
:1053F0004100606801EB5001B1FBF0F01FFA80F84A
:1054000092E64FF00109F1E74FF00209EEE74FF0A5
:105410000409EBE74FF00609E8E74FF00809E5E774
:105420004FF00A09E2E74FF00C09DFE74FF01009EF
:10543000DCE74FF02009D9E74FF04009D6E74FF0FD
:105440008009D3E7606A10B3012823D0022824D052
:10545000032825D0042826D0052827D0062828D0C0
:10546000072829D008282AD009282BD00A282CD090
:105470000B2801D04FF00109BAFBF9F04100606838
:1054800001EB5001B1FBF0F01FFA80F84CE64FF051
:105490000109F1E74FF00209EEE74FF00409EBE7ED
:1054A0004FF00609E8E74FF00809E5E74FF00A0971
:1054B000E2E74FF00C09DFE74FF01009DCE74FF0AF
:1054C0002009D9E74FF04009D6E74FF08009D3E72C
:1054D000606A18B3012824D0022825D0032826D0DA
:1054E000042827D0052828D0062829D007282AD024
:1054F00008282BD009282CD00A282DD00B2801D021
:105500004FF00109A748B0FBF9F04100606801EBDA
:105510005001B1FBF0F01FFA80F805E64FF00109E9
:10552000F0E74FF00209EDE74FF00409EAE74FF02A
:105530000609E7E74FF00809E4E74FF00A09E1E759
:105540004FF00C09DEE74FF01009DBE74FF02009C0
:10555000D8E74FF04009D5E74FF08009D2E7606AFD
:1055600010B3012823D0022824D0032825D00428F2
:1055700026D0052827D0062828D0072829D0082893
:105580002AD009282BD00A282CD00B2801D04FF084
:105590000109B1FBF9F04100606801EB5001B1FB7A
:1055A000F0F01FFA80F8BFE54FF00109F1E74FF086
:1055B0000209EEE74FF00409EBE74FF00609E8E7D0
:1055C0004FF00809E5E74FF00A09E2E74FF00C0950
:1055D000DFE74FF01009DCE74FF02009D9E74FF083
:1055E0004009D6E74FF08009D3E701256CE2BBF113
:1055F000080F7DD009DCBBF1000F18D0BBF1010F03
:105600005DD0BBF1040F09D1A7E0BBF1100F70D042
:10561000BBF1200F6ED0BBF1400F6CD00125A8F17B
:105620001000B04268D82068C0F80C804CE2FEF749
:10563000D5F80146606A08B3012822D0022823D099
:10564000032824D0042825D0052826D0062827D0D2
:10565000072828D0082829D009282AD00A282BD0A2
:105660000B2801D04FF001096068B1FBF9F101EBA3
:105670005001B1FBF0F01FFA80F8D0E74FF00109BC
:10568000F2E74FF00209EFE74FF00409ECE74FF0C3
:105690000609E9E74FF00809E6E74FF00A09E3E7F2
:1056A0004FF00C09E0E74FF01009DDE74FF020095B
:1056B000DAE74FF04009D7E74FF08009D4E7FEF76B
:1056C0009FF80146606A38B3012828D0022829D003
:1056D00003282AD004282BD005282CD006282DD02A
:1056E00007282ED008282FD0092830D00A2804E017
:1056F00082E0CAE05CE1A1E1E5E12BD00B2801D01A
:105700004FF001096068B1FBF9F101EB5001B1FB09
:10571000F0F01FFA80F882E74FF00109F2E74FF04E
:105720000209EFE74FF00409ECE74FF00609E9E75B
:105730004FF00809E6E74FF00A09E3E74FF00C09DC
:10574000E0E74FF01009DDE74FF02009DAE74FF00E
:105750004009D7E74FF08009D4E704A8FCF738FFE9
:105760000599606AD8B1012828D0022829D00328D9
:105770002AD004282BD005282CD006282DD0072885
:105780002ED008282FD0092830D00A2831D00B2855
:1057900001D04FF001096068B1FBF9F104E00AE0C3
:1057A0000044025800093D0001EB5001B1FBF0F04C
:1057B0001FFA80F833E74FF00109ECE74FF00209D8
:1057C000E9E74FF00409E6E74FF00609E3E74FF099
:1057D0000809E0E74FF00A09DDE74FF00C09DAE7C6
:1057E0004FF01009D7E74FF02009D4E74FF04009F8
:1057F000D1E74FF08009CEE701A8FCF7C9FF029975
:10580000606A08B3012822D0022823D0032824D0BC
:10581000042825D0052826D0062827D0072828D0F8
:10582000082829D009282AD00A282BD00B2801D0F3
:105830004FF001096068B1FBF9F101EB5001B1FBD8
:10584000F0F01FFA80F8EAE64FF00109F2E74FF0B6
:105850000209EFE74FF00409ECE74FF00609E9E72A
:105860004FF00809E6E74FF00A09E3E74FF00C09AB
:10587000E0E74FF01009DDE74FF02009DAE74FF0DD
:105880004009D7E74FF08009D4E7944801688906BA
:1058900049D50068C0F3C1002AFA00FA606A08B36B
:1058A000012822D0022823D0032824D0042825D080
:1058B000052826D0062827D0072828D0082829D050
:1058C00009282AD00A282BD00B2801D04FF0010933
:1058D0006068BAFBF9F101EB5001B1FBF0F01FFA7F
:1058E00080F89CE64FF00109F2E74FF00209EFE77C
:1058F0004FF00409ECE74FF00609E9E74FF008091B
:10590000E6E74FF00A09E3E74FF00C09E0E74FF054
:105910001009DDE74FF02009DAE74FF04009D7E73B
:105920004FF08009D4E7606A08B3012822D002282A
:1059300023D0032824D0042825D0052826D00628E3
:1059400027D0072828D0082829D009282AD00A28B3
:105950002BD00B2801D04FF001096068BAFBF9F198
:1059600001EB5001B1FBF0F01FFA80F857E64FF061
:105970000109F2E74FF00209EFE74FF00409ECE705
:105980004FF00609E9E74FF00809E6E74FF00A098A
:10599000E3E74FF00C09E0E74FF01009DDE74FF0C7
:1059A0002009DAE74FF04009D7E74FF08009D4E744
:1059B000606A10B3012823D0022824D0032825D000
:1059C000042826D0052827D0062828D0072829D043
:1059D00008282AD009282BD00A282CD00B2801D03F
:1059E0004FF001093E48B0FBF9F1606801EB50014E
:1059F000B1FBF0F01FFA80F811E64FF00109F1E772
:105A00004FF00209EEE74FF00409EBE74FF006090B
:105A1000E8E74FF00809E5E74FF00A09E2E74FF041
:105A20000C09DFE74FF01009DCE74FF02009D9E758
:105A30004FF04009D6E74FF08009D3E7606A08B31A
:105A4000012822D0022823D0032824D0042825D0DE
:105A5000052826D0062827D0072828D0082829D0AE
:105A600009282AD00A282BD00B2801D04FF0010991
:105A70006068B1FBF9F101EB5001B1FBF0F01FFAE6
:105A800080F8CCE54FF00109F2E74FF00209EFE7AB
:105A90004FF00409ECE74FF00609E9E74FF0080979
:105AA000E6E74FF00A09E3E74FF00C09E0E74FF0B3
:105AB0001009DDE74FF02009DAE74FF04009D7E79A
:105AC0004FF08009D4E701250120683460802080F0
:105AD0006760A76007B02846BDE8F08F0044025811
