:020000040800F2
:10000000181D0020B1020008FF2500085D2500082A
:10001000FD250008FF0300089D44000800000000C3
:10002000000000000000000000000000692C000833
:10003000C504000800000000012600086B2C000821
:10004000CB020008CB020008CB020008CB0200085C
:10005000CB020008CB020008CB020008CB0200084C
:10006000CB020008CB020008CB020008CB0200083C
:10007000CB020008CB020008CB020008CB0200082C
:10008000CB020008CB020008CB020008CB0200081C
:10009000CB020008CB020008CB020008CB0200080C
:1000A000CB020008CB020008CB020008CB020008FC
:1000B000CB020008CB020008CB020008CB020008EC
:1000C000CB020008CB020008CB020008CB020008DC
:1000D000CB020008CB020008CB020008CB020008CC
:1000E000CB020008CB02000800000000CB02000891
:1000F000CB020008CB020008CB020008CB020008AC
:10010000CB020008CB020008CB020008CB0200089B
:10011000CB020008CB020008CB020008CB0200088B
:10012000CB020008CB020008CB020008CB0200087B
:10013000CB020008CB020008CB020008CB0200086B
:1001400000000000000000000000000000000000AF
:10015000CB020008CB020008CB020008CB0200084B
:10016000CB020008CB020008CB020008CB0200083B
:10017000CB020008CB020008CB020008CB0200082B
:10018000CB020008CB020008CB020008CB0200081B
:10019000CB020008CB020008CB020008CB0200080B
:1001A000CB020008CB020008CB020008CB020008FB
:1001B000CB020008CB020008CB020008CB020008EB
:1001C000CB020008CB020008CB020008CB020008DB
:1001D000CB020008CB020008CB020008CB020008CB
:1001E000CB020008CB020008CB020008CB020008BB
:1001F000CB020008CB020008CB020008CB020008AB
:10020000CB020008CB020008CB020008CB0200089A
:10021000CB020008CB020008CB020008CB0200088A
:10022000CB020008CB020008CB020008000000004F
:10023000CB020008CB02000800000000CB0200083F
:10024000CB020008CB020008CB020008CB0200085A
:10025000CB020008CB020008CB020008CB0200084A
:10026000CB020008CB020008CB020008CB0200083A
:10027000CB020008CB020008CB02000800000000FF
:10028000CB020008CB020008CB02000800000000EF
:1002900000000000CB020008DFF810D000F08EF85C
:1002A00000480047D9470008AFF30080181D002020
:1002B0000648804706480047FEE7FEE7FEE7FEE700
:1002C000FEE7FEE7FEE7FEE7FEE7FEE7092D000892
:1002D000990200082DE9F05F0546002092469B46F2
:1002E00088460646814640241BE02846414647464C
:1002F000224600F053F853465A46C01A914110D393
:1003000011461846224600F03AF82D1A67EB01080C
:100310004F4622460120002100F031F817EB00097A
:100320004E41201EA4F10104DFDC484631462A4636
:100330004346BDE8F09F40EA01039B0703D009E074
:1003400008C9121F08C0042AFAD203E011F8013BC1
:1003500000F8013B521EF9D27047D2B201E000F81A
:10036000012B491EFBD270470022F6E710B5134659
:100370000A4604461946FFF7F0FF204610BD202A22
:1003800004DB203A00FA02F1002070479140C2F1EC
:10039000200320FA03F3194390407047202A04DB1E
:1003A000203A21FA02F00021704721FA02F3D040EE
:1003B000C2F120029140084319467047064C074D90
:1003C00006E0E06840F0010394E807009847103425
:1003D000AC42F6D3FFF764FF644900088449000883
:1003E00010B507E003780C78A34201D0002010BDBF
:1003F000401C491C521E92B2F4D2012010BDFEE7EF
:1004000070B5B6B02B48016841F001010160016888
:1004100001F001010191016841F0010101600068F2
:1004200000F001000190012402940025209502A80B
:1004300000F0B0FB1F481030016841F0100101606E
:10044000006800F0100001906002319002203290AC
:10045000339434900724359431A9174E304600F078
:1004600035F84FF480613191359431A9304600F070
:100470002DF8134C114820604FF4E1306060A56006
:10048000E56025610C206061A561E5612562A562DA
:10049000204601F0C6FF00222520114600F04AF94F
:1004A000252000F039F92068016841F02001016041
:1004B00036B070BDE0440258000002580010014000
:1004C00090000020704772B6FEE700002DE9F84F5B
:1004D00000226E4C4FF0B0494FF0010A4FF0030E6E
:1004E0004FF00F08CAE00AFA02F73B40002B70D029
:1004F0004D68022D01D0122D12D1D50800EB850CCC
:10050000DCF820605507ED0E08FA05FB26EA0B061D
:10051000D1F810B00BFA05FB4BEA060BCCF820B073
:10052000D0F800C055000EFA05F62CEA060C91F83A
:1005300004B00BF0030B0BFA05FB4BEA0C0BC0F8F5
:1005400000B0D1F804C0BCF1010F08D0BCF1020F1B
:1005500005D0BCF1110F02D0BCF1120F16D1D0F8AA
:1005600008C02CEA060CD1F80CB00BFA05FB4BEADC
:100570000C0BC0F808B0D0F804C02CEA070C0F79B7
:10058000C7F30017974047EA0C074760C768B743AF
:100590008E68AE403E43C6604D68ED006DD53C4D63
:1005A0002E6846F002062E602D6805F002050095C3
:1005B00022F0030606F1B046D6F808C495072F0FBF
:1005C00008FA07F52CEA050C324DA84202D10025A5
:1005D0002EE052E0304DA84201D1012528E02F4DF8
:1005E000A84201D1022523E02D4DA84201D10325C7
:1005F0001EE02C4DA84201D1042519E02A4DA84245
:1006000001D1052514E0294DA84201D106250FE0AE
:10061000274DA84201D107250AE0264DA84201D165
:10062000082505E0244DA84201D1092500E00A254E
:10063000BD4045EA0C05C6F8085425689D434E6840
:10064000F60300D51D43256065689D434E68B603DB
:1006500000D51D436560D9F800509D434E68F602F1
:1006600000D51D43C9F80050D9F804509D434E6889
:10067000B60200D51D43C9F80450521C0B6833FA6A
:1006800002F57FF430AFBDE8F88F0000800000581D
:10069000F4440258000002580004025800080258AE
:1006A000000C02580010025800140258001802589A
:1006B000001C02580020025800240258002A01D0D1
:1006C000816170470904816170470000014800683A
:1006D000000C70470010005C044840680449B0FBFF
:1006E000F1F04FF47A71484370470000001000E0C9
:1006F00000389C1C0648016841F080710160054883
:1007000000214160016841F0010101600020704753
:10071000FCED00E0001000E0002809DB012100F002
:100720001F0291404009800000F1E020C0F8001154
:1007300070470000F0B40D460D4B1B68C3F3022355
:10074000C3F10704042C00D90424191D072901D280
:10075000002300E0DB1E012606FA04F1491E2940B1
:1007600099409E40761E16403143F0BC03F0A8BE6F
:100770000CED00E070B512490A68520706D40A6809
:1007800002F00702824201D0012070BD0A6822F007
:10079000070202430A60FFF79FFF0446084D4FF42B
:1007A0007A76083D06E0FFF797FF001BB04201D9BB
:1007B000032070BD28688004F5D5002070BD0000BE
:1007C0000C48025810B500F0DFFF06490968064AD8
:1007D000C1F30321515C01F01F01C84003490860C7
:1007E00010BD0000184402585449000800000020C1
:1007F00010B500F08FFF05490968054AC1F30211E1
:10080000515C01F01F01C84010BD00002044025897
:100810005449000810B569490A6802F003020968E2
:10082000C1F30531654B1B1D1B6803F01003634CBE
:1008300014342468C4F3CC0414FB03F300EE103A20
:10084000B8EE400A002971D09FED5D1A5B4BF7EEC0
:10085000000A1033F2B39FED5B2A012A7FD0022AEF
:100860007CD001EE901A1968F8EE611AC2EE212AC6
:10087000C1F3080101EE901AF8EE611A40EE011A78
:1008800031EEA00A22EE800A1968C1F3462101EE7A
:10089000101AB8EE411A31EE201AC0EE011ABCEE61
:1008A000E11A80ED001A1968C1F3064101EE101A31
:1008B000B8EE411A31EE201AC0EE011ABCEEE11A70
:1008C00080ED011A1968C1F3066101EE101AB8EE45
:1008D000411A00E008E071EE200A80EE201ABCEE1A
:1008E000C10A80ED020A10BD344A283A1468A406F1
:1008F0001ED51268C2F3C104334AE24001EE902AC9
:10090000F8EE612A01EE901A1968F8EE611A82EE8B
:10091000A12AC1F3080101EE901AF8EE611A40EE27
:10092000011A31EEA00A22EE000AADE741E016E01E
:1009300001EE901ADFED252A1968F8EE611A82EEB1
:10094000A12AC1F3080101EE901AF8EE611A40EEF7
:10095000011A31EEA00A22EE000A95E713E001EE3B
:10096000901A1968F8EE611AC2EE212AC1F3080143
:1009700001EE901AF8EE611A40EE011A31EEA00A6B
:1009800022EE800A80E701EE901ADFED112A196845
:10099000F8EE611A82EEA12AC1F3080101EE901A65
:1009A000F8EE611A40EE011A31EEA00A22EE000ABA
:1009B0006AE7002101604160816010BD284402584F
:1009C000000000390024744A0090D0030024744CC5
:1009D00020BCBE4B10B569490A6802F003020968E1
:1009E000C1F30551654B1B1D1B6803F48073634CF9
:1009F0001C342468C4F3CC0414FB03F300EE103A57
:100A0000B8EE400A002971D09FED5D1A5B4BF7EEFE
:100A1000000A1833F2B39FED5B2A012A7FD0022A25
:100A20007CD001EE901A1968F8EE611AC2EE212A04
:100A3000C1F3080101EE901AF8EE611A40EE011AB6
:100A400031EEA00A22EE800A1968C1F3462101EEB8
:100A5000101AB8EE411A31EE201AC0EE011ABCEE9F
:100A6000E11A80ED001A1968C1F3064101EE101A6F
:100A7000B8EE411A31EE201AC0EE011ABCEEE11AAE
:100A800080ED011A1968C1F3066101EE101AB8EE83
:100A9000411A00E008E071EE200A80EE201ABCEE58
:100AA000C10A80ED020A10BD344A283A1468A4062F
:100AB0001ED51268C2F3C104334AE24001EE902A07
:100AC000F8EE612A01EE901A1968F8EE611A82EECA
:100AD000A12AC1F3080101EE901AF8EE611A40EE66
:100AE000011A31EEA00A22EE000AADE741E016E05D
:100AF00001EE901ADFED252A1968F8EE611A82EEF0
:100B0000A12AC1F3080101EE901AF8EE611A40EE35
:100B1000011A31EEA00A22EE000A95E713E001EE79
:100B2000901A1968F8EE611AC2EE212AC1F3080181
:100B300001EE901AF8EE611A40EE011A31EEA00AA9
:100B400022EE800A80E701EE901ADFED112A196883
:100B5000F8EE611A82EEA12AC1F3080101EE901AA3
:100B6000F8EE611A40EE011A31EEA00A22EE000AF8
:100B70006AE7002101604160816010BD284402588D
:100B8000000000390024744A0090D0030024744C03
:100B900020BCBE4B2DE9F84F044600250026FB4F34
:100BA0002068DFF8EC83010104F1240000900DD5EA
:100BB000606EB0B1B0F5801F18D0B0F5001F1BD02B
:100BC000B0F5401F00D00125E5B12E462088C005B4
:100BD00035D5606D05282FD2DFE800F01D22282FC3
:100BE0002F00386840F400303860EDE70221201D06
:100BF00001F008FD0546E7E70098022101F094FDA9
:100C00000546E1E7D8F80000616E20F44010084383
:100C1000C8F80000DAE7386840F4003038600CE0CB
:100C20000021201D01F0EEFC054606E000980021A1
:100C300001F07AFD054600E001255DB12E462088D1
:100C4000800518D5A06D802830D00CDC18B3402862
:100C50000ED125E0D8F80000616D20F007000843B0
:100C6000C8F80000EBE7C02803D0B0F5807F00D0C3
:100C700001250DB32E462088DFF8189340052DD5A9
:100C8000D4F8A400B0F5800F42D01EDCA0B3B0F5BC
:100C9000001F20D136E0386840F400303860E8E7C3
:100CA0000021201D01F0AEFC0546E2E7009800217E
:100CB00001F03AFD0546DCE7D8F80000A16D20F40C
:100CC000E0700843C8F80000D5E7B0F5C00F03D0C6
:100CD000B0F5000F00D0012505B32E462088000591
:100CE0002FD5D4F8A800B0F1007F52D020DCE8B3B3
:100CF000B0F1807F22D146E0FFE7386840F4003051
:100D00003860E9E70021201D01F07CFC0546E3E79F
:100D10000098002101F008FD0546DDE7D9F8000044
:100D2000D4F8A41020F460000843C9F80000D5E707
:100D3000B0F1407F03D0B0F1806F00D0012575B3D2
:100D40002E46206880010AD5A06C30B1102831D021
:100D5000202835D0302800D0012585B32E462088A4
:100D6000C00446D5E06DB0F5005F00E006E05BD062
:100D700036DCA0B3B0F5805F38D14FE0386840F47E
:100D800000303860DBE70021201D01F03BFC054608
:100D9000D5E70098002101F0C7FC0546CFE7FFE743
:100DA000D9F80000D4F8A81020F0E0600843C9F892
:100DB0000000C6E7386840F400303860CDE705E051
:100DC0000221201D01F01EFC0546C6E77048001FE9
:100DD0000168A26C21F0300111430160BFE718E007
:100DE000B0F5405F03D0B0F5804F00D001250DB3C2
:100DF0002E46208880042FD5206EB0F5403F29D0A4
:100E000021DC38B3B0F5803F37D0B0F5003F20D1BA
:100E100039E0386840F400303860E8E70021201DF0
:100E200001F0F0FB0546E2E70098002101F07CFCB0
:100E30000546DCE7D8F80000E16D20F4E040084307
:100E4000C8F80000D5E7B0F5802F03D0B0F5A02F8B
:100E500000D00125EDB12E46208840042BD5D4F8D2
:100E6000AC00B0F1405F24D01CDC10B3B0F1805F67
:100E70004BD0B0F1005F1BD14EE00121201D01F0ED
:100E8000C1FB0546E6E70098012101F04DFC05464F
:100E9000E0E7D8F80000216E20F4E0200843C8F80D
:100EA0000000D9E7B0F1804F03D0B0F1A04F00D0DF
:100EB000012585B32E46208800040AD5E06E30B1A6
:100EC000B0F1805F39D0B0F1005F3BD001259DB318
:100ED0002E462068C0010AD5606C30B1012841D08F
:100EE000022844D0032800D001258DB32E46206867
:100EF000DFF8A4B0400261D52848016841F4807150
:100F00000160FFF7E9FB824652E00121201D01F05C
:100F100079FB0546CDE705E00098012101F004FCCE
:100F20000546C6E7D9F80000D4F8AC1020F0E04040
:100F30000843C9F80000BEE70BE0386840F4003011
:100F40003860C4E70121201D01F05CFB0546BEE7C7
:100F500013E0D8F80000E16E20F040500843C8F8D4
:100F60000000B6E7386840F400303860BDE7022181
:100F7000201D01F047FB0546B7E70548001F016843
:100F8000626C21F0030111430160B0E72C44025868
:100F9000504402585844025810440258004802581D
:100FA000FFF79AFBA0EB0A00642801D9032503E0B0
:100FB000FE480068C005F3D57DB12E462078DFF8E5
:100FC000F0A3C00766D0A06F182861D05BDC80B3A7
:100FD00008286AD010285AD16DE0F5481C30006806
:100FE00000F44071B4F8B00000F4407081420DD0BC
:100FF000EF481C30016821F44071026842F48032ED
:101000000260026822F4803202600160D4F8B0000D
:10101000B0F5807F13D1FFF75FFB82460AE0FFF750
:101020005BFBA0EB0A0141F28830814202D9032523
:1010300005E02DE0DE481C3000688007EFD50DB1DB
:101040002E46BBE7D4F8B000C0F3012103290FD02E
:10105000DBF8000020F47C50CBF80000D4481C30B2
:101060000168B4F8B020C2F30B0211430160A5E798
:10107000DBF80010CF4A21F47C51104041EA1010F7
:10108000CBF80000EAE7202802D0282800D001256C
:10109000BDB12E46207880072BD5606F062825D25B
:1010A000DFE800F025181E2525250121201D01F06F
:1010B000A9FA0546ECE70098012101F035FB054649
:1010C000E6E7DAF80000A16F20F038000843CAF81C
:1010D0000000DFE70121201D01F094FA054606E03B
:1010E0000098012101F020FB054600E0012565B1D3
:1010F0002E462078400720D5D4F89000062819D233
:10110000DFE800F0190C12191919DAF80000616F04
:1011100020F007000843CAF80000EAE70121201D7B
:1011200001F070FA054606E00098012101F0FCFA92
:10113000054600E001258DB12E462078800620D599
:10114000D4F88C00B0F1405F19D011DCB8B1B0F127
:10115000805F27D0B0F1005F10D129E0D9F80000FE
:10116000D4F8901020F007000843C9F80000E4E725
:10117000B0F1804F03D0B0F1A04F00D00125EDB108
:101180002E46207840062CD5D4F89800B0F5406F54
:1011900025D01DDC18B3B0F5806F33D0B0F5006FEB
:1011A0001CD135E00021201D01F02CFA0546E6E7B0
:1011B0000098022101F0B8FA0546E0E7DAF80000ED
:1011C000D4F88C1020F0E0400843CAF80000D8E7BB
:1011D000B0F5805F03D0B0F5A05F00D00125EDB180
:1011E0002E46207800062CD5D4F89C00B0F5C04FD0
:1011F00025D01DDC18B3B0F5005F7CD0B0F5804F72
:101200001CD1E0E00021201D01F0FCF90546E6E7D5
:101210000098022101F088FA0546E0E7D9F80000BD
:10122000D4F8981020F4E0500843C9F80000D8E73B
:10123000B0F5004F03D0B0F5204F00D00125EDB33D
:101240002E46207800070BD5D4F88000B0F5805FDB
:1012500075D0DAF8001021F440510143CAF80010AB
:101260002078C0060BD5D4F89400B0F5807F68D004
:10127000D9F8001021F440710143C9F8001020682A
:1012800000030BD5D4F8A000B0B3B0F5803F7DD0FB
:10129000B0F5003F00D001257DB32E462068400305
:1012A0000FD5D4F88400B0F5801F71D0B0F5001FC1
:1012B0006FD0B0F5401F00D0012500E089E0E5B314
:1012C0002E462068C00307D5E06CB8B3B0F5803F68
:1012D00072D00125A5B32E462068800005D5009860
:1012E000022101F021FA00B101262068800311D506
:1012F000E06F68B102E060E089E094E0B0F5807FE3
:1013000071D0B0F5007F03D0B0F5407F00D001254B
:10131000EDB32E462068C00207D5D8F80000216F33
:1013200020F000400843C8F800002068C0000ED537
:10133000DBF8000020F4804004E089E092E053E014
:101340009BE05AE0D4F8B4100843CBF800002068C2
:10135000800207D5D8F80000A16E20F08070084305
:10136000C8F80000206840000CD5DBF8000020F42D
:101370000040CBF80000DBF80000D4F8B8100843B8
:10138000CBF80000206800280CDA03E045E081E09B
:1013900053E057E0064808380168226D21F04051BB
:1013A0001143016096B30120BDE8F88F0048025850
:1013B00054440258FFFCFF0F59E00021201D01F0AA
:1013C00021F905463BE70098022101F0ADF90546F9
:1013D00035E7D9F80000D4F89C1020F460400843A9
:1013E000C9F800002DE750E00098022101F09CF9B7
:1013F00000283FF435AF012632E70098022101F0C2
:1014000093F900283FF43BAF012638E74BE0002179
:10141000201D01F0F7F805463EE70098022101F093
:1014200083F9054638E7D9F80000D4F8A01020F475
:1014300040300843C9F8000030E7386840F4003015
:1014400038603AE70098012101F06EF9054634E76B
:10145000DAF80000D4F8841020F440100843CAF8E9
:1014600000002EE7386840F40030386032E702218F
:10147000201D01F0C7F805462CE70C480168E26C16
:1014800021F480311143016026E7386840F40030D0
:1014900038603DE7DAF80000E16F20F4407008435F
:1014A000CAF8000036E700207EE700004C440258EE
:1014B0002DE9F05F04460D46002C17D0DFF8388286
:1014C000D8F8000000F00F00A84211D2D8F80000B0
:1014D00020F00F002843C8F80000D8F8000000F002
:1014E0000F00A84204D00120BDE8F09F0120FBE7D7
:1014F0002078824E40070AD52069316801F07001DA
:10150000884204D9316821F07001014331602078AC
:101510007B4F00070AD56069396801F07001884285
:1015200004D9396821F07001014339602078C00680
:101530000AD5A069396801F4E061884204D93968A4
:1015400021F4E061014339602078DFF8B89180062A
:101550000DD5E069D9F8001001F07001884206D974
:10156000D9F8001021F070010143C9F8001020786B
:1015700080070AD5E068316801F00F01884204D97C
:10158000316821F00F01014331602078C00743D05A
:101590003068A16820F47060084330605749606883
:1015A0001839022808D003280BD001280ED009686A
:1015B000490710D4012097E7096889030BD401205B
:1015C00092E70968890106D401208DE70968C905F9
:1015D00001D4012088E7DFF824A1AAF1080ADAF88B
:1015E000001021F007010143CAF80010FFF774F85A
:1015F000834609E0FFF770F8A0EB0B0141F2883059
:10160000814201D903206FE7DAF80000616800F039
:101610003800B0EBC10FEDD1207880070AD5E06823
:10162000316801F00F01884204D2316821F00F01C6
:1016300001433160D8F8000000F00F00A8420ED935
:10164000D8F8000020F00F002843C8F80000D8F8B0
:10165000000000F00F00A84201D0012044E72078EC
:1016600040070AD52069316801F07001884204D230
:10167000316821F0700101433160207800070AD5FC
:101680006069396801F07001884204D2396821F03C
:101690007001014339602078C0060AD5A069396815
:1016A00001F4E061884204D2396821F4E061014329
:1016B0003960207880060DD5E069D9F8001001F076
:1016C0007001884206D2D9F8001021F07001014360
:1016D000C9F8001000F058F831680B4AC1F3032133
:1016E000515C01F01F01C8400849086008480068C3
:1016F000BDE8F05FFEF7FEBF00200052184402581C
:101700001C4402582044025854490008000000209C
:101710000C00002010B5FFF755F806490968064A85
:1017200001F00F01515C01F01F01C840034908603E
:1017300010BD00001844025854490008040000205D
:1017400010B5FFF7E7FF05490968054AC1F3021123
:10175000515C01F01F01C84010BD00001C4402583C
:101760005449000810B5FFF7D5FF05490968054A37
:10177000C1F30221515C01F01F01C84010BD0000FF
:101780001C4402585449000830B564480068654C50
:1017900010F03801624808D0021108290DD0102934
:1017A0000DD018290DD0104630BD21688906FBD513
:1017B0002168C1F3C101C84030BD104630BD5A4850
:1017C00030BD564918310A6802F003020968C1F3B6
:1017D0000511524B1C331B6803F001034F4D243598
:1017E0002D68C5F3CC0515FB03F300EE103AB8EEF7
:1017F000400A002977D0DFED4D0A484BB7EE001ABA
:1018000020333AB39FED4A2A012A58D0022A6CD0DD
:1018100001EE901A1868F8EE611AC2EE212AC0F3A0
:10182000080001EE900AF8EE611A40EE201A31EE3F
:10183000810A22EE800A1868C0F34620401C00EEA0
:10184000900AF8EE600A80EE201ABCEEC10A10EE93
:10185000100A30BD226892061BD52268C2F3C1026D
:10186000D04001EE900A1868F8EE612A01EE901A55
:10187000F8EE611A82EEA12AC0F3080001EE900A88
:10188000F8EE611A40EE201A31EE810A22EE000ACB
:10189000D1E701EE901ADFED272A1868F8EE611AF9
:1018A00082EEA12AC0F3080001EE900AF8EE611A58
:1018B00040EE201A31EE810A22EE000ABBE701EE6B
:1018C000901A1868F8EE611AC2EE212AC0F30800D7
:1018D00001EE900AF8EE611A40EE201A31EE810A0C
:1018E00022EE800AA7E716E0FFE701EE901ADFED8F
:1018F000122A1868F8EE611A82EEA12AC0F30800D5
:1019000001EE900AF8EE611A40EE201A31EE810ADB
:1019100022EE000A8FE7002030BD0000104402587C
:101920000090D0030044025840787D010000003947
:101930000024744A0024744C20BCBE4B2DE9F05F97
:101940000446002C10D02078DFF8EC83FB4FFC4DD0
:10195000C0075DD0D8F8000000F0380039681028C2
:101960001FD0182803D006E00120BDE8F09F01F049
:101970000300022815D06068B0F5803F18D0E0B1B0
:10198000B0F5A02F22D0286820F480302860286885
:1019900020F480202860606860B3FEF79DFE064654
:1019A00024E02868800333D5606810BB0120DCE7A1
:1019B000286840F480302860EDE7286820F4803003
:1019C0002860286820F480202860E4E7286840F434
:1019D00080202860286840F480302860DBE7FEF72C
:1019E0007BFE801B642801D90320BEE728688003A2
:1019F000F5D50DE0FEF770FE064606E0FEF76CFE3C
:101A0000801B642801D90320AFE728688003F5D440
:101A1000207841F2030ACB4E800777D5D8F8000032
:101A200000F03800396870B1182801D188070AD051
:101A3000E06880B3296821F0190101432960FEF7AD
:101A40004BFE814638E02868400701D5E06848B180
:101A50002868E16820F0190008432860FEF73CFE82
:101A6000814609E0012080E7FEF736FEA0EB090081
:101A7000022801D9032078E728684007F4D5FEF74B
:101A800025FE504508D83068216920F47C3040EAB2
:101A9000013030603AE026E03068217C20F0FE40E2
:101AA00040EA0160306031E0FEF716FEA0EB09006D
:101AB000022801D9032058E728684007F4D5FEF72B
:101AC00005FE504507D83068216920F47C3040EA93
:101AD000013030601AE03068217C20F0FE4040EA9E
:101AE0000160306012E0286820F001002860FEF7F5
:101AF000F3FD814607E0FEF7EFFDA0EB09000228A9
:101B000001D9032031E728684007F4D42078C006C3
:101B100070D5D8F8000000F038003968DFF818B246
:101B20000828ABF1040B0FD0182803D101F00300F3
:101B3000012809D0E06978B3286840F08000286067
:101B4000FEF7CAFD814628E02868C00504D5E06993
:101B5000802801D0012008E7FEF7B8FD504508D8DD
:101B6000306894F8201020F0F84040EA816030603E
:101B700040E0DBF8000094F8201020F07C5040EAB0
:101B80000160CBF8000035E0FEF7A6FDA0EB0900F0
:101B9000022802D90320E8E61AE02868C005F3D538
:101BA000FEF794FD504508D8306894F8201020F0D6
:101BB000F84040EA816030601CE0DBF8000094F8F7
:101BC000201020F07C5040EA0160CBF8000011E0CA
:101BD000286820F080002860FEF77EFD064606E0BB
:101BE000FEF77AFD801B022801D90320BDE6286894
:101BF000C005F5D4207800072AD5504E60694C36D0
:101C000098B1306840F001003060FEF765FD814614
:101C100007E0FEF761FDA0EB0900022801D90320CF
:101C2000A3E630688007F4D512E0306820F00100A8
:101C30003060FEF751FD814607E0FEF74DFDA0EB59
:101C40000900022801D903208FE630688007F4D408
:101C50002078800626D5A06990B1286840F480508D
:101C60002860FEF739FD064606E0FEF735FD801BCD
:101C7000022801D9032078E628688004F5D511E010
:101C8000286820F480502860FEF726FD064606E00E
:101C9000FEF722FD801B022801D9032065E6286893
:101CA0008004F5D42078400778D5274E306840F47A
:101CB00080703060FEF710FD814607E0FEF70CFDF6
:101CC000A0EB0900642801D903204EE63068C00566
:101CD000F4D5DFF86890A06809F14809012816D00A
:101CE000E0B1052832D0D9F8000020F00100C9F891
:101CF0000000D9F8000020F00400C9F80000A06836
:101D000041F2883AB8B1FEF7E7FC064632E0D9F86E
:101D1000000040F00100C9F80000F0E7D9F8000029
:101D200020F00100C9F80000D9F8000020F00400FC
:101D3000C9F80000E3E722E01044025828440258A2
:101D4000004402580444025800480258D9F80000E0
:101D500040F00400C9F80000D9F8000040F001008C
:101D6000C9F80000CBE7FEF7B7FC801B504501D94E
:101D70000320FAE5D9F800008007F4D50EE0FEF75D
:101D8000ABFC064606E0FEF7A7FC801B504501D9D8
:101D90000320EAE5D9F800008007F4D4606AE8B3CC
:101DA000D8F80010C1F3C201032975D0022807D06A
:101DB000286820F080702860FEF78EFC04467EE0E4
:101DC000286820F080702860FEF786FC064606E052
:101DD000FEF782FC801B022801D90320C5E5286894
:101DE0008001F5D4386840F2F3318843E16A40EA73
:101DF0000110A16A08433860208E4FF6FF72616BB4
:101E0000401E491EC0F3080002EA41210843218F09
:101E10004FF4FE02491E02EA014100E052E008438D
:101E200094F83C10491E120202EA01610843274956
:101E30000860081F016821F0010101602349091DA4
:101E40000A684FF6F8739A43A36C42EAC3020A6029
:101E50000168226C21F00C01114301600168626C81
:101E600021F0020111430160016841F480310160F9
:101E7000016841F400310160016841F48021016092
:101E8000016841F001010160286840F0807028601D
:101E9000FEF722FC044607E016E0FEF71DFC001BDF
:101EA000022801D9032060E528688001F5D509E002
:101EB000FEF712FC001B022801D9032055E5286813
:101EC0008001F5D4002050E501204EE53044025851
:101ED0002DE9F0410446002C12D00025A562DFF860
:101EE00020812068474E484F40450BD0B04209D072
:101EF000B84207D0E0680F2804D90120BDE8F0817E
:101F00000120FBE7204600F065FE014620684045C1
:101F100005D0B04203D0B84201D0082907D84045C7
:101F200003D0B04201D0B84203D1102901D9012019
:101F3000E4E794F8810020B984F88050204600F04E
:101F400065F8022084F881002068016821F0010111
:101F50000160A069B0F1806F0AD16068B0F5800FB0
:101F600006D1A06B20B92068016841F4805101605E
:101F7000A16AE0690843E16B0843E168084321680E
:101F80008860616A606BA2690843A16B11430843D2
:101F90002169084361690843216A0843616808436D
:101FA000E16C0843A1680843A16C0843A16D084394
:101FB0002168C860606868B92068816821F4C051F0
:101FC00041F4006181602068816821F4C06141F4BE
:101FD000806181602068016D21F001010165606808
:101FE000400206D52068C168626D21F000411143AE
:101FF000C160C4F88450012084F8810000207DE78E
:102000000030014000380040003C0040F0B5B5B061
:102010000446142130A8FEF7A7F9BC2101A8FEF759
:10202000A3F925492068884243D1801401900024F7
:10203000189401A8FEF7AEFD08B1FEF744FA1F4858
:10204000016841F480510160006800F48050009004
:102050001A481038016841F001010160016801F07F
:1020600001010091016841F002010160006800F087
:102070000200009030203090022531953294339444
:102080000526349630A90E4F3846FEF71FFA402138
:1020900030910121329130A93846FEF717FA2020FD
:1020A0003090319532943394349630A90548FEF738
:1020B0000DFA35B0F0BD000000300140F044025888
:1020C00000000258000402582DE9FF4F83B0044677
:1020D0008B461D46109F0020029094F88000012836
:1020E00015D04FF0010A84F880A0FEF7F5FA80467B
:1020F0002E4694F8810062684FF4800101284FF069
:1021000000090ED08A4208D1A26832B903E0022049
:1021100007B0BDE8F08F042803D0022084F8809037
:10212000F6E7BBF1000F34D0059888B3280030D013
:1021300094F88100042802D0052084F88100C4F8B6
:10214000849005986066A4F86A50A4F86850C4F8B2
:102150005CB0A4F86250A4F86050C4F87090C4F861
:102160007490206842686FF30F022A43426020682F
:10217000026842F0010202606068884204D120686F
:10218000016841F400710160E0680F2829D842E03D
:10219000FFE7012084F88090BAE720684169890749
:1021A0000CD55DB154F85C1F096801622068001D00
:1021B0002060E088401EE080E5885C3C2068416942
:1021C00048F2080211420CD05EB1006B54F8641F53
:1021D00008602068001D2060E088401EE080E688DE
:1021E000643C55EA0600D8D1FEF776FAA0EB080069
:1021F000B84201D3781C01D1002F5FD1204600F0F6
:1022000025FB04F8809F606840F48070606084F86B
:1022100001A001207CE707284DD8D1E02068416962
:1022200089071DD5E5B1012D0ED9E16B61B154F8D7
:102230005C1F096801622068001D2060E088801E24
:10224000E080E5885C3C0BE054F85C1F0988018461
:102250002068801C2060E088401EE080E5885C3CAF
:102260002068416911F4604F1CD0DEB14169090456
:102270000CD5006B54F8641F08602068001D2060B6
:10228000E088801EE080E688643C0BE0008E54F815
:10229000641F08802068801C2060E088401EE08069
:1022A000E688643CFEF718FAA0EB0800B84201D3B8
:1022B000781C04D11FB155EA0600AFD183E0204657
:1022C00000F0C4FA04F8809F606840F48070606099
:1022D00084F801A001201BE720684169890730D5F7
:1022E0000DB3032D0FD9E16B40290CD954F85C1FB5
:1022F000096801622068001D2060E088001FE080FE
:10230000E5885C3C1DE0012D0ED9E16B61B154F80C
:102310005C1F098801842068801C2060E088801E82
:10232000E080E5885C3C0CE054F85C1F097880F89C
:1023300020102068401C2060E088401EE080E58876
:102340005C3C2068416911F4604F30D00EB34169A4
:1023500009040CD5006B54F8641F08602068001D48
:102360002060E088001FE080E688643C1FE041694F
:1023700001F4C041B1F5005F0CD9008E54F8641F20
:1023800008802068801C2060E088801EE080E6884D
:10239000643C0CE090F8300054F8641F087020682A
:1023A000401C2060E088401EE080E688643CFEF728
:1023B00093F9A0EB0800B84201D3781C1DD1E7B116
:1023C00055EA060088D1002243460821204600979E
:1023D00000F02AFC28B1D4F8840040F02000C4F8B2
:1023E0008400204600F032FA84F8809084F881A0BE
:1023F000D4F8840070B101208AE6204600F026FA65
:1024000004F8809F606840F48070606084F801A0E8
:1024100001207DE602987BE6704710B5FFF7FCFFD0
:1024200010BD10B50446002C03D0D4F8800010B1C4
:1024300007E0012010BD002084F87C00204600F059
:1024400028F82420C4F880002068016821F00101E8
:102450000160204600F02EFD012818D0A06A10B1BE
:10246000204600F093FC2068416821F490414160CF
:102470002068816821F02A0181602068016841F0AC
:10248000010101602046BDE8104000F0E3BC0120DE
:1024900010BD70472DE9F84304460E4615461F4609
:1024A000D4F88000202802D00220BDE8F883D6B1FD
:1024B000CDB194F87C00012817D0012084F87C006D
:1024C0004FF00008C4F888802120C4F88000FEF78F
:1024D00003F98146A4F85450A4F85650A068B0F50A
:1024E000805F04D005E00120DFE70220DDE72069FE
:1024F00010B13546002615E0002513E000224B46BA
:1025000080212046009701F075FF08B10320CCE739
:10251000B5B1216815F8010B8862B4F85600401E69
:10252000A4F85600B4F856000028E7D100224B4624
:1025300040212046009701F05DFF40B10320B4E741
:10254000216836F8020BC0F308008862E5E7202016
:10255000C4F8800084F87C800020A6E7FEE7000035
:1025600010B586B00C48016841F0040101600068B4
:1025700000F00400009008240194012002900390D0
:102580000220049001A90548FDF7A0FF0348183078
:10259000046006B010BD0000E04402580008025874
:1025A00010B51548134901604FF4800141600021C6
:1025B00081600722C260016141614FF00052826177
:1025C0004FF0A042C261016241628162C162920029
:1025D00042638163C163016441648164C1640165D4
:1025E00041658165FFF774FC002801D0FDF76BFFA2
:1025F00010BD000000300140D40C0020FEE7704701
:10260000704700002DE9F047044688460027DFF8B0
:102610001491D9F80000C043800709D0414D283DEE
:10262000286820F080602860FEF756F8064609E02A
:102630000120BDE8F087FEF74FF8801B022801D982
:102640000320F6E728680001F5D4D9F800002168D6
:1026500020F47C3040EA0130C9F80000A0884FF631
:10266000FF72A168401E491EC0F3080002EA412122
:102670000843A1894FF4FE02491E02EA01410843C2
:10268000217C1202491E02EA0161084325491031EA
:1026900008602448001D0168626921F0C0011143EF
:1026A00001600168A26921F0200111430160016805
:1026B00021F0100101601B4914310A684FF6F873CC
:1026C0009A43E36942EAC3020A60016841F01001DB
:1026D0000160B8F1000F0ED0B8F1010F10D0016801
:1026E00041F400110160286840F080602860FDF727
:1026F000F3FF044610E0016841F400210160F2E7B5
:10270000016841F480110160EDE7FDF7E5FF001B72
:10271000022801D903208CE728680001F5D5384646
:1027200087E70000284402582DE9F0470446884610
:102730000027DFF81491D9F80000C043800709D0C2
:10274000414D283D286820F080502860FDF7C4FFE7
:10275000064609E00120BDE8F087FDF7BDFF801BBC
:10276000022801D90320F6E728688000F5D4D9F8BB
:102770000000218820F07C7040EA0150C9F8000078
:10278000A0884FF6FF72A168401E491EC0F30800E2
:1027900002EA41210843A1894FF4FE02491E02EAE0
:1027A00001410843217C1202491E02EA01610843EB
:1027B0002549183108602448001D0168626921F428
:1027C0004061114301600168A26921F40071114365
:1027D0000160016821F4807101601B491C310A68A5
:1027E0004FF6F8739A43E36942EAC3020A6001684C
:1027F00041F480710160B8F1000F0ED0B8F1010F03
:1028000010D0016841F080710160286840F080506C
:102810002860FDF761FF044610E0016841F4800183
:102820000160F2E7016841F400010160EDE7FDF7A6
:1028300053FF001B022801D903208CE72868800081
:10284000F5D5384687E700002844025810B50268DD
:102850005169936943F0080393610268936943F0F7
:10286000100393610268136823F001031360026888
:10287000136940F26F34A34313610268936823F431
:102880004043936090F88120042A0CD08A060AD530
:10289000D0F8842042F08002C0F884200268936956
:1028A00043F02003936190F88120032A0CD04A065C
:1028B0000AD5D0F8842042F00402C0F884200268CF
:1028C000936943F0400393618A050AD5D0F88420C8
:1028D00042F00102C0F884200268936943F4007357
:1028E0009361C9050AD5D0F8841041F00801C0F8F9
:1028F000841001688A6942F480728A61002120F89C
:10290000621F018110BD0000F8B506460C46154651
:102910000E48291DFDF728FD0C4903200870200CE6
:102920004870200A8870CC704FF4FA600090281D1F
:1029300083B201F5446201F6B830FFF7C5FB2A46C1
:102940003046BDE8F8400249FDF7F5BC1C01002007
:10295000600D00202DE9F04706460D46E8B24142E1
:10296000CFB2140A02F0FF0900284FF4807812D089
:10297000E8B24042C0B205EB000A34B3D01B80B2CB
:10298000040A00F0FF093A462946304600F04CF8A8
:1029900055463E4439E074B929463046BDE8F04713
:1029A00000F042B842462946304600F03DF805F5B1
:1029B000807506F58076641EE4B2F3D24A46294655
:1029C0003046BDE8F04700F02FB8B9450ED9A9EB65
:1029D0000700C4B23A462946304600F025F8514671
:1029E000F0192246BDE8F04700F01EB829463046EF
:1029F000BDE8F04700F018B842462946304600F0DE
:102A000013F805F5807506F58076641EE4B2F3D2FE
:102A1000B9F1000F06D04A4629463046BDE8F047D6
:102A200000F002B8BDE8F08770B5C2B006460D46AA
:102A3000144600F0ABF8124B02201870280C5870A6
:102A4000280A9870DD70181D22463146FDF773FC88
:102A50004FF48070844203D904460AA001F020FD9F
:102A60000749241D4FF4FA600090A3B202AA01F6B0
:102A7000B830FFF729FB00F05FF842B070BD0000EE
:102A80001C0100203C3C2D464C4153482D455252E0
:102A90004F522D3E3E205350495F464C4153485FB4
:102AA00050616765577269746520746F6F206C613F
:102AB000726765210A00000008B50C48002101601A
:102AC0009F2101704FF4FA6008490423084A0090DE
:102AD00001F6B830FFF7F8FA054841780902827824
:102AE0000A431102C078084308BD00001C01002001
:102AF0005C0D002038B505460E4C002020602020DB
:102B0000207000F043F800F017F8280C6070280AD5
:102B1000A070E5704FF4FA6021460090042304F59C
:102B2000446201F6B830FFF7CFFABDE8384000F054
:102B300003B800001C010020F8B5114C4FF4202010
:102B4000206000210F480180052101704FF4FA65D3
:102B500000F544660B490C4A022301F6B830009593
:102B6000FFF7B2FA71782068421E226004D2BDE8F5
:102B7000F840042000F038B8C807EBD1F8BD0000D9
:102B8000500000201C0100205C0D002008B5074902
:102B9000062008704FF4FA600123009001F54462AA
:102BA00001F6B830FFF790FA08BD00001C010020C4
:102BB00008B50749B92008704FF4FA600123009066
:102BC00001F5446201F6B830FFF77EFA08BD000057
:102BD0001C010020C16B012202EB5111C068401C96
:102BE000C01DC0084843704710B5014602A001F05F
:102BF00057FC002010BD00003C3C2D464C41534882
:102C00002D4552524F522D3E3E2053504920B5C8BB
:102C1000B4FDB3ACCAB1216572726F72436F646563
:102C2000203D2025640A00002DE9F04106460D46AE
:102C300017469846069C08E0FDF74EFDA0EB0800FD
:102C4000A04201D3601C0BD154B13068406935EA11
:102C5000000007D00020B842EED00020BDE8F0818F
:102C60000320FBE70120F6E77047FFF7D6BB000023
:102C700030B59DB04C210AA8FDF776FB202102A8B3
:102C8000FDF772FB0220FDF775FD00241C4801686A
:102C900041F44041016001681A490A6842F00102AA
:102CA0000A60096801F00101019101688904FCD5FD
:102CB00001200A9000040B9002201390149005212B
:102CC0001591C021169117901890199008251A9502
:102CD0001B941C940AA8FEF731FE3F2002900320AB
:102CE00003900494059540200690079001010891F7
:102CF0000990042102A8FEF7DBFB1DB030BD0000E7
:102D0000184802582C0400581C48016841F470010E
:102D100001601B49086840F001000860184A002063
:102D2000103210600A68174B1A400A60144A1832B1
:102D30001060121D1060121D1060114A28321060C0
:102D4000121D1060121D1060121D1060121D106007
:102D5000121D1060121D1060121D10600A6822F40E
:102D600080220A6006496031086001200649086037
:102D7000C0060249803908607047000088ED00E015
:102D8000004402587FEDF6EA0881005190F82810BF
:102D9000C90706D001684A68C36A22F400321A43A0
:102DA0004A6090F82810890706D501684A68036BC5
:102DB00022F480321A434A6090F82810490706D559
:102DC00001684A68436B22F480221A434A6090F8F3
:102DD0002810090706D501684A68836B22F400426F
:102DE0001A434A6090F82810C90606D501688A6817
:102DF000C36B22F480521A438A6090F82810890627
:102E000006D501688A68036C22F400521A438A606E
:102E100090F82810490611D501684A68436C22F4DD
:102E200080121A434A60416CB1F5801F06D10168D7
:102E30004A68836C22F4C0021A434A6090F8281052
:102E4000090606D501684A68C06C22F400220243D4
:102E50004A607047F8B504460026C4F88860FDF75C
:102E60003BFC0746206800686FF07E4500070AD5E6
:102E700000223B464FF400112046009501F0BAFABB
:102E800008B10320F8BD2068006840070AD5002279
:102E90003B464FF480012046009501F0ABFA08B1A3
:102EA0000320F8BD20207C346060A06026700020E4
:102EB000F8BD00002DE9F04F87B004464FF0000840
:102EC00000250020F74B21682669A268E769324394
:102ED00066693E433243666E16430A68F24F3A40D3
:102EE00032430A6021684A68E66822F4405232435D
:102EF0004A60A16922689A4201D0266A31439668E5
:102F0000EA4F3E400E4396602168CA6A666A22F024
:102F10000F023243CA62E64E2168E64AB14224D12A
:102F2000126802F03802182A16D005DC5AB1082AB5
:102F30000CD0102A04D10CE0202A10D0282A11D05D
:102F40004FF0800B2AE14FF0010B27E14FF0040B0B
:102F500024E14FF0080B21E14FF0100B1EE14FF080
:102F6000200B1BE14FF0400B18E1D34EB1421ED1B4
:102F7000126802F00702062A16D2DFE802F0030602
:102F8000090C0F124FF0000B08E14FF0040B05E1A4
:102F90004FF0080B02E14FF0100BFFE04FF0200B59
:102FA000FCE04FF0400BF9E04FF0800BF6E0C34E31
:102FB000B1421ED1126802F00702062A16D2DFE8DB
:102FC00002F00306090C0F124FF0000BE6E04FF081
:102FD000040BE3E04FF0080BE0E04FF0100BDDE0F6
:102FE0004FF0200BDAE04FF0400BD7E04FF0800BB2
:102FF000D4E0B34EB1421ED1126802F00702062A95
:1030000016D2DFE802F00306090C0F124FF0000B96
:10301000C4E04FF0040BC1E04FF0080BBEE04FF0EE
:10302000100BBBE04FF0200BB8E04FF0400BB5E0C9
:103030004FF0800BB2E0A34EB1421ED1126802F0F5
:103040000702062A16D2DFE802F00306090C0F1267
:103050004FF0000BA2E04FF0040B9FE04FF0080B85
:103060009CE04FF0100B99E04FF0200B96E04FF0F2
:10307000400B93E04FF0800B90E0934EB14224D18F
:10308000126802F03802182A16D005DC5AB1082A54
:103090000CD0102A04D10CE0202A10D0282A11D0FC
:1030A0004FF0800B7AE04FF0010B77E04FF0040B0C
:1030B00074E04FF0080B71E04FF0100B6EE04FF032
:1030C000200B6BE04FF0400B68E0804EB1421ED108
:1030D000126802F00702062A16D2DFE802F00306A1
:1030E000090C0F124FF0000B58E04FF0040B55E0A5
:1030F0004FF0080B52E04FF0100B4FE04FF0200B59
:103100004CE04FF0400B49E04FF0800B46E0704E32
:10311000B1421ED1126802F00702062A16D2DFE879
:1031200002F00306090C0F124FF0000B36E04FF0CF
:10313000040B33E04FF0080B30E04FF0100B2DE0A4
:103140004FF0200B2AE04FF0400B27E04FF0800BB0
:1031500024E0994220D1574A121D126802F007025A
:10316000062A16D2DFE802F00306090C0F124FF010
:10317000020B13E04FF0040B10E04FF0080B0DE0D2
:103180004FF0100B0AE04FF0200B07E04FF0400B20
:1031900004E04FF0800B01E04FF0800BDFF834A12A
:1031A000002799424FF4807977D1BBF1100F75D089
:1031B00009DCBBF1020F19D0BBF1040F4DD0BBF1FC
:1031C000080F06D1A1E0BBF1200F68D0BBF1400F82
:1031D00066D00125002808D0666806EB46018142CA
:1031E00002D8B0EB063F77D90125EEE3FDF700FBEF
:1031F0000146606AC8B1012819D0022819D00328F5
:1032000019D0042819D0052819D0062819D0072864
:1032100019D0082819D0092819D00A2819D00B2844
:1032200019D00120B1FBF0F0D4E70120FAE7022029
:10323000F8E70420F6E70620F4E70820F2E70A2082
:10324000F0E70C20EEE71020ECE72020EAE7402032
:10325000E8E78020E6E74846E4E704A8FDF7DAFA65
:103260000599606AE8B1012839D0022839D00328CD
:1032700039D0042839D0052839D0062839D0072874
:1032800039D0082839D0092839D00A2839D00B2854
:1032900039D00120B1FBF0F09CE7AEE36DE0DDE05A
:1032A00011E11AE0000C0058F369FFCFFFF4FF11A1
:1032B00000100140544402580044004000480040BF
:1032C000004C0040005000400014014000780040D5
:1032D000007C00400090D0032BE10120DAE70220BF
:1032E000D8E70420D6E70620D4E70820D2E70A2052
:1032F000D0E70C20CEE71020CCE72020CAE7402002
:10330000C8E78020C6E74846C4E701A8FDF762FB8E
:103310000299606AC8B1012819D0022819D003287F
:1033200019D0042819D0052819D0062819D0072843
:1033300019D0082819D0092819D00A2819D00B2823
:1033400019D00120B1FBF0F044E70120FAE7022098
:10335000F8E70420F6E70620F4E70820F2E70A2061
:10336000F0E70C20EEE71020ECE72020EAE7402011
:10337000E8E78020E6E74846E4E7F7480168890681
:1033800038D50068C0F3C1002AFA00F1606AC8B1FC
:10339000012819D0022819D0032819D0042819D0DF
:1033A000052819D0062819D0072819D0082819D0BF
:1033B000092819D00A2819D00B2819D00120B1FBEF
:1033C000F0F007E70120FAE70220F8E70420F6E72B
:1033D0000620F4E70820F2E70A20F0E70C20EEE7E9
:1033E0001020ECE72020EAE74020E8E78020E6E72D
:1033F0004846E4E7606AC8B1012819D0022819D00C
:10340000032819D0042819D0052819D0062819D066
:10341000072819D0082819D0092819D00A2819D046
:103420000B2819D00120BAFBF0F0D3E60120FAE70F
:103430000220F8E70420F6E70620F4E70820F2E788
:103440000A20F0E70C20EEE71020ECE72020EAE766
:103450004020E8E78020E6E74846E4E7606AD0B12C
:1034600001281AD002281AD003281AD004281AD00A
:1034700005281AD006281AD007281AD008281AD0EA
:1034800009281AD00A281AD00B281AD00120B349CB
:10349000B1FBF0F09EE60120F9E70220F7E70420F7
:1034A000F5E70620F3E70820F1E70A20EFE70C2014
:1034B000EDE71020EBE72020E9E74020E7E7802058
:1034C000E5E74846E3E7606AD8B101281BD0022847
:1034D0001BD003281BD004281BD005281BD006288E
:1034E0001BD007281BD008281BD009281BD00A286E
:1034F0001BD00B281BD001204FF40041B1FBF0F092
:1035000068E60120F8E70220F6E70420F4E7062049
:10351000F2E70820F0E70A20EEE70C20ECE71020A5
:10352000EAE72020E8E74020E6E78020E4E7484695
:10353000E2E7BBF1100F7DD009DCBBF1020F16D022
:10354000BBF1040F64D0BBF1080F06D1B8E0BBF1AA
:10355000200F70D0BBF1400F6ED001258049A8F537
:103560004070884269D82068C0F80C802DE2FDF7D1
:103570003FF90146606A50B301282BD002282CD0B5
:1035800003282DD004282ED005282FD0062830D08F
:10359000072831D0082832D0092833D00A2834D05F
:1035A0000B2801D04FF00109084600234A4619466E
:1035B000FCF790FE62680902030241EA10615008BC
:1035C000181879410023FCF785FE8046C6E74FF0C6
:1035D0000109E9E74FF00209E6E74FF00409E3E7E4
:1035E0004FF00609E0E74FF00809DDE74FF00A0960
:1035F000DAE74FF00C09D7E74FF01009D4E74FF0A6
:103600002009D1E74FF04009CEE74FF08009CBE722
:1036100004A8FDF7FFF80599606A78B3012831D056
:10362000022832D0032833D0042834D0052835D0DE
:10363000062803E09CE040E18DE1DCE131D0072881
:1036400032D0082833D0092834D00A2835D00B28A6
:1036500001D04FF00109084600234A461946FCF7FD
:1036600039FE62680902030241EA10615008181825
:1036700079410023FCF72EFE80466FE7FFE74FF00D
:103680000109E8E74FF00209E5E74FF00409E2E736
:103690004FF00609DFE74FF00809DCE74FF00A09B1
:1036A000D9E74FF00C09D6E74FF01009D3E74FF0F8
:1036B0002009D0E74FF04009CDE74FF08009CAE775
:1036C00001A8FDF787F90299606A50B301282BD051
:1036D00002282CD003282DD004282ED005282FD046
:1036E000062830D0072831D0082832D0092839D010
:1036F0000A283AD00B2801D04FF0010908460023D0
:103700004A461946FCF7E6FD62680902030241EAEF
:1037100010615008181879410023FCF7DBFD804642
:103720001CE74FF00109E9E74FF00209E6E74FF027
:103730000409E3E74FF00609E0E74FF00809DDE789
:103740004FF00A09DAE74FF00C09D7E74FF01009FC
:10375000D4E74FF02009D1E70044025800093D00AA
:10376000FFFC0F004FF04009C8E74FF08009C5E7A4
:10377000F7480168890652D50068C0F3C1002AFAEB
:1037800000FA606A50B301282BD002282CD00328FD
:103790002DD004282ED005282FD0062830D0072879
:1037A00031D0082832D0092833D00A2834D00B2849
:1037B00001D04FF00109504600234A461946FCF754
:1037C00089FD0902020241EA1061700810183246B0
:1037D00079410023FCF77EFD8046BFE64FF00109EA
:1037E000E9E74FF00209E6E74FF00409E3E74FF09D
:1037F0000609E0E74FF00809DDE74FF00A09DAE7CC
:103800004FF00C09D7E74FF01009D4E74FF020092B
:10381000D1E74FF04009CEE74FF08009CBE7606A6F
:1038200050B301282BD002282CD003282DD00428F7
:103830002ED005282FD0062830D0072831D00828D0
:1038400032D0092833D00A2834D00B2801D04FF0C9
:103850000109504600234A461946FCF73BFD090280
:10386000020241EA106170081018324679410023C3
:10387000FCF730FD804671E64FF00109E9E74FF0B3
:103880000209E6E74FF00409E3E74FF00609E0E735
:103890004FF00809DDE74FF00A09DAE74FF00C09AD
:1038A000D7E74FF01009D4E74FF02009D1E74FF0E8
:1038B0004009CEE74FF08009CBE7606A50B301289A
:1038C0002BD002282CD003282DD004282ED0052858
:1038D0002FD0062830D0072831D0082832D0092828
:1038E00033D00A2834D00B2801D04FF00109994871
:1038F00000234A461946FCF7EDFC0902020241EAA0
:10390000106170081018324679410023FCF7E2FC80
:10391000804623E64FF00109E9E74FF00209E6E7A8
:103920004FF00409E3E74FF00609E0E74FF008091C
:10393000DDE74FF00A09DAE74FF00C09D7E74FF05F
:103940001009D4E74FF02009D1E74FF04009CEE746
:103950004FF08009CBE7606A58B301282CD00228C9
:103960002DD003282ED0042830D0052831D00628A9
:1039700032D0072833D0082834D0092835D00A2877
:1039800036D00B2801D04FF0010900234A464FF4EE
:1039900000401946FCF79EFC0902020241EA106150
:1039A00070081018324679410023FCF793FC8046DA
:1039B000D4E54FF00109E8E74FF00209E5E74FF0E1
:1039C0000409E2E74FF00609DFE797E24FF0080944
:1039D000DBE74FF00A09D8E74FF00C09D5E74FF0C5
:1039E0001009D2E74FF02009CFE74FF04009CCE7AC
:1039F0004FF08009C9E7012580E2E0694FF40041FA
:103A00004FF6EF7688426ED1BBF1080F6CD009DC1F
:103A1000BBF1000F1ED0BBF1010F66D0BBF1040F4C
:103A200009D1B4E0BBF1100F7DD0BBF1200F7BD0EA
:103A3000BBF1400F79D00125A8F11000B04275D834
:103A40004FF6F07108EA0100C8F34201084321680B
:103A5000C86053E2FDF774FE0146606A10B30128A6
:103A600023D0022824D0032825D0042826D00528D6
:103A700027D0062828D0072829D008282AD00928A6
:103A80002BD00A282CD00B2801D04FF00109B1FB14
:103A9000F9F04100606801EB5001B1FBF0F01FFA52
:103AA00080F8C9E74FF00109F1E74FF00209EEE7AE
:103AB0004FF00409EBE74FF00609E8E74FF008097B
:103AC000E5E74FF00A09E2E74FF00C09DFE74FF0B6
:103AD0001009DCE74FF02009D9E74FF04009D6E79D
:103AE0004FF08009D3E70AE29BE0FDF73BFE014679
:103AF000606A38B3012828D002282DD003282ED0A0
:103B000004282FD0052830D0062831D0072832D0FD
:103B1000082833D0092834D00A2835D00B2801D002
:103B20004FF0010903E0C6E05AE1A0E1E5E1B1FB95
:103B3000F9F04100606801EB5001B1FBF0F01FFAB1
:103B400080F879E74FF00109ECE74FF00209E9E767
:103B50000044025800093D004FF00409E2E74FF02D
:103B60000609DFE74FF00809DCE74FF00A09D9E75B
:103B70004FF00C09D6E74FF01009D3E74FF02009BA
:103B8000D0E74FF04009CDE74FF08009CAE704A81D
:103B9000FCF740FE0599606A10B3012823D0022883
:103BA00024D0032825D0042826D0052827D006288D
:103BB00028D0072829D008282AD009282BD00A285D
:103BC0002CD00B2801D04FF00109B1FBF9F04100D6
:103BD000606801EB5001B1FBF0F01FFA80F82BE7B1
:103BE0004FF00109F1E74FF00209EEE74FF0040949
:103BF000EBE74FF00609E8E74FF00809E5E74FF07B
:103C00000A09E2E74FF00C09DFE74FF01009DCE7A3
:103C10004FF02009D9E74FF04009D6E74FF080096F
:103C2000D3E701A8FCF7D6FE0299606A10B3012819
:103C300023D0022824D0032825D0042826D0052804
:103C400027D0062828D0072829D008282AD00928D4
:103C50002BD00A282CD00B2801D04FF00109B1FB42
:103C6000F9F04100606801EB5001B1FBF0F01FFA80
:103C700080F8E1E64FF00109F1E74FF00209EEE7C5
:103C80004FF00409EBE74FF00609E8E74FF00809A9
:103C9000E5E74FF00A09E2E74FF00C09DFE74FF0E4
:103CA0001009DCE74FF02009D9E74FF04009D6E7CB
:103CB0004FF08009D3E7FE48016889064AD50068BD
:103CC000C0F3C1002AFA00FA606A10B3012823D0B9
:103CD000022824D0032825D0042826D0052827D060
:103CE000062828D0072829D008282AD009282BD030
:103CF0000A282CD00B2801D04FF00109BAFBF9F0AB
:103D00004100606801EB5001B1FBF0F01FFA80F850
:103D100092E64FF00109F1E74FF00209EEE74FF0AC
:103D20000409EBE74FF00609E8E74FF00809E5E77B
:103D30004FF00A09E2E74FF00C09DFE74FF01009F6
:103D4000DCE74FF02009D9E74FF04009D6E74FF004
:103D50008009D3E7606A10B3012823D0022824D059
:103D6000032825D0042826D0052827D0062828D0C7
:103D7000072829D008282AD009282BD00A282CD097
:103D80000B2801D04FF00109BAFBF9F0410060683F
:103D900001EB5001B1FBF0F01FFA80F84CE64FF058
:103DA0000109F1E74FF00209EEE74FF00409EBE7F4
:103DB0004FF00609E8E74FF00809E5E74FF00A0978
:103DC000E2E74FF00C09DFE74FF01009DCE74FF0B6
:103DD0002009D9E74FF04009D6E74FF08009D3E733
:103DE000606A18B3012824D0022825D0032826D0E1
:103DF000042827D0052828D0062829D007282AD02B
:103E000008282BD009282CD00A282DD00B2801D027
:103E10004FF00109A748B0FBF9F04100606801EBE1
:103E20005001B1FBF0F01FFA80F805E64FF00109F0
:103E3000F0E74FF00209EDE74FF00409EAE74FF031
:103E40000609E7E74FF00809E4E74FF00A09E1E760
:103E50004FF00C09DEE74FF01009DBE74FF02009C7
:103E6000D8E74FF04009D5E74FF08009D2E7606A04
:103E700010B3012823D0022824D0032825D00428F9
:103E800026D0052827D0062828D0072829D008289A
:103E90002AD009282BD00A282CD00B2801D04FF08B
:103EA0000109B1FBF9F04100606801EB5001B1FB81
:103EB000F0F01FFA80F8BFE54FF00109F1E74FF08D
:103EC0000209EEE74FF00409EBE74FF00609E8E7D7
:103ED0004FF00809E5E74FF00A09E2E74FF00C0957
:103EE000DFE74FF01009DCE74FF02009D9E74FF08A
:103EF0004009D6E74FF08009D3E701256CE2BBF11A
:103F0000080F7DD009DCBBF1000F18D0BBF1010F09
:103F10005DD0BBF1040F09D1A7E0BBF1100F70D049
:103F2000BBF1200F6ED0BBF1400F6CD00125A8F182
:103F30001000B04268D82068C0F80C804CE2FDF751
:103F4000FFFB0146606A08B3012822D0022823D073
:103F5000032824D0042825D0052826D0062827D0D9
:103F6000072828D0082829D009282AD00A282BD0A9
:103F70000B2801D04FF001096068B1FBF9F101EBAA
:103F80005001B1FBF0F01FFA80F8D0E74FF00109C3
:103F9000F2E74FF00209EFE74FF00409ECE74FF0CA
:103FA0000609E9E74FF00809E6E74FF00A09E3E7F9
:103FB0004FF00C09E0E74FF01009DDE74FF0200962
:103FC000DAE74FF04009D7E74FF08009D4E7FDF773
:103FD000C9FB0146606A38B3012828D0022829D0DD
:103FE00003282AD004282BD005282CD006282DD031
:103FF00007282ED008282FD0092830D00A2804E01E
:1040000082E0CAE05CE1A1E1E5E12BD00B2801D020
:104010004FF001096068B1FBF9F101EB5001B1FB10
:10402000F0F01FFA80F882E74FF00109F2E74FF055
:104030000209EFE74FF00409ECE74FF00609E9E762
:104040004FF00809E6E74FF00A09E3E74FF00C09E3
:10405000E0E74FF01009DDE74FF02009DAE74FF015
:104060004009D7E74FF08009D4E704A8FCF7D2FB5A
:104070000599606AD8B1012828D0022829D00328E0
:104080002AD004282BD005282CD006282DD007288C
:104090002ED008282FD0092830D00A2831D00B285C
:1040A00001D04FF001096068B1FBF9F104E00AE0CA
:1040B0000044025800093D0001EB5001B1FBF0F053
:1040C0001FFA80F833E74FF00109ECE74FF00209DF
:1040D000E9E74FF00409E6E74FF00609E3E74FF0A0
:1040E0000809E0E74FF00A09DDE74FF00C09DAE7CD
:1040F0004FF01009D7E74FF02009D4E74FF04009FF
:10410000D1E74FF08009CEE701A8FCF763FC0299E4
:10411000606A08B3012822D0022823D0032824D0C3
:10412000042825D0052826D0062827D0072828D0FF
:10413000082829D009282AD00A282BD00B2801D0FA
:104140004FF001096068B1FBF9F101EB5001B1FBDF
:10415000F0F01FFA80F8EAE64FF00109F2E74FF0BD
:104160000209EFE74FF00409ECE74FF00609E9E731
:104170004FF00809E6E74FF00A09E3E74FF00C09B2
:10418000E0E74FF01009DDE74FF02009DAE74FF0E4
:104190004009D7E74FF08009D4E7944801688906C1
:1041A00049D50068C0F3C1002AFA00FA606A08B372
:1041B000012822D0022823D0032824D0042825D087
:1041C000052826D0062827D0072828D0082829D057
:1041D00009282AD00A282BD00B2801D04FF001093A
:1041E0006068BAFBF9F101EB5001B1FBF0F01FFA86
:1041F00080F89CE64FF00109F2E74FF00209EFE783
:104200004FF00409ECE74FF00609E9E74FF0080921
:10421000E6E74FF00A09E3E74FF00C09E0E74FF05B
:104220001009DDE74FF02009DAE74FF04009D7E742
:104230004FF08009D4E7606A08B3012822D0022831
:1042400023D0032824D0042825D0052826D00628EA
:1042500027D0072828D0082829D009282AD00A28BA
:104260002BD00B2801D04FF001096068BAFBF9F19F
:1042700001EB5001B1FBF0F01FFA80F857E64FF068
:104280000109F2E74FF00209EFE74FF00409ECE70C
:104290004FF00609E9E74FF00809E6E74FF00A0991
:1042A000E3E74FF00C09E0E74FF01009DDE74FF0CE
:1042B0002009DAE74FF04009D7E74FF08009D4E74B
:1042C000606A10B3012823D0022824D0032825D007
:1042D000042826D0052827D0062828D0072829D04A
:1042E00008282AD009282BD00A282CD00B2801D046
:1042F0004FF001093E48B0FBF9F1606801EB500155
:10430000B1FBF0F01FFA80F811E64FF00109F1E778
:104310004FF00209EEE74FF00409EBE74FF0060912
:10432000E8E74FF00809E5E74FF00A09E2E74FF048
:104330000C09DFE74FF01009DCE74FF02009D9E75F
:104340004FF04009D6E74FF08009D3E7606A08B321
:10435000012822D0022823D0032824D0042825D0E5
:10436000052826D0062827D0072828D0082829D0B5
:1043700009282AD00A282BD00B2801D04FF0010998
:104380006068B1FBF9F101EB5001B1FBF0F01FFAED
:1043900080F8CCE54FF00109F2E74FF00209EFE7B2
:1043A0004FF00409ECE74FF00609E9E74FF0080980
:1043B000E6E74FF00A09E3E74FF00C09E0E74FF0BA
:1043C0001009DDE74FF02009DAE74FF04009D7E7A1
:1043D0004FF08009D4E701250120683460802080F7
:1043E0006760A76007B02846BDE8F08F0044025818
:1043F00000093D002DE9F04704460E461746984651
:10440000089D4FF0000A4FF020093BE0681C39D0AE
:10441000FCF762F9A0EB0800A84221D805B3206898
:10442000016849072ED5C069C04300052AD4216818
:104430004FF4006008622068016821F4D0710160C7
:104440002068816821F001018160C4F88090C4F87F
:104450008490C4F8889084F87CA00320BDE8F0879D
:104460002068016821F4D07101602068816821F022
:1044700001018160C4F88090C4F8849084F87CA025
:104480000320EBE72068C06936EA000004D0002072
:10449000B842BBD00020E1E70120F9E7FEE70000C9
:1044A0000FB4054B10B503A9044A029800F028F890
:1044B00010BC5DF814FB0000C14700085400002048
:1044C0000907090E002804DB00F1E02080F8001441
:1044D000704700F00F0000F1E02080F8141D7047D5
:1044E00002E008C8121F08C1002AFAD170477047BD
:1044F000002001E001C1121F002AFBD1704700001B
:104500002DE9FF4F8DB09B460F460446002606E07E
:1045100025280BD05A460F999047641C761C2078AA
:104520000028F5D111B03046BDE8F08F0025A8462F
:104530000122984900E0054314F8013F203B02FAAC
:1045400003F00842F7D120782E2817D114F8010F74
:1045500045F004052A280ED06FF02F022078A0F134
:10456000300109290AD808EB880102EB410100EB70
:104570000108641CF2E757F8048B641C20786C284F
:104580000DD004DC4C2812D06A2811D104E0742824
:104590000DD07A280CD10AE045F4001507E06178C7
:1045A00045F48015814202D1641C05F58015641C18
:1045B0002078692844D008DC0028B3D0582867D078
:1045C00063280FD0642808D13AE0702865D073289A
:1045D00012D075285AD078285AD05A460F99904749
:1045E000761CD5E017F8040B8DF8000000208DF83C
:1045F0000100E946012003E057F8049B4FF0FF302B
:1046000069074FF0000501D40AE06D1C45450DDA3D
:104610008542FADB19F805100029F6D106E06D1C79
:104620008542FCDB19F805100029F8D12E4404E07E
:1046300019F8010B5A460F9990476D1EF8D2A7E062
:104640000A200021CDE90801C5F3025002280CD050
:1046500001CFC117021E71F100020CDA0023D0EB6A
:10466000030063EB01012D2208E0FF1D27F007077F
:10467000F7E80201EEE72A0504D52B228DF8282061
:1046800001223CE0EA073AD02022F7E70A2000E0C6
:1046900010200021CDE9080107E01020002145F09D
:1046A0000405CDE908014FF00808C5F302500228BF
:1046B00010D001CF00214FF0000A2A0720D5227820
:1046C000702A0DD0DDE908C38CF0100C5CEA030CF5
:1046D0000CD015E0FF1D27F00707F7E80201EAE715
:1046E00040228DF828204FF0010A0CE050EA010327
:1046F00006D030238DF828308DF8292002229246EA
:104700002278582A04D024A20DF120090B9209E046
:1047100026A2F9E7DDE90823FBF7DCFD0B9B9B5C98
:1047200009F8013D50EA0102F4D1ADEB0900203057
:104730000890680701D44FF001080899884503DD07
:104740000898A8EB000000E000208046002506E065
:104750000AA85A46405D0F9990476D1C761C554536
:10476000F6DB04E030205A460F999047761CB8F1EA
:104770000001A8F10108F5DC05E019F8010B5A4623
:104780000F999047761C0899481E08900029F4DC80
:10479000641CC4E609280100303132333435363721
:1047A000383961626364656600000000303132337D
:1047B000343536373839414243444546000000001D
:1047C00013B5044801224FF47A736946FDF762FE7F
:1047D00000981CBD90000020FEF74AFABFF34F8FEF
:1047E000BFF36F8F284900200860BFF34F8FBFF3DE
:1047F0006F8F2648016841F400310160BFF34F8F8D
:10480000BFF36F8FFBF7FCFDFDF7AAFEFDF7C8FEB7
:10481000FEF752F901461EA0FFF742FE21A0FFF766
:104820003FFE0020FEF766F9274837220021FEF7F9
:1048300091F8254925A0FFF733FE2A4837220021A9
:10484000FEF762F8274928A0FFF72AFE25493722FC
:104850001D48FBF7C5FD1C49491E0870097828480A
:10486000012909D001220821FBF728FF25A0FFF725
:1048700017FEFEF79DF9FEE700220821FBF71EFF59
:104880002AA0FFF70DFEF4E750EF00E014ED00E082
:104890000D0A466C6173684944206973203078259D
:1048A000580D0A000D0ABCECB2E2B5BD53504920C8
:1048B000464C415348205732355133322F50323510
:1048C00051333220210D0A00150000200D0AD0B40A
:1048D000C8EBB5C4CAFDBEDDCEAAA3BA0D0A2573C6
:1048E00000000000580000200D0AB6C1B3F6B5C4A0
:1048F000CAFDBEDDCEAAA3BA0D0A257300000000D2
:10490000000802580D0AB4AED0D0666C61736828F6
:104910005732355133322F50323551333229B2E2CA
:10492000CAD4CAA7B0DC210A0D0000000D0AB4AE3B
:10493000D0D0666C617368285732355133322F50AE
:10494000323551333229B2E2CAD4B3C9B9A6210AE9
:104950000D00000000000000010203040102030436
:1049600006070809844900080000002058000000DC
:10497000E0440008DC49000858000020C01C00008A
:10498000F04400080090D0030090D0030100000024
:10499000100000000000000000B8D0D0BBC4FAD165
:1049A000A1D3C373746D3332BFAAB7A2B0E50D0AA9
:1049B00068747470733A2F2F73686F7033363332A4
:1049C000393331382E74616F62616F2E636F6D2FD2
:0C49D0000000000000000A0000000000D1
:040000050800029954
:00000001FF
