:020000040800F2
:1000000010050020B102000861390008D538000849
:100010005F390008CD0B00080B54000800000000F9
:10002000000000000000000000000000C33B0008CA
:10003000790C00080000000063390008C53B000887
:10004000CB020008CB020008CB020008CB0200085C
:10005000CB020008CB020008CB020008CB0200084C
:10006000CB020008CB020008CB020008CB0200083C
:10007000CB020008CB020008CB020008CB0200082C
:10008000CB020008CB020008CB020008CB0200081C
:10009000CB020008CB020008CB020008CB0200080C
:1000A000CB020008CB020008CB020008CB020008FC
:1000B000CB020008CB020008CB020008CB020008EC
:1000C000CB020008CB020008CB020008CB020008DC
:1000D000CB02000809540008CB020008CB0200083C
:1000E000CB020008CB02000800000000CB02000891
:1000F000CB020008CB020008CB020008CB020008AC
:10010000CB020008CB020008CB020008CB0200089B
:10011000CB020008CB020008CB020008CB0200088B
:10012000CB020008CB020008CB020008CB0200087B
:10013000CB020008CB020008CB020008CB0200086B
:1001400000000000000000000000000000000000AF
:10015000CB020008CB020008CB020008CB0200084B
:10016000CB020008CB020008CB020008CB0200083B
:10017000CB020008CB020008CB020008CB0200082B
:10018000CB020008CB020008CB020008CB0200081B
:10019000CB020008CB020008CB020008CB0200080B
:1001A000CB020008CB020008CB020008CB020008FB
:1001B000CB020008CB020008CB020008CB020008EB
:1001C000CB020008CB020008CB020008CB020008DB
:1001D000CB020008CB020008CB020008CB020008CB
:1001E000CB020008CB020008CB020008CB020008BB
:1001F000CB020008CB020008CB020008CB020008AB
:10020000CB020008CB020008CB020008CB0200089A
:10021000CB020008CB020008CB020008CB0200088A
:10022000CB020008CB020008CB020008000000004F
:10023000CB020008CB0200080000000039080008CB
:10024000CB020008CB020008CB020008CB0200085A
:10025000CB020008CB020008CB020008CB0200084A
:10026000CB020008CB020008CB020008CB0200083A
:10027000CB020008CB020008CB02000800000000FF
:10028000CB020008CB020008CB02000800000000EF
:1002900000000000CB020008DFF810D000F04AFA9E
:1002A00000480047115D0008AFF3008010050020F2
:1002B0000648804706480047FEE7FEE7FEE7FEE700
:1002C000FEE7FEE7FEE7FEE7FEE7FEE7753C000817
:1002D000990200082DE9F05F0546002092469B46F2
:1002E00088460646814640241BE02846414647464C
:1002F000224600F057F853465A46C01A914110D38F
:1003000011461846224600F03EF82D1A67EB010808
:100310004F4622460120002100F035F817EB000976
:100320004E41201EA4F10104DFDC484631462A4636
:100330004346BDE8F09FD2B201E000F8012B491E10
:10034000FBD270470022F6E710B513460A46044672
:100350001946FFF7F0FF204610BD30B50B460146A9
:1003600000202022012409E021FA02F59D4205D354
:1003700003FA02F5491B04FA02F52844151EA2F1FE
:100380000102F1DC30BD202A04DB203A00FA02F140
:10039000002070479140C2F1200320FA03F3194373
:1003A00090407047202A04DB203A21FA02F0002115
:1003B000704721FA02F3D040C2F120029140084375
:1003C000194670472DE9FE4F804681EA0300C00FB1
:1003D0000C46009021F0004123F00045B8EB0200EC
:1003E000A94105D24046214690461C460B4602468E
:1003F00023F00040104347D0270DC7F30A00C3F392
:100400000A510290401A019040286BDAC3F313009E
:1004100040F4801B0098924620B10023D2EB030ADF
:1004200063EB0B0B01985946C0F140025046FFF7B1
:10043000AAFF06460D4650465946019A00F08CF92F
:1004400010EB08006141002487EA115284EAE77347
:100450001A4340D0009A62B3019A012A4FEA075228
:1004600015DC001B61EB02014FF0004202EA07526B
:10047000CDE90042001C41F5801132462B4600F0C8
:100480008CF903B0BDE8F08F40462146F9E7001B28
:1004900061EB0201001C41F5801300185B4120183C
:1004A000A2F5001747EB030140EAD570B6196D417C
:1004B00011E06D084FEA360645EAC0754FEA07526B
:1004C000001B61EB0201001C41F5801149084FEA55
:1004D00030000019514132462B4603B0BDE8F04FC1
:1004E00000F04CB90098012240000023D0EB02023A
:1004F00063EBE073009821464FEAE074B8EB00002C
:1005000061EB0401E9E783F000435BE781F0004120
:1005100058E72DE9FE4F81EA030404F0004421F07E
:10052000004100944FF0000B23F0004350EA010417
:100530005ED052EA03045BD0C3F30A54C1F30A55F8
:100540002C44A4F2F3340194A0FB0254C1F3130130
:1005500041F48011C3F3130343F4801301FB0244FD
:1005600000FB034E840A970A44EA815447EA835702
:10057000A4FB076802958D0A05FB07854FEA932CBB
:1005800004FB0C542705029D4FEA065847EA16372C
:10059000B5EB08056EEB070C870E920E47EA811744
:1005A00042EA8312A7FB0201B6EB0B0164EB0004E5
:1005B0002B0D43EA0C335E1844EB1C50DA465146CF
:1005C000E7FB0201C5F313044FEA0B3343EA14536C
:1005D0004FEA0432019C43EA0603A4F10C0402949E
:1005E000009CCDE900B400F0D8F803B0BDE8F08F6E
:1005F00000200146F9E72DE9F04D81EA030404F0FB
:10060000004B21F0004514464FF0000A23F0004152
:1006100050EA050220D054EA01021DD0C5F30A5762
:100620000246C5F31303C1F31300C1F30A5640F4A5
:10063000801543F48013A7EB0608101BD64608F27A
:10064000FD3873EB050002D308F1010801E09218B0
:100650005B41B8F1000F03DA00200146BDE8F08DE0
:1006600000204FF48011064684460EE0171B73EB02
:10067000050705D3121B63EB050306434CEA010C87
:1006800049084FEA300092185B4150EA0107EDD16A
:1006900052EA030012D082EA040083EA050108430B
:1006A00005D0101BAB4106D20122002306E0002238
:1006B0004FF0004302E06FF0010253101AEB060006
:1006C0004CEB085110EB0A0041EB0B01BDE8F04D7B
:1006D00000F054B8C1F30A52C1F3130140F2FF33E2
:1006E00041F480119A4202DA00200146704740F23C
:1006F00033439A42A2F2334202DC5242FFF752BE27
:10070000FFF741BE30B5041E71F1000404DB4FF069
:100710000044404264EB0101141E73F1000405DB48
:100720001C464FF00043524263EB0403994208BF5A
:10073000904230BD064C074D06E0E06840F00103F2
:1007400094E8070098471034AC42F6D3FFF7A8FDB1
:10075000785E0008985E0008202A06DBCB17203A56
:1007600041FA02F043EAE07306E041FA02F3D040B6
:10077000C2F12002914008431946704710B5141E7B
:1007800073F1000408DA401C41F1000192185B414A
:100790001A4301D120F0010010BD2DE9F04D924621
:1007A0009B4611B1B1FA81F202E0B0FA80F2203238
:1007B0009046FFF7E8FD04460F4640EA0A0041EA8A
:1007C0000B0153465A46084313D0114653EA010021
:1007D00019D0C8F140025046FFF7E4FD05460E4629
:1007E000504659464246FFF7CEFD084305D001204A
:1007F00004E020463946BDE8F08D0020054346EA76
:10080000E0762C4337430A986305E40AA0EB08001E
:100810000022FD0A44EA47540A3002D5002001466E
:10082000E9E7010510196941DDE908450019694149
:10083000BDE8F04DA2E70000014800F087BC0000D1
:10084000AC00002070B5054644492868884202D0B3
:10085000434A904205D1D1F8080310F4403F05D136
:1008600018E04048006810F4403F13D002F0AAFBA3
:1008700004466868B0F5803F06D0B0F5003F03D06D
:10088000B0F5403F28D103E0000CB4FBF0F423E0C6
:10089000A40821E04FF4002001F064FC04466868DD
:1008A0008103890B18D181140C2915D2DFE801F0DE
:1008B000140606060606060B0D0F1113800C4000E9
:1008C000B4FBF0F408E0240906E0640904E0A4099C
:1008D00002E0E40900E0240A01F0E8F841F2030133
:1008E00088420ED82048844205D92868816841F49E
:1008F0008071816070BD2868816821F48071816099
:1009000070BD60081949884205D82868816821F4BB
:100910004071816070BD1549144AC943521E01449B
:10092000914207D82868816821F4407141F48071B0
:10093000816070BD0E4908440E49884207D8286876
:10094000816821F4407141F40071816070BD2868B4
:10095000816841F44071816070BD00000020024058
:100960000021024008630258002D3101105E5F0033
:10097000DF4341FF1FBCBE0070B50446206881689C
:10098000C1F3400502F0CCFF78B375BB20688168E5
:1009900001F00D01012909D0606D40F01000606583
:1009A000A06D40F00100A065012070BD8168104A73
:1009B0001140891C816021680320086001F07CF8E7
:1009C00005460EE001F078F8401B022809D9606D59
:1009D00040F010006065A06D40F00100A0650120AE
:1009E00070BD20688068C007ECD1002070BD000099
:1009F000C0FFFF7F70B50446206802F091FF50BB36
:100A000020688168234A114209D0606D40F01000CF
:100A10006065A06D40F00100A065012070BD816897
:100A20001C4E7F3E3140491C816001F045F805466F
:100A300019492068194B884201D0984201D1184ABF
:100A400000E0184A926802F01F02984200D0014666
:100A5000814218D0BAB11BE002F062FF20B92068D1
:100A600081683140491C816001F026F8401B022852
:100A700009D9606D40F010006065A06D40F0010084
:100A8000A065012070BD20680168C943C907E3D192
:100A9000002070BD3F000080002002400021024085
:100AA000002302400063025800B587B01148016876
:100AB00041F004010160006800F0040001900D485D
:100AC0001430016841F002010160006800F002008A
:100AD0000190032003900020049008200290064813
:100AE00002A900F0EBFE4FF00060014602F048FE64
:100AF00007B000BDE04402580008025810B5FFF7E7
:100B0000D3FF00F00DF803F051F8044800F00AFE9E
:100B1000BDE81040014800F083BD0000AC0000209B
:100B200030B5B7B04FF4002001900024099405259A
:100B30000295A020039019200490022005900690B1
:100B4000802007900894299401A801F07BFC1B48A1
:100B5000016841F080710160006800F080700090D1
:100B60001848174901604460012141758161C462E0
:100B700004770462446304210161446204758902BC
:100B8000016380F838408460C46000F033FC40F2B8
:100B9000FF740C480021224600F078F80A48309093
:100BA000062031903295339430A9064800F0C6F8FB
:100BB0000448FFF71FFF37B030BD0000E044025883
:100BC00000600258AC00002002003004FEE7000084
:100BD00070B5B6B02448016841F0010101600168B8
:100BE00001F001010191016841F00101016000681B
:100BF00000F001000190012502950024209402A834
:100C000001F020FC18481030016841F0100101602B
:100C1000006800F0100001906802319002203290CC
:100C2000339534900725359531A9104E304600F0A4
:100C300045FE4FF480613191359531A9304600F081
:100C40003DFE0C480A4901604FF4E1314160846087
:100C5000C46004610C2141618461C46104628462E6
:100C600002F09BFD36B070BDE0440258000002580F
:100C70000010014020000020704701B502E00098FC
:100C8000401E009000980028F9D108BDF8B5044630
:100C90000E4617460025009594F85000012810D004
:100CA000012084F850002046FFF766FE0346180036
:100CB00009D0606D40F01000606584F8505018460F
:100CC000F8BD0220F8BD606D20F4885040F00200AD
:100CD0006065206806F4803107F080421143826825
:100CE000114E3240114341F0004181600F492068AC
:100CF0000FE0009A521C0092009A8A4209D3606D5C
:100D000020F0020040F01000606584F8505001208F
:100D1000F8BD8268D20F002AEBD1606D20F002008E
:100D200040F001006065C8E7C0FFFE3F00F8C32542
:100D30007047704770477047704700002DE9FC5FAF
:100D400004460D464FF00008C346CDF804B0DFF866
:100D5000B0A3EC4EEC4F94F85000012812D04FF0A5
:100D6000010984F85090206802F0DEFD60B1606DEA
:100D700040F0200060654FF0010884F850B0404614
:100D8000BDE8FC9F0220FBE72168CA6928680303CD
:100D900029D090FAA0F0B0FA80F000F01F0009FA14
:100DA00000F00243CA61A98820682A6801F44073F0
:100DB00000EB9310036B01F01F014FF01F0CC2F307
:100DC00084620CFA01FC8A4023EA0C031343036398
:100DD000206802F0A9FD0090206802F09DFD0099B6
:100DE000014303D086E0C0F38460D6E7AA6829688F
:100DF000206802F0A5FDC5480068B9EB107F07D157
:100E000021686869C968C1F382014900884010E01F
:100E10002168C868C00606D46869C968C1F3820140
:100E20004900884005E06869C96801F01001490877
:100E30008840296904292DD023682A6803EB8101A1
:100E40000B6E02F0F842024303F0004313430B66BB
:100E5000697E20682A69012916D0002100EB8200F2
:100E6000026E22F000420A430266297E20682A6947
:100E700001290CD00021036902F01F0223F4F04382
:100E800091400B43036135E04FF00041E6E74FF43A
:100E90000061F0E72068016E2A7801F0F841B1EBBB
:100EA000826F03D1016E21F0004101662068416E1E
:100EB0002A7801F0F841B1EB826F03D1416E21F045
:100EC000004141662068816E2A7801F0F841B1EB5B
:100ED000826F03D1816E21F0004181662068C16E6E
:100EE0002A7801F0F841B1EB826F03D1C16E21F095
:100EF0000041C166206802F013FD00287FF43DAF79
:100F000020682A7B296850F8C03FC1F3130C23EAFC
:100F10000C0302F0180C7E4A22FA0CF20A4013432A
:100F200003607C48E968814274D12868010319D0C4
:100F300090FAA0F1B1FA81F1491C01F01F010929D1
:100F400031D80103002910D090FAA0F1B1FA81F153
:100F500001F1010101F01F0109FA01F908D1C0F303
:100F6000846109E0C0F38461E6E7C0F38461EFE7E0
:100F700090FAA0F1B1FA81F101F1010101F01F0134
:100F800049EA816102D1C0F3846003E090FAA0F0E5
:100F9000B0FA80F000F1010000F01F0000EB40000B
:100FA00041EA005132E04FEA003100290DD090FAB9
:100FB000A0F1B1FA81F101F1010101F01F0109FA7B
:100FC00001F905D1C0F3846106E0C0F38461F2E762
:100FD00090FAA0F1B1FA81F101F1010101F01F01D4
:100FE00049EA816102D1C0F3846003E090FAA0F085
:100FF000B0FA80F000F1010000F01F00A0F10A003B
:1010000000EB400041EA005040F00071AA682068FF
:1010100002F096FC2A68002ABFF6AFAE20683E4B6D
:10102000DFF8F8C0504501D0B04201D1194600E0C8
:101030006146896801F0E071504501D0B0420AD1A3
:10104000DAF80850C5F30005D6F80890C9F300098E
:1010500045EA090502E0BD68C5F3000535B1606DDC
:1010600040F0200060654FF0010886E62C4DAA4252
:101070001ED10D021CD4B842F7D1504502D0B04267
:1010800000D0634641F40000996821F0E07101430B
:101090009960244824490068B0FBF1F040000190B9
:1010A00002E00198401E019001980028F9D164E601
:1010B0001E4DAA4210D1CD010ED4B842D5D1504513
:1010C00002D0B04200D0634641F08070996821F0B0
:1010D000E0710143996050E6154DAA42C5D14A021C
:1010E000C3D4B842C1D1504502D0B04200D063460B
:1010F00041F48000996821F0E071014399603CE679
:101100000020024000210240006002580010005CF4
:10111000FFFF0F000000FF4700230240006302585A
:10112000000084CB00000020400D0300000052C7E7
:101130000000B8CF10B500F006F80149088010BDD6
:101140001800002070470068006C70472DE9F05FC0
:1011500004464FF00008206805684668DFF884926E
:10116000DFF884A2484501D0504501D19F4800E0F6
:101170009F48806800F01F07A8070ED5B0070CD560
:10118000606DC00603D4606D40F400606065204669
:10119000FFF7CEFD216802200860680701D57007BF
:1011A00003D4280737D5300735D5606DC00603D482
:1011B000606D40F400706065206802F0B9FB20B3F8
:1011C0002068504501D1494600E00146814208D0DF
:1011D0003FB1052F05D0092F03D0504503D1494613
:1011E00002E0C16801E00146C96889040DD40168C4
:1011F00009070AD502F098FB58B3606D40F0100063
:101200006065A06D40F00100A0652046FFF792FFE9
:1012100021680C200860A80601D5B00603D4680632
:1012200059D5700657D5606DC00603D4606D40F483
:10123000005060652068C16C11F4C07F1AD04FF077
:10124000000B02F075FB02462068504515D1494657
:1012500014E02068416821F00C014160606D20F4C9
:1012600080706065606DC004CFD4606D40F0010097
:101270006065CAE74FF0010BE3E70146814208D001
:101280003FB1062F05D0072F03D0504503D1494663
:1012900002E0C16801E00146C968BBF1000F04D15A
:1012A0008B0112D48AB18A040FD4026852060CD57D
:1012B00089020AD402F030FBF0B3606D40F01000F8
:1012C0006065A06D40F00100A0652046FFF731FD8C
:1012D00021686020086028060BD5300609D5606DAE
:1012E00040F480306065204600F098F92168802045
:1012F0000860E8050CD5F0050AD5606D40F40030B3
:1013000060652046FFF717FD21684FF48070086084
:10131000A8050CD5B0050AD5606D40F48020606545
:101320002046FFF709FD21684FF400700860E806C9
:1013300040D5F0063ED500E009E0206BC0B117B300
:101340002068484501D0504515D1284814E0206850
:10135000416821F060014160606D20F4805060655B
:10136000606DC005B1D4606D40F001006065ACE710
:101370004FF001080DE01E48806800F4404040B185
:101380004FF0010805E02068C068800701D04FF0E9
:101390000108B8F1010F0AD1606D40F4806060650A
:1013A000A06D40F00200A0652046FFF7CBFE21684B
:1013B00010200860680512D5700510D5606D40F4E6
:1013C00080406065A06D40F00800A06521684FF482
:1013D000806008602046BDE8F05FFFF7ABBCBDE869
:1013E000F09F000000200240002102400023024044
:1013F00000630258F8B50446002500260096002C2C
:1014000002D0606D10B107E00120F8BD204600F069
:1014100006F9A66584F8506020688168C1F34071C0
:1014200019B18168724A1140816020688168C1F3F6
:10143000007191B981686F4A114041F0805181601B
:101440006D486E490068B0FBF1F0009002E0009832
:10145000401E009000980028F9D120688168C1F3EF
:10146000007141B9616D41F010016165A16D41F0FC
:101470000101A165012502F057FA616DC90600D48A
:1014800030B1606D40F01000606501252846F8BD60
:10149000606D20F4807040F002006065206802F00A
:1014A0003FFA00BB564A2068564B904201D0984202
:1014B00007D19168C1F300019E68C6F3000631436D
:1014C00003E051498968C1F3000161B9904201D03C
:1014D000984201D14D4800E04D486168826822F48D
:1014E0007C120A43826000F0E1FA41F20301884273
:1014F00002D9A06810280CD0A168206B227F084375
:10150000617D490341EA02410843217F01290CD052
:101510000FE0617D227F206B490340F0100041EA1B
:101520000241084340F00C00EFE7218C491E40EADD
:101530004140616A29B1A26A01F47871014342EA2B
:1015400001002168CA68334B1A400243CA60206810
:1015500002F0EAF90646206802F0DEF906431DD1E2
:10156000217DE06A40EA81312068C26844F20303C9
:101570009A430A43C26094F8380001281DD02068BD
:10158000016921F00101016120680169626B21F0AC
:101590007041114301612046FFF754F9E0680128CA
:1015A0001DD02068016B21F00F010163606D20F0F8
:1015B000020040F00100606568E7A28F0123D4E9D2
:1015C0001010521E0143A06C03EB02421043014372
:1015D00020680269104B1A4011430161D4E720686A
:1015E000016BA26921F00F01521E11430163DDE777
:1015F000C0FFFF5FC0FFFF7F00000020400D030021
:1016000000200240002102400060025800230240F6
:101610000063025803C0F0FF1EF800FC70477047DB
:101620002DE9F04104463A4E3A4F2068B04201D0CD
:10163000B84201D1384900E03849896801F01F05F6
:1016400002F072F918B102210846BDE8F08194F861
:10165000500001280BD0012084F850002046FFF7ED
:10166000C9F90146002321B184F85030ECE702208B
:10167000EBE7606D40F60162904340F48070606576
:101680002068B84201D1324600E00246824200D0D2
:101690001DB9626D22F480126265626DD20404D5B8
:1016A000A26D22F00602A26500E0A3651C22026082
:1016B00084F850302068B84201D1324600E002463A
:1016C000824215D0A5B1052D12D0092D10D0626D22
:1016D00042F480126265B84200D13046C068800191
:1016E000B2D5606D20F4005040F480506065ABE7E7
:1016F000C268920105D5626D22F4005242F4805214
:1017000062658268064B1A40121D82609CE70000E9
:1017100000200240002102400023024000630258E2
:10172000C0FFFF7F2DE9F04104465F4E5F4F206808
:10173000B04201D0B84201D15D4900E05D498968FD
:1017400001F01F0502F0F0F818B102210846BDE8CB
:10175000F08194F8500001280BD0012084F850004B
:101760002046FFF747F90146002321B184F85030A5
:10177000ECE70220EBE7606D40F60162904340F435
:10178000807060652068B84201D1324600E00246B0
:10179000824200D01DB9626D22F480126265626DD2
:1017A000D20404D5A26D22F00602A26500E0A36572
:1017B0001C22026084F850302068426822F01C022B
:1017C00042602069082807D02068426842F004027D
:1017D0004260206B30B10AE02068426842F00802A3
:1017E0004260F6E72068426842F0100242602068DA
:1017F000B84201D1324600E0024682420CD05DB1CF
:10180000052D09D0092D07D0626D42F48012626562
:10181000B84227D1324626E0C268920111D5626DE6
:1018200022F4005242F4805262652269082A0FD0E5
:10183000426822F0400242602068426842F0200282
:101840004260206882681C4B1A40121D82607DE74E
:10185000426822F0200242602068426842F0400262
:101860004260EEE70246D2689201F0D5626D22F442
:10187000005242F4805262652269082A09D0426807
:1018800022F0400242602068426842F0200242603A
:101890005CE7426822F0200242602068426842F021
:1018A0004002426052E70000002002400021024056
:1018B0000023024000630258C0FFFF7F2DE9F84F6C
:1018C00000226E4C4FF0B0494FF0010A4FF0030E6A
:1018D0004FF00F08CAE00AFA02F73B40002B70D025
:1018E0004D68022D01D0122D12D1D50800EB850CC8
:1018F000DCF820605507ED0E08FA05FB26EA0B061A
:10190000D1F810B00BFA05FB4BEA060BCCF820B06F
:10191000D0F800C055000EFA05F62CEA060C91F836
:1019200004B00BF0030B0BFA05FB4BEA0C0BC0F8F1
:1019300000B0D1F804C0BCF1010F08D0BCF1020F17
:1019400005D0BCF1110F02D0BCF1120F16D1D0F8A6
:1019500008C02CEA060CD1F80CB00BFA05FB4BEAD8
:101960000C0BC0F808B0D0F804C02CEA070C0F79B3
:10197000C7F30017974047EA0C074760C768B743AB
:101980008E68AE403E43C6604D68ED006DD53C4D5F
:101990002E6846F002062E602D6805F002050095BF
:1019A00022F0030606F1B046D6F808C495072F0FBB
:1019B00008FA07F52CEA050C324DA84202D10025A1
:1019C0002EE052E0304DA84201D1012528E02F4DF4
:1019D000A84201D1022523E02D4DA84201D10325C3
:1019E0001EE02C4DA84201D1042519E02A4DA84241
:1019F00001D1052514E0294DA84201D106250FE0AB
:101A0000274DA84201D107250AE0264DA84201D161
:101A1000082505E0244DA84201D1092500E00A254A
:101A2000BD4045EA0C05C6F8085425689D434E683C
:101A3000F60300D51D43256065689D434E68B603D7
:101A400000D51D436560D9F800509D434E68F602ED
:101A500000D51D43C9F80050D9F804509D434E6885
:101A6000B60200D51D43C9F80450521C0B6833FA66
:101A700002F57FF430AFBDE8F88F00008000005819
:101A8000F4440258000002580004025800080258AA
:101A9000000C025800100258001402580018025896
:101AA000001C025800200258002402580148006817
:101AB000000C70470010005C044840680449B0FB0B
:101AC000F1F04FF47A71484370470000001000E0D5
:101AD00000389C1C0248816802781144816070477C
:101AE000080000200648016841F080710160054847
:101AF00000214160016841F0010101600020704750
:101B0000FCED00E0001000E000280DDB012100F0FA
:101B10001F0291404009800000F1E020C0F88011D0
:101B2000BFF34F8FBFF36F8F7047002809DB012190
:101B300000F01F0291404009800000F1E020C0F851
:101B400000117047F0B40D460D4B1B68C3F3022320
:101B5000C3F10704042C00D90424191D072901D25C
:101B6000002300E0DB1E012606FA04F1491E29408D
:101B700099409E40761E16403143F0BC03F056BC9F
:101B80000CED00E070B512490A68520706D40A68E5
:101B900002F00702824201D0012070BD0A6822F0E3
:101BA000070202430A60FFF787FF0446084D4FF41F
:101BB0007A76083D06E0FFF77FFF001BB04201D9AF
:101BC000032070BD28688004F5D5002070BD00009A
:101BD0000C48025810B501F02FFA06490968064A68
:101BE000C1F30321515C01F01F01C84003490860A3
:101BF00010BD000018440258685E00080000002074
:101C000010B501F0DFF905490968054AC1F3021171
:101C1000515C01F01F01C84010BD00002044025873
:101C2000685E000810B569490A6802F00302096895
:101C3000C1F30511654B1B1D1B6803F00103634CC9
:101C40000C342468C4F3CC0414FB03F300EE103A04
:101C5000B8EE400A002971D09FED5D1A5B4BF7EE9C
:101C6000000A0833F2B39FED5B2A012A7FD0022AD3
:101C70007CD001EE901A1968F8EE611AC2EE212AA2
:101C8000C1F3080101EE901AF8EE611A40EE011A54
:101C900031EEA00A22EE800A1968C1F3462101EE56
:101CA000101AB8EE411A31EE201AC0EE011ABCEE3D
:101CB000E11A80ED001A1968C1F3064101EE101A0D
:101CC000B8EE411A31EE201AC0EE011ABCEEE11A4C
:101CD00080ED011A1968C1F3066101EE101AB8EE21
:101CE000411A00E008E071EE200A80EE201ABCEEF6
:101CF000C10A80ED020A10BD344A283A1468A406CD
:101D00001ED51268C2F3C104334AE24001EE902AA4
:101D1000F8EE612A01EE901A1968F8EE611A82EE67
:101D2000A12AC1F3080101EE901AF8EE611A40EE03
:101D3000011A31EEA00A22EE000AADE741E016E0FA
:101D400001EE901ADFED252A1968F8EE611A82EE8D
:101D5000A12AC1F3080101EE901AF8EE611A40EED3
:101D6000011A31EEA00A22EE000A95E713E001EE17
:101D7000901A1968F8EE611AC2EE212AC1F308011F
:101D800001EE901AF8EE611A40EE011A31EEA00A47
:101D900022EE800A80E701EE901ADFED112A196821
:101DA000F8EE611A82EEA12AC1F3080101EE901A41
:101DB000F8EE611A40EE011A31EEA00A22EE000A96
:101DC0006AE7002101604160816010BD284402582B
:101DD000000000390024744A0090D0030024744CA1
:101DE00020BCBE4B10B569490A6802F003020968BD
:101DF000C1F30531654B1B1D1B6803F01003634CD9
:101E000014342468C4F3CC0414FB03F300EE103A3A
:101E1000B8EE400A002971D09FED5D1A5B4BF7EEDA
:101E2000000A1033F2B39FED5B2A012A7FD0022A09
:101E30007CD001EE901A1968F8EE611AC2EE212AE0
:101E4000C1F3080101EE901AF8EE611A40EE011A92
:101E500031EEA00A22EE800A1968C1F3462101EE94
:101E6000101AB8EE411A31EE201AC0EE011ABCEE7B
:101E7000E11A80ED001A1968C1F3064101EE101A4B
:101E8000B8EE411A31EE201AC0EE011ABCEEE11A8A
:101E900080ED011A1968C1F3066101EE101AB8EE5F
:101EA000411A00E008E071EE200A80EE201ABCEE34
:101EB000C10A80ED020A10BD344A283A1468A4060B
:101EC0001ED51268C2F3C104334AE24001EE902AE3
:101ED000F8EE612A01EE901A1968F8EE611A82EEA6
:101EE000A12AC1F3080101EE901AF8EE611A40EE42
:101EF000011A31EEA00A22EE000AADE741E016E039
:101F000001EE901ADFED252A1968F8EE611A82EECB
:101F1000A12AC1F3080101EE901AF8EE611A40EE11
:101F2000011A31EEA00A22EE000A95E713E001EE55
:101F3000901A1968F8EE611AC2EE212AC1F308015D
:101F400001EE901AF8EE611A40EE011A31EEA00A85
:101F500022EE800A80E701EE901ADFED112A19685F
:101F6000F8EE611A82EEA12AC1F3080101EE901A7F
:101F7000F8EE611A40EE011A31EEA00A22EE000AD4
:101F80006AE7002101604160816010BD2844025869
:101F9000000000390024744A0090D0030024744CDF
:101FA00020BCBE4B10B569490A6802F003020968FB
:101FB000C1F30551654B1B1D1B6803F48073634C13
:101FC0001C342468C4F3CC0414FB03F300EE103A71
:101FD000B8EE400A002971D09FED5D1A5B4BF7EE19
:101FE000000A1833F2B39FED5B2A012A7FD0022A40
:101FF0007CD001EE901A1968F8EE611AC2EE212A1F
:10200000C1F3080101EE901AF8EE611A40EE011AD0
:1020100031EEA00A22EE800A1968C1F3462101EED2
:10202000101AB8EE411A31EE201AC0EE011ABCEEB9
:10203000E11A80ED001A1968C1F3064101EE101A89
:10204000B8EE411A31EE201AC0EE011ABCEEE11AC8
:1020500080ED011A1968C1F3066101EE101AB8EE9D
:10206000411A00E008E071EE200A80EE201ABCEE72
:10207000C10A80ED020A10BD344A283A1468A40649
:102080001ED51268C2F3C104334AE24001EE902A21
:10209000F8EE612A01EE901A1968F8EE611A82EEE4
:1020A000A12AC1F3080101EE901AF8EE611A40EE80
:1020B000011A31EEA00A22EE000AADE741E016E077
:1020C00001EE901ADFED252A1968F8EE611A82EE0A
:1020D000A12AC1F3080101EE901AF8EE611A40EE50
:1020E000011A31EEA00A22EE000A95E713E001EE94
:1020F000901A1968F8EE611AC2EE212AC1F308019C
:1021000001EE901AF8EE611A40EE011A31EEA00AC3
:1021100022EE800A80E701EE901ADFED112A19689D
:10212000F8EE611A82EEA12AC1F3080101EE901ABD
:10213000F8EE611A40EE011A31EEA00A22EE000A12
:102140006AE7002101604160816010BD28440258A7
:10215000000000390024744A0090D0030024744C1D
:1021600020BCBE4B2DE9F04389B00146B2484FF484
:102170008078DFF8C0C24FF08055B04CB04F0311EB
:1021800046044145ACF104022ED1DCF8001001F008
:102190000701052926D2DFE801F0030A0F23140006
:1021A00006A8FFF73FFD079809B0BDE8F08303A834
:1021B000FFF718FE0398F7E76846FFF7F3FE00986D
:1021C000F2E7116801F040510029EDD0A94201D198
:1021D0001846E9E7B14201D12046E5E70020E3E7F0
:1021E0003846E1E70020DFE7B1F5007F1ED0DFF8D9
:1021F0004482B1F5806F08F1080848D0B1F5006F4E
:1022000072D04FF4805949456FD1DCF8001001F4C9
:10221000E041B1F5005F69D069DC002968D049452B
:1022200067D103A8FFF7DEFD0398BDE7DCF80010D7
:1022300001F4E07180291BD003DC79B1402924D15D
:1022400011E0C0291FD041451FD1116801F0405154
:102250000029A9D0A94210D11846A5E706A8FFF782
:10226000E1FC0798A0E703A8FFF7BCFD03989BE7F4
:102270006846FFF797FE009896E7B14201D12046E5
:1022800092E7002090E738468EE700208CE7D8F8E8
:10229000001001F46001B1F5800F17D004DC59B1D2
:1022A000B1F5001F06D10CE0B1F5C00F28D0B1F593
:1022B000000F10D0002077E706A8FFF7B3FC0798BF
:1022C00072E703A8FFF78EFD03986DE76846FFF7F6
:1022D00069FE009868E7116801F040510029A4D018
:1022E000A94207D118465FE70CE063E04CE03EE00E
:1022F00045E042E0B14201D1204655E7002053E7D6
:10230000384651E7D8F8001001F0E061B1F1007FE4
:1023100017D004DC59B1B1F1807F06D10CE0B1F1E6
:10232000407F22D0B1F1806F10D000203CE706A89A
:10233000FFF778FC079837E703A8FFF753FD0398EA
:1023400032E76846FFF72EFE00982DE7116801F08E
:102350004051002986D0A94201D1184624E7B14254
:1023600001D1204620E700201EE738461CE7B1F5E2
:10237000405F1DD0B1F5804F0BD0002014E706A8B8
:10238000FFF750FC07980FE76846FFF70BFE009831
:102390000AE7116801F0405100298CD0A94201D10F
:1023A000184601E7B14201D12046FDE60020FBE6D8
:1023B0003846F9E6B1F5002F4FF480370CD0B9421A
:1023C00036D1106800F4803058B3B8422ED103A83B
:1023D000FFF708FD0598E7E6D8F8001001F4403152
:1023E00031B1B94209D0B1F5003F0BD00020DBE696
:1023F00003A8FFF7F7FC0398D6E66846FFF7D2FD7F
:102400000298D1E6116801F0405100298ED0A9420E
:1024100001D11846C8E6B14201D12046C4E60020E9
:10242000C2E606A8FFF7FEFB0798BDE60020BBE664
:102430000020B9E6504402580090D00340787D0156
:102440000080BB002DE9F84F044600250026FB4F15
:102450002068DFF8EC83010104F1240000900DD521
:10246000606EB0B1B0F5801F18D0B0F5001F1BD062
:10247000B0F5401F00D00125E5B12E462088C005EB
:1024800035D5606D05282FD2DFE800F01D22282FFA
:102490002F00386840F400303860EDE70221201D3D
:1024A00001F060FA0546E7E70098022101F0ECFA36
:1024B0000546E1E7D8F80000616E20F440100843BB
:1024C000C8F80000DAE7386840F4003038600CE003
:1024D0000021201D01F046FA054606E00098002183
:1024E00001F0D2FA054600E001255DB12E462088B4
:1024F000800518D5A06D802830D00CDC18B340289A
:102500000ED125E0D8F80000616D20F007000843E7
:10251000C8F80000EBE7C02803D0B0F5807F00D0FA
:1025200001250DB32E462088DFF8189340052DD5E0
:10253000D4F8A400B0F5800F42D01EDCA0B3B0F5F3
:10254000001F20D136E0386840F400303860E8E7FA
:102550000021201D01F006FA0546E2E7009800215F
:1025600001F092FA0546DCE7D8F80000A16D20F4EE
:10257000E0700843C8F80000D5E7B0F5C00F03D0FD
:10258000B0F5000F00D0012505B32E4620880005C8
:102590002FD5D4F8A800B0F1007F52D020DCE8B3EA
:1025A000B0F1807F22D146E0FFE7386840F4003088
:1025B0003860E9E70021201D01F0D4F90546E3E782
:1025C0000098002101F060FA0546DDE7D9F8000027
:1025D000D4F8A41020F460000843C9F80000D5E73F
:1025E000B0F1407F03D0B0F1806F00D0012575B30A
:1025F0002E46206880010AD5A06C30B1102831D059
:10260000202835D0302800D0012585B32E462088DB
:10261000C00446D5E06DB0F5005F00E006E05BD099
:1026200036DCA0B3B0F5805F38D14FE0386840F4B5
:1026300000303860DBE70021201D01F093F90546EA
:10264000D5E70098002101F01FFA0546CFE7FFE724
:10265000D9F80000D4F8A81020F0E0600843C9F8C9
:102660000000C6E7386840F400303860CDE705E088
:102670000221201D01F076F90546C6E77048001FCB
:102680000168A26C21F0300111430160BFE718E03E
:10269000B0F5405F03D0B0F5804F00D001250DB3F9
:1026A0002E46208880042FD5206EB0F5403F29D0DB
:1026B00021DC38B3B0F5803F37D0B0F5003F20D1F2
:1026C00039E0386840F400303860E8E70021201D28
:1026D00001F048F90546E2E70098002101F0D4F93D
:1026E0000546DCE7D8F80000E16D20F4E04008433F
:1026F000C8F80000D5E7B0F5802F03D0B0F5A02FC3
:1027000000D00125EDB12E46208840042BD5D4F809
:10271000AC00B0F1405F24D01CDC10B3B0F1805F9E
:102720004BD0B0F1005F1BD14EE00121201D01F024
:1027300019F90546E6E70098012101F0A5F90546DB
:10274000E0E7D8F80000216E20F4E0200843C8F844
:102750000000D9E7B0F1804F03D0B0F1A04F00D016
:10276000012585B32E46208800040AD5E06E30B1DD
:10277000B0F1805F39D0B0F1005F3BD001259DB34F
:102780002E462068C0010AD5606C30B1012841D0C6
:10279000022844D0032800D001258DB32E4620689E
:1027A000DFF8A4B0400261D52848016841F4807187
:1027B0000160FFF781F9824652E00121201D01F0FE
:1027C000D1F80546CDE705E00098012101F05CF95C
:1027D0000546C6E7D9F80000D4F8AC1020F0E04078
:1027E0000843C9F80000BEE70BE0386840F4003049
:1027F0003860C4E70121201D01F0B4F80546BEE7AA
:1028000013E0D8F80000E16E20F040500843C8F80B
:102810000000B6E7386840F400303860BDE70221B8
:10282000201D01F09FF80546B7E70548001F016825
:10283000626C21F0030111430160B0E72C4402589F
:102840005044025858440258104402580048025854
:10285000FFF732F9A0EB0A00642801D9032503E051
:10286000FE480068C005F3D57DB12E462078DFF81C
:10287000F0A3C00766D0A06F182861D05BDC80B3DE
:1028800008286AD010285AD16DE0F5481C3000683D
:1028900000F44071B4F8B00000F4407081420DD0F3
:1028A000EF481C30016821F44071026842F4803224
:1028B0000260026822F4803202600160D4F8B00045
:1028C000B0F5807F13D1FFF7F7F882460AE0FFF7F3
:1028D000F3F8A0EB0A0141F28830814202D90325C6
:1028E00005E02DE0DE481C3000688007EFD50DB113
:1028F0002E46BBE7D4F8B000C0F3012103290FD066
:10290000DBF8000020F47C50CBF80000D4481C30E9
:102910000168B4F8B020C2F30B0211430160A5E7CF
:10292000DBF80010CF4A21F47C51104041EA10102E
:10293000CBF80000EAE7202802D0282800D00125A3
:10294000BDB12E46207880072BD5606F062825D292
:10295000DFE800F025181E2525250121201D01F0A6
:1029600001F80546ECE70098012101F08DF80546D5
:10297000E6E7DAF80000A16F20F038000843CAF853
:102980000000DFE70121201D00F0ECFF054606E016
:102990000098012101F078F8054600E0012565B1B5
:1029A0002E462078400720D5D4F89000062819D26A
:1029B000DFE800F0190C12191919DAF80000616F3C
:1029C00020F007000843CAF80000EAE70121201DB3
:1029D00000F0C8FF054606E00098012101F054F818
:1029E000054600E001258DB12E462078800620D5D1
:1029F000D4F88C00B0F1405F19D011DCB8B1B0F15F
:102A0000805F27D0B0F1005F10D129E0D9F8000035
:102A1000D4F8901020F007000843C9F80000E4E75C
:102A2000B0F1804F03D0B0F1A04F00D00125EDB13F
:102A30002E46207840062CD5D4F89800B0F5406F8B
:102A400025D01DDC18B3B0F5806F33D0B0F5006F22
:102A50001CD135E00021201D00F084FF0546E6E78B
:102A60000098022101F010F80546E0E7DAF80000CE
:102A7000D4F88C1020F0E0400843CAF80000D8E7F2
:102A8000B0F5805F03D0B0F5A05F00D00125EDB1B7
:102A90002E46207800062CD5D4F89C00B0F5C04F07
:102AA00025D01DDC18B3B0F5005F7CD0B0F5804FA9
:102AB0001CD1E0E00021201D00F054FF0546E6E7B0
:102AC0000098022100F0E0FF0546E0E7D9F8000099
:102AD000D4F8981020F4E0500843C9F80000D8E773
:102AE000B0F5004F03D0B0F5204F00D00125EDB375
:102AF0002E46207800070BD5D4F88000B0F5805F13
:102B000075D0DAF8001021F440510143CAF80010E2
:102B10002078C0060BD5D4F89400B0F5807F68D03B
:102B2000D9F8001021F440710143C9F80010206861
:102B300000030BD5D4F8A000B0B3B0F5803F7DD032
:102B4000B0F5003F00D001257DB32E46206840033C
:102B50000FD5D4F88400B0F5801F71D0B0F5001FF8
:102B60006FD0B0F5401F00D0012500E089E0E5B34B
:102B70002E462068C00307D5E06CB8B3B0F5803F9F
:102B800072D00125A5B32E462068800005D5009897
:102B9000022100F079FF00B101262068800311D5E1
:102BA000E06F68B102E060E089E094E0B0F5807F1A
:102BB00071D0B0F5007F03D0B0F5407F00D0012583
:102BC000EDB32E462068C00207D5D8F80000216F6B
:102BD00020F000400843C8F800002068C0000ED56F
:102BE000DBF8000020F4804004E089E092E053E04C
:102BF0009BE05AE0D4F8B4100843CBF800002068FA
:102C0000800207D5D8F80000A16E20F0807008433C
:102C1000C8F80000206840000CD5DBF8000020F464
:102C20000040CBF80000DBF80000D4F8B8100843EF
:102C3000CBF80000206800280CDA03E045E081E0D2
:102C400053E057E0064808380168226D21F04051F2
:102C50001143016096B30120BDE8F88F0048025887
:102C600054440258FFFCFF0F59E00021201D00F0E2
:102C700079FE05463BE70098022100F005FF054676
:102C800035E7D9F80000D4F89C1020F460400843E0
:102C9000C9F800002DE750E00098022100F0F4FE92
:102CA00000283FF435AF012632E70098022100F0FA
:102CB000EBFE00283FF43BAF012638E74BE0002154
:102CC000201D00F04FFE05463EE70098022100F06F
:102CD000DBFE054638E7D9F80000D4F8A01020F450
:102CE00040300843C9F8000030E7386840F400304D
:102CF00038603AE70098012100F0C6FE054634E747
:102D0000DAF80000D4F8841020F440100843CAF820
:102D100000002EE7386840F40030386032E70221C6
:102D2000201D00F01FFE05462CE70C480168E26CF0
:102D300021F480311143016026E7386840F4003007
:102D400038603DE7DAF80000E16F20F44070084396
:102D5000CAF8000036E700207EE700004C44025825
:102D60002DE9F05F04460D46002C17D0DFF83882BD
:102D7000D8F8000000F00F00A84211D2D8F80000E7
:102D800020F00F002843C8F80000D8F8000000F039
:102D90000F00A84204D00120BDE8F09F0120FBE70E
:102DA0002078824E40070AD52069316801F0700111
:102DB000884204D9316821F07001014331602078E4
:102DC0007B4F00070AD56069396801F070018842BD
:102DD00004D9396821F07001014339602078C006B8
:102DE0000AD5A069396801F4E061884204D93968DC
:102DF00021F4E061014339602078DFF8B891800662
:102E00000DD5E069D9F8001001F07001884206D9AB
:102E1000D9F8001021F070010143C9F800102078A2
:102E200080070AD5E068316801F00F01884204D9B3
:102E3000316821F00F01014331602078C00743D091
:102E40003068A16820F470600843306057496068BA
:102E50001839022808D003280BD001280ED00968A1
:102E6000490710D4012097E7096889030BD4012092
:102E700092E70968890106D401208DE70968C90530
:102E800001D4012088E7DFF824A1AAF1080ADAF8C2
:102E9000001021F007010143CAF80010FEF70CFEF4
:102EA000834609E0FEF708FEA0EB0B0141F28830F3
:102EB000814201D903206FE7DAF80000616800F071
:102EC0003800B0EBC10FEDD1207880070AD5E0685B
:102ED000316801F00F01884204D2316821F00F01FE
:102EE00001433160D8F8000000F00F00A8420ED96D
:102EF000D8F8000020F00F002843C8F80000D8F8E8
:102F0000000000F00F00A84201D0012044E7207823
:102F100040070AD52069316801F07001884204D267
:102F2000316821F0700101433160207800070AD533
:102F30006069396801F07001884204D2396821F073
:102F40007001014339602078C0060AD5A06939684C
:102F500001F4E061884204D2396821F4E061014360
:102F60003960207880060DD5E069D9F8001001F0AD
:102F70007001884206D2D9F8001021F07001014397
:102F8000C9F8001000F058F831680B4AC1F303216A
:102F9000515C01F01F01C8400849086008480068FA
:102FA000BDE8F05FFEF79EBD0020005218440258B5
:102FB0001C44025820440258685E000800000020AB
:102FC0000C00002010B5FEF705FE06490968064A08
:102FD00001F00F01515C01F01F01C8400349086076
:102FE00010BD000018440258685E0008040000206C
:102FF00010B5FFF7E7FF05490968054AC1F302115B
:10300000515C01F01F01C84010BD00001C44025873
:10301000685E000810B5FFF7D5FF05490968054A45
:10302000C1F30221515C01F01F01C84010BD000036
:103030001C440258685E000830B564480068654C5E
:1030400010F03801624808D0021108290DD010296B
:103050000DD018290DD0104630BD21688906FBD54A
:103060002168C1F3C101C84030BD104630BD5A4887
:1030700030BD564918310A6802F003020968C1F3ED
:103080000511524B1C331B6803F001034F4D2435CF
:103090002D68C5F3CC0515FB03F300EE103AB8EE2E
:1030A000400A002977D0DFED4D0A484BB7EE001AF1
:1030B00020333AB39FED4A2A012A58D0022A6CD015
:1030C00001EE901A1868F8EE611AC2EE212AC0F3D8
:1030D000080001EE900AF8EE611A40EE201A31EE77
:1030E000810A22EE800A1868C0F34620401C00EED8
:1030F000900AF8EE600A80EE201ABCEEC10A10EECB
:10310000100A30BD226892061BD52268C2F3C102A4
:10311000D04001EE900A1868F8EE612A01EE901A8C
:10312000F8EE611A82EEA12AC0F3080001EE900ABF
:10313000F8EE611A40EE201A31EE810A22EE000A02
:10314000D1E701EE901ADFED272A1868F8EE611A30
:1031500082EEA12AC0F3080001EE900AF8EE611A8F
:1031600040EE201A31EE810A22EE000ABBE701EEA2
:10317000901A1868F8EE611AC2EE212AC0F308000E
:1031800001EE900AF8EE611A40EE201A31EE810A43
:1031900022EE800AA7E716E0FFE701EE901ADFEDC6
:1031A000122A1868F8EE611A82EEA12AC0F308000C
:1031B00001EE900AF8EE611A40EE201A31EE810A13
:1031C00022EE000A8FE7002030BD000010440258B4
:1031D0000090D0030044025840787D01000000397F
:1031E0000024744A0024744C20BCBE4B2DE9F05FCF
:1031F0000446002C10D02078DFF8EC83FB4FFC4D08
:10320000C0075DD0D8F8000000F0380039681028F9
:103210001FD0182803D006E00120BDE8F09F01F080
:103220000300022815D06068B0F5803F18D0E0B1E7
:10323000B0F5A02F22D0286820F4803028602868BC
:1032400020F480202860606860B3FEF735FC0646F5
:1032500024E02868800333D5606810BB0120DCE7D8
:10326000286840F480302860EDE7286820F480303A
:103270002860286820F480202860E4E7286840F46B
:1032800080202860286840F480302860DBE7FEF763
:1032900013FC801B642801D90320BEE72868800343
:1032A000F5D50DE0FEF708FC064606E0FEF704FC47
:1032B000801B642801D90320AFE728688003F5D478
:1032C000207841F2030ACB4E800777D5D8F800006A
:1032D00000F03800396870B1182801D188070AD089
:1032E000E06880B3296821F0190101432960FEF7E5
:1032F000E3FB814638E02868400701D5E06848B123
:103300002868E16820F0190008432860FEF7D4FB24
:10331000814609E0012080E7FEF7CEFBA0EB090023
:10332000022801D9032078E728684007F4D5FEF782
:10333000BDFB504508D83068216920F47C3040EA54
:10334000013030603AE026E03068217C20F0FE4019
:1033500040EA0160306031E0FEF7AEFBA0EB09000F
:10336000022801D9032058E728684007F4D5FEF762
:103370009DFB504507D83068216920F47C3040EA35
:10338000013030601AE03068217C20F0FE4040EAD5
:103390000160306012E0286820F001002860FEF72C
:1033A0008BFB814607E0FEF787FBA0EB09000228B4
:1033B00001D9032031E728684007F4D42078C006FB
:1033C00070D5D8F8000000F038003968DFF818B27E
:1033D0000828ABF1040B0FD0182803D101F003002B
:1033E000012809D0E06978B3286840F0800028609F
:1033F000FEF762FB814628E02868C00504D5E06935
:10340000802801D0012008E7FEF750FB504508D87E
:10341000306894F8201020F0F84040EA8160306075
:1034200040E0DBF8000094F8201020F07C5040EAE7
:103430000160CBF8000035E0FEF73EFBA0EB090091
:10344000022802D90320E8E61AE02868C005F3D56F
:10345000FEF72CFB504508D8306894F8201020F077
:10346000F84040EA816030601CE0DBF8000094F82E
:10347000201020F07C5040EA0160CBF8000011E001
:10348000286820F080002860FEF716FB064606E05C
:10349000FEF712FB801B022801D90320BDE6286835
:1034A000C005F5D4207800072AD5504E60694C3607
:1034B00098B1306840F001003060FEF7FDFA8146B7
:1034C00007E0FEF7F9FAA0EB0900022801D9032072
:1034D000A3E630688007F4D512E0306820F00100E0
:1034E0003060FEF7E9FA814607E0FEF7E5FAA0EB67
:1034F0000900022801D903208FE630688007F4D440
:103500002078800626D5A06990B1286840F48050C4
:103510002860FEF7D1FA064606E0FEF7CDFA801BDA
:10352000022801D9032078E628688004F5D511E047
:10353000286820F480502860FEF7BEFA064606E0B0
:10354000FEF7BAFA801B022801D9032065E6286835
:103550008004F5D42078400778D5274E306840F4B1
:1035600080703060FEF7A8FA814607E0FEF7A4FA03
:10357000A0EB0900642801D903204EE63068C0059D
:10358000F4D5DFF86890A06809F14809012816D041
:10359000E0B1052832D0D9F8000020F00100C9F8C8
:1035A0000000D9F8000020F00400C9F80000A0686D
:1035B00041F2883AB8B1FEF77FFA064632E0D9F810
:1035C000000040F00100C9F80000F0E7D9F8000061
:1035D00020F00100C9F80000D9F8000020F0040034
:1035E000C9F80000E3E722E01044025828440258DA
:1035F000004402580444025800480258D9F8000018
:1036000040F00400C9F80000D9F8000040F00100C3
:10361000C9F80000CBE7FEF74FFA801B504501D9EF
:103620000320FAE5D9F800008007F4D50EE0FEF794
:1036300043FA064606E0FEF73FFA801B504501D9E3
:103640000320EAE5D9F800008007F4D4606AE8B303
:10365000D8F80010C1F3C201032975D0022807D0A1
:10366000286820F080702860FEF726FA04467EE085
:10367000286820F080702860FEF71EFA064606E0F3
:10368000FEF71AFA801B022801D90320C5E5286835
:103690008001F5D4386840F2F3318843E16A40EAAA
:1036A0000110A16A08433860208E4FF6FF72616BEB
:1036B000401E491EC0F3080002EA41210843218F41
:1036C0004FF4FE02491E02EA014100E052E00843C5
:1036D00094F83C10491E120202EA0161084327498E
:1036E0000860081F016821F0010101602349091DDC
:1036F0000A684FF6F8739A43A36C42EAC3020A6061
:103700000168226C21F00C01114301600168626CB8
:1037100021F0020111430160016841F48031016030
:10372000016841F400310160016841F480210160C9
:10373000016841F001010160286840F08070286054
:10374000FEF7BAF9044607E016E0FEF7B5F9001BEC
:10375000022801D9032060E528688001F5D509E039
:10376000FEF7AAF9001B022801D9032055E52868B5
:103770008001F5D4002050E501204EE53044025888
:10378000024A136883430B431360704704040058D4
:10379000704710B5FFF7FCFF10BD10B50446002CB4
:1037A00003D0D4F8800010B107E0012010BD002044
:1037B00084F87C00204600F028F82420C4F880001B
:1037C0002068016821F001010160204600F028FB1B
:1037D000012818D0A06A10B1204600F08DFA2068A8
:1037E000416821F4904141602068816821F02A01FC
:1037F00081602068016841F0010101602046BDE858
:10380000104000F0DDBA012010BD70472DE9F843EB
:1038100004460E4615461F46D4F88000202802D0E4
:103820000220BDE8F883D6B1CDB194F87C00012820
:1038300017D0012084F87C004FF00008C4F888807D
:103840002120C4F88000FEF737F98146A4F85450CF
:10385000A4F85650A068B0F5805F04D005E00120C0
:10386000DFE70220DDE7206910B13546002615E0CC
:10387000002513E000224B4680212046009701F0EE
:103880006FFD08B10320CCE7B5B1216815F8010B35
:103890008862B4F85600401EA4F85600B4F85600EA
:1038A0000028E7D100224B4640212046009701F036
:1038B00057FD40B10320B4E7216836F8020BC0F38E
:1038C00008008862E5E72020C4F8800084F87C8046
:1038D0000020A6E7FEE7000010B586B00C4801689E
:1038E00041F004010160006800F004000090082429
:1038F00001940120029003900220049001A9054840
:10390000FDF7DCFF03481830046006B010BD00006E
:10391000E0440258000802588068C0F3C0007047B5
:103920008068C0F3000070478068C0F38000704773
:10393000C06810F4406F01D000207047012070472C
:1039400010B501F0007300EBD35043690724C1F3B5
:1039500004518C408A40A3431343436110BDFEE7EA
:10396000704770472DE9F047044688460027DFF886
:103970001491D9F80000C043800709D0414D283D7B
:10398000286820F080602860FEF796F8064609E077
:103990000120BDE8F087FEF78FF8801B022801D9CF
:1039A0000320F6E728680001F5D4D9F80000216863
:1039B00020F47C3040EA0130C9F80000A0884FF6BE
:1039C000FF72A168401E491EC0F3080002EA4121AF
:1039D0000843A1894FF4FE02491E02EA014108434F
:1039E000217C1202491E02EA016108432549103177
:1039F00008602448001D0168626921F0C00111437C
:103A000001600168A26921F0200111430160016891
:103A100021F0100101601B4914310A684FF6F87358
:103A20009A43E36942EAC3020A60016841F0100167
:103A30000160B8F1000F0ED0B8F1010F10D001688D
:103A400041F400110160286840F080602860FEF7B2
:103A500033F8044610E0016841F400210160F2E708
:103A6000016841F480110160EDE7FEF725F8001BC5
:103A7000022801D903208CE728680001F5D53846D3
:103A800087E70000284402582DE9F047044688469D
:103A90000027DFF81491D9F80000C043800709D04F
:103AA000414D283D286820F080502860FEF704F83A
:103AB000064609E00120BDE8F087FDF7FDFF801B09
:103AC000022801D90320F6E728688000F5D4D9F848
:103AD0000000218820F07C7040EA0150C9F8000005
:103AE000A0884FF6FF72A168401E491EC0F308006F
:103AF00002EA41210843A1894FF4FE02491E02EA6D
:103B000001410843217C1202491E02EA0161084377
:103B10002549183108602448001D0168626921F4B4
:103B20004061114301600168A26921F400711143F1
:103B30000160016821F4807101601B491C310A6831
:103B40004FF6F8739A43E36942EAC3020A600168D8
:103B500041F480710160B8F1000F0ED0B8F1010F8F
:103B600010D0016841F080710160286840F08050F9
:103B70002860FDF7A1FF044610E0016841F48001D0
:103B80000160F2E7016841F400010160EDE7FDF733
:103B900093FF001B022801D903208CE728688000CE
:103BA000F5D5384687E700002844025810B50122B1
:103BB0007F201146FDF7C6FFBDE810407F20FDF7CE
:103BC000B4BF704710B5FDF785FFBDE81040FFF7A3
:103BD000E0BD000030B59DB04C210AA8FCF7B2FB57
:103BE000202102A8FCF7AEFB0220FDF7CBFF00244A
:103BF0001E48016841F44041016001681C490A689F
:103C000042F001020A60096801F0010101910168B6
:103C10008904FCD501200A9000040B900220139027
:103C2000149005211591C0211691179018901990A4
:103C300008251A951B941C940AA8FFF7D7FA00B11F
:103C4000FEE73F2002900320039004940595402056
:103C500006900790010108910990042102A8FFF73E
:103C60007FF8002800D0FEE71DB030BD184802588C
:103C70002C0400581C48016841F4700101601B4984
:103C8000086840F001000860184A002010321060F7
:103C90000A68174B1A400A60144A18321060121D45
:103CA0001060121D1060114A28321060121D106041
:103CB000121D1060121D1060121D1060121D106088
:103CC000121D1060121D10600A6822F480220A6022
:103CD000064960310860012006490860C0060249B3
:103CE000803908607047000088ED00E00044025809
:103CF0007FEDF6EA0881005190F82810C90706D038
:103D000001684A68C36A22F400321A434A6090F894
:103D10002810890706D501684A68036B22F48032AF
:103D20001A434A6090F82810490706D501684A6886
:103D3000436B22F480221A434A6090F82810090746
:103D400006D501684A68836B22F400421A434A6030
:103D500090F82810C90606D501688A68C36B22F45A
:103D600080521A438A6090F82810890606D50168A7
:103D70008A68036C22F400521A438A6090F8281073
:103D8000490611D501684A68436C22F480121A432F
:103D90004A60416CB1F5801F06D101684A68836CA6
:103DA00022F4C0021A434A6090F82810090606D58A
:103DB00001684A68C06C22F4002202434A607047DE
:103DC000F8B504460026C4F88860FDF775FE07467E
:103DD000206800686FF07E4500070AD500223B4648
:103DE0004FF400112046009501F0BAFA08B1032003
:103DF000F8BD2068006840070AD500223B464FF412
:103E000080012046009501F0ABFA08B10320F8BD0F
:103E100020207C346060A06026700020F8BD000087
:103E20002DE9F04F87B004464FF000080025002030
:103E3000F74B21682669A268E769324366693E4309
:103E40003243666E16430A68F24F3A4032430A60C4
:103E500021684A68E66822F4405232434A60A16908
:103E600022689A4201D0266A31439668EA4F3E4062
:103E70000E4396602168CA6A666A22F00F023243D6
:103E8000CA62E64E2168E64AB14224D1126802F0C5
:103E90003802182A16D005DC5AB1082A0CD0102A8C
:103EA00004D10CE0202A10D0282A11D04FF0800B2A
:103EB0002AE14FF0010B27E14FF0040B24E14FF012
:103EC000080B21E14FF0100B1EE14FF0200B1BE11E
:103ED0004FF0400B18E1D34EB1421ED1126802F0F0
:103EE0000702062A16D2DFE802F00306090C0F12B9
:103EF0004FF0000B08E14FF0040B05E14FF0080B09
:103F000002E14FF0100BFFE04FF0200BFCE04FF010
:103F1000400BF9E04FF0800BF6E0C34EB1421ED1EA
:103F2000126802F00702062A16D2DFE802F0030642
:103F3000090C0F124FF0000BE6E04FF0040BE3E02A
:103F40004FF0080BE0E04FF0100BDDE04FF0200BDE
:103F5000DAE04FF0400BD7E04FF0800BD4E0B34EE7
:103F6000B1421ED1126802F00702062A16D2DFE81B
:103F700002F00306090C0F124FF0000BC4E04FF0E3
:103F8000040BC1E04FF0080BBEE04FF0100BBBE09C
:103F90004FF0200BB8E04FF0400BB5E04FF0800B36
:103FA000B2E0A34EB1421ED1126802F00702062A07
:103FB00016D2DFE802F00306090C0F124FF0000BD7
:103FC000A2E04FF0040B9FE04FF0080B9CE04FF095
:103FD000100B99E04FF0200B96E04FF0400B93E070
:103FE0004FF0800B90E0934EB14224D1126802F062
:103FF0003802182A16D005DC5AB1082A0CD0102A2B
:1040000004D10CE0202A10D0282A11D04FF0800BC8
:104010007AE04FF0010B77E04FF0040B74E04FF0C3
:10402000080B71E04FF0100B6EE04FF0200B6BE0CF
:104030004FF0400B68E0804EB1421ED1126802F092
:104040000702062A16D2DFE802F00306090C0F1257
:104050004FF0000B58E04FF0040B55E04FF0080B09
:1040600052E04FF0100B4FE04FF0200B4CE04FF0C0
:10407000400B49E04FF0800B46E0704EB1421ED13C
:10408000126802F00702062A16D2DFE802F00306E1
:10409000090C0F124FF0000B36E04FF0040B33E029
:1040A0004FF0080B30E04FF0100B2DE04FF0200BDD
:1040B0002AE04FF0400B27E04FF0800B24E09942BC
:1040C00020D1574A121D126802F00702062A16D2A2
:1040D000DFE802F00306090C0F124FF0020B13E0A9
:1040E0004FF0040B10E04FF0080B0DE04FF0100BF9
:1040F0000AE04FF0200B07E04FF0400B04E04FF0D8
:10410000800B01E04FF0800BDFF834A100279942CB
:104110004FF4807977D1BBF1100F75D009DCBBF17A
:10412000020F19D0BBF1040F4DD0BBF1080F06D11F
:10413000A1E0BBF1200F68D0BBF1400F66D0012594
:10414000002808D0666806EB4601814202D8B0EB31
:10415000063F77D90125EEE3FDF752FD0146606A7F
:10416000C8B1012819D0022819D0032819D0042871
:1041700019D0052819D0062819D0072819D00828E1
:1041800019D0092819D00A2819D00B2819D00120D4
:10419000B1FBF0F0D4E70120FAE70220F8E70420B1
:1041A000F6E70620F4E70820F2E70A20F0E70C2003
:1041B000EEE71020ECE72020EAE74020E8E7802047
:1041C000E6E74846E4E704A8FDF70CFE0599606AB7
:1041D000E8B1012839D0022839D0032839D0042881
:1041E00039D0052839D0062839D0072839D00828F1
:1041F00039D0092839D00A2839D00B2839D00120E4
:10420000B1FBF0F09CE7AEE36DE0DDE011E11AE018
:10421000000C0058F369FFCFFFF4FF1100100140BC
:10422000544402580044004000480040004C004004
:10423000005000400014014000780040007C004025
:104240000090D0032BE10120DAE70220D8E7042018
:10425000D6E70620D4E70820D2E70A20D0E70C20D2
:10426000CEE71020CCE72020CAE74020C8E7802016
:10427000C6E74846C4E701A8FDF794FE0299606AC4
:10428000C8B1012819D0022819D0032819D0042850
:1042900019D0052819D0062819D0072819D00828C0
:1042A00019D0092819D00A2819D00B2819D00120B3
:1042B000B1FBF0F044E70120FAE70220F8E7042020
:1042C000F6E70620F4E70820F2E70A20F0E70C20E2
:1042D000EEE71020ECE72020EAE74020E8E7802026
:1042E000E6E74846E4E7F7480168890638D50068FC
:1042F000C0F3C1002AFA00F1606AC8B1012819D0E0
:10430000022819D0032819D0042819D0052819D05B
:10431000062819D0072819D0082819D0092819D03B
:104320000A2819D00B2819D00120B1FBF0F007E7BB
:104330000120FAE70220F8E70420F6E70620F4E778
:104340000820F2E70A20F0E70C20EEE71020ECE767
:104350002020EAE74020E8E78020E6E74846E4E757
:10436000606AC8B1012819D0022819D0032819D0D1
:10437000042819D0052819D0062819D0072819D0E3
:10438000082819D0092819D00A2819D00B2819D0C3
:104390000120BAFBF0F0D3E60120FAE70220F8E7AB
:1043A0000420F6E70620F4E70820F2E70A20F0E709
:1043B0000C20EEE71020ECE72020EAE74020E8E7B9
:1043C0008020E6E74846E4E7606AD0B101281AD0C9
:1043D00002281AD003281AD004281AD005281AD087
:1043E00006281AD007281AD008281AD009281AD067
:1043F0000A281AD00B281AD00120B349B1FBF0F0DB
:104400009EE60120F9E70220F7E70420F5E7062001
:10441000F3E70820F1E70A20EFE70C20EDE7102092
:10442000EBE72020E9E74020E7E78020E5E7484682
:10443000E3E7606AD8B101281BD002281BD003280B
:104440001BD004281BD005281BD006281BD007280A
:104450001BD008281BD009281BD00A281BD00B28EA
:104460001BD001204FF40041B1FBF0F068E60120C1
:10447000F8E70220F6E70420F4E70620F2E7082038
:10448000F0E70A20EEE70C20ECE71020EAE7202016
:10449000E8E74020E6E78020E4E74846E2E7BBF1B2
:1044A000100F7DD009DCBBF1020F16D0BBF1040F59
:1044B00064D0BBF1080F06D1B8E0BBF1200F70D07B
:1044C000BBF1400F6ED001258049A8F540708842AD
:1044D00069D82068C0F80C802DE2FDF791FB0146F9
:1044E000606A50B301282BD002282CD003282DD08D
:1044F00004282ED005282FD0062830D0072831D008
:10450000082832D0092833D00A2834D00B2801D00B
:104510004FF00109084600234A461946FBF7DAFE28
:1045200062680902030241EA1061500818187941D3
:104530000023FBF7CFFE8046C6E74FF00109E9E70D
:104540004FF00209E6E74FF00409E3E74FF00609F0
:10455000E0E74FF00809DDE74FF00A09DAE74FF02E
:104560000C09D7E74FF01009D4E74FF02009D1E745
:104570004FF04009CEE74FF08009CBE704A8FDF7E4
:1045800031FC0599606A78B3012831D0022832D015
:10459000032833D0042834D0052835D0062803E07A
:1045A0009CE040E18DE1DCE131D0072832D00828E1
:1045B00033D0092834D00A2835D00B2801D04FF049
:1045C0000109084600234A461946FBF783FE626844
:1045D0000902030241EA10615008181879410023CA
:1045E000FBF778FE80466FE7FFE74FF00109E8E749
:1045F0004FF00209E5E74FF00409E2E74FF0060942
:10460000DFE74FF00809DCE74FF00A09D9E74FF080
:104610000C09D6E74FF01009D3E74FF02009D0E797
:104620004FF04009CDE74FF08009CAE701A8FDF738
:10463000B9FC0299606A50B301282BD002282CD013
:1046400003282DD004282ED005282FD0062830D0BE
:10465000072831D0082832D0092839D00A283AD082
:104660000B2801D04FF00109084600234A4619469D
:10467000FBF730FE62680902030241EA106150084C
:10468000181879410023FBF725FE80461CE74FF000
:104690000109E9E74FF00209E6E74FF00409E3E713
:1046A0004FF00609E0E74FF00809DDE74FF00A098F
:1046B000DAE74FF00C09D7E74FF01009D4E74FF0D5
:1046C0002009D1E70044025800093D00FFFC0F001B
:1046D0004FF04009C8E74FF08009C5E7F748016887
:1046E000890652D50068C0F3C1002AFA00FA606A50
:1046F00050B301282BD002282CD003282DD0042819
:104700002ED005282FD0062830D0072831D00828F1
:1047100032D0092833D00A2834D00B2801D04FF0EA
:104720000109504600234A461946FBF7D3FD09020A
:10473000020241EA106170081018324679410023E4
:10474000FBF7C8FD8046BFE64FF00109E9E74FF0EF
:104750000209E6E74FF00409E3E74FF00609E0E756
:104760004FF00809DDE74FF00A09DAE74FF00C09CE
:10477000D7E74FF01009D4E74FF02009D1E74FF009
:104780004009CEE74FF08009CBE7606A50B30128BB
:104790002BD002282CD003282DD004282ED0052879
:1047A0002FD0062830D0072831D0082832D0092849
:1047B00033D00A2834D00B2801D04FF001095046DD
:1047C00000234A461946FBF785FD0902020241EA29
:1047D000106170081018324679410023FBF77AFD0A
:1047E000804671E64FF00109E9E74FF00209E6E77C
:1047F0004FF00409E3E74FF00609E0E74FF008093E
:10480000DDE74FF00A09DAE74FF00C09D7E74FF080
:104810001009D4E74FF02009D1E74FF04009CEE767
:104820004FF08009CBE7606A50B301282BD00228F3
:104830002CD003282DD004282ED005282FD00628D0
:1048400030D0072831D0082832D0092833D00A28A0
:1048500034D00B2801D04FF00109994800234A4673
:104860001946FBF737FD0902020241EA10617008A0
:104870001018324679410023FBF72CFD804623E6D1
:104880004FF00109E9E74FF00209E6E74FF00409AC
:10489000E3E74FF00609E0E74FF00809DDE74FF0E6
:1048A0000A09DAE74FF00C09D7E74FF01009D4E70F
:1048B0004FF02009D1E74FF04009CEE74FF08009D3
:1048C000CBE7606A58B301282CD002282DD00328EA
:1048D0002ED0042830D0052831D0062832D0072821
:1048E00033D0082834D0092835D00A2836D00B28F0
:1048F00001D04FF0010900234A464FF40040194609
:10490000FBF7E8FC0902020241EA10617008101886
:10491000324679410023FBF7DDFC8046D4E54FF0B9
:104920000109E8E74FF00209E5E74FF00409E2E783
:104930004FF00609DFE797E24FF00809DBE74FF099
:104940000A09D8E74FF00C09D5E74FF01009D2E774
:104950004FF02009CFE74FF04009CCE74FF0800936
:10496000C9E7012580E2E0694FF400414FF6EF7698
:1049700088426ED1BBF1080F6CD009DCBBF1000F8F
:104980001ED0BBF1010F66D0BBF1040F09D1B4E01A
:10499000BBF1100F7DD0BBF1200F7BD0BBF1400FDE
:1049A00079D00125A8F11000B04275D84FF6F0710A
:1049B00008EA0100C8F3420108432168C86053E2D5
:1049C000FEF716FB0146606A10B3012823D00228C7
:1049D00024D0032825D0042826D0052827D006284F
:1049E00028D0072829D008282AD009282BD00A281F
:1049F0002CD00B2801D04FF00109B1FBF9F0410098
:104A0000606801EB5001B1FBF0F01FFA80F8C9E7D4
:104A10004FF00109F1E74FF00209EEE74FF004090A
:104A2000EBE74FF00609E8E74FF00809E5E74FF03C
:104A30000A09E2E74FF00C09DFE74FF01009DCE765
:104A40004FF02009D9E74FF04009D6E74FF0800931
:104A5000D3E70AE29BE0FEF7DDFA0146606A38B36D
:104A6000012828D002282DD003282ED004282FD0AA
:104A7000052830D0062831D0072832D0082833D076
:104A8000092834D00A2835D00B2801D04FF001096D
:104A900003E0C6E05AE1A0E1E5E1B1FBF9F0410035
:104AA000606801EB5001B1FBF0F01FFA80F879E784
:104AB0004FF00109ECE74FF00209E9E70044025822
:104AC00000093D004FF00409E2E74FF00609DFE777
:104AD0004FF00809DCE74FF00A09D9E74FF00C095D
:104AE000D6E74FF01009D3E74FF02009D0E74FF099
:104AF0004009CDE74FF08009CAE704A8FDF772F935
:104B00000599606A10B3012823D0022824D0032815
:104B100025D0042826D0052827D0062828D0072805
:104B200029D008282AD009282BD00A282CD00B28D5
:104B300001D04FF00109B1FBF9F04100606801EBD1
:104B40005001B1FBF0F01FFA80F82BE74FF001099C
:104B5000F1E74FF00209EEE74FF00409EBE74FF001
:104B60000609E8E74FF00809E5E74FF00A09E2E730
:104B70004FF00C09DFE74FF01009DCE74FF0200998
:104B8000D9E74FF04009D6E74FF08009D3E701A8F5
:104B9000FDF708FA0299606A10B3012823D00228B1
:104BA00024D0032825D0042826D0052827D006287D
:104BB00028D0072829D008282AD009282BD00A284D
:104BC0002CD00B2801D04FF00109B1FBF9F04100C6
:104BD000606801EB5001B1FBF0F01FFA80F8E1E6EC
:104BE0004FF00109F1E74FF00209EEE74FF0040939
:104BF000EBE74FF00609E8E74FF00809E5E74FF06B
:104C00000A09E2E74FF00C09DFE74FF01009DCE793
:104C10004FF02009D9E74FF04009D6E74FF080095F
:104C2000D3E7FE48016889064AD50068C0F3C10091
:104C30002AFA00FA606A10B3012823D0022824D08F
:104C4000032825D0042826D0052827D0062828D0D8
:104C5000072829D008282AD009282BD00A282CD0A8
:104C60000B2801D04FF00109BAFBF9F04100606850
:104C700001EB5001B1FBF0F01FFA80F892E64FF023
:104C80000109F1E74FF00209EEE74FF00409EBE705
:104C90004FF00609E8E74FF00809E5E74FF00A0989
:104CA000E2E74FF00C09DFE74FF01009DCE74FF0C7
:104CB0002009D9E74FF04009D6E74FF08009D3E744
:104CC000606A10B3012823D0022824D0032825D0FD
:104CD000042826D0052827D0062828D0072829D040
:104CE00008282AD009282BD00A282CD00B2801D03C
:104CF0004FF00109BAFBF9F04100606801EB500187
:104D0000B1FBF0F01FFA80F84CE64FF00109F1E733
:104D10004FF00209EEE74FF00409EBE74FF0060908
:104D2000E8E74FF00809E5E74FF00A09E2E74FF03E
:104D30000C09DFE74FF01009DCE74FF02009D9E755
:104D40004FF04009D6E74FF08009D3E7606A18B307
:104D5000012824D0022825D0032826D0042827D0D3
:104D6000052828D0062829D007282AD008282BD0A3
:104D700009282CD00A282DD00B2801D04FF001098A
:104D8000A748B0FBF9F04100606801EB5001B1FBAE
:104D9000F0F01FFA80F805E64FF00109F0E74FF058
:104DA0000209EDE74FF00409EAE74FF00609E7E7EB
:104DB0004FF00809E4E74FF00A09E1E74FF00C096A
:104DC000DEE74FF01009DBE74FF02009D8E74FF09E
:104DD0004009D5E74FF08009D2E7606A10B3012897
:104DE00023D0022824D0032825D0042826D0052843
:104DF00027D0062828D0072829D008282AD0092813
:104E00002BD00A282CD00B2801D04FF00109B1FB80
:104E1000F9F04100606801EB5001B1FBF0F01FFABE
:104E200080F8BFE54FF00109F1E74FF00209EEE726
:104E30004FF00409EBE74FF00609E8E74FF00809E7
:104E4000E5E74FF00A09E2E74FF00C09DFE74FF022
:104E50001009DCE74FF02009D9E74FF04009D6E709
:104E60004FF08009D3E701256CE2BBF1080F7DD03C
:104E700009DCBBF1000F18D0BBF1010F5DD0BBF115
:104E8000040F09D1A7E0BBF1100F70D0BBF1200FC8
:104E90006ED0BBF1400F6CD00125A8F11000B042DC
:104EA00068D82068C0F80C804CE2FEF7A1F80146F3
:104EB000606A08B3012822D0022823D0032824D016
:104EC000042825D0052826D0062827D0072828D052
:104ED000082829D009282AD00A282BD00B2801D04D
:104EE0004FF001096068B1FBF9F101EB5001B1FB32
:104EF000F0F01FFA80F8D0E74FF00109F2E74FF029
:104F00000209EFE74FF00409ECE74FF00609E9E783
:104F10004FF00809E6E74FF00A09E3E74FF00C0904
:104F2000E0E74FF01009DDE74FF02009DAE74FF036
:104F30004009D7E74FF08009D4E7FEF76BF8014648
:104F4000606A38B3012828D0022829D003282AD043
:104F500004282BD005282CD006282DD007282ED0A9
:104F600008282FD0092830D00A2804E082E0CAE0BF
:104F70005CE1A1E1E5E12BD00B2801D04FF0010964
:104F80006068B1FBF9F101EB5001B1FBF0F01FFAE1
:104F900080F882E74FF00109F2E74FF00209EFE7EE
:104FA0004FF00409ECE74FF00609E9E74FF0080974
:104FB000E6E74FF00A09E3E74FF00C09E0E74FF0AE
:104FC0001009DDE74FF02009DAE74FF04009D7E795
:104FD0004FF08009D4E704A8FCF704FF0599606A44
:104FE000D8B1012828D0022829D003282AD00428A3
:104FF0002BD005282CD006282DD007282ED0082805
:105000002FD0092830D00A2831D00B2801D04FF0FA
:1050100001096068B1FBF9F104E00AE000440258BC
:1050200000093D0001EB5001B1FBF0F01FFA80F8E0
:1050300033E74FF00109ECE74FF00209E9E74FF0E1
:105040000409E6E74FF00609E3E74FF00809E0E757
:105050004FF00A09DDE74FF00C09DAE74FF01009CD
:10506000D7E74FF02009D4E74FF04009D1E74FF0E0
:105070008009CEE701A8FCF795FF0299606A08B3A2
:10508000012822D0022823D0032824D0042825D0A8
:10509000052826D0062827D0072828D0082829D078
:1050A00009282AD00A282BD00B2801D04FF001095B
:1050B0006068B1FBF9F101EB5001B1FBF0F01FFAB0
:1050C00080F8EAE64FF00109F2E74FF00209EFE756
:1050D0004FF00409ECE74FF00609E9E74FF0080943
:1050E000E6E74FF00A09E3E74FF00C09E0E74FF07D
:1050F0001009DDE74FF02009DAE74FF04009D7E764
:105100004FF08009D4E794480168890649D50068C2
:10511000C0F3C1002AFA00FA606A08B3012822D05D
:10512000022823D0032824D0042825D0052826D0FF
:10513000062827D0072828D0082829D009282AD0CF
:105140000A282BD00B2801D04FF001096068BAFB68
:10515000F9F101EB5001B1FBF0F01FFA80F89CE689
:105160004FF00109F2E74FF00209EFE74FF00409B1
:10517000ECE74FF00609E9E74FF00809E6E74FF0E2
:105180000A09E3E74FF00C09E0E74FF01009DDE70B
:105190004FF02009DAE74FF04009D7E74FF08009D8
:1051A000D4E7606A08B3012822D0022823D003285C
:1051B00024D0042825D0052826D0062827D0072863
:1051C00028D0082829D009282AD00A282BD00B2833
:1051D00001D04FF001096068BAFBF9F101EB500111
:1051E000B1FBF0F01FFA80F857E64FF00109F2E743
:1051F0004FF00209EFE74FF00409ECE74FF0060922
:10520000E9E74FF00809E6E74FF00A09E3E74FF056
:105210000C09E0E74FF01009DDE74FF02009DAE76D
:105220004FF04009D7E74FF08009D4E7606A10B328
:10523000012823D0022824D0032825D0042826D0F2
:10524000052827D0062828D0072829D008282AD0C2
:1052500009282BD00A282CD00B2801D04FF00109A7
:105260003E48B0FBF9F1606801EB5001B1FBF0F092
:105270001FFA80F811E64FF00109F1E74FF002093B
:10528000EEE74FF00409EBE74FF00609E8E74FF0CF
:105290000809E5E74FF00A09E2E74FF00C09DFE7FC
:1052A0004FF01009DCE74FF02009D9E74FF0400933
:1052B000D6E74FF08009D3E7606A08B3012822D00F
:1052C000022823D0032824D0042825D0052826D05E
:1052D000062827D0072828D0082829D009282AD02E
:1052E0000A282BD00B2801D04FF001096068B1FBD0
:1052F000F9F101EB5001B1FBF0F01FFA80F8CCE5B9
:105300004FF00109F2E74FF00209EFE74FF004090F
:10531000ECE74FF00609E9E74FF00809E6E74FF040
:105320000A09E3E74FF00C09E0E74FF01009DDE769
:105330004FF02009DAE74FF04009D7E74FF0800936
:10534000D4E7012501206834608020806760A76071
:1053500007B02846BDE8F08F0044025800093D0020
:105360002DE9F04704460E4617469846089D4FF033
:10537000000A4FF020093BE0681C39D0FCF79CFB89
:10538000A0EB0800A84221D805B3206801684907AE
:105390002ED5C069C04300052AD421684FF40060AF
:1053A00008622068016821F4D0710160206881687A
:1053B00021F001018160C4F88090C4F88490C4F8A1
:1053C000889084F87CA00320BDE8F08720680168FD
:1053D00021F4D07101602068816821F001018160B1
:1053E000C4F88090C4F8849084F87CA00320EBE794
:1053F0002068C06936EA000004D00020B842BBD063
:105400000020E1E70120F9E77047FEE70FB4054B04
:1054100010B503A9044A029800F0EAF810BC5DF840
:1054200014FB0000F95C00081C0000200907090EAD
:10543000002804DB00F1E02080F80014704700F041
:105440000F0000F1E02080F8141D704702E008C84A
:10545000121F08C1002AFAD170477047002001E0EE
:1054600001C1121F002AFBD1704700002DE9FF5F28
:1054700082B00021DDE90430020DDDF840B00343C5
:1054800018D044F61050A2F2FF324243151411987E
:1054900001281FD0A5EB0B00401C5FEA000A4FF06B
:1054A00000064E4FDFF83891B046504615D5CAF188
:1054B000000413E0119801244AA3012801D16FEAE6
:1054C0000B010298119AC0E90031C0E9024206B00E
:1054D000BDE8F09FCBF10000DFE704460021404A21
:1054E000491842EB0450CDE9001012E0E00707D064
:1054F00032463B4640464946FBF70BF88046894614
:1055000032463B4610461946FBF703F806460F465F
:105510006410002CEAD1DDE90401DDE90023BAF1D1
:10552000000F06DAFAF7F5FF42464B46FAF7F1FFAD
:1055300005E0FBF760F842464B46FBF75CF8044693
:105540000E460022284BFBF7DDF803D84FF0FF3062
:10555000014607E00022254B20463146FAF732FF8C
:10556000FBF7B8F8102409E0002C0ADB0A2200231C
:10557000FAF7B0FE039B30321A55641E50EA01025E
:10558000F2D1641C039AC4F111031444119A012A44
:1055900003D0012208430DD10AE0084304D00020C3
:1055A0004FF0110B119072E7A3EB0B056D1E0DE090
:1055B0005B4504DD4FF0000205F1010504E003DA6C
:1055C0004FF00002A5F10105002AECD002981199D4
:1055D000C0E90231C0E9004579E70000000014404D
:1055E0000000F03F300000000000F0430000E03F0A
:1055F0002DE9FF4F95B09A46884606460025EEE114
:10560000252877D100242746F94A0121039400E098
:10561000044316F8013F203B01FA03F01042F7D192
:1056200030782A2811D06FF02F033078A0F13002A3
:10563000092A16D8039A44F0020402EB820203EB13
:1056400042021044761C0390EFE758F8042B0392B3
:10565000002A03DA504244F40054039044F0020458
:10566000761C30782E2816D116F8010F44F0040469
:105670002A280DD06FF02F023078A0F13003092BCB
:1056800009D807EB870302EB4303C718761CF3E73F
:1056900058F8047B761C30786C280FD006DC4C2838
:1056A00017D068280DD06A2814D104E0742810D0CF
:1056B0007A280FD10DE044F400140AE044F4801479
:1056C00001E044F440147278824202D104F580145F
:1056D000761C761C307866280BD013DC582877D0DF
:1056E00009DC002875D04528F6D04628F4D0472894
:1056F0001AD193E118E0632835D0642879D0652861
:1057000012D18BE1702873D008DC6728F1D06928AA
:105710006FD06E280DD06F2806D1ACE073282CD046
:10572000752874D0782853D05246179990476D1C2D
:1057300054E1C4F30250022809D003280DD0D8F850
:10574000001004280DD00D6008F1040846E1D8F8D7
:105750000010EA17C1E90052F6E7D8F800100D80F2
:10576000F2E70D70F0E718F8041B8DF80010002028
:105770008DF80100EB46012003E058F804BB4FF020
:10578000FF3061074FF0000102D40DE009F1010183
:105790008946B9420FDA8145F8DB1BF80910002968
:1057A000F4D108E009F1010189468142FADB1BF8D6
:1057B00009100029F6D103985346A0EB09072146AA
:1057C0003846179A00F080FA284400EB090507E0F4
:1057D00044E008E10DE01BF8010B52461799904791
:1057E000B9F10109F7D2534621463846179AF2E03B
:1057F00039E00A21C4F302524FF0000B0091022A53
:1058000006D058F8040BC117032A09D00AE023E098
:1058100008F1070020F00702F2E80201904605E0D7
:1058200000B2C117042A01D140B2C117002906DA1B
:105830000A460021404261EB02012D2202E02205CE
:1058400004D52B228DF80420012203E0E20701D0C9
:105850002022F7E7914657E00A2100E010214FF09F
:10586000000B00910BE010214FF0000B44F00404FA
:105870000827009103E008204FF0000B0090C4F3CC
:105880000252022A05D058F8040B0021032A08D03E
:1058900008E008F1070020F00702F2E80201904654
:1058A00003E080B2042A00D1C0B24FF00009220701
:1058B0002AD53278702A07D0DDF800C08CF0100CA1
:1058C0005CEA0B0C05D00EE040228DF8042001228A
:1058D00008E050EA010306D030238DF804308DF83B
:1058E000052002229146009B83F0080353EA0B0334
:1058F0000AD150EA010201D1620705D530228DF8A4
:1059000004204FF001097F1E3278582A04D039A2B2
:105910000C920CAA02920BE03BA2F9E75B46009ABC
:10592000FAF7D8FC0C9B9B5C029A521E02921370F1
:1059300050EA0102F2D1029804A9081A00F1200BE2
:10594000600702D524F4803400E001275F4502DDC2
:10595000A7EB0B0000E0002000EB0B010090039888
:105960004944401A0390E00306D453462146179A4F
:10597000039800F0A9F90544002706E001A8524663
:10598000C05D179990476D1C7F1C4F45F6DBE00307
:105990000CD553462146179A039800F095F9054413
:1059A00004E030205246179990476D1C0099481E1C
:1059B00000900029F5DC08E0029802995246007830
:1059C000491C0291179990476D1CBBF10001ABF186
:1059D000010BF1DC5BE100F065F90544761C3078E1
:1059E00000287FF40DAE19B02846BDE8F08F000006
:1059F00009280100303132333435363738396162A5
:105A00006364656600000000303132333435363768
:105A1000383941424344454600000000600700D445
:105A2000062708F1070020F00700F0E8022380466F
:105A300003F0004C5FEA0C0001D097A009E02005BC
:105A400001D596A005E0E00701D095A001E0AFF2F6
:105A50004C001390307823F0004365280CD006DC0E
:105A6000452809D046281DD047287FD13BE066282D
:105A700018D067287AD136E00021112F01DB1120E0
:105A800000E0781CCDE9000104A90CA8FFF7EEFCAA
:105A9000DDE90D010C9A4FF0000B07F1010910929E
:105AA00000914EE04FF000400097CDE9011004A9AD
:105AB0000CA8FFF7DBFCDDE90D020C9B0F994FF002
:105AC000000B91461093009211B9791C00EB01096B
:105AD000B7EB090003D4C0F1FF3B07F10109A9EBC3
